{
  "_format": "hh-sol-artifact-1",
  "contractName": "HashRegistry",
  "sourceName": "contracts/storage/HashRegistry.sol",
  "abi": [
    {
      "inputs": [],
      "stateMutability": "nonpayable",
      "type": "constructor"
    },
    {
      "anonymous": false,
      "inputs": [
        {
          "indexed": true,
          "internalType": "bytes32",
          "name": "batchId",
          "type": "bytes32"
        },
        {
          "indexed": false,
          "internalType": "bytes32",
          "name": "merkleRoot",
          "type": "bytes32"
        },
        {
          "indexed": false,
          "internalType": "uint256",
          "name": "size",
          "type": "uint256"
        }
      ],
      "name": "BatchRegistered",
      "type": "event"
    },
    {
      "anonymous": false,
      "inputs": [
        {
          "indexed": true,
          "internalType": "bytes32",
          "name": "contentId",
          "type": "bytes32"
        },
        {
          "indexed": false,
          "internalType": "bytes32",
          "name": "contentHash",
          "type": "bytes32"
        },
        {
          "indexed": false,
          "internalType": "address",
          "name": "registrar",
          "type": "address"
        }
      ],
      "name": "HashRegistered",
      "type": "event"
    },
    {
      "anonymous": false,
      "inputs": [
        {
          "indexed": true,
          "internalType": "bytes32",
          "name": "contentId",
          "type": "bytes32"
        },
        {
          "indexed": false,
          "internalType": "bytes32",
          "name": "contentHash",
          "type": "bytes32"
        },
        {
          "indexed": false,
          "internalType": "bool",
          "name": "verified",
          "type": "bool"
        }
      ],
      "name": "HashVerified",
      "type": "event"
    },
    {
      "anonymous": false,
      "inputs": [
        {
          "indexed": false,
          "internalType": "address",
          "name": "account",
          "type": "address"
        }
      ],
      "name": "Paused",
      "type": "event"
    },
    {
      "anonymous": false,
      "inputs": [
        {
          "indexed": true,
          "internalType": "bytes32",
          "name": "role",
          "type": "bytes32"
        },
        {
          "indexed": true,
          "internalType": "bytes32",
          "name": "previousAdminRole",
          "type": "bytes32"
        },
        {
          "indexed": true,
          "internalType": "bytes32",
          "name": "newAdminRole",
          "type": "bytes32"
        }
      ],
      "name": "RoleAdminChanged",
      "type": "event"
    },
    {
      "anonymous": false,
      "inputs": [
        {
          "indexed": true,
          "internalType": "bytes32",
          "name": "role",
          "type": "bytes32"
        },
        {
          "indexed": true,
          "internalType": "address",
          "name": "account",
          "type": "address"
        },
        {
          "indexed": true,
          "internalType": "address",
          "name": "sender",
          "type": "address"
        }
      ],
      "name": "RoleGranted",
      "type": "event"
    },
    {
      "anonymous": false,
      "inputs": [
        {
          "indexed": true,
          "internalType": "bytes32",
          "name": "role",
          "type": "bytes32"
        },
        {
          "indexed": true,
          "internalType": "address",
          "name": "account",
          "type": "address"
        },
        {
          "indexed": true,
          "internalType": "address",
          "name": "sender",
          "type": "address"
        }
      ],
      "name": "RoleRevoked",
      "type": "event"
    },
    {
      "anonymous": false,
      "inputs": [
        {
          "indexed": false,
          "internalType": "address",
          "name": "account",
          "type": "address"
        }
      ],
      "name": "Unpaused",
      "type": "event"
    },
    {
      "inputs": [],
      "name": "ADMIN_ROLE",
      "outputs": [
        {
          "internalType": "bytes32",
          "name": "",
          "type": "bytes32"
        }
      ],
      "stateMutability": "view",
      "type": "function"
    },
    {
      "inputs": [],
      "name": "DEFAULT_ADMIN_ROLE",
      "outputs": [
        {
          "internalType": "bytes32",
          "name": "",
          "type": "bytes32"
        }
      ],
      "stateMutability": "view",
      "type": "function"
    },
    {
      "inputs": [],
      "name": "HASHER_ROLE",
      "outputs": [
        {
          "internalType": "bytes32",
          "name": "",
          "type": "bytes32"
        }
      ],
      "stateMutability": "view",
      "type": "function"
    },
    {
      "inputs": [
        {
          "internalType": "bytes32",
          "name": "",
          "type": "bytes32"
        }
      ],
      "name": "batchEntries",
      "outputs": [
        {
          "internalType": "bytes32",
          "name": "batchId",
          "type": "bytes32"
        },
        {
          "internalType": "bytes32",
          "name": "merkleRoot",
          "type": "bytes32"
        },
        {
          "internalType": "uint256",
          "name": "timestamp",
          "type": "uint256"
        },
        {
          "internalType": "uint256",
          "name": "size",
          "type": "uint256"
        }
      ],
      "stateMutability": "view",
      "type": "function"
    },
    {
      "inputs": [
        {
          "internalType": "bytes32",
          "name": "_batchId",
          "type": "bytes32"
        }
      ],
      "name": "getBatchEntry",
      "outputs": [
        {
          "components": [
            {
              "internalType": "bytes32",
              "name": "batchId",
              "type": "bytes32"
            },
            {
              "internalType": "bytes32",
              "name": "merkleRoot",
              "type": "bytes32"
            },
            {
              "internalType": "uint256",
              "name": "timestamp",
              "type": "uint256"
            },
            {
              "internalType": "uint256",
              "name": "size",
              "type": "uint256"
            }
          ],
          "internalType": "struct HashRegistry.BatchEntry",
          "name": "",
          "type": "tuple"
        }
      ],
      "stateMutability": "view",
      "type": "function"
    },
    {
      "inputs": [
        {
          "internalType": "bytes32",
          "name": "_contentId",
          "type": "bytes32"
        }
      ],
      "name": "getHashEntry",
      "outputs": [
        {
          "components": [
            {
              "internalType": "bytes32",
              "name": "contentHash",
              "type": "bytes32"
            },
            {
              "internalType": "bytes32",
              "name": "metadataHash",
              "type": "bytes32"
            },
            {
              "internalType": "uint256",
              "name": "timestamp",
              "type": "uint256"
            },
            {
              "internalType": "address",
              "name": "registrar",
              "type": "address"
            },
            {
              "internalType": "bytes32",
              "name": "merkleRoot",
              "type": "bytes32"
            },
            {
              "internalType": "bool",
              "name": "isValid",
              "type": "bool"
            }
          ],
          "internalType": "struct HashRegistry.HashEntry",
          "name": "",
          "type": "tuple"
        }
      ],
      "stateMutability": "view",
      "type": "function"
    },
    {
      "inputs": [
        {
          "internalType": "bytes32",
          "name": "role",
          "type": "bytes32"
        }
      ],
      "name": "getRoleAdmin",
      "outputs": [
        {
          "internalType": "bytes32",
          "name": "",
          "type": "bytes32"
        }
      ],
      "stateMutability": "view",
      "type": "function"
    },
    {
      "inputs": [
        {
          "internalType": "bytes32",
          "name": "role",
          "type": "bytes32"
        },
        {
          "internalType": "address",
          "name": "account",
          "type": "address"
        }
      ],
      "name": "grantRole",
      "outputs": [],
      "stateMutability": "nonpayable",
      "type": "function"
    },
    {
      "inputs": [
        {
          "internalType": "bytes32",
          "name": "role",
          "type": "bytes32"
        },
        {
          "internalType": "address",
          "name": "account",
          "type": "address"
        }
      ],
      "name": "hasRole",
      "outputs": [
        {
          "internalType": "bool",
          "name": "",
          "type": "bool"
        }
      ],
      "stateMutability": "view",
      "type": "function"
    },
    {
      "inputs": [
        {
          "internalType": "bytes32",
          "name": "",
          "type": "bytes32"
        }
      ],
      "name": "hashEntries",
      "outputs": [
        {
          "internalType": "bytes32",
          "name": "contentHash",
          "type": "bytes32"
        },
        {
          "internalType": "bytes32",
          "name": "metadataHash",
          "type": "bytes32"
        },
        {
          "internalType": "uint256",
          "name": "timestamp",
          "type": "uint256"
        },
        {
          "internalType": "address",
          "name": "registrar",
          "type": "address"
        },
        {
          "internalType": "bytes32",
          "name": "merkleRoot",
          "type": "bytes32"
        },
        {
          "internalType": "bool",
          "name": "isValid",
          "type": "bool"
        }
      ],
      "stateMutability": "view",
      "type": "function"
    },
    {
      "inputs": [
        {
          "internalType": "bytes32",
          "name": "_contentId",
          "type": "bytes32"
        }
      ],
      "name": "invalidateHash",
      "outputs": [],
      "stateMutability": "nonpayable",
      "type": "function"
    },
    {
      "inputs": [
        {
          "internalType": "bytes32",
          "name": "_contentId",
          "type": "bytes32"
        },
        {
          "internalType": "bytes32",
          "name": "_contentHash",
          "type": "bytes32"
        }
      ],
      "name": "isHashVerified",
      "outputs": [
        {
          "internalType": "bool",
          "name": "",
          "type": "bool"
        }
      ],
      "stateMutability": "view",
      "type": "function"
    },
    {
      "inputs": [],
      "name": "pause",
      "outputs": [],
      "stateMutability": "nonpayable",
      "type": "function"
    },
    {
      "inputs": [],
      "name": "paused",
      "outputs": [
        {
          "internalType": "bool",
          "name": "",
          "type": "bool"
        }
      ],
      "stateMutability": "view",
      "type": "function"
    },
    {
      "inputs": [
        {
          "internalType": "bytes32",
          "name": "_batchId",
          "type": "bytes32"
        },
        {
          "internalType": "bytes32[]",
          "name": "_contentIds",
          "type": "bytes32[]"
        },
        {
          "internalType": "bytes32[]",
          "name": "_contentHashes",
          "type": "bytes32[]"
        },
        {
          "internalType": "bytes32[]",
          "name": "_metadataHashes",
          "type": "bytes32[]"
        }
      ],
      "name": "registerBatch",
      "outputs": [],
      "stateMutability": "nonpayable",
      "type": "function"
    },
    {
      "inputs": [
        {
          "internalType": "bytes32",
          "name": "_contentId",
          "type": "bytes32"
        },
        {
          "internalType": "bytes32",
          "name": "_contentHash",
          "type": "bytes32"
        },
        {
          "internalType": "bytes32",
          "name": "_metadataHash",
          "type": "bytes32"
        }
      ],
      "name": "registerHash",
      "outputs": [],
      "stateMutability": "nonpayable",
      "type": "function"
    },
    {
      "inputs": [
        {
          "internalType": "bytes32",
          "name": "role",
          "type": "bytes32"
        },
        {
          "internalType": "address",
          "name": "account",
          "type": "address"
        }
      ],
      "name": "renounceRole",
      "outputs": [],
      "stateMutability": "nonpayable",
      "type": "function"
    },
    {
      "inputs": [
        {
          "internalType": "bytes32",
          "name": "role",
          "type": "bytes32"
        },
        {
          "internalType": "address",
          "name": "account",
          "type": "address"
        }
      ],
      "name": "revokeRole",
      "outputs": [],
      "stateMutability": "nonpayable",
      "type": "function"
    },
    {
      "inputs": [
        {
          "internalType": "bytes4",
          "name": "interfaceId",
          "type": "bytes4"
        }
      ],
      "name": "supportsInterface",
      "outputs": [
        {
          "internalType": "bool",
          "name": "",
          "type": "bool"
        }
      ],
      "stateMutability": "view",
      "type": "function"
    },
    {
      "inputs": [],
      "name": "unpause",
      "outputs": [],
      "stateMutability": "nonpayable",
      "type": "function"
    },
    {
      "inputs": [
        {
          "internalType": "bytes32",
          "name": "",
          "type": "bytes32"
        },
        {
          "internalType": "bytes32",
          "name": "",
          "type": "bytes32"
        }
      ],
      "name": "verifiedHashes",
      "outputs": [
        {
          "internalType": "bool",
          "name": "",
          "type": "bool"
        }
      ],
      "stateMutability": "view",
      "type": "function"
    },
    {
      "inputs": [
        {
          "internalType": "bytes32",
          "name": "_contentId",
          "type": "bytes32"
        },
        {
          "internalType": "bytes32",
          "name": "_contentHash",
          "type": "bytes32"
        },
        {
          "internalType": "bytes32[]",
          "name": "_merkleProof",
          "type": "bytes32[]"
        }
      ],
      "name": "verifyHash",
      "outputs": [
        {
          "internalType": "bool",
          "name": "",
          "type": "bool"
        }
      ],
      "stateMutability": "nonpayable",
      "type": "function"
    }
  ],
  "bytecode": "0x60806040523480156200001157600080fd5b506001805460ff191690556200002960003362000087565b620000557fa49807205ce4d355092ef5a8a18f56e8913cf4a201fbe287825b095693c217753362000087565b620000817f1fd2411627539a3d39ac17d9ce2fb11f546ae025ef1edae0b81addb77b1eb3f93362000087565b62000128565b6000828152602081815260408083206001600160a01b038516845290915290205460ff1662000124576000828152602081815260408083206001600160a01b03851684529091529020805460ff19166001179055620000e33390565b6001600160a01b0316816001600160a01b0316837f2f8788117e7eff1d82e926ec794901d17c78024a50270940304540a733656f0d60405160405180910390a45b5050565b61199180620001386000396000f3fe608060405234801561001057600080fd5b50600436106101425760003560e01c806375b238fc116100b8578063b75563911161007c578063b755639114610437578063c07823fe1461044a578063c5068a6314610478578063d48a02ef146104a6578063d547741f1461054d578063e35ec2721461056057600080fd5b806375b238fc146103755780638456cb591461038a57806391d1485414610392578063944183b2146103a5578063a217fddf1461042f57600080fd5b80633f4ba83a1161010a5780633f4ba83a1461021f57806344fe3e891461022757806345af7ceb1461023a57806346dde90e1461024d5780635c975abb146103435780636e1c1ef81461034e57600080fd5b806301ffc9a714610147578063248a9ca31461016f5780632a1f229a146101a05780632f2ff15d146101f757806336568abe1461020c575b600080fd5b61015a610155366004611572565b610573565b60405190151581526020015b60405180910390f35b61019261017d36600461159c565b60009081526020819052604090206001015490565b604051908152602001610166565b6101d76101ae36600461159c565b600360208190526000918252604090912080546001820154600283015492909301549092919084565b604080519485526020850193909352918301526060820152608001610166565b61020a6102053660046115b5565b6105aa565b005b61020a61021a3660046115b5565b6105d4565b61020a610657565b61015a61023536600461163d565b61067a565b61020a61024836600461159c565b610865565b6102f161025b36600461159c565b6040805160c081018252600080825260208201819052918101829052606081018290526080810182905260a081019190915250600090815260026020818152604092839020835160c08101855281548152600182015492810192909252918201549281019290925260038101546001600160a01b03166060830152600481015460808301526005015460ff16151560a082015290565b60405161016691908151815260208083015190820152604080830151908201526060808301516001600160a01b0316908201526080808301519082015260a09182015115159181019190915260c00190565b60015460ff1661015a565b6101927f1fd2411627539a3d39ac17d9ce2fb11f546ae025ef1edae0b81addb77b1eb3f981565b61019260008051602061193c83398151915281565b61020a6108f9565b61015a6103a03660046115b5565b610919565b6103f76103b336600461159c565b600260208190526000918252604090912080546001820154928201546003830154600484015460059094015492949391926001600160a01b03909116919060ff1686565b604080519687526020870195909552938501929092526001600160a01b031660608401526080830152151560a082015260c001610166565b610192600081565b61020a610445366004611690565b610942565b61015a6104583660046116bc565b600460209081526000928352604080842090915290825290205460ff1681565b61015a6104863660046116bc565b600091825260046020908152604080842092845291905290205460ff1690565b61051a6104b436600461159c565b60408051608081018252600080825260208201819052918101829052606081019190915250600090815260036020818152604092839020835160808101855281548152600182015492810192909252600281015493820193909352910154606082015290565b60405161016691908151815260208083015190820152604080830151908201526060918201519181019190915260800190565b61020a61055b3660046115b5565b610a9b565b61020a61056e3660046116de565b610ac0565b60006001600160e01b03198216637965db0b60e01b14806105a457506301ffc9a760e01b6001600160e01b03198316145b92915050565b6000828152602081905260409020600101546105c581610f03565b6105cf8383610f0d565b505050565b6001600160a01b03811633146106495760405162461bcd60e51b815260206004820152602f60248201527f416363657373436f6e74726f6c3a2063616e206f6e6c792072656e6f756e636560448201526e103937b632b9903337b91039b2b63360891b60648201526084015b60405180910390fd5b6106538282610f91565b5050565b60008051602061193c83398151915261066f81610f03565b610677610ff6565b50565b6000610684611048565b60008581526002602052604090206005015460ff166106dc5760405162461bcd60e51b815260206004820152601460248201527312185cda08195b9d1c9e481b9bdd081d985b1a5960621b6044820152606401610640565b600085815260026020818152604092839020835160c08101855281548152600182015492810192909252918201549281019290925260038101546001600160a01b0316606083015260048101546080830181905260059091015460ff16151560a083015261077d5760405162461bcd60e51b815260206004820152600e60248201526d139bc81b595c9adb19481c9bdbdd60921b6044820152606401610640565b602080820151604080519283018990528201879052606082015260009060800160405160208183030381529060405280519060200120905060006107f8868680806020026020016040519081016040528093929190818152602001838360200280828437600092019190915250505050608085015184611090565b60008981526004602090815260408083208b8452825291829020805460ff191684151590811790915582518b81529182015291925089917fc43db396d723d0e3ba7baba64ad7726d2cb5af0fe17435feda5fbc6e2ec6e99d910160405180910390a2979650505050505050565b60008051602061193c83398151915261087d81610f03565b610885611048565b60008281526002602052604090206005015460ff166108dd5760405162461bcd60e51b815260206004820152601460248201527312185cda08185b1c9958591e481a5b9d985b1a5960621b6044820152606401610640565b506000908152600260205260409020600501805460ff19169055565b60008051602061193c83398151915261091181610f03565b6106776110a6565b6000918252602082815260408084206001600160a01b0393909316845291905290205460ff1690565b7f1fd2411627539a3d39ac17d9ce2fb11f546ae025ef1edae0b81addb77b1eb3f961096c81610f03565b610974611048565b600084815260026020526040902054156109ca5760405162461bcd60e51b815260206004820152601760248201527612185cda08185b1c9958591e481c9959da5cdd195c9959604a1b6044820152606401610640565b6040805160c0810182528481526020808201858152428385019081523360608501818152600060808701818152600160a089018181528e84526002808a52938b902099518a55965190890155935190870155516003860180546001600160a01b0319166001600160a01b039092169190911790559051600485015590516005909301805460ff19169315159390931790925582518681529081019190915285917f5e73dc4067e8641e665a92b5b0bb12ef7fc0463603d86e38bede4e5ada29abbc910160405180910390a250505050565b600082815260208190526040902060010154610ab681610f03565b6105cf8383610f91565b7f1fd2411627539a3d39ac17d9ce2fb11f546ae025ef1edae0b81addb77b1eb3f9610aea81610f03565b610af2611048565b8584148015610b0057508382145b610b455760405162461bcd60e51b8152602060048201526016602482015275082e4e4c2f240d8cadccee8d0e640dad2e6dac2e8c6d60531b6044820152606401610640565b85610b805760405162461bcd60e51b815260206004820152600b60248201526a08adae0e8f240c4c2e8c6d60ab1b6044820152606401610640565b60008667ffffffffffffffff811115610b9b57610b9b611782565b604051908082528060200260200182016040528015610bc4578160200160208202803683370190505b50905060005b87811015610dfa5760006002818b8b85818110610be957610be9611798565b9050602002013581526020019081526020016000206000015414610c495760405162461bcd60e51b815260206004820152601760248201527612185cda08185b1c9958591e481c9959da5cdd195c9959604a1b6044820152606401610640565b888882818110610c5b57610c5b611798565b90506020020135878783818110610c7457610c74611798565b90506020020135868684818110610c8d57610c8d611798565b90506020020135604051602001610cb7939291909283526020830191909152604082015260600190565b60405160208183030381529060405280519060200120828281518110610cdf57610cdf611798565b6020026020010181815250506040518060c00160405280888884818110610d0857610d08611798565b905060200201358152602001868684818110610d2657610d26611798565b905060200201358152602001428152602001336001600160a01b031681526020016000801b815260200160011515815250600260008b8b85818110610d6d57610d6d611798565b6020908102929092013583525081810192909252604090810160002083518155918301516001830155820151600282015560608201516003820180546001600160a01b0319166001600160a01b039092169190911790556080820151600482015560a0909101516005909101805460ff191691151591909117905580610df2816117c4565b915050610bca565b506000610e06826110e1565b905060405180608001604052808b81526020018281526020014281526020018a8a9050815250600360008c81526020019081526020016000206000820151816000015560208201518160010155604082015181600201556060820151816003015590505060005b88811015610ebb5781600260008c8c85818110610e8c57610e8c611798565b905060200201358152602001908152602001600020600401819055508080610eb3906117c4565b915050610e6d565b5060408051828152602081018a90528b917f89ea2c787a2e15097d4d8e6a6c5f61efc91c2dc76467f03a1dc19b1f87169464910160405180910390a250505050505050505050565b610677813361129f565b610f178282610919565b610653576000828152602081815260408083206001600160a01b03851684529091529020805460ff19166001179055610f4d3390565b6001600160a01b0316816001600160a01b0316837f2f8788117e7eff1d82e926ec794901d17c78024a50270940304540a733656f0d60405160405180910390a45050565b610f9b8282610919565b15610653576000828152602081815260408083206001600160a01b0385168085529252808320805460ff1916905551339285917ff6391f5c32d9c69d2a47ea670b442974b53935d1edc7fd64eb21e047a839171b9190a45050565b610ffe6112f8565b6001805460ff191690557f5db9ee0a495bf2e6ff9c91a7834c1ba4fdd244a5e8aa4e537bd38aeae4b073aa335b6040516001600160a01b03909116815260200160405180910390a1565b60015460ff161561108e5760405162461bcd60e51b815260206004820152601060248201526f14185d5cd8589b194e881c185d5cd95960821b6044820152606401610640565b565b60008261109d8584611341565b14949350505050565b6110ae611048565b6001805460ff1916811790557f62e78cea01bee320cd4e420270b5ea74000d11b0c9f74754ebdbfc544b05a2583361102b565b6000808251116111225760405162461bcd60e51b815260206004820152600c60248201526b456d707479206c656176657360a01b6044820152606401610640565b815160010361114d578160008151811061113e5761113e611798565b60200260200101519050919050565b81516000815b600181111561127b5760005b61116a6001856117dd565b811015611239578561117c82856117f0565b8151811061118c5761118c611798565b60200260200101518682856111a191906117f0565b6111ac9060016117f0565b815181106111bc576111bc611798565b60200260200101516040516020016111de929190918252602082015260400190565b60405160208183030381529060405280519060200120866002836112029190611819565b61120c90866117f0565b8151811061121c5761121c611798565b60209081029190910101526112326002826117f0565b905061115f565b50611245600284611819565b61124f90836117f0565b915061125c60028461182d565b611267600285611819565b61127191906117f0565b9250829050611153565b84828151811061128d5761128d611798565b60200260200101519350505050919050565b6112a98282610919565b610653576112b68161138e565b6112c18360206113a0565b6040516020016112d2929190611865565b60408051601f198184030181529082905262461bcd60e51b8252610640916004016118da565b60015460ff1661108e5760405162461bcd60e51b815260206004820152601460248201527314185d5cd8589b194e881b9bdd081c185d5cd95960621b6044820152606401610640565b600081815b8451811015611386576113728286838151811061136557611365611798565b6020026020010151611543565b91508061137e816117c4565b915050611346565b509392505050565b60606105a46001600160a01b03831660145b606060006113af83600261190d565b6113ba9060026117f0565b67ffffffffffffffff8111156113d2576113d2611782565b6040519080825280601f01601f1916602001820160405280156113fc576020820181803683370190505b509050600360fc1b8160008151811061141757611417611798565b60200101906001600160f81b031916908160001a905350600f60fb1b8160018151811061144657611446611798565b60200101906001600160f81b031916908160001a905350600061146a84600261190d565b6114759060016117f0565b90505b60018111156114ed576f181899199a1a9b1b9c1cb0b131b232b360811b85600f16601081106114a9576114a9611798565b1a60f81b8282815181106114bf576114bf611798565b60200101906001600160f81b031916908160001a90535060049490941c936114e681611924565b9050611478565b50831561153c5760405162461bcd60e51b815260206004820181905260248201527f537472696e67733a20686578206c656e67746820696e73756666696369656e746044820152606401610640565b9392505050565b600081831061155f57600082815260208490526040902061153c565b600083815260208390526040902061153c565b60006020828403121561158457600080fd5b81356001600160e01b03198116811461153c57600080fd5b6000602082840312156115ae57600080fd5b5035919050565b600080604083850312156115c857600080fd5b8235915060208301356001600160a01b03811681146115e657600080fd5b809150509250929050565b60008083601f84011261160357600080fd5b50813567ffffffffffffffff81111561161b57600080fd5b6020830191508360208260051b850101111561163657600080fd5b9250929050565b6000806000806060858703121561165357600080fd5b8435935060208501359250604085013567ffffffffffffffff81111561167857600080fd5b611684878288016115f1565b95989497509550505050565b6000806000606084860312156116a557600080fd5b505081359360208301359350604090920135919050565b600080604083850312156116cf57600080fd5b50508035926020909101359150565b60008060008060008060006080888a0312156116f957600080fd5b87359650602088013567ffffffffffffffff8082111561171857600080fd5b6117248b838c016115f1565b909850965060408a013591508082111561173d57600080fd5b6117498b838c016115f1565b909650945060608a013591508082111561176257600080fd5b5061176f8a828b016115f1565b989b979a50959850939692959293505050565b634e487b7160e01b600052604160045260246000fd5b634e487b7160e01b600052603260045260246000fd5b634e487b7160e01b600052601160045260246000fd5b6000600182016117d6576117d66117ae565b5060010190565b818103818111156105a4576105a46117ae565b808201808211156105a4576105a46117ae565b634e487b7160e01b600052601260045260246000fd5b60008261182857611828611803565b500490565b60008261183c5761183c611803565b500690565b60005b8381101561185c578181015183820152602001611844565b50506000910152565b7f416363657373436f6e74726f6c3a206163636f756e742000000000000000000081526000835161189d816017850160208801611841565b7001034b99036b4b9b9b4b733903937b6329607d1b60179184019182015283516118ce816028840160208801611841565b01602801949350505050565b60208152600082518060208401526118f9816040850160208701611841565b601f01601f19169190910160400192915050565b80820281158282048414176105a4576105a46117ae565b600081611933576119336117ae565b50600019019056fea49807205ce4d355092ef5a8a18f56e8913cf4a201fbe287825b095693c21775a2646970667358221220a88ad91c5964edd4951beab9fa39e71dfd7fe3c9ca2da56c0897ec90cb5af24064736f6c63430008130033",
  "linkReferences": {},
  "deployedLinkReferences": {}
}