{
  "_format": "hh-sol-artifact-1",
  "contractName": "StandardsCompliance",
  "sourceName": "contracts/integration/StandardsCompliance.sol",
  "abi": [
    {
      "inputs": [
        {
          "internalType": "address",
          "name": "_identityContract",
          "type": "address"
        }
      ],
      "stateMutability": "nonpayable",
      "type": "constructor"
    },
    {
      "anonymous": false,
      "inputs": [
        {
          "indexed": true,
          "internalType": "address",
          "name": "provider",
          "type": "address"
        },
        {
          "indexed": true,
          "internalType": "enum StandardsCompliance.ComplianceType",
          "name": "complianceType",
          "type": "uint8"
        },
        {
          "indexed": false,
          "internalType": "bool",
          "name": "passed",
          "type": "bool"
        }
      ],
      "name": "AuditCompleted",
      "type": "event"
    },
    {
      "anonymous": false,
      "inputs": [
        {
          "indexed": true,
          "internalType": "address",
          "name": "provider",
          "type": "address"
        },
        {
          "indexed": true,
          "internalType": "enum StandardsCompliance.ComplianceType",
          "name": "complianceType",
          "type": "uint8"
        },
        {
          "indexed": false,
          "internalType": "uint256",
          "name": "expiryDate",
          "type": "uint256"
        }
      ],
      "name": "CertificationIssued",
      "type": "event"
    },
    {
      "anonymous": false,
      "inputs": [
        {
          "indexed": true,
          "internalType": "address",
          "name": "provider",
          "type": "address"
        },
        {
          "indexed": true,
          "internalType": "enum StandardsCompliance.ComplianceType",
          "name": "complianceType",
          "type": "uint8"
        }
      ],
      "name": "ComplianceVerified",
      "type": "event"
    },
    {
      "anonymous": false,
      "inputs": [
        {
          "indexed": false,
          "internalType": "address",
          "name": "account",
          "type": "address"
        }
      ],
      "name": "Paused",
      "type": "event"
    },
    {
      "anonymous": false,
      "inputs": [
        {
          "indexed": true,
          "internalType": "enum StandardsCompliance.ComplianceType",
          "name": "complianceType",
          "type": "uint8"
        },
        {
          "indexed": false,
          "internalType": "string",
          "name": "version",
          "type": "string"
        }
      ],
      "name": "RequirementUpdated",
      "type": "event"
    },
    {
      "anonymous": false,
      "inputs": [
        {
          "indexed": true,
          "internalType": "bytes32",
          "name": "role",
          "type": "bytes32"
        },
        {
          "indexed": true,
          "internalType": "bytes32",
          "name": "previousAdminRole",
          "type": "bytes32"
        },
        {
          "indexed": true,
          "internalType": "bytes32",
          "name": "newAdminRole",
          "type": "bytes32"
        }
      ],
      "name": "RoleAdminChanged",
      "type": "event"
    },
    {
      "anonymous": false,
      "inputs": [
        {
          "indexed": true,
          "internalType": "bytes32",
          "name": "role",
          "type": "bytes32"
        },
        {
          "indexed": true,
          "internalType": "address",
          "name": "account",
          "type": "address"
        },
        {
          "indexed": true,
          "internalType": "address",
          "name": "sender",
          "type": "address"
        }
      ],
      "name": "RoleGranted",
      "type": "event"
    },
    {
      "anonymous": false,
      "inputs": [
        {
          "indexed": true,
          "internalType": "bytes32",
          "name": "role",
          "type": "bytes32"
        },
        {
          "indexed": true,
          "internalType": "address",
          "name": "account",
          "type": "address"
        },
        {
          "indexed": true,
          "internalType": "address",
          "name": "sender",
          "type": "address"
        }
      ],
      "name": "RoleRevoked",
      "type": "event"
    },
    {
      "anonymous": false,
      "inputs": [
        {
          "indexed": false,
          "internalType": "address",
          "name": "account",
          "type": "address"
        }
      ],
      "name": "Unpaused",
      "type": "event"
    },
    {
      "inputs": [],
      "name": "ADMIN_ROLE",
      "outputs": [
        {
          "internalType": "bytes32",
          "name": "",
          "type": "bytes32"
        }
      ],
      "stateMutability": "view",
      "type": "function"
    },
    {
      "inputs": [],
      "name": "AUDITOR_ROLE",
      "outputs": [
        {
          "internalType": "bytes32",
          "name": "",
          "type": "bytes32"
        }
      ],
      "stateMutability": "view",
      "type": "function"
    },
    {
      "inputs": [],
      "name": "COMPLIANCE_MANAGER_ROLE",
      "outputs": [
        {
          "internalType": "bytes32",
          "name": "",
          "type": "bytes32"
        }
      ],
      "stateMutability": "view",
      "type": "function"
    },
    {
      "inputs": [],
      "name": "DEFAULT_ADMIN_ROLE",
      "outputs": [
        {
          "internalType": "bytes32",
          "name": "",
          "type": "bytes32"
        }
      ],
      "stateMutability": "view",
      "type": "function"
    },
    {
      "inputs": [
        {
          "internalType": "bytes32",
          "name": "",
          "type": "bytes32"
        }
      ],
      "name": "auditLogs",
      "outputs": [
        {
          "internalType": "address",
          "name": "provider",
          "type": "address"
        },
        {
          "internalType": "enum StandardsCompliance.ComplianceType",
          "name": "complianceType",
          "type": "uint8"
        },
        {
          "internalType": "uint256",
          "name": "timestamp",
          "type": "uint256"
        },
        {
          "internalType": "string",
          "name": "findings",
          "type": "string"
        },
        {
          "internalType": "bool",
          "name": "passed",
          "type": "bool"
        }
      ],
      "stateMutability": "view",
      "type": "function"
    },
    {
      "inputs": [
        {
          "internalType": "address",
          "name": "",
          "type": "address"
        },
        {
          "internalType": "enum StandardsCompliance.ComplianceType",
          "name": "",
          "type": "uint8"
        }
      ],
      "name": "certifications",
      "outputs": [
        {
          "internalType": "enum StandardsCompliance.ComplianceType",
          "name": "complianceType",
          "type": "uint8"
        },
        {
          "internalType": "uint256",
          "name": "issueDate",
          "type": "uint256"
        },
        {
          "internalType": "uint256",
          "name": "expiryDate",
          "type": "uint256"
        },
        {
          "internalType": "address",
          "name": "auditor",
          "type": "address"
        },
        {
          "internalType": "bool",
          "name": "active",
          "type": "bool"
        },
        {
          "internalType": "string",
          "name": "metadataURI",
          "type": "string"
        }
      ],
      "stateMutability": "view",
      "type": "function"
    },
    {
      "inputs": [
        {
          "internalType": "address",
          "name": "_provider",
          "type": "address"
        },
        {
          "internalType": "enum StandardsCompliance.ComplianceType",
          "name": "_type",
          "type": "uint8"
        },
        {
          "internalType": "string",
          "name": "_findings",
          "type": "string"
        },
        {
          "internalType": "bool",
          "name": "_passed",
          "type": "bool"
        }
      ],
      "name": "conductAudit",
      "outputs": [],
      "stateMutability": "nonpayable",
      "type": "function"
    },
    {
      "inputs": [
        {
          "internalType": "bytes32",
          "name": "_auditId",
          "type": "bytes32"
        }
      ],
      "name": "getAuditLog",
      "outputs": [
        {
          "components": [
            {
              "internalType": "address",
              "name": "provider",
              "type": "address"
            },
            {
              "internalType": "enum StandardsCompliance.ComplianceType",
              "name": "complianceType",
              "type": "uint8"
            },
            {
              "internalType": "uint256",
              "name": "timestamp",
              "type": "uint256"
            },
            {
              "internalType": "string",
              "name": "findings",
              "type": "string"
            },
            {
              "internalType": "bool",
              "name": "passed",
              "type": "bool"
            }
          ],
          "internalType": "struct StandardsCompliance.AuditLog",
          "name": "",
          "type": "tuple"
        }
      ],
      "stateMutability": "view",
      "type": "function"
    },
    {
      "inputs": [
        {
          "internalType": "address",
          "name": "_provider",
          "type": "address"
        },
        {
          "internalType": "enum StandardsCompliance.ComplianceType",
          "name": "_type",
          "type": "uint8"
        }
      ],
      "name": "getCertification",
      "outputs": [
        {
          "components": [
            {
              "internalType": "enum StandardsCompliance.ComplianceType",
              "name": "complianceType",
              "type": "uint8"
            },
            {
              "internalType": "uint256",
              "name": "issueDate",
              "type": "uint256"
            },
            {
              "internalType": "uint256",
              "name": "expiryDate",
              "type": "uint256"
            },
            {
              "internalType": "address",
              "name": "auditor",
              "type": "address"
            },
            {
              "internalType": "bool",
              "name": "active",
              "type": "bool"
            },
            {
              "internalType": "string",
              "name": "metadataURI",
              "type": "string"
            }
          ],
          "internalType": "struct StandardsCompliance.Certification",
          "name": "",
          "type": "tuple"
        }
      ],
      "stateMutability": "view",
      "type": "function"
    },
    {
      "inputs": [
        {
          "internalType": "enum StandardsCompliance.ComplianceType",
          "name": "_type",
          "type": "uint8"
        }
      ],
      "name": "getRequirement",
      "outputs": [
        {
          "internalType": "string",
          "name": "description",
          "type": "string"
        },
        {
          "internalType": "string",
          "name": "version",
          "type": "string"
        },
        {
          "internalType": "bool",
          "name": "active",
          "type": "bool"
        },
        {
          "internalType": "uint256",
          "name": "lastUpdated",
          "type": "uint256"
        }
      ],
      "stateMutability": "view",
      "type": "function"
    },
    {
      "inputs": [
        {
          "internalType": "bytes32",
          "name": "role",
          "type": "bytes32"
        }
      ],
      "name": "getRoleAdmin",
      "outputs": [
        {
          "internalType": "bytes32",
          "name": "",
          "type": "bytes32"
        }
      ],
      "stateMutability": "view",
      "type": "function"
    },
    {
      "inputs": [
        {
          "internalType": "address",
          "name": "_auditor",
          "type": "address"
        }
      ],
      "name": "grantAuditorRole",
      "outputs": [],
      "stateMutability": "nonpayable",
      "type": "function"
    },
    {
      "inputs": [
        {
          "internalType": "bytes32",
          "name": "role",
          "type": "bytes32"
        },
        {
          "internalType": "address",
          "name": "account",
          "type": "address"
        }
      ],
      "name": "grantRole",
      "outputs": [],
      "stateMutability": "nonpayable",
      "type": "function"
    },
    {
      "inputs": [
        {
          "internalType": "bytes32",
          "name": "role",
          "type": "bytes32"
        },
        {
          "internalType": "address",
          "name": "account",
          "type": "address"
        }
      ],
      "name": "hasRole",
      "outputs": [
        {
          "internalType": "bool",
          "name": "",
          "type": "bool"
        }
      ],
      "stateMutability": "view",
      "type": "function"
    },
    {
      "inputs": [],
      "name": "identityContract",
      "outputs": [
        {
          "internalType": "contract IUHCIdentity",
          "name": "",
          "type": "address"
        }
      ],
      "stateMutability": "view",
      "type": "function"
    },
    {
      "inputs": [
        {
          "internalType": "address",
          "name": "_provider",
          "type": "address"
        },
        {
          "internalType": "enum StandardsCompliance.ComplianceType",
          "name": "_type",
          "type": "uint8"
        }
      ],
      "name": "isProviderCompliant",
      "outputs": [
        {
          "internalType": "bool",
          "name": "",
          "type": "bool"
        }
      ],
      "stateMutability": "view",
      "type": "function"
    },
    {
      "inputs": [
        {
          "internalType": "address",
          "name": "_provider",
          "type": "address"
        },
        {
          "internalType": "enum StandardsCompliance.ComplianceType",
          "name": "_type",
          "type": "uint8"
        },
        {
          "internalType": "uint256",
          "name": "_validityPeriod",
          "type": "uint256"
        },
        {
          "internalType": "string",
          "name": "_metadataURI",
          "type": "string"
        }
      ],
      "name": "issueCertification",
      "outputs": [],
      "stateMutability": "nonpayable",
      "type": "function"
    },
    {
      "inputs": [],
      "name": "pause",
      "outputs": [],
      "stateMutability": "nonpayable",
      "type": "function"
    },
    {
      "inputs": [],
      "name": "paused",
      "outputs": [
        {
          "internalType": "bool",
          "name": "",
          "type": "bool"
        }
      ],
      "stateMutability": "view",
      "type": "function"
    },
    {
      "inputs": [
        {
          "internalType": "bytes32",
          "name": "role",
          "type": "bytes32"
        },
        {
          "internalType": "address",
          "name": "account",
          "type": "address"
        }
      ],
      "name": "renounceRole",
      "outputs": [],
      "stateMutability": "nonpayable",
      "type": "function"
    },
    {
      "inputs": [
        {
          "internalType": "enum StandardsCompliance.ComplianceType",
          "name": "",
          "type": "uint8"
        }
      ],
      "name": "requirements",
      "outputs": [
        {
          "internalType": "string",
          "name": "description",
          "type": "string"
        },
        {
          "internalType": "string",
          "name": "version",
          "type": "string"
        },
        {
          "internalType": "bool",
          "name": "active",
          "type": "bool"
        },
        {
          "internalType": "uint256",
          "name": "lastUpdated",
          "type": "uint256"
        }
      ],
      "stateMutability": "view",
      "type": "function"
    },
    {
      "inputs": [
        {
          "internalType": "address",
          "name": "_auditor",
          "type": "address"
        }
      ],
      "name": "revokeAuditorRole",
      "outputs": [],
      "stateMutability": "nonpayable",
      "type": "function"
    },
    {
      "inputs": [
        {
          "internalType": "bytes32",
          "name": "role",
          "type": "bytes32"
        },
        {
          "internalType": "address",
          "name": "account",
          "type": "address"
        }
      ],
      "name": "revokeRole",
      "outputs": [],
      "stateMutability": "nonpayable",
      "type": "function"
    },
    {
      "inputs": [
        {
          "internalType": "bytes4",
          "name": "interfaceId",
          "type": "bytes4"
        }
      ],
      "name": "supportsInterface",
      "outputs": [
        {
          "internalType": "bool",
          "name": "",
          "type": "bool"
        }
      ],
      "stateMutability": "view",
      "type": "function"
    },
    {
      "inputs": [],
      "name": "unpause",
      "outputs": [],
      "stateMutability": "nonpayable",
      "type": "function"
    },
    {
      "inputs": [
        {
          "internalType": "enum StandardsCompliance.ComplianceType",
          "name": "_type",
          "type": "uint8"
        },
        {
          "internalType": "string",
          "name": "_description",
          "type": "string"
        },
        {
          "internalType": "string",
          "name": "_version",
          "type": "string"
        }
      ],
      "name": "updateRequirement",
      "outputs": [],
      "stateMutability": "nonpayable",
      "type": "function"
    },
    {
      "inputs": [
        {
          "internalType": "address",
          "name": "_provider",
          "type": "address"
        },
        {
          "internalType": "enum StandardsCompliance.ComplianceType",
          "name": "_type",
          "type": "uint8"
        }
      ],
      "name": "verifyCertification",
      "outputs": [
        {
          "internalType": "bool",
          "name": "",
          "type": "bool"
        }
      ],
      "stateMutability": "view",
      "type": "function"
    }
  ],
  "bytecode": "0x60806040523480156200001157600080fd5b506040516200232138038062002321833981016040819052620000349162000160565b600180546001600160a81b0319166101006001600160a01b0384160217905562000060600033620000bf565b6200008c7fa49807205ce4d355092ef5a8a18f56e8913cf4a201fbe287825b095693c2177533620000bf565b620000b87fe5c50d0927e06141e032cb9a67e1d7092dc85c0b0825191f7e1cede60002856833620000bf565b5062000192565b6000828152602081815260408083206001600160a01b038516845290915290205460ff166200015c576000828152602081815260408083206001600160a01b03851684529091529020805460ff191660011790556200011b3390565b6001600160a01b0316816001600160a01b0316837f2f8788117e7eff1d82e926ec794901d17c78024a50270940304540a733656f0d60405160405180910390a45b5050565b6000602082840312156200017357600080fd5b81516001600160a01b03811681146200018b57600080fd5b9392505050565b61217f80620001a26000396000f3fe608060405234801561001057600080fd5b50600436106101a95760003560e01c8063542429e2116100f957806389139b9311610097578063af548cf411610071578063af548cf4146103f1578063c8ac401914610404578063d547741f14610417578063f03717151461042a57600080fd5b806389139b93146103c357806391d14854146103d6578063a217fddf146103e957600080fd5b80636b058d08116100d35780636b058d081461036d5780636e1d616e1461039157806375b238fc146103a65780638456cb59146103bb57600080fd5b8063542429e21461030d5780635c975abb1461033257806367031bae1461033d57600080fd5b80632f2ff15d116101665780633e251518116101405780633e251518146102bf5780633f4ba83a146102d2578063413faf22146102da57806350c17b10146102fa57600080fd5b80632f2ff15d1461027457806330e590db1461028957806336568abe146102ac57600080fd5b806301ffc9a7146101ae57806303c26bcd146101d65780631a06397c1461020b5780631ac517881461021e578063248a9ca3146102315780632ee5b02814610254575b600080fd5b6101c16101bc36600461193f565b61043d565b60405190151581526020015b60405180910390f35b6101fd7fe5c50d0927e06141e032cb9a67e1d7092dc85c0b0825191f7e1cede60002856881565b6040519081526020016101cd565b6101c1610219366004611994565b610474565b6101c161022c366004611994565b610548565b6101fd61023f3660046119c7565b60009081526020819052604090206001015490565b610267610262366004611994565b6105a6565b6040516101cd9190611a5a565b610287610282366004611ab8565b610745565b005b61029c610297366004611adb565b61076f565b6040516101cd9493929190611af6565b6102876102ba366004611ab8565b6108ab565b6102876102cd366004611b2f565b61092e565b61028761095e565b6102ed6102e83660046119c7565b610981565b6040516101cd9190611b4a565b610287610308366004611b2f565b610abc565b61032061031b366004611994565b610aec565b6040516101cd96959493929190611bad565b60015460ff166101c1565b6001546103559061010090046001600160a01b031681565b6040516001600160a01b0390911681526020016101cd565b61038061037b3660046119c7565b610bc8565b6040516101cd959493929190611bfb565b6101fd60008051602061210a83398151915281565b6101fd60008051602061212a83398151915281565b610287610c91565b6102876103d1366004611ce7565b610cb1565b6101c16103e4366004611ab8565b610d9e565b6101fd600081565b6102876103ff366004611d69565b610dc7565b61029c610412366004611adb565b6110b6565b610287610425366004611ab8565b611237565b610287610438366004611dda565b61125c565b60006001600160e01b03198216637965db0b60e01b148061046e57506301ffc9a760e01b6001600160e01b03198316145b92915050565b6001600160a01b03821660009081526003602052604081208190818460058111156104a1576104a16119e0565b60058111156104b2576104b26119e0565b815260200190815260200160002090508060030160149054906101000a900460ff1680156104e4575080600201544211155b8015610540575060026000846005811115610501576105016119e0565b6005811115610512576105126119e0565b8152602080820192909252604090810160009081206001600160a01b038816825260040190925290205460ff165b949350505050565b600060026000836005811115610560576105606119e0565b6005811115610571576105716119e0565b8152602080820192909252604090810160009081206001600160a01b038716825260040190925290205460ff16905092915050565b6105eb6040805160c081019091528060008152602001600081526020016000815260200160006001600160a01b03168152602001600015158152602001606081525090565b6001600160a01b038316600090815260036020526040812090836005811115610616576106166119e0565b6005811115610627576106276119e0565b815260208101919091526040908101600020815160c081019092528054829060ff16600581111561065a5761065a6119e0565b600581111561066b5761066b6119e0565b8152600182015460208201526002820154604082015260038201546001600160a01b0381166060830152600160a01b900460ff161515608082015260048201805460a0909201916106bb90611e42565b80601f01602080910402602001604051908101604052809291908181526020018280546106e790611e42565b80156107345780601f1061070957610100808354040283529160200191610734565b820191906000526020600020905b81548152906001019060200180831161071757829003601f168201915b505050505081525050905092915050565b60008281526020819052604090206001015461076081611520565b61076a838361152a565b505050565b60026020526000908152604090208054819061078a90611e42565b80601f01602080910402602001604051908101604052809291908181526020018280546107b690611e42565b80156108035780601f106107d857610100808354040283529160200191610803565b820191906000526020600020905b8154815290600101906020018083116107e657829003601f168201915b50505050509080600101805461081890611e42565b80601f016020809104026020016040519081016040528092919081815260200182805461084490611e42565b80156108915780601f1061086657610100808354040283529160200191610891565b820191906000526020600020905b81548152906001019060200180831161087457829003601f168201915b505050506002830154600390930154919260ff1691905084565b6001600160a01b03811633146109205760405162461bcd60e51b815260206004820152602f60248201527f416363657373436f6e74726f6c3a2063616e206f6e6c792072656e6f756e636560448201526e103937b632b9903337b91039b2b63360891b60648201526084015b60405180910390fd5b61092a82826115ae565b5050565b60008051602061212a83398151915261094681611520565b61092a60008051602061210a833981519152836115ae565b60008051602061212a83398151915261097681611520565b61097e611613565b50565b6040805160a0810182526000808252602082018190529181018290526060808201526080810191909152600082815260046020908152604091829020825160a0810190935280546001600160a01b03811684529091830190600160a01b900460ff1660058111156109f4576109f46119e0565b6005811115610a0557610a056119e0565b815260200160018201548152602001600282018054610a2390611e42565b80601f0160208091040260200160405190810160405280929190818152602001828054610a4f90611e42565b8015610a9c5780601f10610a7157610100808354040283529160200191610a9c565b820191906000526020600020905b815481529060010190602001808311610a7f57829003601f168201915b50505091835250506003919091015460ff16151560209091015292915050565b60008051602061212a833981519152610ad481611520565b61092a60008051602061210a8339815191528361152a565b600360208181526000938452604080852090915291835291208054600182015460028301549383015460048401805460ff94851696939593946001600160a01b03841694600160a01b90940416929190610b4590611e42565b80601f0160208091040260200160405190810160405280929190818152602001828054610b7190611e42565b8015610bbe5780601f10610b9357610100808354040283529160200191610bbe565b820191906000526020600020905b815481529060010190602001808311610ba157829003601f168201915b5050505050905086565b6004602052600090815260409020805460018201546002830180546001600160a01b03841694600160a01b90940460ff16939190610c0590611e42565b80601f0160208091040260200160405190810160405280929190818152602001828054610c3190611e42565b8015610c7e5780601f10610c5357610100808354040283529160200191610c7e565b820191906000526020600020905b815481529060010190602001808311610c6157829003601f168201915b5050506003909301549192505060ff1685565b60008051602061212a833981519152610ca981611520565b61097e611665565b7fe5c50d0927e06141e032cb9a67e1d7092dc85c0b0825191f7e1cede600028568610cdb81611520565b610ce36116a0565b600060026000866005811115610cfb57610cfb6119e0565b6005811115610d0c57610d0c6119e0565b81526020810191909152604001600020905080610d298582611eca565b5060018101610d388482611eca565b5060028101805460ff19166001179055426003820155846005811115610d6057610d606119e0565b7f550a142dceeda950dcde172ab5a982eeb462f8c3f3cb2e9b0132c670123030ce84604051610d8f9190611f8a565b60405180910390a25050505050565b6000918252602082815260408084206001600160a01b0393909316845291905290205460ff1690565b60008051602061210a833981519152610ddf81611520565b610de76116a0565b600180546040516395a8c58d60e01b81526101009091046001600160a01b0316916395a8c58d91610e1c918991600401611f9d565b602060405180830381865afa158015610e39573d6000803e3d6000fd5b505050506040513d601f19601f82011682018060405250810190610e5d9190611fca565b610e9a5760405162461bcd60e51b815260206004820152600e60248201526d2737ba103090383937bb34b232b960911b6044820152606401610917565b6000858542604051602001610eb193929190611fe7565b6040516020818303038152906040528051906020012090506040518060a00160405280876001600160a01b03168152602001866005811115610ef557610ef56119e0565b815242602080830191909152604080830188905286151560609093019290925260008481526004825291909120825181546001600160a01b039091166001600160a01b031982168117835592840151919283916001600160a81b03191617600160a01b836005811115610f6a57610f6a6119e0565b02179055506040820151600182015560608201516002820190610f8d9082611eca565b50608091909101516003909101805460ff1916911515919091179055821561105757600160026000876005811115610fc757610fc76119e0565b6005811115610fd857610fd86119e0565b8152602080820192909252604090810160009081206001600160a01b038b1682526004019092529020805460ff1916911515919091179055846005811115611022576110226119e0565b6040516001600160a01b038816907f9dae97b10c004632e67b0f0c7bb670f89f955692c47c80403c78bc4604609e3090600090a35b846005811115611069576110696119e0565b866001600160a01b03167ffc88668b5538ffd93e42e6d205b5b57f37deb69b0a2a170bfef1d646985026e7856040516110a6911515815260200190565b60405180910390a3505050505050565b6060806000806000600260008760058111156110d4576110d46119e0565b60058111156110e5576110e56119e0565b815260208101919091526040016000206002810154600382015482549293508392600184019260ff169190849061111b90611e42565b80601f016020809104026020016040519081016040528092919081815260200182805461114790611e42565b80156111945780601f1061116957610100808354040283529160200191611194565b820191906000526020600020905b81548152906001019060200180831161117757829003601f168201915b505050505093508280546111a790611e42565b80601f01602080910402602001604051908101604052809291908181526020018280546111d390611e42565b80156112205780601f106111f557610100808354040283529160200191611220565b820191906000526020600020905b81548152906001019060200180831161120357829003601f168201915b505050505092509450945094509450509193509193565b60008281526020819052604090206001015461125281611520565b61076a83836115ae565b60008051602061210a83398151915261127481611520565b61127c6116a0565b600180546040516395a8c58d60e01b81526101009091046001600160a01b0316916395a8c58d916112b1918991600401611f9d565b602060405180830381865afa1580156112ce573d6000803e3d6000fd5b505050506040513d601f19601f820116820180604052508101906112f29190611fca565b61132f5760405162461bcd60e51b815260206004820152600e60248201526d2737ba103090383937bb34b232b960911b6044820152606401610917565b60026000856005811115611345576113456119e0565b6005811115611356576113566119e0565b815260208101919091526040016000206002015460ff166113b25760405162461bcd60e51b8152602060048201526016602482015275526571756972656d656e74206e6f742061637469766560501b6044820152606401610917565b6001600160a01b0385166000908152600360205260408120818660058111156113dd576113dd6119e0565b60058111156113ee576113ee6119e0565b8152602081019190915260400160002080549091508590829060ff1916600183600581111561141f5761141f6119e0565b0217905550426001820181905561143790859061203d565b600282015560038101805460ff60a01b1933166001600160a81b031990911617600160a01b1790556004810161146d8482611eca565b50600160026000876005811115611486576114866119e0565b6005811115611497576114976119e0565b8152602080820192909252604090810160009081206001600160a01b038b1682526004019092529020805460ff19169115159190911790558460058111156114e1576114e16119e0565b866001600160a01b03167f8f5006063ebc65c29bf8af0ca8ef530e9df9fccc4ba9982e17d71fd8db275fb883600201546040516110a691815260200190565b61097e81336116e8565b6115348282610d9e565b61092a576000828152602081815260408083206001600160a01b03851684529091529020805460ff1916600117905561156a3390565b6001600160a01b0316816001600160a01b0316837f2f8788117e7eff1d82e926ec794901d17c78024a50270940304540a733656f0d60405160405180910390a45050565b6115b88282610d9e565b1561092a576000828152602081815260408083206001600160a01b0385168085529252808320805460ff1916905551339285917ff6391f5c32d9c69d2a47ea670b442974b53935d1edc7fd64eb21e047a839171b9190a45050565b61161b611741565b6001805460ff191690557f5db9ee0a495bf2e6ff9c91a7834c1ba4fdd244a5e8aa4e537bd38aeae4b073aa335b6040516001600160a01b03909116815260200160405180910390a1565b61166d6116a0565b6001805460ff1916811790557f62e78cea01bee320cd4e420270b5ea74000d11b0c9f74754ebdbfc544b05a25833611648565b60015460ff16156116e65760405162461bcd60e51b815260206004820152601060248201526f14185d5cd8589b194e881c185d5cd95960821b6044820152606401610917565b565b6116f28282610d9e565b61092a576116ff8161178a565b61170a83602061179c565b60405160200161171b929190612050565b60408051601f198184030181529082905262461bcd60e51b825261091791600401611f8a565b60015460ff166116e65760405162461bcd60e51b815260206004820152601460248201527314185d5cd8589b194e881b9bdd081c185d5cd95960621b6044820152606401610917565b606061046e6001600160a01b03831660145b606060006117ab8360026120c5565b6117b690600261203d565b67ffffffffffffffff8111156117ce576117ce611c44565b6040519080825280601f01601f1916602001820160405280156117f8576020820181803683370190505b509050600360fc1b81600081518110611813576118136120dc565b60200101906001600160f81b031916908160001a905350600f60fb1b81600181518110611842576118426120dc565b60200101906001600160f81b031916908160001a90535060006118668460026120c5565b61187190600161203d565b90505b60018111156118e9576f181899199a1a9b1b9c1cb0b131b232b360811b85600f16601081106118a5576118a56120dc565b1a60f81b8282815181106118bb576118bb6120dc565b60200101906001600160f81b031916908160001a90535060049490941c936118e2816120f2565b9050611874565b5083156119385760405162461bcd60e51b815260206004820181905260248201527f537472696e67733a20686578206c656e67746820696e73756666696369656e746044820152606401610917565b9392505050565b60006020828403121561195157600080fd5b81356001600160e01b03198116811461193857600080fd5b80356001600160a01b038116811461198057600080fd5b919050565b80356006811061198057600080fd5b600080604083850312156119a757600080fd5b6119b083611969565b91506119be60208401611985565b90509250929050565b6000602082840312156119d957600080fd5b5035919050565b634e487b7160e01b600052602160045260246000fd5b60068110611a0657611a066119e0565b9052565b60005b83811015611a25578181015183820152602001611a0d565b50506000910152565b60008151808452611a46816020860160208601611a0a565b601f01601f19169290920160200192915050565b60208152611a6c6020820183516119f6565b602082015160408201526040820151606082015260018060a01b0360608301511660808201526080820151151560a0820152600060a083015160c08084015261054060e0840182611a2e565b60008060408385031215611acb57600080fd5b823591506119be60208401611969565b600060208284031215611aed57600080fd5b61193882611985565b608081526000611b096080830187611a2e565b8281036020840152611b1b8187611a2e565b941515604084015250506060015292915050565b600060208284031215611b4157600080fd5b61193882611969565b602080825282516001600160a01b031682820152820151600090611b7160408401826119f6565b5060408301516060830152606083015160a06080840152611b9560c0840182611a2e565b90506080840151151560a08401528091505092915050565b611bb781886119f6565b85602082015284604082015260018060a01b0384166060820152821515608082015260c060a08201526000611bef60c0830184611a2e565b98975050505050505050565b6001600160a01b0386168152611c1460208201866119f6565b83604082015260a060608201526000611c3060a0830185611a2e565b905082151560808301529695505050505050565b634e487b7160e01b600052604160045260246000fd5b600082601f830112611c6b57600080fd5b813567ffffffffffffffff80821115611c8657611c86611c44565b604051601f8301601f19908116603f01168101908282118183101715611cae57611cae611c44565b81604052838152866020858801011115611cc757600080fd5b836020870160208301376000602085830101528094505050505092915050565b600080600060608486031215611cfc57600080fd5b611d0584611985565b9250602084013567ffffffffffffffff80821115611d2257600080fd5b611d2e87838801611c5a565b93506040860135915080821115611d4457600080fd5b50611d5186828701611c5a565b9150509250925092565b801515811461097e57600080fd5b60008060008060808587031215611d7f57600080fd5b611d8885611969565b9350611d9660208601611985565b9250604085013567ffffffffffffffff811115611db257600080fd5b611dbe87828801611c5a565b9250506060850135611dcf81611d5b565b939692955090935050565b60008060008060808587031215611df057600080fd5b611df985611969565b9350611e0760208601611985565b925060408501359150606085013567ffffffffffffffff811115611e2a57600080fd5b611e3687828801611c5a565b91505092959194509250565b600181811c90821680611e5657607f821691505b602082108103611e7657634e487b7160e01b600052602260045260246000fd5b50919050565b601f82111561076a57600081815260208120601f850160051c81016020861015611ea35750805b601f850160051c820191505b81811015611ec257828155600101611eaf565b505050505050565b815167ffffffffffffffff811115611ee457611ee4611c44565b611ef881611ef28454611e42565b84611e7c565b602080601f831160018114611f2d5760008415611f155750858301515b600019600386901b1c1916600185901b178555611ec2565b600085815260208120601f198616915b82811015611f5c57888601518255948401946001909101908401611f3d565b5085821015611f7a5787850151600019600388901b60f8161c191681555b5050505050600190811b01905550565b6020815260006119386020830184611a2e565b6001600160a01b03831681526040810160048310611fbd57611fbd6119e0565b8260208301529392505050565b600060208284031215611fdc57600080fd5b815161193881611d5b565b6bffffffffffffffffffffffff198460601b16815260006006841061200e5761200e6119e0565b5060f89290921b60148301526015820152603501919050565b634e487b7160e01b600052601160045260246000fd5b8082018082111561046e5761046e612027565b7f416363657373436f6e74726f6c3a206163636f756e7420000000000000000000815260008351612088816017850160208801611a0a565b7001034b99036b4b9b9b4b733903937b6329607d1b60179184019182015283516120b9816028840160208801611a0a565b01602801949350505050565b808202811582820484141761046e5761046e612027565b634e487b7160e01b600052603260045260246000fd5b60008161210157612101612027565b50600019019056fe59a1c48e5837ad7a7f3dcedcbe129bf3249ec4fbf651fd4f5e2600ead39fe2f5a49807205ce4d355092ef5a8a18f56e8913cf4a201fbe287825b095693c21775a2646970667358221220d17418edd564a448f96085abd8350988ebafe70052aaaaf06e31323d2d44c1bc64736f6c63430008130033",
  "linkReferences": {},
  "deployedLinkReferences": {}
}