{
  "_format": "hh-sol-artifact-1",
  "contractName": "HealthRecordRegistry",
  "sourceName": "contracts/core/HealthRecordRegistry.sol",
  "abi": [
    {
      "inputs": [
        {
          "internalType": "address",
          "name": "_identityContract",
          "type": "address"
        }
      ],
      "stateMutability": "nonpayable",
      "type": "constructor"
    },
    {
      "anonymous": false,
      "inputs": [
        {
          "indexed": false,
          "internalType": "address",
          "name": "account",
          "type": "address"
        }
      ],
      "name": "Paused",
      "type": "event"
    },
    {
      "anonymous": false,
      "inputs": [
        {
          "indexed": true,
          "internalType": "bytes32",
          "name": "recordId",
          "type": "bytes32"
        },
        {
          "indexed": true,
          "internalType": "address",
          "name": "grantee",
          "type": "address"
        },
        {
          "indexed": false,
          "internalType": "uint256",
          "name": "expiryTime",
          "type": "uint256"
        }
      ],
      "name": "RecordAccessGranted",
      "type": "event"
    },
    {
      "anonymous": false,
      "inputs": [
        {
          "indexed": true,
          "internalType": "bytes32",
          "name": "recordId",
          "type": "bytes32"
        },
        {
          "indexed": true,
          "internalType": "address",
          "name": "grantee",
          "type": "address"
        }
      ],
      "name": "RecordAccessRevoked",
      "type": "event"
    },
    {
      "anonymous": false,
      "inputs": [
        {
          "indexed": true,
          "internalType": "bytes32",
          "name": "recordId",
          "type": "bytes32"
        },
        {
          "indexed": true,
          "internalType": "address",
          "name": "owner",
          "type": "address"
        },
        {
          "indexed": false,
          "internalType": "enum IHealthRecordRegistry.RecordType",
          "name": "recordType",
          "type": "uint8"
        }
      ],
      "name": "RecordCreated",
      "type": "event"
    },
    {
      "anonymous": false,
      "inputs": [
        {
          "indexed": true,
          "internalType": "bytes32",
          "name": "recordId",
          "type": "bytes32"
        },
        {
          "indexed": false,
          "internalType": "bytes32",
          "name": "newDataHash",
          "type": "bytes32"
        }
      ],
      "name": "RecordUpdated",
      "type": "event"
    },
    {
      "anonymous": false,
      "inputs": [
        {
          "indexed": true,
          "internalType": "bytes32",
          "name": "role",
          "type": "bytes32"
        },
        {
          "indexed": true,
          "internalType": "bytes32",
          "name": "previousAdminRole",
          "type": "bytes32"
        },
        {
          "indexed": true,
          "internalType": "bytes32",
          "name": "newAdminRole",
          "type": "bytes32"
        }
      ],
      "name": "RoleAdminChanged",
      "type": "event"
    },
    {
      "anonymous": false,
      "inputs": [
        {
          "indexed": true,
          "internalType": "bytes32",
          "name": "role",
          "type": "bytes32"
        },
        {
          "indexed": true,
          "internalType": "address",
          "name": "account",
          "type": "address"
        },
        {
          "indexed": true,
          "internalType": "address",
          "name": "sender",
          "type": "address"
        }
      ],
      "name": "RoleGranted",
      "type": "event"
    },
    {
      "anonymous": false,
      "inputs": [
        {
          "indexed": true,
          "internalType": "bytes32",
          "name": "role",
          "type": "bytes32"
        },
        {
          "indexed": true,
          "internalType": "address",
          "name": "account",
          "type": "address"
        },
        {
          "indexed": true,
          "internalType": "address",
          "name": "sender",
          "type": "address"
        }
      ],
      "name": "RoleRevoked",
      "type": "event"
    },
    {
      "anonymous": false,
      "inputs": [
        {
          "indexed": false,
          "internalType": "address",
          "name": "account",
          "type": "address"
        }
      ],
      "name": "Unpaused",
      "type": "event"
    },
    {
      "inputs": [],
      "name": "ADMIN_ROLE",
      "outputs": [
        {
          "internalType": "bytes32",
          "name": "",
          "type": "bytes32"
        }
      ],
      "stateMutability": "view",
      "type": "function"
    },
    {
      "inputs": [],
      "name": "DEFAULT_ADMIN_ROLE",
      "outputs": [
        {
          "internalType": "bytes32",
          "name": "",
          "type": "bytes32"
        }
      ],
      "stateMutability": "view",
      "type": "function"
    },
    {
      "inputs": [],
      "name": "PROVIDER_ROLE",
      "outputs": [
        {
          "internalType": "bytes32",
          "name": "",
          "type": "bytes32"
        }
      ],
      "stateMutability": "view",
      "type": "function"
    },
    {
      "inputs": [
        {
          "internalType": "enum IHealthRecordRegistry.RecordType",
          "name": "_type",
          "type": "uint8"
        },
        {
          "internalType": "bytes32",
          "name": "_dataHash",
          "type": "bytes32"
        },
        {
          "internalType": "bytes32",
          "name": "_metadataHash",
          "type": "bytes32"
        },
        {
          "internalType": "bool",
          "name": "_isEncrypted",
          "type": "bool"
        }
      ],
      "name": "createRecord",
      "outputs": [
        {
          "internalType": "bytes32",
          "name": "",
          "type": "bytes32"
        }
      ],
      "stateMutability": "nonpayable",
      "type": "function"
    },
    {
      "inputs": [
        {
          "internalType": "bytes32",
          "name": "_recordId",
          "type": "bytes32"
        }
      ],
      "name": "getRecord",
      "outputs": [
        {
          "components": [
            {
              "internalType": "bytes32",
              "name": "recordId",
              "type": "bytes32"
            },
            {
              "internalType": "address",
              "name": "owner",
              "type": "address"
            },
            {
              "internalType": "enum IHealthRecordRegistry.RecordType",
              "name": "recordType",
              "type": "uint8"
            },
            {
              "internalType": "bytes32",
              "name": "dataHash",
              "type": "bytes32"
            },
            {
              "internalType": "bytes32",
              "name": "metadataHash",
              "type": "bytes32"
            },
            {
              "internalType": "uint256",
              "name": "timestamp",
              "type": "uint256"
            },
            {
              "internalType": "bool",
              "name": "isEncrypted",
              "type": "bool"
            }
          ],
          "internalType": "struct IHealthRecordRegistry.HealthRecord",
          "name": "",
          "type": "tuple"
        }
      ],
      "stateMutability": "view",
      "type": "function"
    },
    {
      "inputs": [
        {
          "internalType": "bytes32",
          "name": "role",
          "type": "bytes32"
        }
      ],
      "name": "getRoleAdmin",
      "outputs": [
        {
          "internalType": "bytes32",
          "name": "",
          "type": "bytes32"
        }
      ],
      "stateMutability": "view",
      "type": "function"
    },
    {
      "inputs": [
        {
          "internalType": "bytes32",
          "name": "_recordId",
          "type": "bytes32"
        },
        {
          "internalType": "address",
          "name": "_grantee",
          "type": "address"
        },
        {
          "internalType": "uint256",
          "name": "_expiryTime",
          "type": "uint256"
        }
      ],
      "name": "grantAccess",
      "outputs": [],
      "stateMutability": "nonpayable",
      "type": "function"
    },
    {
      "inputs": [
        {
          "internalType": "bytes32",
          "name": "role",
          "type": "bytes32"
        },
        {
          "internalType": "address",
          "name": "account",
          "type": "address"
        }
      ],
      "name": "grantRole",
      "outputs": [],
      "stateMutability": "nonpayable",
      "type": "function"
    },
    {
      "inputs": [
        {
          "internalType": "bytes32",
          "name": "_recordId",
          "type": "bytes32"
        },
        {
          "internalType": "address",
          "name": "_user",
          "type": "address"
        }
      ],
      "name": "hasAccess",
      "outputs": [
        {
          "internalType": "bool",
          "name": "",
          "type": "bool"
        }
      ],
      "stateMutability": "view",
      "type": "function"
    },
    {
      "inputs": [
        {
          "internalType": "bytes32",
          "name": "role",
          "type": "bytes32"
        },
        {
          "internalType": "address",
          "name": "account",
          "type": "address"
        }
      ],
      "name": "hasRole",
      "outputs": [
        {
          "internalType": "bool",
          "name": "",
          "type": "bool"
        }
      ],
      "stateMutability": "view",
      "type": "function"
    },
    {
      "inputs": [],
      "name": "identityContract",
      "outputs": [
        {
          "internalType": "contract IUHCIdentity",
          "name": "",
          "type": "address"
        }
      ],
      "stateMutability": "view",
      "type": "function"
    },
    {
      "inputs": [],
      "name": "pause",
      "outputs": [],
      "stateMutability": "nonpayable",
      "type": "function"
    },
    {
      "inputs": [],
      "name": "paused",
      "outputs": [
        {
          "internalType": "bool",
          "name": "",
          "type": "bool"
        }
      ],
      "stateMutability": "view",
      "type": "function"
    },
    {
      "inputs": [
        {
          "internalType": "bytes32",
          "name": "role",
          "type": "bytes32"
        },
        {
          "internalType": "address",
          "name": "account",
          "type": "address"
        }
      ],
      "name": "renounceRole",
      "outputs": [],
      "stateMutability": "nonpayable",
      "type": "function"
    },
    {
      "inputs": [
        {
          "internalType": "bytes32",
          "name": "_recordId",
          "type": "bytes32"
        },
        {
          "internalType": "address",
          "name": "_grantee",
          "type": "address"
        }
      ],
      "name": "revokeAccess",
      "outputs": [],
      "stateMutability": "nonpayable",
      "type": "function"
    },
    {
      "inputs": [
        {
          "internalType": "bytes32",
          "name": "role",
          "type": "bytes32"
        },
        {
          "internalType": "address",
          "name": "account",
          "type": "address"
        }
      ],
      "name": "revokeRole",
      "outputs": [],
      "stateMutability": "nonpayable",
      "type": "function"
    },
    {
      "inputs": [
        {
          "internalType": "bytes4",
          "name": "interfaceId",
          "type": "bytes4"
        }
      ],
      "name": "supportsInterface",
      "outputs": [
        {
          "internalType": "bool",
          "name": "",
          "type": "bool"
        }
      ],
      "stateMutability": "view",
      "type": "function"
    },
    {
      "inputs": [],
      "name": "unpause",
      "outputs": [],
      "stateMutability": "nonpayable",
      "type": "function"
    },
    {
      "inputs": [
        {
          "internalType": "bytes32",
          "name": "_recordId",
          "type": "bytes32"
        },
        {
          "internalType": "bytes32",
          "name": "_newDataHash",
          "type": "bytes32"
        },
        {
          "internalType": "bytes32",
          "name": "_newMetadataHash",
          "type": "bytes32"
        }
      ],
      "name": "updateRecord",
      "outputs": [],
      "stateMutability": "nonpayable",
      "type": "function"
    }
  ],
  "bytecode": "0x60806040523480156200001157600080fd5b506040516200158f3803806200158f833981016040819052620000349162000134565b600180546001600160a81b0319166101006001600160a01b038416021790556200006060003362000093565b6200008c7fa49807205ce4d355092ef5a8a18f56e8913cf4a201fbe287825b095693c217753362000093565b5062000166565b6000828152602081815260408083206001600160a01b038516845290915290205460ff1662000130576000828152602081815260408083206001600160a01b03851684529091529020805460ff19166001179055620000ef3390565b6001600160a01b0316816001600160a01b0316837f2f8788117e7eff1d82e926ec794901d17c78024a50270940304540a733656f0d60405160405180910390a45b5050565b6000602082840312156200014757600080fd5b81516001600160a01b03811681146200015f57600080fd5b9392505050565b61141980620001766000396000f3fe608060405234801561001057600080fd5b50600436106101215760003560e01c80634bd14b4d116100ad5780638456cb59116100715780638456cb59146102a45780638d53b208146102ac57806391d14854146102bf578063a217fddf146102d2578063d547741f146102da57600080fd5b80634bd14b4d1461021c5780635c975abb1461022f57806367031bae1461023a57806375b238fc1461026a57806383177db31461029157600080fd5b806325200f05116100f457806325200f05146101c6578063283d98af146101db5780632f2ff15d146101ee57806336568abe146102015780633f4ba83a1461021457600080fd5b806301ffc9a714610126578063213681cd1461014e578063248a9ca31461016e57806324c20a341461019f575b600080fd5b610139610134366004611046565b6102ed565b60405190151581526020015b60405180910390f35b61016161015c366004611070565b610324565b60405161014591906110c1565b61019161017c366004611070565b60009081526020819052604090206001015490565b604051908152602001610145565b6101917f18d9ff454de989bd126b06bd404b47ede75f9e65543e94e8d212f89d7dcbb87c81565b6101d96101d436600461113c565b6104a5565b005b6101d96101e9366004611171565b610653565b6101d96101fc36600461119d565b610761565b6101d961020f36600461119d565b61078b565b6101d9610809565b61019161022a3660046111d7565b61083e565b60015460ff16610139565b6001546102529061010090046001600160a01b031681565b6040516001600160a01b039091168152602001610145565b6101917fa49807205ce4d355092ef5a8a18f56e8913cf4a201fbe287825b095693c2177581565b61013961029f36600461119d565b610aa9565b6101d9610b00565b6101d96102ba36600461119d565b610b32565b6101396102cd36600461119d565b610bd9565b610191600081565b6101d96102e836600461119d565b610c02565b60006001600160e01b03198216637965db0b60e01b148061031e57506301ffc9a760e01b6001600160e01b03198316145b92915050565b6040805160e081018252600080825260208201819052918101829052606081018290526080810182905260a0810182905260c081019190915260008281526003602052604090206001015482906001600160a01b031633148061038c575061038c8133610aa9565b6103b15760405162461bcd60e51b81526004016103a890611225565b60405180910390fd5b60008381526003602052604090205483146104065760405162461bcd60e51b8152602060048201526015602482015274149958dbdc9908191bd95cc81b9bdd08195e1a5cdd605a1b60448201526064016103a8565b600083815260036020908152604091829020825160e0810184528154815260018201546001600160a01b0381169382019390935292909190830190600160a01b900460ff16600581111561045c5761045c611089565b600581111561046d5761046d611089565b815260028201546020820152600382015460408201526004820154606082015260059091015460ff1615156080909101529392505050565b60008381526003602052604090206001015483906001600160a01b03163314806104d457506104d48133610aa9565b6104f05760405162461bcd60e51b81526004016103a890611225565b6104f8610c27565b60015460405163b9209e3360e01b81526001600160a01b0385811660048301526101009092049091169063b9209e3390602401602060405180830381865afa158015610548573d6000803e3d6000fd5b505050506040513d601f19601f8201168201806040525081019061056c9190611269565b6105af5760405162461bcd60e51b815260206004820152601460248201527311dc985b9d1959481b9bdd081d995c9a599a595960621b60448201526064016103a8565b4282116105f45760405162461bcd60e51b8152602060048201526013602482015272496e76616c6964206578706972792074696d6560681b60448201526064016103a8565b60008481526004602090815260408083206001600160a01b038716808552908352928190208590555184815286917f8d772871efc0bd62050916c1bfffb4064889229de732a1863f511062b992e35e910160405180910390a350505050565b60008381526003602052604090206001015483906001600160a01b031633148061068257506106828133610aa9565b61069e5760405162461bcd60e51b81526004016103a890611225565b6106a6610c27565b60008481526003602052604090205484146106fb5760405162461bcd60e51b8152602060048201526015602482015274149958dbdc9908191bd95cc81b9bdd08195e1a5cdd605a1b60448201526064016103a8565b60008481526003602081905260409182902060028101869055908101849055426004909101555184907fc5cb186cacf224674556afa8e45a9796ea6efab101c6a50b6aa2dcb9ea142137906107539086815260200190565b60405180910390a250505050565b60008281526020819052604090206001015461077c81610c6f565b6107868383610c79565b505050565b6001600160a01b03811633146107fb5760405162461bcd60e51b815260206004820152602f60248201527f416363657373436f6e74726f6c3a2063616e206f6e6c792072656e6f756e636560448201526e103937b632b9903337b91039b2b63360891b60648201526084016103a8565b6108058282610cfd565b5050565b7fa49807205ce4d355092ef5a8a18f56e8913cf4a201fbe287825b095693c2177561083381610c6f565b61083b610d62565b50565b60015460405163b9209e3360e01b815233600482015260009161010090046001600160a01b03169063b9209e3390602401602060405180830381865afa15801561088c573d6000803e3d6000fd5b505050506040513d601f19601f820116820180604052508101906108b09190611269565b61090e5760405162461bcd60e51b815260206004820152602960248201527f4865616c74685265636f726452656769737472793a2043616c6c6572206e6f74604482015268081d995c9a599a595960ba1b60648201526084016103a8565b610916610c27565b610924600280546001019055565b60003361093060025490565b60405160609290921b6bffffffffffffffffffffffff1916602083015260348201524260548201526074016040516020818303038152906040528051906020012090506040518060e00160405280828152602001336001600160a01b031681526020018760058111156109a5576109a5611089565b81526020808201889052604080830188905242606084015286151560809093019290925260008481526003825282902083518155908301516001820180546001600160a01b039092166001600160a01b031983168117825593850151929390916001600160a81b03191617600160a01b836005811115610a2757610a27611089565b0217905550606082015160028201556080820151600382015560a0820151600482015560c0909101516005909101805460ff1916911515919091179055604051339082907f661b0a2c6f88e7bc6cdf042068bfcf9a823df6a083f8224d302367e4db1bb95590610a98908a90611286565b60405180910390a395945050505050565b6000828152600360205260408120600101546001600160a01b03808416911603610ad55750600161031e565b5060009182526004602090815260408084206001600160a01b03939093168452919052902054421090565b7fa49807205ce4d355092ef5a8a18f56e8913cf4a201fbe287825b095693c21775610b2a81610c6f565b61083b610db4565b60008281526003602052604090206001015482906001600160a01b0316331480610b615750610b618133610aa9565b610b7d5760405162461bcd60e51b81526004016103a890611225565b610b85610c27565b60008381526004602090815260408083206001600160a01b038616808552925280832083905551909185917f323cb1040d0f329f4077e2d1a7db58a0d52ebc403935130a0d11bb74b79d5ba29190a3505050565b6000918252602082815260408084206001600160a01b0393909316845291905290205460ff1690565b600082815260208190526040902060010154610c1d81610c6f565b6107868383610cfd565b60015460ff1615610c6d5760405162461bcd60e51b815260206004820152601060248201526f14185d5cd8589b194e881c185d5cd95960821b60448201526064016103a8565b565b61083b8133610def565b610c838282610bd9565b610805576000828152602081815260408083206001600160a01b03851684529091529020805460ff19166001179055610cb93390565b6001600160a01b0316816001600160a01b0316837f2f8788117e7eff1d82e926ec794901d17c78024a50270940304540a733656f0d60405160405180910390a45050565b610d078282610bd9565b15610805576000828152602081815260408083206001600160a01b0385168085529252808320805460ff1916905551339285917ff6391f5c32d9c69d2a47ea670b442974b53935d1edc7fd64eb21e047a839171b9190a45050565b610d6a610e48565b6001805460ff191690557f5db9ee0a495bf2e6ff9c91a7834c1ba4fdd244a5e8aa4e537bd38aeae4b073aa335b6040516001600160a01b03909116815260200160405180910390a1565b610dbc610c27565b6001805460ff1916811790557f62e78cea01bee320cd4e420270b5ea74000d11b0c9f74754ebdbfc544b05a25833610d97565b610df98282610bd9565b61080557610e0681610e91565b610e11836020610ea3565b604051602001610e229291906112b8565b60408051601f198184030181529082905262461bcd60e51b82526103a89160040161132d565b60015460ff16610c6d5760405162461bcd60e51b815260206004820152601460248201527314185d5cd8589b194e881b9bdd081c185d5cd95960621b60448201526064016103a8565b606061031e6001600160a01b03831660145b60606000610eb2836002611376565b610ebd90600261138d565b67ffffffffffffffff811115610ed557610ed56113a0565b6040519080825280601f01601f191660200182016040528015610eff576020820181803683370190505b509050600360fc1b81600081518110610f1a57610f1a6113b6565b60200101906001600160f81b031916908160001a905350600f60fb1b81600181518110610f4957610f496113b6565b60200101906001600160f81b031916908160001a9053506000610f6d846002611376565b610f7890600161138d565b90505b6001811115610ff0576f181899199a1a9b1b9c1cb0b131b232b360811b85600f1660108110610fac57610fac6113b6565b1a60f81b828281518110610fc257610fc26113b6565b60200101906001600160f81b031916908160001a90535060049490941c93610fe9816113cc565b9050610f7b565b50831561103f5760405162461bcd60e51b815260206004820181905260248201527f537472696e67733a20686578206c656e67746820696e73756666696369656e7460448201526064016103a8565b9392505050565b60006020828403121561105857600080fd5b81356001600160e01b03198116811461103f57600080fd5b60006020828403121561108257600080fd5b5035919050565b634e487b7160e01b600052602160045260246000fd5b600681106110bd57634e487b7160e01b600052602160045260246000fd5b9052565b815181526020808301516001600160a01b03169082015260408083015160e08301916110ef9084018261109f565b50606083015160608301526080830151608083015260a083015160a083015260c0830151151560c083015292915050565b80356001600160a01b038116811461113757600080fd5b919050565b60008060006060848603121561115157600080fd5b8335925061116160208501611120565b9150604084013590509250925092565b60008060006060848603121561118657600080fd5b505081359360208301359350604090920135919050565b600080604083850312156111b057600080fd5b823591506111c060208401611120565b90509250929050565b801515811461083b57600080fd5b600080600080608085870312156111ed57600080fd5b8435600681106111fc57600080fd5b93506020850135925060408501359150606085013561121a816111c9565b939692955090935050565b60208082526024908201527f4865616c74685265636f726452656769737472793a204e6f7420617574686f726040820152631a5e995960e21b606082015260800190565b60006020828403121561127b57600080fd5b815161103f816111c9565b6020810161031e828461109f565b60005b838110156112af578181015183820152602001611297565b50506000910152565b7f416363657373436f6e74726f6c3a206163636f756e74200000000000000000008152600083516112f0816017850160208801611294565b7001034b99036b4b9b9b4b733903937b6329607d1b6017918401918201528351611321816028840160208801611294565b01602801949350505050565b602081526000825180602084015261134c816040850160208701611294565b601f01601f19169190910160400192915050565b634e487b7160e01b600052601160045260246000fd5b808202811582820484141761031e5761031e611360565b8082018082111561031e5761031e611360565b634e487b7160e01b600052604160045260246000fd5b634e487b7160e01b600052603260045260246000fd5b6000816113db576113db611360565b50600019019056fea26469706673582212202a1143dfa9d9e95407f5a3bd1dbf36ea7f63243e75ecffae02e24d3762f92f9664736f6c63430008130033",
  "linkReferences": {},
  "deployedLinkReferences": {}
}