{
  "_format": "hh-sol-artifact-1",
  "contractName": "HealthRecordStorage",
  "sourceName": "contracts/storage/HealthRecordStorage.sol",
  "abi": [
    {
      "inputs": [
        {
          "internalType": "address",
          "name": "_identityContract",
          "type": "address"
        }
      ],
      "stateMutability": "nonpayable",
      "type": "constructor"
    },
    {
      "anonymous": false,
      "inputs": [
        {
          "indexed": true,
          "internalType": "bytes32",
          "name": "recordId",
          "type": "bytes32"
        },
        {
          "indexed": true,
          "internalType": "address",
          "name": "grantee",
          "type": "address"
        },
        {
          "indexed": false,
          "internalType": "uint256",
          "name": "expiryTime",
          "type": "uint256"
        }
      ],
      "name": "AccessGranted",
      "type": "event"
    },
    {
      "anonymous": false,
      "inputs": [
        {
          "indexed": false,
          "internalType": "address",
          "name": "account",
          "type": "address"
        }
      ],
      "name": "Paused",
      "type": "event"
    },
    {
      "anonymous": false,
      "inputs": [
        {
          "indexed": true,
          "internalType": "bytes32",
          "name": "recordId",
          "type": "bytes32"
        }
      ],
      "name": "RecordDeactivated",
      "type": "event"
    },
    {
      "anonymous": false,
      "inputs": [
        {
          "indexed": true,
          "internalType": "bytes32",
          "name": "recordId",
          "type": "bytes32"
        },
        {
          "indexed": true,
          "internalType": "address",
          "name": "owner",
          "type": "address"
        },
        {
          "indexed": false,
          "internalType": "bytes32",
          "name": "recordHash",
          "type": "bytes32"
        }
      ],
      "name": "RecordStored",
      "type": "event"
    },
    {
      "anonymous": false,
      "inputs": [
        {
          "indexed": true,
          "internalType": "bytes32",
          "name": "recordId",
          "type": "bytes32"
        },
        {
          "indexed": false,
          "internalType": "bytes32",
          "name": "newRecordHash",
          "type": "bytes32"
        }
      ],
      "name": "RecordUpdated",
      "type": "event"
    },
    {
      "anonymous": false,
      "inputs": [
        {
          "indexed": true,
          "internalType": "bytes32",
          "name": "role",
          "type": "bytes32"
        },
        {
          "indexed": true,
          "internalType": "bytes32",
          "name": "previousAdminRole",
          "type": "bytes32"
        },
        {
          "indexed": true,
          "internalType": "bytes32",
          "name": "newAdminRole",
          "type": "bytes32"
        }
      ],
      "name": "RoleAdminChanged",
      "type": "event"
    },
    {
      "anonymous": false,
      "inputs": [
        {
          "indexed": true,
          "internalType": "bytes32",
          "name": "role",
          "type": "bytes32"
        },
        {
          "indexed": true,
          "internalType": "address",
          "name": "account",
          "type": "address"
        },
        {
          "indexed": true,
          "internalType": "address",
          "name": "sender",
          "type": "address"
        }
      ],
      "name": "RoleGranted",
      "type": "event"
    },
    {
      "anonymous": false,
      "inputs": [
        {
          "indexed": true,
          "internalType": "bytes32",
          "name": "role",
          "type": "bytes32"
        },
        {
          "indexed": true,
          "internalType": "address",
          "name": "account",
          "type": "address"
        },
        {
          "indexed": true,
          "internalType": "address",
          "name": "sender",
          "type": "address"
        }
      ],
      "name": "RoleRevoked",
      "type": "event"
    },
    {
      "anonymous": false,
      "inputs": [
        {
          "indexed": false,
          "internalType": "address",
          "name": "account",
          "type": "address"
        }
      ],
      "name": "Unpaused",
      "type": "event"
    },
    {
      "inputs": [],
      "name": "ADMIN_ROLE",
      "outputs": [
        {
          "internalType": "bytes32",
          "name": "",
          "type": "bytes32"
        }
      ],
      "stateMutability": "view",
      "type": "function"
    },
    {
      "inputs": [],
      "name": "DEFAULT_ADMIN_ROLE",
      "outputs": [
        {
          "internalType": "bytes32",
          "name": "",
          "type": "bytes32"
        }
      ],
      "stateMutability": "view",
      "type": "function"
    },
    {
      "inputs": [],
      "name": "PROVIDER_ROLE",
      "outputs": [
        {
          "internalType": "bytes32",
          "name": "",
          "type": "bytes32"
        }
      ],
      "stateMutability": "view",
      "type": "function"
    },
    {
      "inputs": [
        {
          "internalType": "bytes32",
          "name": "_recordId",
          "type": "bytes32"
        }
      ],
      "name": "deactivateRecord",
      "outputs": [],
      "stateMutability": "nonpayable",
      "type": "function"
    },
    {
      "inputs": [
        {
          "internalType": "bytes32",
          "name": "_recordId",
          "type": "bytes32"
        },
        {
          "internalType": "address",
          "name": "_grantee",
          "type": "address"
        }
      ],
      "name": "getAccess",
      "outputs": [
        {
          "components": [
            {
              "internalType": "address",
              "name": "grantee",
              "type": "address"
            },
            {
              "internalType": "uint256",
              "name": "expiryTime",
              "type": "uint256"
            },
            {
              "internalType": "bytes32",
              "name": "encryptedKey",
              "type": "bytes32"
            },
            {
              "internalType": "bool",
              "name": "active",
              "type": "bool"
            }
          ],
          "internalType": "struct HealthRecordStorage.AccessGrant",
          "name": "",
          "type": "tuple"
        }
      ],
      "stateMutability": "view",
      "type": "function"
    },
    {
      "inputs": [
        {
          "internalType": "bytes32",
          "name": "_recordId",
          "type": "bytes32"
        }
      ],
      "name": "getRecord",
      "outputs": [
        {
          "components": [
            {
              "internalType": "bytes32",
              "name": "recordHash",
              "type": "bytes32"
            },
            {
              "internalType": "string",
              "name": "ipfsHash",
              "type": "string"
            },
            {
              "internalType": "address",
              "name": "owner",
              "type": "address"
            },
            {
              "internalType": "uint256",
              "name": "timestamp",
              "type": "uint256"
            },
            {
              "internalType": "bool",
              "name": "active",
              "type": "bool"
            },
            {
              "internalType": "bytes32",
              "name": "encryptionKey",
              "type": "bytes32"
            }
          ],
          "internalType": "struct HealthRecordStorage.HealthRecord",
          "name": "",
          "type": "tuple"
        }
      ],
      "stateMutability": "view",
      "type": "function"
    },
    {
      "inputs": [
        {
          "internalType": "bytes32",
          "name": "role",
          "type": "bytes32"
        }
      ],
      "name": "getRoleAdmin",
      "outputs": [
        {
          "internalType": "bytes32",
          "name": "",
          "type": "bytes32"
        }
      ],
      "stateMutability": "view",
      "type": "function"
    },
    {
      "inputs": [
        {
          "internalType": "address",
          "name": "_user",
          "type": "address"
        }
      ],
      "name": "getUserRecords",
      "outputs": [
        {
          "internalType": "bytes32[]",
          "name": "",
          "type": "bytes32[]"
        }
      ],
      "stateMutability": "view",
      "type": "function"
    },
    {
      "inputs": [
        {
          "internalType": "bytes32",
          "name": "_recordId",
          "type": "bytes32"
        },
        {
          "internalType": "address",
          "name": "_grantee",
          "type": "address"
        },
        {
          "internalType": "uint256",
          "name": "_expiryTime",
          "type": "uint256"
        },
        {
          "internalType": "bytes32",
          "name": "_encryptedKey",
          "type": "bytes32"
        }
      ],
      "name": "grantAccess",
      "outputs": [],
      "stateMutability": "nonpayable",
      "type": "function"
    },
    {
      "inputs": [
        {
          "internalType": "bytes32",
          "name": "role",
          "type": "bytes32"
        },
        {
          "internalType": "address",
          "name": "account",
          "type": "address"
        }
      ],
      "name": "grantRole",
      "outputs": [],
      "stateMutability": "nonpayable",
      "type": "function"
    },
    {
      "inputs": [
        {
          "internalType": "bytes32",
          "name": "role",
          "type": "bytes32"
        },
        {
          "internalType": "address",
          "name": "account",
          "type": "address"
        }
      ],
      "name": "hasRole",
      "outputs": [
        {
          "internalType": "bool",
          "name": "",
          "type": "bool"
        }
      ],
      "stateMutability": "view",
      "type": "function"
    },
    {
      "inputs": [
        {
          "internalType": "bytes32",
          "name": "",
          "type": "bytes32"
        }
      ],
      "name": "healthRecords",
      "outputs": [
        {
          "internalType": "bytes32",
          "name": "recordHash",
          "type": "bytes32"
        },
        {
          "internalType": "string",
          "name": "ipfsHash",
          "type": "string"
        },
        {
          "internalType": "address",
          "name": "owner",
          "type": "address"
        },
        {
          "internalType": "uint256",
          "name": "timestamp",
          "type": "uint256"
        },
        {
          "internalType": "bool",
          "name": "active",
          "type": "bool"
        },
        {
          "internalType": "bytes32",
          "name": "encryptionKey",
          "type": "bytes32"
        }
      ],
      "stateMutability": "view",
      "type": "function"
    },
    {
      "inputs": [],
      "name": "identityContract",
      "outputs": [
        {
          "internalType": "contract IUHCIdentity",
          "name": "",
          "type": "address"
        }
      ],
      "stateMutability": "view",
      "type": "function"
    },
    {
      "inputs": [],
      "name": "pause",
      "outputs": [],
      "stateMutability": "nonpayable",
      "type": "function"
    },
    {
      "inputs": [],
      "name": "paused",
      "outputs": [
        {
          "internalType": "bool",
          "name": "",
          "type": "bool"
        }
      ],
      "stateMutability": "view",
      "type": "function"
    },
    {
      "inputs": [
        {
          "internalType": "bytes32",
          "name": "",
          "type": "bytes32"
        },
        {
          "internalType": "address",
          "name": "",
          "type": "address"
        }
      ],
      "name": "recordAccess",
      "outputs": [
        {
          "internalType": "address",
          "name": "grantee",
          "type": "address"
        },
        {
          "internalType": "uint256",
          "name": "expiryTime",
          "type": "uint256"
        },
        {
          "internalType": "bytes32",
          "name": "encryptedKey",
          "type": "bytes32"
        },
        {
          "internalType": "bool",
          "name": "active",
          "type": "bool"
        }
      ],
      "stateMutability": "view",
      "type": "function"
    },
    {
      "inputs": [
        {
          "internalType": "bytes32",
          "name": "role",
          "type": "bytes32"
        },
        {
          "internalType": "address",
          "name": "account",
          "type": "address"
        }
      ],
      "name": "renounceRole",
      "outputs": [],
      "stateMutability": "nonpayable",
      "type": "function"
    },
    {
      "inputs": [
        {
          "internalType": "bytes32",
          "name": "role",
          "type": "bytes32"
        },
        {
          "internalType": "address",
          "name": "account",
          "type": "address"
        }
      ],
      "name": "revokeRole",
      "outputs": [],
      "stateMutability": "nonpayable",
      "type": "function"
    },
    {
      "inputs": [
        {
          "internalType": "bytes32",
          "name": "_recordHash",
          "type": "bytes32"
        },
        {
          "internalType": "string",
          "name": "_ipfsHash",
          "type": "string"
        },
        {
          "internalType": "bytes32",
          "name": "_encryptionKey",
          "type": "bytes32"
        },
        {
          "internalType": "bytes",
          "name": "_signature",
          "type": "bytes"
        }
      ],
      "name": "storeRecord",
      "outputs": [
        {
          "internalType": "bytes32",
          "name": "",
          "type": "bytes32"
        }
      ],
      "stateMutability": "nonpayable",
      "type": "function"
    },
    {
      "inputs": [
        {
          "internalType": "bytes4",
          "name": "interfaceId",
          "type": "bytes4"
        }
      ],
      "name": "supportsInterface",
      "outputs": [
        {
          "internalType": "bool",
          "name": "",
          "type": "bool"
        }
      ],
      "stateMutability": "view",
      "type": "function"
    },
    {
      "inputs": [],
      "name": "unpause",
      "outputs": [],
      "stateMutability": "nonpayable",
      "type": "function"
    },
    {
      "inputs": [
        {
          "internalType": "bytes32",
          "name": "_recordId",
          "type": "bytes32"
        },
        {
          "internalType": "bytes32",
          "name": "_newRecordHash",
          "type": "bytes32"
        },
        {
          "internalType": "string",
          "name": "_newIpfsHash",
          "type": "string"
        },
        {
          "internalType": "bytes32",
          "name": "_newEncryptionKey",
          "type": "bytes32"
        },
        {
          "internalType": "bytes",
          "name": "_signature",
          "type": "bytes"
        }
      ],
      "name": "updateRecord",
      "outputs": [],
      "stateMutability": "nonpayable",
      "type": "function"
    },
    {
      "inputs": [
        {
          "internalType": "address",
          "name": "",
          "type": "address"
        },
        {
          "internalType": "uint256",
          "name": "",
          "type": "uint256"
        }
      ],
      "name": "userRecords",
      "outputs": [
        {
          "internalType": "bytes32",
          "name": "",
          "type": "bytes32"
        }
      ],
      "stateMutability": "view",
      "type": "function"
    }
  ],
  "bytecode": "0x60806040523480156200001157600080fd5b506040516200212238038062002122833981016040819052620000349162000134565b600180546001600160a81b0319166101006001600160a01b038416021790556200006060003362000093565b6200008c7fa49807205ce4d355092ef5a8a18f56e8913cf4a201fbe287825b095693c217753362000093565b5062000166565b6000828152602081815260408083206001600160a01b038516845290915290205460ff1662000130576000828152602081815260408083206001600160a01b03851684529091529020805460ff19166001179055620000ef3390565b6001600160a01b0316816001600160a01b0316837f2f8788117e7eff1d82e926ec794901d17c78024a50270940304540a733656f0d60405160405180910390a45b5050565b6000602082840312156200014757600080fd5b81516001600160a01b03811681146200015f57600080fd5b9392505050565b611fac80620001766000396000f3fe608060405234801561001057600080fd5b506004361061014d5760003560e01c80635c975abb116100c35780639c48cbda1161007c5780639c48cbda14610337578063a217fddf146103af578063d547741f146103b7578063e2a08a8f146103ca578063e85d28b9146103dd578063e9021744146103f057600080fd5b80635c975abb146102b957806367031bae146102c457806375b238fc146102f45780638456cb5914610309578063884518c51461031157806391d148541461032457600080fd5b806324c20a341161011557806324c20a34146101f35780632f2ff15d1461021a578063305aa9011461022d57806336568abe1461027e5780633f4ba83a1461029157806351096b021461029957600080fd5b806301ffc9a714610152578063031d15d61461017a5780631d3f6f9a1461018f578063213681cd146101a2578063248a9ca3146101c2575b600080fd5b610165610160366004611873565b610415565b60405190151581526020015b60405180910390f35b61018d610188366004611940565b61044c565b005b61018d61019d3660046119dd565b61064b565b6101b56101b0366004611a18565b6108b7565b6040516101719190611a81565b6101e56101d0366004611a18565b60009081526020819052604090206001015490565b604051908152602001610171565b6101e57f18d9ff454de989bd126b06bd404b47ede75f9e65543e94e8d212f89d7dcbb87c81565b61018d610228366004611ae5565b610a67565b61024061023b366004611ae5565b610a91565b604051610171919081516001600160a01b03168152602080830151908201526040808301519082015260609182015115159181019190915260800190565b61018d61028c366004611ae5565b610b5e565b61018d610bdc565b6102ac6102a7366004611b11565b610bff565b6040516101719190611b2c565b60015460ff16610165565b6001546102dc9061010090046001600160a01b031681565b6040516001600160a01b039091168152602001610171565b6101e5600080516020611f5783398151915281565b61018d610cb1565b6101e561031f366004611b70565b610cd1565b610165610332366004611ae5565b610f96565b610383610345366004611ae5565b6003602081815260009384526040808520909152918352912080546001820154600283015492909301546001600160a01b0390911692919060ff1684565b604080516001600160a01b03909516855260208501939093529183015215156060820152608001610171565b6101e5600081565b61018d6103c5366004611ae5565b610fbf565b61018d6103d8366004611a18565b610fe4565b6101e56103eb366004611be7565b6110de565b6104036103fe366004611a18565b61110f565b60405161017196959493929190611c11565b60006001600160e01b03198216637965db0b60e01b148061044657506301ffc9a760e01b6001600160e01b03198316145b92915050565b6104546111dd565b600085815260026020819052604090912001546001600160a01b031633146104b65760405162461bcd60e51b815260206004820152601060248201526f2737ba103932b1b7b9321037bbb732b960811b60448201526064015b60405180910390fd5b60008581526002602052604090206004015460ff1661050b5760405162461bcd60e51b81526020600482015260116024820152705265636f7264206e6f742061637469766560781b60448201526064016104ad565b6000858585426040516020016105249493929190611c58565b604051602081830303815290604052805190602001209050600061057f83610579847f19457468657265756d205369676e6564204d6573736167653a0a3332000000006000908152601c91909152603c902090565b90611225565b90506001600160a01b03811633146105cd5760405162461bcd60e51b8152602060048201526011602482015270496e76616c6964207369676e617475726560781b60448201526064016104ad565b60008781526002602052604090208681556001016105eb8682611d14565b50600087815260026020526040908190204260038201556005018590555187907fc5cb186cacf224674556afa8e45a9796ea6efab101c6a50b6aa2dcb9ea1421379061063a9089815260200190565b60405180910390a250505050505050565b6106536111dd565b600084815260026020819052604090912001546001600160a01b031633146106b05760405162461bcd60e51b815260206004820152601060248201526f2737ba103932b1b7b9321037bbb732b960811b60448201526064016104ad565b60008481526002602052604090206004015460ff166107055760405162461bcd60e51b81526020600482015260116024820152705265636f7264206e6f742061637469766560781b60448201526064016104ad565b42821161074a5760405162461bcd60e51b8152602060048201526013602482015272496e76616c6964206578706972792074696d6560681b60448201526064016104ad565b60015460405163b9209e3360e01b81526001600160a01b0385811660048301526101009092049091169063b9209e3390602401602060405180830381865afa15801561079a573d6000803e3d6000fd5b505050506040513d601f19601f820116820180604052508101906107be9190611dd4565b6108015760405162461bcd60e51b815260206004820152601460248201527311dc985b9d1959481b9bdd081d995c9a599a595960621b60448201526064016104ad565b604080516080810182526001600160a01b03858116808352602080840187815284860187815260016060870181815260008d815260038087528a82208883528752908a9020985189546001600160a01b03191698169790971788559251908701555160028601555193909201805460ff1916931515939093179092559151848152909186917ffb0d878058fa0fa7787395856cffd8a6cc8c542d9d67a0c121fe56be1c658959910160405180910390a350505050565b6040805160c08101825260008082526060602083018190529282018190529181018290526080810182905260a0810191909152600082815260026020819052604090912001546001600160a01b031633148061095457506000828152600360208181526040808420338552909152909120015460ff1680156109545750600082815260036020908152604080832033845290915290206001015442105b6109705760405162461bcd60e51b81526004016104ad90611df6565b600260008381526020019081526020016000206040518060c0016040529081600082015481526020016001820180546109a890611c8c565b80601f01602080910402602001604051908101604052809291908181526020018280546109d490611c8c565b8015610a215780601f106109f657610100808354040283529160200191610a21565b820191906000526020600020905b815481529060010190602001808311610a0457829003601f168201915b505050918352505060028201546001600160a01b0316602082015260038201546040820152600482015460ff161515606082015260059091015460809091015292915050565b600082815260208190526040902060010154610a8281611249565b610a8c8383611253565b505050565b604080516080810182526000808252602082018190529181018290526060810191909152600083815260026020819052604090912001546001600160a01b0316331480610ae657506001600160a01b03821633145b610b025760405162461bcd60e51b81526004016104ad90611df6565b5060008281526003602081815260408084206001600160a01b03808716865290835293819020815160808101835281549095168552600181015492850192909252600282015490840152015460ff161515606082015292915050565b6001600160a01b0381163314610bce5760405162461bcd60e51b815260206004820152602f60248201527f416363657373436f6e74726f6c3a2063616e206f6e6c792072656e6f756e636560448201526e103937b632b9903337b91039b2b63360891b60648201526084016104ad565b610bd882826112d7565b5050565b600080516020611f57833981519152610bf481611249565b610bfc61133c565b50565b60606001600160a01b038216331480610c2b5750610c2b600080516020611f5783398151915233610f96565b610c475760405162461bcd60e51b81526004016104ad90611df6565b6001600160a01b03821660009081526004602090815260409182902080548351818402810184019094528084529091830182828015610ca557602002820191906000526020600020905b815481526020019060010190808311610c91575b50505050509050919050565b600080516020611f57833981519152610cc981611249565b610bfc61138e565b6000610cdb6111dd565b60015460405163b9209e3360e01b81523360048201526101009091046001600160a01b03169063b9209e3390602401602060405180830381865afa158015610d27573d6000803e3d6000fd5b505050506040513d601f19601f82011682018060405250810190610d4b9190611dd4565b610d8b5760405162461bcd60e51b8152602060048201526011602482015270155cd95c881b9bdd081d995c9a599a5959607a1b60448201526064016104ad565b6000858542604051602001610da293929190611e1e565b6040516020818303038152906040528051906020012090506000610df784610579847f19457468657265756d205369676e6564204d6573736167653a0a3332000000006000908152601c91909152603c902090565b90506001600160a01b0381163314610e455760405162461bcd60e51b8152602060048201526011602482015270496e76616c6964207369676e617475726560781b60448201526064016104ad565b6040516bffffffffffffffffffffffff193360601b1660208201526034810188905242605482015260009060740160408051601f19818403018152828252805160209182012060c0840183528b84528382018b8152338585015242606086015260016080860181905260a086018c905260008381526002909452939092208451815591519094509091820190610edb9082611d14565b506040828101516002830180546001600160a01b0319166001600160a01b039092169190911790556060830151600383015560808301516004808401805460ff19169215159290921790915560a09093015160059092019190915533600081815260209384528281208054600181018255908252908490200184905590518a8152909183917f37df9938bc4c5e4a2faf3c3f43a96c40c9409c508902aa3ca991d1a9a904f57e910160405180910390a3979650505050505050565b6000918252602082815260408084206001600160a01b0393909316845291905290205460ff1690565b600082815260208190526040902060010154610fda81611249565b610a8c83836112d7565b610fec6111dd565b600081815260026020819052604090912001546001600160a01b03163314806110285750611028600080516020611f5783398151915233610f96565b6110445760405162461bcd60e51b81526004016104ad90611df6565b60008181526002602052604090206004015460ff1661109b5760405162461bcd60e51b8152602060048201526013602482015272105b1c9958591e4819195858dd1a5d985d1959606a1b60448201526064016104ad565b600081815260026020526040808220600401805460ff191690555182917f1524cac78e8c35af2a8a396e60dbf6851763616ae38e57d01848508d861ab1ac91a250565b600460205281600052604060002081815481106110fa57600080fd5b90600052602060002001600091509150505481565b6002602052600090815260409020805460018201805491929161113190611c8c565b80601f016020809104026020016040519081016040528092919081815260200182805461115d90611c8c565b80156111aa5780601f1061117f576101008083540402835291602001916111aa565b820191906000526020600020905b81548152906001019060200180831161118d57829003601f168201915b50505060028401546003850154600486015460059096015494956001600160a01b039092169490935060ff909116915086565b60015460ff16156112235760405162461bcd60e51b815260206004820152601060248201526f14185d5cd8589b194e881c185d5cd95960821b60448201526064016104ad565b565b600080600061123485856113c9565b915091506112418161140e565b509392505050565b610bfc8133611558565b61125d8282610f96565b610bd8576000828152602081815260408083206001600160a01b03851684529091529020805460ff191660011790556112933390565b6001600160a01b0316816001600160a01b0316837f2f8788117e7eff1d82e926ec794901d17c78024a50270940304540a733656f0d60405160405180910390a45050565b6112e18282610f96565b15610bd8576000828152602081815260408083206001600160a01b0385168085529252808320805460ff1916905551339285917ff6391f5c32d9c69d2a47ea670b442974b53935d1edc7fd64eb21e047a839171b9190a45050565b6113446115b1565b6001805460ff191690557f5db9ee0a495bf2e6ff9c91a7834c1ba4fdd244a5e8aa4e537bd38aeae4b073aa335b6040516001600160a01b03909116815260200160405180910390a1565b6113966111dd565b6001805460ff1916811790557f62e78cea01bee320cd4e420270b5ea74000d11b0c9f74754ebdbfc544b05a25833611371565b60008082516041036113ff5760208301516040840151606085015160001a6113f3878285856115fa565b94509450505050611407565b506000905060025b9250929050565b600081600481111561142257611422611e4b565b0361142a5750565b600181600481111561143e5761143e611e4b565b0361148b5760405162461bcd60e51b815260206004820152601860248201527f45434453413a20696e76616c6964207369676e6174757265000000000000000060448201526064016104ad565b600281600481111561149f5761149f611e4b565b036114ec5760405162461bcd60e51b815260206004820152601f60248201527f45434453413a20696e76616c6964207369676e6174757265206c656e6774680060448201526064016104ad565b600381600481111561150057611500611e4b565b03610bfc5760405162461bcd60e51b815260206004820152602260248201527f45434453413a20696e76616c6964207369676e6174757265202773272076616c604482015261756560f01b60648201526084016104ad565b6115628282610f96565b610bd85761156f816116be565b61157a8360206116d0565b60405160200161158b929190611e61565b60408051601f198184030181529082905262461bcd60e51b82526104ad91600401611ed6565b60015460ff166112235760405162461bcd60e51b815260206004820152601460248201527314185d5cd8589b194e881b9bdd081c185d5cd95960621b60448201526064016104ad565b6000807f7fffffffffffffffffffffffffffffff5d576e7357a4501ddfe92f46681b20a083111561163157506000905060036116b5565b6040805160008082526020820180845289905260ff881692820192909252606081018690526080810185905260019060a0016020604051602081039080840390855afa158015611685573d6000803e3d6000fd5b5050604051601f1901519150506001600160a01b0381166116ae576000600192509250506116b5565b9150600090505b94509492505050565b60606104466001600160a01b03831660145b606060006116df836002611eff565b6116ea906002611f16565b67ffffffffffffffff8111156117025761170261189d565b6040519080825280601f01601f19166020018201604052801561172c576020820181803683370190505b509050600360fc1b8160008151811061174757611747611f29565b60200101906001600160f81b031916908160001a905350600f60fb1b8160018151811061177657611776611f29565b60200101906001600160f81b031916908160001a905350600061179a846002611eff565b6117a5906001611f16565b90505b600181111561181d576f181899199a1a9b1b9c1cb0b131b232b360811b85600f16601081106117d9576117d9611f29565b1a60f81b8282815181106117ef576117ef611f29565b60200101906001600160f81b031916908160001a90535060049490941c9361181681611f3f565b90506117a8565b50831561186c5760405162461bcd60e51b815260206004820181905260248201527f537472696e67733a20686578206c656e67746820696e73756666696369656e7460448201526064016104ad565b9392505050565b60006020828403121561188557600080fd5b81356001600160e01b03198116811461186c57600080fd5b634e487b7160e01b600052604160045260246000fd5b600082601f8301126118c457600080fd5b813567ffffffffffffffff808211156118df576118df61189d565b604051601f8301601f19908116603f011681019082821181831017156119075761190761189d565b8160405283815286602085880101111561192057600080fd5b836020870160208301376000602085830101528094505050505092915050565b600080600080600060a0868803121561195857600080fd5b8535945060208601359350604086013567ffffffffffffffff8082111561197e57600080fd5b61198a89838a016118b3565b94506060880135935060808801359150808211156119a757600080fd5b506119b4888289016118b3565b9150509295509295909350565b80356001600160a01b03811681146119d857600080fd5b919050565b600080600080608085870312156119f357600080fd5b84359350611a03602086016119c1565b93969395505050506040820135916060013590565b600060208284031215611a2a57600080fd5b5035919050565b60005b83811015611a4c578181015183820152602001611a34565b50506000910152565b60008151808452611a6d816020860160208601611a31565b601f01601f19169290920160200192915050565b60208152815160208201526000602083015160c06040840152611aa760e0840182611a55565b905060018060a01b036040850151166060840152606084015160808401526080840151151560a084015260a084015160c08401528091505092915050565b60008060408385031215611af857600080fd5b82359150611b08602084016119c1565b90509250929050565b600060208284031215611b2357600080fd5b61186c826119c1565b6020808252825182820181905260009190848201906040850190845b81811015611b6457835183529284019291840191600101611b48565b50909695505050505050565b60008060008060808587031215611b8657600080fd5b84359350602085013567ffffffffffffffff80821115611ba557600080fd5b611bb1888389016118b3565b9450604087013593506060870135915080821115611bce57600080fd5b50611bdb878288016118b3565b91505092959194509250565b60008060408385031215611bfa57600080fd5b611c03836119c1565b946020939093013593505050565b86815260c060208201526000611c2a60c0830188611a55565b6001600160a01b03969096166040830152506060810193909352901515608083015260a09091015292915050565b84815283602082015260008351611c76816040850160208801611a31565b6040920191820192909252606001949350505050565b600181811c90821680611ca057607f821691505b602082108103611cc057634e487b7160e01b600052602260045260246000fd5b50919050565b601f821115610a8c57600081815260208120601f850160051c81016020861015611ced5750805b601f850160051c820191505b81811015611d0c57828155600101611cf9565b505050505050565b815167ffffffffffffffff811115611d2e57611d2e61189d565b611d4281611d3c8454611c8c565b84611cc6565b602080601f831160018114611d775760008415611d5f5750858301515b600019600386901b1c1916600185901b178555611d0c565b600085815260208120601f198616915b82811015611da657888601518255948401946001909101908401611d87565b5085821015611dc45787850151600019600388901b60f8161c191681555b5050505050600190811b01905550565b600060208284031215611de657600080fd5b8151801515811461186c57600080fd5b6020808252600e908201526d139bdd08185d5d1a1bdc9a5e995960921b604082015260600190565b83815260008351611e36816020850160208801611a31565b60209201918201929092526040019392505050565b634e487b7160e01b600052602160045260246000fd5b7f416363657373436f6e74726f6c3a206163636f756e7420000000000000000000815260008351611e99816017850160208801611a31565b7001034b99036b4b9b9b4b733903937b6329607d1b6017918401918201528351611eca816028840160208801611a31565b01602801949350505050565b60208152600061186c6020830184611a55565b634e487b7160e01b600052601160045260246000fd5b808202811582820484141761044657610446611ee9565b8082018082111561044657610446611ee9565b634e487b7160e01b600052603260045260246000fd5b600081611f4e57611f4e611ee9565b50600019019056fea49807205ce4d355092ef5a8a18f56e8913cf4a201fbe287825b095693c21775a2646970667358221220b1273319627a074ff8c3d3f8ca9969e6076b1a0558bb34a7295b0d5bb641b30164736f6c63430008130033",
  "linkReferences": {},
  "deployedLinkReferences": {}
}