{
  "_format": "hh-sol-artifact-1",
  "contractName": "StakingContract",
  "sourceName": "contracts/tokens/StakingContract.sol",
  "abi": [
    {
      "inputs": [
        {
          "internalType": "address",
          "name": "_uhcToken",
          "type": "address"
        },
        {
          "internalType": "address",
          "name": "_identityContract",
          "type": "address"
        }
      ],
      "stateMutability": "nonpayable",
      "type": "constructor"
    },
    {
      "anonymous": false,
      "inputs": [
        {
          "indexed": false,
          "internalType": "address",
          "name": "account",
          "type": "address"
        }
      ],
      "name": "Paused",
      "type": "event"
    },
    {
      "anonymous": false,
      "inputs": [
        {
          "indexed": true,
          "internalType": "address",
          "name": "staker",
          "type": "address"
        },
        {
          "indexed": false,
          "internalType": "uint256",
          "name": "amount",
          "type": "uint256"
        }
      ],
      "name": "RewardsClaimed",
      "type": "event"
    },
    {
      "anonymous": false,
      "inputs": [
        {
          "indexed": true,
          "internalType": "bytes32",
          "name": "role",
          "type": "bytes32"
        },
        {
          "indexed": true,
          "internalType": "bytes32",
          "name": "previousAdminRole",
          "type": "bytes32"
        },
        {
          "indexed": true,
          "internalType": "bytes32",
          "name": "newAdminRole",
          "type": "bytes32"
        }
      ],
      "name": "RoleAdminChanged",
      "type": "event"
    },
    {
      "anonymous": false,
      "inputs": [
        {
          "indexed": true,
          "internalType": "bytes32",
          "name": "role",
          "type": "bytes32"
        },
        {
          "indexed": true,
          "internalType": "address",
          "name": "account",
          "type": "address"
        },
        {
          "indexed": true,
          "internalType": "address",
          "name": "sender",
          "type": "address"
        }
      ],
      "name": "RoleGranted",
      "type": "event"
    },
    {
      "anonymous": false,
      "inputs": [
        {
          "indexed": true,
          "internalType": "bytes32",
          "name": "role",
          "type": "bytes32"
        },
        {
          "indexed": true,
          "internalType": "address",
          "name": "account",
          "type": "address"
        },
        {
          "indexed": true,
          "internalType": "address",
          "name": "sender",
          "type": "address"
        }
      ],
      "name": "RoleRevoked",
      "type": "event"
    },
    {
      "anonymous": false,
      "inputs": [
        {
          "indexed": true,
          "internalType": "address",
          "name": "staker",
          "type": "address"
        },
        {
          "indexed": false,
          "internalType": "uint256",
          "name": "amount",
          "type": "uint256"
        },
        {
          "indexed": false,
          "internalType": "string",
          "name": "reason",
          "type": "string"
        }
      ],
      "name": "Slashed",
      "type": "event"
    },
    {
      "anonymous": false,
      "inputs": [
        {
          "indexed": true,
          "internalType": "address",
          "name": "staker",
          "type": "address"
        },
        {
          "indexed": false,
          "internalType": "uint256",
          "name": "amount",
          "type": "uint256"
        },
        {
          "indexed": false,
          "internalType": "bytes32",
          "name": "tierId",
          "type": "bytes32"
        }
      ],
      "name": "Staked",
      "type": "event"
    },
    {
      "anonymous": false,
      "inputs": [
        {
          "indexed": false,
          "internalType": "address",
          "name": "account",
          "type": "address"
        }
      ],
      "name": "Unpaused",
      "type": "event"
    },
    {
      "anonymous": false,
      "inputs": [
        {
          "indexed": true,
          "internalType": "address",
          "name": "staker",
          "type": "address"
        },
        {
          "indexed": false,
          "internalType": "uint256",
          "name": "amount",
          "type": "uint256"
        }
      ],
      "name": "Unstaked",
      "type": "event"
    },
    {
      "inputs": [],
      "name": "ADMIN_ROLE",
      "outputs": [
        {
          "internalType": "bytes32",
          "name": "",
          "type": "bytes32"
        }
      ],
      "stateMutability": "view",
      "type": "function"
    },
    {
      "inputs": [],
      "name": "DEFAULT_ADMIN_ROLE",
      "outputs": [
        {
          "internalType": "bytes32",
          "name": "",
          "type": "bytes32"
        }
      ],
      "stateMutability": "view",
      "type": "function"
    },
    {
      "inputs": [],
      "name": "MIN_STAKE_DURATION",
      "outputs": [
        {
          "internalType": "uint256",
          "name": "",
          "type": "uint256"
        }
      ],
      "stateMutability": "view",
      "type": "function"
    },
    {
      "inputs": [],
      "name": "REWARD_PRECISION",
      "outputs": [
        {
          "internalType": "uint256",
          "name": "",
          "type": "uint256"
        }
      ],
      "stateMutability": "view",
      "type": "function"
    },
    {
      "inputs": [],
      "name": "SLASH_PENALTY_RATE",
      "outputs": [
        {
          "internalType": "uint256",
          "name": "",
          "type": "uint256"
        }
      ],
      "stateMutability": "view",
      "type": "function"
    },
    {
      "inputs": [],
      "name": "VALIDATOR_ROLE",
      "outputs": [
        {
          "internalType": "bytes32",
          "name": "",
          "type": "bytes32"
        }
      ],
      "stateMutability": "view",
      "type": "function"
    },
    {
      "inputs": [
        {
          "internalType": "address",
          "name": "_staker",
          "type": "address"
        }
      ],
      "name": "calculateRewards",
      "outputs": [
        {
          "internalType": "uint256",
          "name": "",
          "type": "uint256"
        }
      ],
      "stateMutability": "view",
      "type": "function"
    },
    {
      "inputs": [],
      "name": "claimRewards",
      "outputs": [],
      "stateMutability": "nonpayable",
      "type": "function"
    },
    {
      "inputs": [
        {
          "internalType": "bytes32",
          "name": "_tierId",
          "type": "bytes32"
        },
        {
          "internalType": "uint256",
          "name": "_minimumStake",
          "type": "uint256"
        },
        {
          "internalType": "uint256",
          "name": "_rewardRate",
          "type": "uint256"
        },
        {
          "internalType": "uint256",
          "name": "_lockPeriod",
          "type": "uint256"
        }
      ],
      "name": "createStakingTier",
      "outputs": [],
      "stateMutability": "nonpayable",
      "type": "function"
    },
    {
      "inputs": [
        {
          "internalType": "address",
          "name": "_token",
          "type": "address"
        },
        {
          "internalType": "uint256",
          "name": "_amount",
          "type": "uint256"
        }
      ],
      "name": "emergencyWithdraw",
      "outputs": [],
      "stateMutability": "nonpayable",
      "type": "function"
    },
    {
      "inputs": [
        {
          "internalType": "bytes32",
          "name": "role",
          "type": "bytes32"
        }
      ],
      "name": "getRoleAdmin",
      "outputs": [
        {
          "internalType": "bytes32",
          "name": "",
          "type": "bytes32"
        }
      ],
      "stateMutability": "view",
      "type": "function"
    },
    {
      "inputs": [
        {
          "internalType": "address",
          "name": "_staker",
          "type": "address"
        }
      ],
      "name": "getStakeInfo",
      "outputs": [
        {
          "internalType": "uint256",
          "name": "amount",
          "type": "uint256"
        },
        {
          "internalType": "uint256",
          "name": "startTime",
          "type": "uint256"
        },
        {
          "internalType": "uint256",
          "name": "rewards",
          "type": "uint256"
        },
        {
          "internalType": "bytes32",
          "name": "tierId",
          "type": "bytes32"
        },
        {
          "internalType": "bool",
          "name": "active",
          "type": "bool"
        }
      ],
      "stateMutability": "view",
      "type": "function"
    },
    {
      "inputs": [
        {
          "internalType": "bytes32",
          "name": "_tierId",
          "type": "bytes32"
        }
      ],
      "name": "getStakingTier",
      "outputs": [
        {
          "components": [
            {
              "internalType": "uint256",
              "name": "minimumStake",
              "type": "uint256"
            },
            {
              "internalType": "uint256",
              "name": "rewardRate",
              "type": "uint256"
            },
            {
              "internalType": "uint256",
              "name": "lockPeriod",
              "type": "uint256"
            },
            {
              "internalType": "bool",
              "name": "active",
              "type": "bool"
            }
          ],
          "internalType": "struct StakingContract.StakingTier",
          "name": "",
          "type": "tuple"
        }
      ],
      "stateMutability": "view",
      "type": "function"
    },
    {
      "inputs": [],
      "name": "getValidatorThreshold",
      "outputs": [
        {
          "internalType": "uint256",
          "name": "",
          "type": "uint256"
        }
      ],
      "stateMutability": "pure",
      "type": "function"
    },
    {
      "inputs": [
        {
          "internalType": "bytes32",
          "name": "role",
          "type": "bytes32"
        },
        {
          "internalType": "address",
          "name": "account",
          "type": "address"
        }
      ],
      "name": "grantRole",
      "outputs": [],
      "stateMutability": "nonpayable",
      "type": "function"
    },
    {
      "inputs": [
        {
          "internalType": "bytes32",
          "name": "role",
          "type": "bytes32"
        },
        {
          "internalType": "address",
          "name": "account",
          "type": "address"
        }
      ],
      "name": "hasRole",
      "outputs": [
        {
          "internalType": "bool",
          "name": "",
          "type": "bool"
        }
      ],
      "stateMutability": "view",
      "type": "function"
    },
    {
      "inputs": [],
      "name": "identityContract",
      "outputs": [
        {
          "internalType": "contract IUHCIdentity",
          "name": "",
          "type": "address"
        }
      ],
      "stateMutability": "view",
      "type": "function"
    },
    {
      "inputs": [],
      "name": "pause",
      "outputs": [],
      "stateMutability": "nonpayable",
      "type": "function"
    },
    {
      "inputs": [],
      "name": "paused",
      "outputs": [
        {
          "internalType": "bool",
          "name": "",
          "type": "bool"
        }
      ],
      "stateMutability": "view",
      "type": "function"
    },
    {
      "inputs": [
        {
          "internalType": "bytes32",
          "name": "role",
          "type": "bytes32"
        },
        {
          "internalType": "address",
          "name": "account",
          "type": "address"
        }
      ],
      "name": "renounceRole",
      "outputs": [],
      "stateMutability": "nonpayable",
      "type": "function"
    },
    {
      "inputs": [
        {
          "internalType": "bytes32",
          "name": "role",
          "type": "bytes32"
        },
        {
          "internalType": "address",
          "name": "account",
          "type": "address"
        }
      ],
      "name": "revokeRole",
      "outputs": [],
      "stateMutability": "nonpayable",
      "type": "function"
    },
    {
      "inputs": [
        {
          "internalType": "address",
          "name": "_staker",
          "type": "address"
        },
        {
          "internalType": "uint256",
          "name": "_percentage",
          "type": "uint256"
        },
        {
          "internalType": "string",
          "name": "_reason",
          "type": "string"
        }
      ],
      "name": "slash",
      "outputs": [],
      "stateMutability": "nonpayable",
      "type": "function"
    },
    {
      "inputs": [
        {
          "internalType": "address",
          "name": "",
          "type": "address"
        }
      ],
      "name": "slashHistory",
      "outputs": [
        {
          "internalType": "uint256",
          "name": "",
          "type": "uint256"
        }
      ],
      "stateMutability": "view",
      "type": "function"
    },
    {
      "inputs": [
        {
          "internalType": "uint256",
          "name": "_amount",
          "type": "uint256"
        },
        {
          "internalType": "bytes32",
          "name": "_tierId",
          "type": "bytes32"
        }
      ],
      "name": "stake",
      "outputs": [],
      "stateMutability": "nonpayable",
      "type": "function"
    },
    {
      "inputs": [
        {
          "internalType": "address",
          "name": "",
          "type": "address"
        }
      ],
      "name": "stakes",
      "outputs": [
        {
          "internalType": "uint256",
          "name": "amount",
          "type": "uint256"
        },
        {
          "internalType": "uint256",
          "name": "startTime",
          "type": "uint256"
        },
        {
          "internalType": "uint256",
          "name": "lastRewardTime",
          "type": "uint256"
        },
        {
          "internalType": "uint256",
          "name": "accumulatedRewards",
          "type": "uint256"
        },
        {
          "internalType": "bytes32",
          "name": "tierId",
          "type": "bytes32"
        },
        {
          "internalType": "bool",
          "name": "active",
          "type": "bool"
        }
      ],
      "stateMutability": "view",
      "type": "function"
    },
    {
      "inputs": [
        {
          "internalType": "bytes32",
          "name": "",
          "type": "bytes32"
        }
      ],
      "name": "stakingTiers",
      "outputs": [
        {
          "internalType": "uint256",
          "name": "minimumStake",
          "type": "uint256"
        },
        {
          "internalType": "uint256",
          "name": "rewardRate",
          "type": "uint256"
        },
        {
          "internalType": "uint256",
          "name": "lockPeriod",
          "type": "uint256"
        },
        {
          "internalType": "bool",
          "name": "active",
          "type": "bool"
        }
      ],
      "stateMutability": "view",
      "type": "function"
    },
    {
      "inputs": [
        {
          "internalType": "bytes4",
          "name": "interfaceId",
          "type": "bytes4"
        }
      ],
      "name": "supportsInterface",
      "outputs": [
        {
          "internalType": "bool",
          "name": "",
          "type": "bool"
        }
      ],
      "stateMutability": "view",
      "type": "function"
    },
    {
      "inputs": [],
      "name": "totalStaked",
      "outputs": [
        {
          "internalType": "uint256",
          "name": "",
          "type": "uint256"
        }
      ],
      "stateMutability": "view",
      "type": "function"
    },
    {
      "inputs": [],
      "name": "uhcToken",
      "outputs": [
        {
          "internalType": "contract IERC20",
          "name": "",
          "type": "address"
        }
      ],
      "stateMutability": "view",
      "type": "function"
    },
    {
      "inputs": [],
      "name": "unpause",
      "outputs": [],
      "stateMutability": "nonpayable",
      "type": "function"
    },
    {
      "inputs": [],
      "name": "unstake",
      "outputs": [],
      "stateMutability": "nonpayable",
      "type": "function"
    }
  ],
  "bytecode": "0x60806040523480156200001157600080fd5b5060405162001d9938038062001d99833981016040819052620000349162000170565b6001805460ff19168155600255600380546001600160a01b038085166001600160a01b03199283161790925560048054928416929091169190911790556200007e600033620000b2565b620000aa7fa49807205ce4d355092ef5a8a18f56e8913cf4a201fbe287825b095693c2177533620000b2565b5050620001a8565b6000828152602081815260408083206001600160a01b038516845290915290205460ff166200014f576000828152602081815260408083206001600160a01b03851684529091529020805460ff191660011790556200010e3390565b6001600160a01b0316816001600160a01b0316837f2f8788117e7eff1d82e926ec794901d17c78024a50270940304540a733656f0d60405160405180910390a45b5050565b80516001600160a01b03811681146200016b57600080fd5b919050565b600080604083850312156200018457600080fd5b6200018f8362000153565b91506200019f6020840162000153565b90509250929050565b611be180620001b86000396000f3fe608060405234801561001057600080fd5b50600436106101e55760003560e01c806367031bae1161010f57806395ccea67116100a2578063c49baebe11610071578063c49baebe146104f2578063d547741f14610507578063e0c570ba1461051a578063fe434e0c1461052457600080fd5b806395ccea671461047a578063a217fddf1461048d578063ae360e1d14610495578063c3453153146104b557600080fd5b8063817b1cd2116100de578063817b1cd21461044357806383c592cf1461044c5780638456cb591461045f57806391d148541461046757600080fd5b806367031bae146103f5578063678b3ee21461040857806375b238fc1461041b5780637ead5e051461043057600080fd5b8063372500ab11610187578063593371c011610156578063593371c0146103865780635b0058ee146103ce5780635c975abb146103d757806364ab8675146103e257600080fd5b8063372500ab146103135780633d325df01461031b5780633d6aa5e1146103755780633f4ba83a1461037e57600080fd5b8063248a9ca3116101c3578063248a9ca3146102b25780632def6620146102e35780632f2ff15d146102ed57806336568abe1461030057600080fd5b806301ffc9a7146101ea57806316934fc41461021257806319d415cd14610287575b600080fd5b6101fd6101f8366004611792565b610534565b60405190151581526020015b60405180910390f35b6102586102203660046117d8565b600660205260009081526040902080546001820154600283015460038401546004850154600590950154939492939192909160ff1686565b6040805196875260208701959095529385019290925260608401526080830152151560a082015260c001610209565b60035461029a906001600160a01b031681565b6040516001600160a01b039091168152602001610209565b6102d56102c03660046117f3565b60009081526020819052604090206001015490565b604051908152602001610209565b6102eb61056b565b005b6102eb6102fb36600461180c565b6107b1565b6102eb61030e36600461180c565b6107db565b6102eb610859565b6103536103293660046117f3565b60056020526000908152604090208054600182015460028301546003909301549192909160ff1684565b6040805194855260208501939093529183015215156060820152608001610209565b6102d561271081565b6102eb6109d0565b6103996103943660046117f3565b6109f3565b604051610209919081518152602080830151908201526040808301519082015260609182015115159181019190915260800190565b6102d56103e881565b60015460ff166101fd565b6102d56103f03660046117d8565b610a6a565b60045461029a906001600160a01b031681565b6102eb610416366004611838565b610b22565b6102d5600080516020611b8c83398151915281565b6102eb61043e3660046118bf565b610cd5565b6102d560085481565b6102eb61045a3660046118f1565b610e2f565b6102eb61118a565b6101fd61047536600461180c565b6111aa565b6102eb610488366004611913565b6111d3565b6102d5600081565b6102d56104a33660046117d8565b60076020526000908152604090205481565b6104c86104c33660046117d8565b611278565b6040805195865260208601949094529284019190915260608301521515608082015260a001610209565b6102d5600080516020611b6c83398151915281565b6102eb61051536600461180c565b6112c9565b6102d562093a8081565b69152d02c7e14af68000006102d5565b60006001600160e01b03198216637965db0b60e01b148061056557506301ffc9a760e01b6001600160e01b03198316145b92915050565b6105736112ee565b61057b611345565b336000908152600660205260409020600581015460ff166105b75760405162461bcd60e51b81526004016105ae9061193d565b60405180910390fd5b600481015460009081526005602052604090206002015460018201546105dc9161138b565b42101561062b5760405162461bcd60e51b815260206004820152601760248201527f4c6f636b20706572696f64206e6f7420656c617073656400000000000000000060448201526064016105ae565b600061063633610a6a565b8254909150600090610648908361138b565b60058401805460ff191690558354600854919250610666919061139e565b600855610681600080516020611b6c833981519152336111aa565b1561069e5761069e600080516020611b6c833981519152336113aa565b60035460405163a9059cbb60e01b8152336004820152602481018390526001600160a01b039091169063a9059cbb906044016020604051808303816000875af11580156106ef573d6000803e3d6000fd5b505050506040513d601f19601f820116820180604052508101906107139190611966565b61072f5760405162461bcd60e51b81526004016105ae90611988565b825460405190815233907f0f5bb82176feb1b5e747e28471aa92156a04d9f3ab9f45f28e2d704232b93f759060200160405180910390a281156107a25760405182815233907ffc30cddea38e2bf4d6ea7d3f9ed3b6ad7f176419f4963bd81318067a4aee73fe9060200160405180910390a25b5050506107af6001600255565b565b6000828152602081905260409020600101546107cc8161140f565b6107d68383611419565b505050565b6001600160a01b038116331461084b5760405162461bcd60e51b815260206004820152602f60248201527f416363657373436f6e74726f6c3a2063616e206f6e6c792072656e6f756e636560448201526e103937b632b9903337b91039b2b63360891b60648201526084016105ae565b61085582826113aa565b5050565b6108616112ee565b610869611345565b336000908152600660205260409020600581015460ff1661089c5760405162461bcd60e51b81526004016105ae9061193d565b60006108a733610a6a565b9050600081116108ef5760405162461bcd60e51b81526020600482015260136024820152724e6f207265776172647320746f20636c61696d60681b60448201526064016105ae565b42600283015560006003808401919091555460405163a9059cbb60e01b8152336004820152602481018390526001600160a01b039091169063a9059cbb906044016020604051808303816000875af115801561094f573d6000803e3d6000fd5b505050506040513d601f19601f820116820180604052508101906109739190611966565b61098f5760405162461bcd60e51b81526004016105ae90611988565b60405181815233907ffc30cddea38e2bf4d6ea7d3f9ed3b6ad7f176419f4963bd81318067a4aee73fe9060200160405180910390a250506107af6001600255565b600080516020611b8c8339815191526109e88161140f565b6109f061149d565b50565b610a2060405180608001604052806000815260200160008152602001600081526020016000151581525090565b5060009081526005602090815260409182902082516080810184528154815260018201549281019290925260028101549282019290925260039091015460ff161515606082015290565b6001600160a01b0381166000908152600660205260408120600581015460ff16610a975750600092915050565b600481015460009081526005602052604081206002830154909190610abd90429061139e565b90506000610ae8612710610ae2856001015487600001546114ef90919063ffffffff16565b906114fb565b90506000610afe6301e13380610ae284866114ef565b9050610b1785600301548261138b90919063ffffffff16565b979650505050505050565b600080516020611b8c833981519152610b3a8161140f565b610b42611345565b6103e8841115610b875760405162461bcd60e51b815260206004820152601060248201526f0a0cadcc2d8e8f240e8dede40d0d2ced60831b60448201526064016105ae565b6001600160a01b0385166000908152600660205260409020600581015460ff16610bc35760405162461bcd60e51b81526004016105ae9061193d565b8054600090610bda9061271090610ae290896114ef565b8254909150610be9908261139e565b8255600854610bf8908261139e565b6008556001600160a01b038716600090815260076020526040902054610c1e908261138b565b6001600160a01b0388166000908152600760209081526040808320939093556004850154825260059052205482541015610c8757610c6a600080516020611b6c833981519152886111aa565b15610c8757610c87600080516020611b6c833981519152886113aa565b866001600160a01b03167f7e947095ed288d8885423bdaef4015b7420ffa9b84d62ef67c402e8bc36a8ea9828787604051610cc4939291906119b1565b60405180910390a250505050505050565b600080516020611b8c833981519152610ced8161140f565b610cf5611345565b60008411610d3d5760405162461bcd60e51b8152602060048201526015602482015274496e76616c6964206d696e696d756d207374616b6560581b60448201526064016105ae565b611388831115610d865760405162461bcd60e51b81526020600482015260146024820152730a4caeec2e4c840e4c2e8ca40e8dede40d0d2ced60631b60448201526064016105ae565b62093a80821015610dd15760405162461bcd60e51b8152602060048201526015602482015274131bd8dac81c195c9a5bd9081d1bdbc81cda1bdc9d605a1b60448201526064016105ae565b5060408051608081018252938452602080850193845284820192835260016060860181815260009788526005909252919095209351845591519183019190915551600282015590516003909101805460ff1916911515919091179055565b610e376112ee565b610e3f611345565b6004805460405163b9209e3360e01b815233928101929092526001600160a01b03169063b9209e3390602401602060405180830381865afa158015610e88573d6000803e3d6000fd5b505050506040513d601f19601f82011682018060405250810190610eac9190611966565b610eec5760405162461bcd60e51b8152602060048201526011602482015270155cd95c881b9bdd081d995c9a599a5959607a1b60448201526064016105ae565b60008181526005602052604090206003015460ff16610f445760405162461bcd60e51b815260206004820152601460248201527324b73b30b634b21039ba30b5b4b733903a34b2b960611b60448201526064016105ae565b600081815260056020526040902054821015610f995760405162461bcd60e51b8152602060048201526014602482015273416d6f756e742062656c6f77206d696e696d756d60601b60448201526064016105ae565b3360009081526006602052604090206005015460ff1615610fee5760405162461bcd60e51b815260206004820152600f60248201526e416c7265616479207374616b696e6760881b60448201526064016105ae565b6003546040516323b872dd60e01b8152336004820152306024820152604481018490526001600160a01b03909116906323b872dd906064016020604051808303816000875af1158015611045573d6000803e3d6000fd5b505050506040513d601f19601f820116820180604052508101906110699190611966565b6110855760405162461bcd60e51b81526004016105ae90611988565b6040805160c08101825283815242602080830182815283850192835260006060850181815260808601888152600160a088018181523385526006909652979092209551865591519585019590955591516002840155905160038301559151600482015590516005909101805460ff191691151591909117905560085461110b908361138b565b600855604080518381526020810183905233917f5f0b438a84248e4dee3d4f02ba51318005967c6ada09bcd7143c62174a3a5311910160405180910390a269152d02c7e14af68000006000828152600560205260409020541061118057611180600080516020611b6c83398151915233611419565b6108556001600255565b600080516020611b8c8339815191526111a28161140f565b6109f0611507565b6000918252602082815260408084206001600160a01b0393909316845291905290205460ff1690565b600080516020611b8c8339815191526111eb8161140f565b60405163a9059cbb60e01b8152336004820152602481018390526001600160a01b0384169063a9059cbb906044016020604051808303816000875af1158015611238573d6000803e3d6000fd5b505050506040513d601f19601f8201168201806040525081019061125c9190611966565b6107d65760405162461bcd60e51b81526004016105ae90611988565b6001600160a01b038116600090815260066020526040812080546001820154839283928392839291906112aa89610a6a565b6004840154600590940154929a919950975091955060ff169350915050565b6000828152602081905260409020600101546112e48161140f565b6107d683836113aa565b600280540361133f5760405162461bcd60e51b815260206004820152601f60248201527f5265656e7472616e637947756172643a207265656e7472616e742063616c6c0060448201526064016105ae565b60028055565b60015460ff16156107af5760405162461bcd60e51b815260206004820152601060248201526f14185d5cd8589b194e881c185d5cd95960821b60448201526064016105ae565b600061139782846119fd565b9392505050565b60006113978284611a10565b6113b482826111aa565b15610855576000828152602081815260408083206001600160a01b0385168085529252808320805460ff1916905551339285917ff6391f5c32d9c69d2a47ea670b442974b53935d1edc7fd64eb21e047a839171b9190a45050565b6109f08133611542565b61142382826111aa565b610855576000828152602081815260408083206001600160a01b03851684529091529020805460ff191660011790556114593390565b6001600160a01b0316816001600160a01b0316837f2f8788117e7eff1d82e926ec794901d17c78024a50270940304540a733656f0d60405160405180910390a45050565b6114a561159b565b6001805460ff191690557f5db9ee0a495bf2e6ff9c91a7834c1ba4fdd244a5e8aa4e537bd38aeae4b073aa335b6040516001600160a01b03909116815260200160405180910390a1565b60006113978284611a23565b60006113978284611a3a565b61150f611345565b6001805460ff1916811790557f62e78cea01bee320cd4e420270b5ea74000d11b0c9f74754ebdbfc544b05a258336114d2565b61154c82826111aa565b61085557611559816115e4565b6115648360206115f6565b604051602001611575929190611a80565b60408051601f198184030181529082905262461bcd60e51b82526105ae91600401611af5565b60015460ff166107af5760405162461bcd60e51b815260206004820152601460248201527314185d5cd8589b194e881b9bdd081c185d5cd95960621b60448201526064016105ae565b60606105656001600160a01b03831660145b60606000611605836002611a23565b6116109060026119fd565b67ffffffffffffffff81111561162857611628611b28565b6040519080825280601f01601f191660200182016040528015611652576020820181803683370190505b509050600360fc1b8160008151811061166d5761166d611b3e565b60200101906001600160f81b031916908160001a905350600f60fb1b8160018151811061169c5761169c611b3e565b60200101906001600160f81b031916908160001a90535060006116c0846002611a23565b6116cb9060016119fd565b90505b6001811115611743576f181899199a1a9b1b9c1cb0b131b232b360811b85600f16601081106116ff576116ff611b3e565b1a60f81b82828151811061171557611715611b3e565b60200101906001600160f81b031916908160001a90535060049490941c9361173c81611b54565b90506116ce565b5083156113975760405162461bcd60e51b815260206004820181905260248201527f537472696e67733a20686578206c656e67746820696e73756666696369656e7460448201526064016105ae565b6000602082840312156117a457600080fd5b81356001600160e01b03198116811461139757600080fd5b80356001600160a01b03811681146117d357600080fd5b919050565b6000602082840312156117ea57600080fd5b611397826117bc565b60006020828403121561180557600080fd5b5035919050565b6000806040838503121561181f57600080fd5b8235915061182f602084016117bc565b90509250929050565b6000806000806060858703121561184e57600080fd5b611857856117bc565b935060208501359250604085013567ffffffffffffffff8082111561187b57600080fd5b818701915087601f83011261188f57600080fd5b81358181111561189e57600080fd5b8860208285010111156118b057600080fd5b95989497505060200194505050565b600080600080608085870312156118d557600080fd5b5050823594602084013594506040840135936060013592509050565b6000806040838503121561190457600080fd5b50508035926020909101359150565b6000806040838503121561192657600080fd5b61192f836117bc565b946020939093013593505050565b6020808252600f908201526e4e6f20616374697665207374616b6560881b604082015260600190565b60006020828403121561197857600080fd5b8151801515811461139757600080fd5b6020808252600f908201526e151c985b9cd9995c8819985a5b1959608a1b604082015260600190565b83815260406020820152816040820152818360608301376000818301606090810191909152601f909201601f1916010192915050565b634e487b7160e01b600052601160045260246000fd5b80820180821115610565576105656119e7565b81810381811115610565576105656119e7565b8082028115828204841417610565576105656119e7565b600082611a5757634e487b7160e01b600052601260045260246000fd5b500490565b60005b83811015611a77578181015183820152602001611a5f565b50506000910152565b7f416363657373436f6e74726f6c3a206163636f756e7420000000000000000000815260008351611ab8816017850160208801611a5c565b7001034b99036b4b9b9b4b733903937b6329607d1b6017918401918201528351611ae9816028840160208801611a5c565b01602801949350505050565b6020815260008251806020840152611b14816040850160208701611a5c565b601f01601f19169190910160400192915050565b634e487b7160e01b600052604160045260246000fd5b634e487b7160e01b600052603260045260246000fd5b600081611b6357611b636119e7565b50600019019056fe21702c8af46127c7fa207f89d0b0a8441bb32959a0ac7df790e9ab1a25c98926a49807205ce4d355092ef5a8a18f56e8913cf4a201fbe287825b095693c21775a2646970667358221220afc7186c7c1ff2b97c5cce61a88e1e31e347b0887017ad8b581ff99e1f46d39f64736f6c63430008130033",
  "linkReferences": {},
  "deployedLinkReferences": {}
}