{
  "_format": "hh-sol-artifact-1",
  "contractName": "NameRegistry",
  "sourceName": "contracts/utils/NameRegistry.sol",
  "abi": [
    {
      "inputs": [],
      "stateMutability": "nonpayable",
      "type": "constructor"
    },
    {
      "anonymous": false,
      "inputs": [
        {
          "indexed": false,
          "internalType": "string",
          "name": "name",
          "type": "string"
        },
        {
          "indexed": true,
          "internalType": "address",
          "name": "owner",
          "type": "address"
        },
        {
          "indexed": false,
          "internalType": "uint256",
          "name": "expiryTime",
          "type": "uint256"
        }
      ],
      "name": "NameRegistered",
      "type": "event"
    },
    {
      "anonymous": false,
      "inputs": [
        {
          "indexed": false,
          "internalType": "string",
          "name": "name",
          "type": "string"
        },
        {
          "indexed": true,
          "internalType": "address",
          "name": "previousOwner",
          "type": "address"
        }
      ],
      "name": "NameReleased",
      "type": "event"
    },
    {
      "anonymous": false,
      "inputs": [
        {
          "indexed": false,
          "internalType": "string",
          "name": "name",
          "type": "string"
        },
        {
          "indexed": true,
          "internalType": "address",
          "name": "owner",
          "type": "address"
        },
        {
          "indexed": false,
          "internalType": "uint256",
          "name": "newExpiryTime",
          "type": "uint256"
        }
      ],
      "name": "NameRenewed",
      "type": "event"
    },
    {
      "anonymous": false,
      "inputs": [
        {
          "indexed": false,
          "internalType": "string",
          "name": "name",
          "type": "string"
        },
        {
          "indexed": true,
          "internalType": "address",
          "name": "previousOwner",
          "type": "address"
        },
        {
          "indexed": true,
          "internalType": "address",
          "name": "newOwner",
          "type": "address"
        }
      ],
      "name": "NameTransferred",
      "type": "event"
    },
    {
      "anonymous": false,
      "inputs": [
        {
          "indexed": false,
          "internalType": "address",
          "name": "account",
          "type": "address"
        }
      ],
      "name": "Paused",
      "type": "event"
    },
    {
      "anonymous": false,
      "inputs": [
        {
          "indexed": true,
          "internalType": "bytes32",
          "name": "role",
          "type": "bytes32"
        },
        {
          "indexed": true,
          "internalType": "bytes32",
          "name": "previousAdminRole",
          "type": "bytes32"
        },
        {
          "indexed": true,
          "internalType": "bytes32",
          "name": "newAdminRole",
          "type": "bytes32"
        }
      ],
      "name": "RoleAdminChanged",
      "type": "event"
    },
    {
      "anonymous": false,
      "inputs": [
        {
          "indexed": true,
          "internalType": "bytes32",
          "name": "role",
          "type": "bytes32"
        },
        {
          "indexed": true,
          "internalType": "address",
          "name": "account",
          "type": "address"
        },
        {
          "indexed": true,
          "internalType": "address",
          "name": "sender",
          "type": "address"
        }
      ],
      "name": "RoleGranted",
      "type": "event"
    },
    {
      "anonymous": false,
      "inputs": [
        {
          "indexed": true,
          "internalType": "bytes32",
          "name": "role",
          "type": "bytes32"
        },
        {
          "indexed": true,
          "internalType": "address",
          "name": "account",
          "type": "address"
        },
        {
          "indexed": true,
          "internalType": "address",
          "name": "sender",
          "type": "address"
        }
      ],
      "name": "RoleRevoked",
      "type": "event"
    },
    {
      "anonymous": false,
      "inputs": [
        {
          "indexed": false,
          "internalType": "address",
          "name": "account",
          "type": "address"
        }
      ],
      "name": "Unpaused",
      "type": "event"
    },
    {
      "inputs": [],
      "name": "ADMIN_ROLE",
      "outputs": [
        {
          "internalType": "bytes32",
          "name": "",
          "type": "bytes32"
        }
      ],
      "stateMutability": "view",
      "type": "function"
    },
    {
      "inputs": [],
      "name": "DEFAULT_ADMIN_ROLE",
      "outputs": [
        {
          "internalType": "bytes32",
          "name": "",
          "type": "bytes32"
        }
      ],
      "stateMutability": "view",
      "type": "function"
    },
    {
      "inputs": [],
      "name": "MIN_REGISTRATION_PERIOD",
      "outputs": [
        {
          "internalType": "uint256",
          "name": "",
          "type": "uint256"
        }
      ],
      "stateMutability": "view",
      "type": "function"
    },
    {
      "inputs": [],
      "name": "REGISTRAR_ROLE",
      "outputs": [
        {
          "internalType": "bytes32",
          "name": "",
          "type": "bytes32"
        }
      ],
      "stateMutability": "view",
      "type": "function"
    },
    {
      "inputs": [
        {
          "internalType": "string",
          "name": "_name",
          "type": "string"
        }
      ],
      "name": "getAddress",
      "outputs": [
        {
          "internalType": "address",
          "name": "",
          "type": "address"
        }
      ],
      "stateMutability": "view",
      "type": "function"
    },
    {
      "inputs": [
        {
          "internalType": "address",
          "name": "_address",
          "type": "address"
        }
      ],
      "name": "getName",
      "outputs": [
        {
          "internalType": "string",
          "name": "",
          "type": "string"
        }
      ],
      "stateMutability": "view",
      "type": "function"
    },
    {
      "inputs": [
        {
          "internalType": "string",
          "name": "_name",
          "type": "string"
        }
      ],
      "name": "getNameExpiry",
      "outputs": [
        {
          "internalType": "uint256",
          "name": "",
          "type": "uint256"
        }
      ],
      "stateMutability": "view",
      "type": "function"
    },
    {
      "inputs": [
        {
          "internalType": "bytes32",
          "name": "role",
          "type": "bytes32"
        }
      ],
      "name": "getRoleAdmin",
      "outputs": [
        {
          "internalType": "bytes32",
          "name": "",
          "type": "bytes32"
        }
      ],
      "stateMutability": "view",
      "type": "function"
    },
    {
      "inputs": [
        {
          "internalType": "bytes32",
          "name": "role",
          "type": "bytes32"
        },
        {
          "internalType": "address",
          "name": "account",
          "type": "address"
        }
      ],
      "name": "grantRole",
      "outputs": [],
      "stateMutability": "nonpayable",
      "type": "function"
    },
    {
      "inputs": [
        {
          "internalType": "bytes32",
          "name": "role",
          "type": "bytes32"
        },
        {
          "internalType": "address",
          "name": "account",
          "type": "address"
        }
      ],
      "name": "hasRole",
      "outputs": [
        {
          "internalType": "bool",
          "name": "",
          "type": "bool"
        }
      ],
      "stateMutability": "view",
      "type": "function"
    },
    {
      "inputs": [],
      "name": "pause",
      "outputs": [],
      "stateMutability": "nonpayable",
      "type": "function"
    },
    {
      "inputs": [],
      "name": "paused",
      "outputs": [
        {
          "internalType": "bool",
          "name": "",
          "type": "bool"
        }
      ],
      "stateMutability": "view",
      "type": "function"
    },
    {
      "inputs": [
        {
          "internalType": "string",
          "name": "_name",
          "type": "string"
        },
        {
          "internalType": "address",
          "name": "_owner",
          "type": "address"
        },
        {
          "internalType": "uint256",
          "name": "_duration",
          "type": "uint256"
        }
      ],
      "name": "registerName",
      "outputs": [],
      "stateMutability": "nonpayable",
      "type": "function"
    },
    {
      "inputs": [
        {
          "internalType": "string",
          "name": "_name",
          "type": "string"
        }
      ],
      "name": "releaseName",
      "outputs": [],
      "stateMutability": "nonpayable",
      "type": "function"
    },
    {
      "inputs": [
        {
          "internalType": "string",
          "name": "_name",
          "type": "string"
        },
        {
          "internalType": "uint256",
          "name": "_duration",
          "type": "uint256"
        }
      ],
      "name": "renewName",
      "outputs": [],
      "stateMutability": "nonpayable",
      "type": "function"
    },
    {
      "inputs": [
        {
          "internalType": "bytes32",
          "name": "role",
          "type": "bytes32"
        },
        {
          "internalType": "address",
          "name": "account",
          "type": "address"
        }
      ],
      "name": "renounceRole",
      "outputs": [],
      "stateMutability": "nonpayable",
      "type": "function"
    },
    {
      "inputs": [
        {
          "internalType": "bytes32",
          "name": "role",
          "type": "bytes32"
        },
        {
          "internalType": "address",
          "name": "account",
          "type": "address"
        }
      ],
      "name": "revokeRole",
      "outputs": [],
      "stateMutability": "nonpayable",
      "type": "function"
    },
    {
      "inputs": [
        {
          "internalType": "bytes4",
          "name": "interfaceId",
          "type": "bytes4"
        }
      ],
      "name": "supportsInterface",
      "outputs": [
        {
          "internalType": "bool",
          "name": "",
          "type": "bool"
        }
      ],
      "stateMutability": "view",
      "type": "function"
    },
    {
      "inputs": [
        {
          "internalType": "string",
          "name": "_name",
          "type": "string"
        },
        {
          "internalType": "address",
          "name": "_newOwner",
          "type": "address"
        }
      ],
      "name": "transferName",
      "outputs": [],
      "stateMutability": "nonpayable",
      "type": "function"
    },
    {
      "inputs": [],
      "name": "unpause",
      "outputs": [],
      "stateMutability": "nonpayable",
      "type": "function"
    }
  ],
  "bytecode": "0x608060405234801561001057600080fd5b506001805460ff1916905561002660003361007f565b6100507fa49807205ce4d355092ef5a8a18f56e8913cf4a201fbe287825b095693c217753361007f565b61007a7fedcc084d3dcd65a1f7f23c65c46722faca6953d28e43150a467cf43e5c3092383361007f565b61011e565b6000828152602081815260408083206001600160a01b038516845290915290205460ff1661011a576000828152602081815260408083206001600160a01b03851684529091529020805460ff191660011790556100d93390565b6001600160a01b0316816001600160a01b0316837f2f8788117e7eff1d82e926ec794901d17c78024a50270940304540a733656f0d60405160405180910390a45b5050565b61175d806200012e6000396000f3fe608060405234801561001057600080fd5b506004361061012c5760003560e01c806375b238fc116100ad578063bf40fac111610071578063bf40fac11461027b578063c00b69fe146102a6578063d310bc32146102b1578063d547741f146102c4578063f68e9553146102d757600080fd5b806375b238fc1461021e5780638456cb591461024557806391d148541461024d5780639bc83cfa14610260578063a217fddf1461027357600080fd5b806337194d1e116100f457806337194d1e146101c55780633f4ba83a146101d85780635c975abb146101e05780635d48d9eb146101eb5780635fd4b08a146101fe57600080fd5b806301ffc9a71461013157806312007d8514610159578063248a9ca31461017a5780632f2ff15d1461019d57806336568abe146101b2575b600080fd5b61014461013f366004611229565b6102fe565b60405190151581526020015b60405180910390f35b61016c61016736600461129c565b610335565b604051908152602001610150565b61016c6101883660046112de565b60009081526020819052604090206001015490565b6101b06101ab366004611313565b610367565b005b6101b06101c0366004611313565b610391565b6101b06101d336600461133f565b610414565b6101b061061c565b60015460ff16610144565b6101b06101f9366004611393565b610651565b61021161020c3660046113df565b610825565b604051610150919061141e565b61016c7fa49807205ce4d355092ef5a8a18f56e8913cf4a201fbe287825b095693c2177581565b6101b06108af565b61014461025b366004611313565b6108e1565b6101b061026e366004611451565b61090a565b61016c600081565b61028e61028936600461129c565b610b66565b6040516001600160a01b039091168152602001610150565b61016c6301e1338081565b6101b06102bf36600461129c565b610c04565b6101b06102d2366004611313565b610d0c565b61016c7fedcc084d3dcd65a1f7f23c65c46722faca6953d28e43150a467cf43e5c30923881565b60006001600160e01b03198216637965db0b60e01b148061032f57506301ffc9a760e01b6001600160e01b03198316145b92915050565b60008083836040516103489291906114ad565b6040805191829003909120600090815260046020522054949350505050565b60008281526020819052604090206001015461038281610d31565b61038c8383610d3b565b505050565b6001600160a01b03811633146104065760405162461bcd60e51b815260206004820152602f60248201527f416363657373436f6e74726f6c3a2063616e206f6e6c792072656e6f756e636560448201526e103937b632b9903337b91039b2b63360891b60648201526084015b60405180910390fd5b6104108282610dbf565b5050565b61041c610e24565b6001600160a01b0381166104665760405162461bcd60e51b815260206004820152601160248201527024b73b30b634b2103732bb9037bbb732b960791b60448201526064016103fd565b600083836040516104789291906114ad565b60408051918290039091206000818152600260205291909120549091506001600160a01b03163381146104e25760405162461bcd60e51b81526020600482015260126024820152712737ba103a3432903730b6b29037bbb732b960711b60448201526064016103fd565b6001600160a01b038316600090815260036020526040902054156105485760405162461bcd60e51b815260206004820152601c60248201527f4e6577206f776e657220616c7265616479206861732061206e616d650000000060448201526064016103fd565b60008281526004602052604090205442106105945760405162461bcd60e51b815260206004820152600c60248201526b13985b5948195e1c1a5c995960a21b60448201526064016103fd565b600082815260026020908152604080832080546001600160a01b0319166001600160a01b03888116918217909255908516808552600390935281842084905580845292819020859055517f21e177c2bf9adbd548d25cc65d54b697122f907257d8318bddc22375fe666de89061060d90899089906114e6565b60405180910390a35050505050565b7fa49807205ce4d355092ef5a8a18f56e8913cf4a201fbe287825b095693c2177561064681610d31565b61064e610e6c565b50565b7fedcc084d3dcd65a1f7f23c65c46722faca6953d28e43150a467cf43e5c30923861067b81610d31565b610683610e24565b6301e133808210156106d75760405162461bcd60e51b815260206004820152601860248201527f52656e6577616c20706572696f6420746f6f2073686f7274000000000000000060448201526064016103fd565b600084846040516106e99291906114ad565b60408051918290039091206000818152600260205291909120549091506001600160a01b03166107515760405162461bcd60e51b815260206004820152601360248201527213985b59481b9bdd081c9959da5cdd195c9959606a1b60448201526064016103fd565b600081815260046020526040902054421061079d5760405162461bcd60e51b815260206004820152600c60248201526b13985b5948195e1c1a5c995960a21b60448201526064016103fd565b6000818152600460205260408120546107b7908590611518565b60008381526004602090815260408083208490556002909152908190205490519192506001600160a01b0316907fc28a2b1890cbbbc4f0a3e8083ace3e37e37d4691ef7c4bed11cc427b7998c431906108159089908990869061152b565b60405180910390a2505050505050565b6001600160a01b03811660009081526003602090815260408083205480845260049092529091205460609190421061089f5760405162461bcd60e51b815260206004820152601960248201527f4e6f2076616c6964206e616d6520666f7220616464726573730000000000000060448201526064016103fd565b6108a881610ebe565b9392505050565b7fa49807205ce4d355092ef5a8a18f56e8913cf4a201fbe287825b095693c217756108d981610d31565b61064e610f9e565b6000918252602082815260408084206001600160a01b0393909316845291905290205460ff1690565b7fedcc084d3dcd65a1f7f23c65c46722faca6953d28e43150a467cf43e5c30923861093481610d31565b61093c610e24565b6301e133808210156109905760405162461bcd60e51b815260206004820152601d60248201527f526567697374726174696f6e20706572696f6420746f6f2073686f727400000060448201526064016103fd565b6001600160a01b0383166109de5760405162461bcd60e51b8152602060048201526015602482015274496e76616c6964206f776e6572206164647265737360581b60448201526064016103fd565b600085856040516109f09291906114ad565b60408051918290039091206000818152600260205291909120549091506001600160a01b031615610a635760405162461bcd60e51b815260206004820152601760248201527f4e616d6520616c7265616479207265676973746572656400000000000000000060448201526064016103fd565b6001600160a01b03841660009081526003602052604090205415610ac95760405162461bcd60e51b815260206004820152601a60248201527f4164647265737320616c7265616479206861732061206e616d6500000000000060448201526064016103fd565b6000610ad58442611518565b600083815260026020908152604080832080546001600160a01b0319166001600160a01b038b16908117909155808452600383528184208790558684526004909252918290208390559051919250907f8a168ef997ae6a1723ef504e6a0205acfe336ccb522561e95accebadde414b8790610b55908a908a90869061152b565b60405180910390a250505050505050565b6000808383604051610b799291906114ad565b6040518091039020905042600460008381526020019081526020016000205411610be55760405162461bcd60e51b815260206004820152601e60248201527f4e616d652065787069726564206f72206e6f742072656769737465726564000060448201526064016103fd565b6000908152600260205260409020546001600160a01b03169392505050565b610c0c610e24565b60008282604051610c1e9291906114ad565b60408051918290039091206000818152600260205291909120549091506001600160a01b0316338114610c885760405162461bcd60e51b81526020600482015260126024820152712737ba103a3432903730b6b29037bbb732b960711b60448201526064016103fd565b600082815260026020908152604080832080546001600160a01b03191690556001600160a01b0384168084526003835281842084905585845260049092528083209290925590517f9ba695f456eda68948ab6ebb7d43bb0e037f3184bc4e0a38f50763792f091f6090610cfe90879087906114e6565b60405180910390a250505050565b600082815260208190526040902060010154610d2781610d31565b61038c8383610dbf565b61064e8133610fd9565b610d4582826108e1565b610410576000828152602081815260408083206001600160a01b03851684529091529020805460ff19166001179055610d7b3390565b6001600160a01b0316816001600160a01b0316837f2f8788117e7eff1d82e926ec794901d17c78024a50270940304540a733656f0d60405160405180910390a45050565b610dc982826108e1565b15610410576000828152602081815260408083206001600160a01b0385168085529252808320805460ff1916905551339285917ff6391f5c32d9c69d2a47ea670b442974b53935d1edc7fd64eb21e047a839171b9190a45050565b60015460ff1615610e6a5760405162461bcd60e51b815260206004820152601060248201526f14185d5cd8589b194e881c185d5cd95960821b60448201526064016103fd565b565b610e74611032565b6001805460ff191690557f5db9ee0a495bf2e6ff9c91a7834c1ba4fdd244a5e8aa4e537bd38aeae4b073aa335b6040516001600160a01b03909116815260200160405180910390a1565b6040805181815260608181018352916000919060208201818036833701905050905060005b6020811015610f97576000610ef9826008611565565b610f04906002611660565b610f0e9086611565565b90508083610f1d846002611565565b81518110610f2d57610f2d61166c565b60200101906001600160f81b031916908160001a9053508083610f51846002611565565b610f5c906001611518565b81518110610f6c57610f6c61166c565b60200101906001600160f81b031916908160001a905350508080610f8f90611682565b915050610ee3565b5092915050565b610fa6610e24565b6001805460ff1916811790557f62e78cea01bee320cd4e420270b5ea74000d11b0c9f74754ebdbfc544b05a25833610ea1565b610fe382826108e1565b61041057610ff08161107b565b610ffb83602061108d565b60405160200161100c92919061169b565b60408051601f198184030181529082905262461bcd60e51b82526103fd9160040161141e565b60015460ff16610e6a5760405162461bcd60e51b815260206004820152601460248201527314185d5cd8589b194e881b9bdd081c185d5cd95960621b60448201526064016103fd565b606061032f6001600160a01b03831660145b6060600061109c836002611565565b6110a7906002611518565b67ffffffffffffffff8111156110bf576110bf61154f565b6040519080825280601f01601f1916602001820160405280156110e9576020820181803683370190505b509050600360fc1b816000815181106111045761110461166c565b60200101906001600160f81b031916908160001a905350600f60fb1b816001815181106111335761113361166c565b60200101906001600160f81b031916908160001a9053506000611157846002611565565b611162906001611518565b90505b60018111156111da576f181899199a1a9b1b9c1cb0b131b232b360811b85600f16601081106111965761119661166c565b1a60f81b8282815181106111ac576111ac61166c565b60200101906001600160f81b031916908160001a90535060049490941c936111d381611710565b9050611165565b5083156108a85760405162461bcd60e51b815260206004820181905260248201527f537472696e67733a20686578206c656e67746820696e73756666696369656e7460448201526064016103fd565b60006020828403121561123b57600080fd5b81356001600160e01b0319811681146108a857600080fd5b60008083601f84011261126557600080fd5b50813567ffffffffffffffff81111561127d57600080fd5b60208301915083602082850101111561129557600080fd5b9250929050565b600080602083850312156112af57600080fd5b823567ffffffffffffffff8111156112c657600080fd5b6112d285828601611253565b90969095509350505050565b6000602082840312156112f057600080fd5b5035919050565b80356001600160a01b038116811461130e57600080fd5b919050565b6000806040838503121561132657600080fd5b82359150611336602084016112f7565b90509250929050565b60008060006040848603121561135457600080fd5b833567ffffffffffffffff81111561136b57600080fd5b61137786828701611253565b909450925061138a9050602085016112f7565b90509250925092565b6000806000604084860312156113a857600080fd5b833567ffffffffffffffff8111156113bf57600080fd5b6113cb86828701611253565b909790965060209590950135949350505050565b6000602082840312156113f157600080fd5b6108a8826112f7565b60005b838110156114155781810151838201526020016113fd565b50506000910152565b602081526000825180602084015261143d8160408501602087016113fa565b601f01601f19169190910160400192915050565b6000806000806060858703121561146757600080fd5b843567ffffffffffffffff81111561147e57600080fd5b61148a87828801611253565b909550935061149d9050602086016112f7565b9396929550929360400135925050565b8183823760009101908152919050565b81835281816020850137506000828201602090810191909152601f909101601f19169091010190565b6020815260006114fa6020830184866114bd565b949350505050565b634e487b7160e01b600052601160045260246000fd5b8082018082111561032f5761032f611502565b60408152600061153f6040830185876114bd565b9050826020830152949350505050565b634e487b7160e01b600052604160045260246000fd5b808202811582820484141761032f5761032f611502565b600181815b808511156115b757816000190482111561159d5761159d611502565b808516156115aa57918102915b93841c9390800290611581565b509250929050565b6000826115ce5750600161032f565b816115db5750600061032f565b81600181146115f157600281146115fb57611617565b600191505061032f565b60ff84111561160c5761160c611502565b50506001821b61032f565b5060208310610133831016604e8410600b841016171561163a575081810a61032f565b611644838361157c565b806000190482111561165857611658611502565b029392505050565b60006108a883836115bf565b634e487b7160e01b600052603260045260246000fd5b60006001820161169457611694611502565b5060010190565b7f416363657373436f6e74726f6c3a206163636f756e74200000000000000000008152600083516116d38160178501602088016113fa565b7001034b99036b4b9b9b4b733903937b6329607d1b60179184019182015283516117048160288401602088016113fa565b01602801949350505050565b60008161171f5761171f611502565b50600019019056fea264697066735822122027375241e7e3d659035adbe6427618f40520cf6306f2f3abeed2b20e3a6e4d6664736f6c63430008130033",
  "linkReferences": {},
  "deployedLinkReferences": {}
}