{
  "_format": "hh-sol-artifact-1",
  "contractName": "CrossChainBridge",
  "sourceName": "contracts/integration/CrossChainBridge.sol",
  "abi": [
    {
      "inputs": [
        {
          "internalType": "address",
          "name": "_identityContract",
          "type": "address"
        }
      ],
      "stateMutability": "nonpayable",
      "type": "constructor"
    },
    {
      "anonymous": false,
      "inputs": [
        {
          "indexed": true,
          "internalType": "bytes32",
          "name": "bridgeId",
          "type": "bytes32"
        },
        {
          "indexed": false,
          "internalType": "enum CrossChainBridge.ChainType",
          "name": "sourceChain",
          "type": "uint8"
        },
        {
          "indexed": false,
          "internalType": "enum CrossChainBridge.ChainType",
          "name": "targetChain",
          "type": "uint8"
        }
      ],
      "name": "BridgeRegistered",
      "type": "event"
    },
    {
      "anonymous": false,
      "inputs": [
        {
          "indexed": false,
          "internalType": "address",
          "name": "account",
          "type": "address"
        }
      ],
      "name": "Paused",
      "type": "event"
    },
    {
      "anonymous": false,
      "inputs": [
        {
          "indexed": true,
          "internalType": "bytes32",
          "name": "role",
          "type": "bytes32"
        },
        {
          "indexed": true,
          "internalType": "bytes32",
          "name": "previousAdminRole",
          "type": "bytes32"
        },
        {
          "indexed": true,
          "internalType": "bytes32",
          "name": "newAdminRole",
          "type": "bytes32"
        }
      ],
      "name": "RoleAdminChanged",
      "type": "event"
    },
    {
      "anonymous": false,
      "inputs": [
        {
          "indexed": true,
          "internalType": "bytes32",
          "name": "role",
          "type": "bytes32"
        },
        {
          "indexed": true,
          "internalType": "address",
          "name": "account",
          "type": "address"
        },
        {
          "indexed": true,
          "internalType": "address",
          "name": "sender",
          "type": "address"
        }
      ],
      "name": "RoleGranted",
      "type": "event"
    },
    {
      "anonymous": false,
      "inputs": [
        {
          "indexed": true,
          "internalType": "bytes32",
          "name": "role",
          "type": "bytes32"
        },
        {
          "indexed": true,
          "internalType": "address",
          "name": "account",
          "type": "address"
        },
        {
          "indexed": true,
          "internalType": "address",
          "name": "sender",
          "type": "address"
        }
      ],
      "name": "RoleRevoked",
      "type": "event"
    },
    {
      "anonymous": false,
      "inputs": [
        {
          "indexed": true,
          "internalType": "bytes32",
          "name": "transactionId",
          "type": "bytes32"
        },
        {
          "indexed": true,
          "internalType": "bytes32",
          "name": "bridgeId",
          "type": "bytes32"
        }
      ],
      "name": "TransactionExecuted",
      "type": "event"
    },
    {
      "anonymous": false,
      "inputs": [
        {
          "indexed": true,
          "internalType": "bytes32",
          "name": "transactionId",
          "type": "bytes32"
        },
        {
          "indexed": true,
          "internalType": "bytes32",
          "name": "bridgeId",
          "type": "bytes32"
        },
        {
          "indexed": false,
          "internalType": "bytes32",
          "name": "dataHash",
          "type": "bytes32"
        }
      ],
      "name": "TransactionInitiated",
      "type": "event"
    },
    {
      "anonymous": false,
      "inputs": [
        {
          "indexed": true,
          "internalType": "bytes32",
          "name": "transactionId",
          "type": "bytes32"
        },
        {
          "indexed": true,
          "internalType": "address",
          "name": "validator",
          "type": "address"
        }
      ],
      "name": "TransactionValidated",
      "type": "event"
    },
    {
      "anonymous": false,
      "inputs": [
        {
          "indexed": false,
          "internalType": "address",
          "name": "account",
          "type": "address"
        }
      ],
      "name": "Unpaused",
      "type": "event"
    },
    {
      "inputs": [],
      "name": "ADMIN_ROLE",
      "outputs": [
        {
          "internalType": "bytes32",
          "name": "",
          "type": "bytes32"
        }
      ],
      "stateMutability": "view",
      "type": "function"
    },
    {
      "inputs": [],
      "name": "BRIDGE_OPERATOR_ROLE",
      "outputs": [
        {
          "internalType": "bytes32",
          "name": "",
          "type": "bytes32"
        }
      ],
      "stateMutability": "view",
      "type": "function"
    },
    {
      "inputs": [],
      "name": "DEFAULT_ADMIN_ROLE",
      "outputs": [
        {
          "internalType": "bytes32",
          "name": "",
          "type": "bytes32"
        }
      ],
      "stateMutability": "view",
      "type": "function"
    },
    {
      "inputs": [],
      "name": "VALIDATOR_ROLE",
      "outputs": [
        {
          "internalType": "bytes32",
          "name": "",
          "type": "bytes32"
        }
      ],
      "stateMutability": "view",
      "type": "function"
    },
    {
      "inputs": [
        {
          "internalType": "bytes32",
          "name": "_bridgeId",
          "type": "bytes32"
        },
        {
          "internalType": "address",
          "name": "_validator",
          "type": "address"
        }
      ],
      "name": "addValidator",
      "outputs": [],
      "stateMutability": "nonpayable",
      "type": "function"
    },
    {
      "inputs": [
        {
          "internalType": "bytes32",
          "name": "",
          "type": "bytes32"
        }
      ],
      "name": "bridges",
      "outputs": [
        {
          "internalType": "enum CrossChainBridge.ChainType",
          "name": "sourceChain",
          "type": "uint8"
        },
        {
          "internalType": "enum CrossChainBridge.ChainType",
          "name": "targetChain",
          "type": "uint8"
        },
        {
          "internalType": "address",
          "name": "bridgeContract",
          "type": "address"
        },
        {
          "internalType": "uint256",
          "name": "requiredValidations",
          "type": "uint256"
        },
        {
          "internalType": "bool",
          "name": "active",
          "type": "bool"
        }
      ],
      "stateMutability": "view",
      "type": "function"
    },
    {
      "inputs": [
        {
          "internalType": "enum CrossChainBridge.ChainType",
          "name": "",
          "type": "uint8"
        }
      ],
      "name": "chainNonces",
      "outputs": [
        {
          "internalType": "uint256",
          "name": "",
          "type": "uint256"
        }
      ],
      "stateMutability": "view",
      "type": "function"
    },
    {
      "inputs": [
        {
          "internalType": "bytes32",
          "name": "_bridgeId",
          "type": "bytes32"
        }
      ],
      "name": "getBridge",
      "outputs": [
        {
          "internalType": "enum CrossChainBridge.ChainType",
          "name": "sourceChain",
          "type": "uint8"
        },
        {
          "internalType": "enum CrossChainBridge.ChainType",
          "name": "targetChain",
          "type": "uint8"
        },
        {
          "internalType": "address",
          "name": "bridgeContract",
          "type": "address"
        },
        {
          "internalType": "uint256",
          "name": "requiredValidations",
          "type": "uint256"
        },
        {
          "internalType": "bool",
          "name": "active",
          "type": "bool"
        }
      ],
      "stateMutability": "view",
      "type": "function"
    },
    {
      "inputs": [
        {
          "internalType": "bytes32",
          "name": "role",
          "type": "bytes32"
        }
      ],
      "name": "getRoleAdmin",
      "outputs": [
        {
          "internalType": "bytes32",
          "name": "",
          "type": "bytes32"
        }
      ],
      "stateMutability": "view",
      "type": "function"
    },
    {
      "inputs": [
        {
          "internalType": "bytes32",
          "name": "_transactionId",
          "type": "bytes32"
        }
      ],
      "name": "getTransaction",
      "outputs": [
        {
          "internalType": "bytes32",
          "name": "bridgeId",
          "type": "bytes32"
        },
        {
          "internalType": "bytes32",
          "name": "dataHash",
          "type": "bytes32"
        },
        {
          "internalType": "address",
          "name": "initiator",
          "type": "address"
        },
        {
          "internalType": "uint256",
          "name": "timestamp",
          "type": "uint256"
        },
        {
          "internalType": "uint256",
          "name": "validations",
          "type": "uint256"
        },
        {
          "internalType": "bool",
          "name": "executed",
          "type": "bool"
        }
      ],
      "stateMutability": "view",
      "type": "function"
    },
    {
      "inputs": [
        {
          "internalType": "bytes32",
          "name": "role",
          "type": "bytes32"
        },
        {
          "internalType": "address",
          "name": "account",
          "type": "address"
        }
      ],
      "name": "grantRole",
      "outputs": [],
      "stateMutability": "nonpayable",
      "type": "function"
    },
    {
      "inputs": [
        {
          "internalType": "bytes32",
          "name": "role",
          "type": "bytes32"
        },
        {
          "internalType": "address",
          "name": "account",
          "type": "address"
        }
      ],
      "name": "hasRole",
      "outputs": [
        {
          "internalType": "bool",
          "name": "",
          "type": "bool"
        }
      ],
      "stateMutability": "view",
      "type": "function"
    },
    {
      "inputs": [],
      "name": "identityContract",
      "outputs": [
        {
          "internalType": "contract IUHCIdentity",
          "name": "",
          "type": "address"
        }
      ],
      "stateMutability": "view",
      "type": "function"
    },
    {
      "inputs": [
        {
          "internalType": "bytes32",
          "name": "_bridgeId",
          "type": "bytes32"
        },
        {
          "internalType": "bytes32",
          "name": "_dataHash",
          "type": "bytes32"
        },
        {
          "internalType": "bytes",
          "name": "_data",
          "type": "bytes"
        },
        {
          "internalType": "bytes",
          "name": "_signature",
          "type": "bytes"
        }
      ],
      "name": "initiateTransaction",
      "outputs": [
        {
          "internalType": "bytes32",
          "name": "",
          "type": "bytes32"
        }
      ],
      "stateMutability": "nonpayable",
      "type": "function"
    },
    {
      "inputs": [
        {
          "internalType": "bytes32",
          "name": "_bridgeId",
          "type": "bytes32"
        },
        {
          "internalType": "address",
          "name": "_validator",
          "type": "address"
        }
      ],
      "name": "isValidator",
      "outputs": [
        {
          "internalType": "bool",
          "name": "",
          "type": "bool"
        }
      ],
      "stateMutability": "view",
      "type": "function"
    },
    {
      "inputs": [],
      "name": "pause",
      "outputs": [],
      "stateMutability": "nonpayable",
      "type": "function"
    },
    {
      "inputs": [],
      "name": "paused",
      "outputs": [
        {
          "internalType": "bool",
          "name": "",
          "type": "bool"
        }
      ],
      "stateMutability": "view",
      "type": "function"
    },
    {
      "inputs": [
        {
          "internalType": "enum CrossChainBridge.ChainType",
          "name": "_sourceChain",
          "type": "uint8"
        },
        {
          "internalType": "enum CrossChainBridge.ChainType",
          "name": "_targetChain",
          "type": "uint8"
        },
        {
          "internalType": "address",
          "name": "_bridgeContract",
          "type": "address"
        },
        {
          "internalType": "uint256",
          "name": "_requiredValidations",
          "type": "uint256"
        }
      ],
      "name": "registerBridge",
      "outputs": [
        {
          "internalType": "bytes32",
          "name": "",
          "type": "bytes32"
        }
      ],
      "stateMutability": "nonpayable",
      "type": "function"
    },
    {
      "inputs": [
        {
          "internalType": "bytes32",
          "name": "_bridgeId",
          "type": "bytes32"
        },
        {
          "internalType": "address",
          "name": "_validator",
          "type": "address"
        }
      ],
      "name": "removeValidator",
      "outputs": [],
      "stateMutability": "nonpayable",
      "type": "function"
    },
    {
      "inputs": [
        {
          "internalType": "bytes32",
          "name": "role",
          "type": "bytes32"
        },
        {
          "internalType": "address",
          "name": "account",
          "type": "address"
        }
      ],
      "name": "renounceRole",
      "outputs": [],
      "stateMutability": "nonpayable",
      "type": "function"
    },
    {
      "inputs": [
        {
          "internalType": "bytes32",
          "name": "role",
          "type": "bytes32"
        },
        {
          "internalType": "address",
          "name": "account",
          "type": "address"
        }
      ],
      "name": "revokeRole",
      "outputs": [],
      "stateMutability": "nonpayable",
      "type": "function"
    },
    {
      "inputs": [
        {
          "internalType": "bytes4",
          "name": "interfaceId",
          "type": "bytes4"
        }
      ],
      "name": "supportsInterface",
      "outputs": [
        {
          "internalType": "bool",
          "name": "",
          "type": "bool"
        }
      ],
      "stateMutability": "view",
      "type": "function"
    },
    {
      "inputs": [
        {
          "internalType": "bytes32",
          "name": "",
          "type": "bytes32"
        }
      ],
      "name": "transactions",
      "outputs": [
        {
          "internalType": "bytes32",
          "name": "bridgeId",
          "type": "bytes32"
        },
        {
          "internalType": "bytes32",
          "name": "dataHash",
          "type": "bytes32"
        },
        {
          "internalType": "address",
          "name": "initiator",
          "type": "address"
        },
        {
          "internalType": "uint256",
          "name": "timestamp",
          "type": "uint256"
        },
        {
          "internalType": "uint256",
          "name": "validations",
          "type": "uint256"
        },
        {
          "internalType": "bool",
          "name": "executed",
          "type": "bool"
        }
      ],
      "stateMutability": "view",
      "type": "function"
    },
    {
      "inputs": [],
      "name": "unpause",
      "outputs": [],
      "stateMutability": "nonpayable",
      "type": "function"
    },
    {
      "inputs": [
        {
          "internalType": "bytes32",
          "name": "_transactionId",
          "type": "bytes32"
        }
      ],
      "name": "validateTransaction",
      "outputs": [],
      "stateMutability": "nonpayable",
      "type": "function"
    }
  ],
  "bytecode": "0x60806040523480156200001157600080fd5b5060405162001a5638038062001a56833981016040819052620000349162000169565b6001805460ff19168155600255600380546001600160a01b0319166001600160a01b03831617905562000069600033620000c8565b620000957fa49807205ce4d355092ef5a8a18f56e8913cf4a201fbe287825b095693c2177533620000c8565b620000c17f7045adfe67d5f94dbfddcdb901e44bef55baacabb398c7cddda1bfd7620b156833620000c8565b506200019b565b6000828152602081815260408083206001600160a01b038516845290915290205460ff1662000165576000828152602081815260408083206001600160a01b03851684529091529020805460ff19166001179055620001243390565b6001600160a01b0316816001600160a01b0316837f2f8788117e7eff1d82e926ec794901d17c78024a50270940304540a733656f0d60405160405180910390a45b5050565b6000602082840312156200017c57600080fd5b81516001600160a01b03811681146200019457600080fd5b9392505050565b6118ab80620001ab6000396000f3fe608060405234801561001057600080fd5b50600436106101735760003560e01c80635c975abb116100de5780639009183311610097578063c49baebe11610071578063c49baebe14610435578063d547741f1461044a578063d9413c181461045d578063eeaaa651146104be57600080fd5b8063900918331461040757806391d148541461041a578063a217fddf1461042d57600080fd5b80635c975abb1461033f578063642f2eaf1461034a57806367031bae1461039a57806375b238fc146103c55780638456cb59146103ec57806389124ca5146103f457600080fd5b8063344829c811610130578063344829c81461024957806336568abe1461025c5780633a7313ac1461026f5780633f4ba83a1461028f5780634aae13ca146102975780634be40fd11461032a57600080fd5b806301ffc9a71461017857806320d26e08146101a0578063248a9ca3146101c1578063279cf631146101e457806328abe2f5146102215780632f2ff15d14610236575b600080fd5b61018b610186366004611383565b61050b565b60405190151581526020015b60405180910390f35b6101b36101ae3660046113d8565b610542565b604051908152602001610197565b6101b36101cf366004611423565b60009081526020819052604090206001015490565b61018b6101f236600461143c565b60008281526004602090815260408083206001600160a01b038516845260030190915290205460ff1692915050565b61023461022f36600461143c565b61075b565b005b61023461024436600461143c565b6107f1565b610234610257366004611423565b610816565b61023461026a36600461143c565b610a26565b6101b361027d366004611468565b60066020526000908152604090205481565b610234610aa4565b6102ed6102a5366004611423565b6000818152600560208190526040909120805460018201546002830154600384015460048501549490950154929491936001600160a01b039091169260ff1691939550919395565b6040805196875260208701959095526001600160a01b039093169385019390935260608401526080830191909152151560a082015260c001610197565b6101b360008051602061185683398151915281565b60015460ff1661018b565b6102ed610358366004611423565b6005602081905260009182526040909120805460018201546002830154600384015460048501549490950154929491936001600160a01b039091169260ff1686565b6003546103ad906001600160a01b031681565b6040516001600160a01b039091168152602001610197565b6101b37fa49807205ce4d355092ef5a8a18f56e8913cf4a201fbe287825b095693c2177581565b610234610ad9565b61023461040236600461143c565b610b0b565b6101b3610415366004611526565b610b99565b61018b61042836600461143c565b610e05565b6101b3600081565b6101b360008051602061183683398151915281565b61023461045836600461143c565b610e2e565b6104ad61046b366004611423565b60009081526004602052604090208054600182015460029092015460ff808316946101008404821694620100009094046001600160a01b031693929190911690565b6040516101979594939291906115d5565b6104ad6104cc366004611423565b60046020526000908152604090208054600182015460029092015460ff8083169361010084048216936201000090046001600160a01b03169290911685565b60006001600160e01b03198216637965db0b60e01b148061053c57506301ffc9a760e01b6001600160e01b03198316145b92915050565b600060008051602061185683398151915261055c81610e53565b610564610e5d565b6001600160a01b0384166105bf5760405162461bcd60e51b815260206004820152601760248201527f496e76616c69642062726964676520636f6e747261637400000000000000000060448201526064015b60405180910390fd5b6000831161060f5760405162461bcd60e51b815260206004820152601e60248201527f496e76616c69642076616c69646174696f6e20726571756972656d656e74000060448201526064016105b6565b600086868642604051602001610628949392919061163c565b60408051601f19818403018152918152815160209283012060008181526004909352912060028101549192509060ff16156106955760405162461bcd60e51b815260206004820152600d60248201526c4272696467652065786973747360981b60448201526064016105b6565b80548890829060ff191660018360058111156106b3576106b361159d565b021790555080548790829061ff0019166101008360058111156106d8576106d861159d565b0217905550805462010000600160b01b031916620100006001600160a01b03881602178155600180820186905560028201805460ff1916909117905560405182907fd7376a3a4d96a5c028057c61e976937e9f0b8bb1753538c701df8e261311a73790610748908b908b9061167b565b60405180910390a2509695505050505050565b60008051602061185683398151915261077381610e53565b60008381526004602052604090206002015460ff166107a45760405162461bcd60e51b81526004016105b690611696565b60008381526004602090815260408083206001600160a01b03861684526003019091529020805460ff191660011790556107ec60008051602061183683398151915283610ea5565b505050565b60008281526020819052604090206001015461080c81610e53565b6107ec8383610ea5565b60008051602061183683398151915261082e81610e53565b610836610e5d565b600082815260056020526040902060028101546001600160a01b03166108965760405162461bcd60e51b8152602060048201526015602482015274151c985b9cd858dd1a5bdb881b9bdd08199bdd5b99605a1b60448201526064016105b6565b600581015460ff16156108eb5760405162461bcd60e51b815260206004820152601c60248201527f5472616e73616374696f6e20616c72656164792065786563757465640000000060448201526064016105b6565b33600090815260068201602052604090205460ff16156109415760405162461bcd60e51b8152602060048201526011602482015270105b1c9958591e481d985b1a59185d1959607a1b60448201526064016105b6565b80546000908152600460209081526040808320338452600381019092529091205460ff166109aa5760405162461bcd60e51b81526020600482015260166024820152752737ba103090313934b233b2903b30b634b230ba37b960511b60448201526064016105b6565b3360009081526006830160205260408120805460ff19166001179055600483018054916109d6836116d7565b9091555050604051339085907fa82a361746bd5a728622ac768bbfd5e5889b37fc278257953e9b6762ef94ab8190600090a38060010154826004015410610a2057610a2084610f29565b50505050565b6001600160a01b0381163314610a965760405162461bcd60e51b815260206004820152602f60248201527f416363657373436f6e74726f6c3a2063616e206f6e6c792072656e6f756e636560448201526e103937b632b9903337b91039b2b63360891b60648201526084016105b6565b610aa08282610fdc565b5050565b7fa49807205ce4d355092ef5a8a18f56e8913cf4a201fbe287825b095693c21775610ace81610e53565b610ad6611041565b50565b7fa49807205ce4d355092ef5a8a18f56e8913cf4a201fbe287825b095693c21775610b0381610e53565b610ad6611093565b600080516020611856833981519152610b2381610e53565b60008381526004602052604090206002015460ff16610b545760405162461bcd60e51b81526004016105b690611696565b60008381526004602090815260408083206001600160a01b03861684526003019091529020805460ff191690556107ec60008051602061183683398151915283610fdc565b6000610ba36110ce565b610bab610e5d565b60008581526004602052604090206002015460ff16610bdc5760405162461bcd60e51b81526004016105b690611696565b60035460405163b9209e3360e01b81523360048201526001600160a01b039091169063b9209e3390602401602060405180830381865afa158015610c24573d6000803e3d6000fd5b505050506040513d601f19601f82011682018060405250810190610c4891906116f0565b610c885760405162461bcd60e51b8152602060048201526011602482015270155cd95c881b9bdd081d995c9a599a5959607a1b60448201526064016105b6565b610c928383611125565b610cd25760405162461bcd60e51b8152602060048201526011602482015270496e76616c6964207369676e617475726560781b60448201526064016105b6565b604080516020810187905290810185905233606090811b6bffffffffffffffffffffffff19169082015242607482015260009060940160408051601f1981840301815291815281516020928301206000818152600593849052919091209182015490925060ff1615610d7b5760405162461bcd60e51b81526020600482015260126024820152715472616e73616374696f6e2065786973747360701b60448201526064016105b6565b868155600181018690556002810180546001600160a01b031916331790554260038201556000600482015560058101805460ff19169055604051879083907f867dbc75b21aab7ee57587606a438df141ca54902483bf37df74c0ca971a5c0090610de8908a815260200190565b60405180910390a3509050610dfd6001600255565b949350505050565b6000918252602082815260408084206001600160a01b0393909316845291905290205460ff1690565b600082815260208190526040902060010154610e4981610e53565b6107ec8383610fdc565b610ad68133611133565b60015460ff1615610ea35760405162461bcd60e51b815260206004820152601060248201526f14185d5cd8589b194e881c185d5cd95960821b60448201526064016105b6565b565b610eaf8282610e05565b610aa0576000828152602081815260408083206001600160a01b03851684529091529020805460ff19166001179055610ee53390565b6001600160a01b0316816001600160a01b0316837f2f8788117e7eff1d82e926ec794901d17c78024a50270940304540a733656f0d60405160405180910390a45050565b60008181526005602081815260408084208054855260049092528320805491939092600692610100900460ff1690811115610f6657610f6661159d565b6005811115610f7757610f7761159d565b81526020019081526020016000206000815480929190610f96906116d7565b909155505060058201805460ff19166001179055815460405184907f71b53661194b51762b08ece6c84663b9cd93f608472eae4f185424c1cb7efe6090600090a3505050565b610fe68282610e05565b15610aa0576000828152602081815260408083206001600160a01b0385168085529252808320805460ff1916905551339285917ff6391f5c32d9c69d2a47ea670b442974b53935d1edc7fd64eb21e047a839171b9190a45050565b61104961118c565b6001805460ff191690557f5db9ee0a495bf2e6ff9c91a7834c1ba4fdd244a5e8aa4e537bd38aeae4b073aa335b6040516001600160a01b03909116815260200160405180910390a1565b61109b610e5d565b6001805460ff1916811790557f62e78cea01bee320cd4e420270b5ea74000d11b0c9f74754ebdbfc544b05a25833611076565b600280540361111f5760405162461bcd60e51b815260206004820152601f60248201527f5265656e7472616e637947756172643a207265656e7472616e742063616c6c0060448201526064016105b6565b60028055565b6000808251115b9392505050565b61113d8282610e05565b610aa05761114a816111d5565b6111558360206111e7565b604051602001611166929190611736565b60408051601f198184030181529082905262461bcd60e51b82526105b6916004016117ab565b60015460ff16610ea35760405162461bcd60e51b815260206004820152601460248201527314185d5cd8589b194e881b9bdd081c185d5cd95960621b60448201526064016105b6565b606061053c6001600160a01b03831660145b606060006111f68360026117de565b6112019060026117f5565b67ffffffffffffffff81111561121957611219611483565b6040519080825280601f01601f191660200182016040528015611243576020820181803683370190505b509050600360fc1b8160008151811061125e5761125e611808565b60200101906001600160f81b031916908160001a905350600f60fb1b8160018151811061128d5761128d611808565b60200101906001600160f81b031916908160001a90535060006112b18460026117de565b6112bc9060016117f5565b90505b6001811115611334576f181899199a1a9b1b9c1cb0b131b232b360811b85600f16601081106112f0576112f0611808565b1a60f81b82828151811061130657611306611808565b60200101906001600160f81b031916908160001a90535060049490941c9361132d8161181e565b90506112bf565b50831561112c5760405162461bcd60e51b815260206004820181905260248201527f537472696e67733a20686578206c656e67746820696e73756666696369656e7460448201526064016105b6565b60006020828403121561139557600080fd5b81356001600160e01b03198116811461112c57600080fd5b8035600681106113bc57600080fd5b919050565b80356001600160a01b03811681146113bc57600080fd5b600080600080608085870312156113ee57600080fd5b6113f7856113ad565b9350611405602086016113ad565b9250611413604086016113c1565b9396929550929360600135925050565b60006020828403121561143557600080fd5b5035919050565b6000806040838503121561144f57600080fd5b8235915061145f602084016113c1565b90509250929050565b60006020828403121561147a57600080fd5b61112c826113ad565b634e487b7160e01b600052604160045260246000fd5b600082601f8301126114aa57600080fd5b813567ffffffffffffffff808211156114c5576114c5611483565b604051601f8301601f19908116603f011681019082821181831017156114ed576114ed611483565b8160405283815286602085880101111561150657600080fd5b836020870160208301376000602085830101528094505050505092915050565b6000806000806080858703121561153c57600080fd5b8435935060208501359250604085013567ffffffffffffffff8082111561156257600080fd5b61156e88838901611499565b9350606087013591508082111561158457600080fd5b5061159187828801611499565b91505092959194509250565b634e487b7160e01b600052602160045260246000fd5b600681106115d157634e487b7160e01b600052602160045260246000fd5b9052565b60a081016115e382886115b3565b6115f060208301876115b3565b6001600160a01b039490941660408201526060810192909252151560809091015292915050565b6006811061163557634e487b7160e01b600052602160045260246000fd5b60f81b9052565b6116468186611617565b6116536001820185611617565b60609290921b6bffffffffffffffffffffffff19166002830152601682015260360192915050565b6040810161168982856115b3565b61112c60208301846115b3565b602080825260119082015270427269646765206e6f742061637469766560781b604082015260600190565b634e487b7160e01b600052601160045260246000fd5b6000600182016116e9576116e96116c1565b5060010190565b60006020828403121561170257600080fd5b8151801515811461112c57600080fd5b60005b8381101561172d578181015183820152602001611715565b50506000910152565b7f416363657373436f6e74726f6c3a206163636f756e742000000000000000000081526000835161176e816017850160208801611712565b7001034b99036b4b9b9b4b733903937b6329607d1b601791840191820152835161179f816028840160208801611712565b01602801949350505050565b60208152600082518060208401526117ca816040850160208701611712565b601f01601f19169190910160400192915050565b808202811582820484141761053c5761053c6116c1565b8082018082111561053c5761053c6116c1565b634e487b7160e01b600052603260045260246000fd5b60008161182d5761182d6116c1565b50600019019056fe21702c8af46127c7fa207f89d0b0a8441bb32959a0ac7df790e9ab1a25c989267045adfe67d5f94dbfddcdb901e44bef55baacabb398c7cddda1bfd7620b1568a264697066735822122047ff7c0f94ea8d3e85ec7763617d0df9ad5f1b7720e08d7ee7381a8e51c7d54a64736f6c63430008130033",
  "linkReferences": {},
  "deployedLinkReferences": {}
}