{
  "_format": "hh-sol-artifact-1",
  "contractName": "EHRConnector",
  "sourceName": "contracts/integration/EHRConnector.sol",
  "abi": [
    {
      "inputs": [
        {
          "internalType": "address",
          "name": "_identityContract",
          "type": "address"
        }
      ],
      "stateMutability": "nonpayable",
      "type": "constructor"
    },
    {
      "anonymous": false,
      "inputs": [
        {
          "indexed": true,
          "internalType": "bytes32",
          "name": "ehrId",
          "type": "bytes32"
        },
        {
          "indexed": true,
          "internalType": "address",
          "name": "user",
          "type": "address"
        },
        {
          "indexed": false,
          "internalType": "uint256",
          "name": "expiryTime",
          "type": "uint256"
        }
      ],
      "name": "AccessGranted",
      "type": "event"
    },
    {
      "anonymous": false,
      "inputs": [
        {
          "indexed": true,
          "internalType": "bytes32",
          "name": "ehrId",
          "type": "bytes32"
        },
        {
          "indexed": true,
          "internalType": "bytes32",
          "name": "dataHash",
          "type": "bytes32"
        },
        {
          "indexed": false,
          "internalType": "uint256",
          "name": "timestamp",
          "type": "uint256"
        }
      ],
      "name": "DataSynchronized",
      "type": "event"
    },
    {
      "anonymous": false,
      "inputs": [
        {
          "indexed": true,
          "internalType": "bytes32",
          "name": "ehrId",
          "type": "bytes32"
        },
        {
          "indexed": true,
          "internalType": "bytes32",
          "name": "dataHash",
          "type": "bytes32"
        },
        {
          "indexed": false,
          "internalType": "bool",
          "name": "valid",
          "type": "bool"
        }
      ],
      "name": "DataValidated",
      "type": "event"
    },
    {
      "anonymous": false,
      "inputs": [
        {
          "indexed": true,
          "internalType": "bytes32",
          "name": "ehrId",
          "type": "bytes32"
        },
        {
          "indexed": false,
          "internalType": "string",
          "name": "name",
          "type": "string"
        },
        {
          "indexed": false,
          "internalType": "enum EHRConnector.EHRVendor",
          "name": "vendor",
          "type": "uint8"
        }
      ],
      "name": "EHRSystemRegistered",
      "type": "event"
    },
    {
      "anonymous": false,
      "inputs": [
        {
          "indexed": false,
          "internalType": "address",
          "name": "account",
          "type": "address"
        }
      ],
      "name": "Paused",
      "type": "event"
    },
    {
      "anonymous": false,
      "inputs": [
        {
          "indexed": true,
          "internalType": "bytes32",
          "name": "role",
          "type": "bytes32"
        },
        {
          "indexed": true,
          "internalType": "bytes32",
          "name": "previousAdminRole",
          "type": "bytes32"
        },
        {
          "indexed": true,
          "internalType": "bytes32",
          "name": "newAdminRole",
          "type": "bytes32"
        }
      ],
      "name": "RoleAdminChanged",
      "type": "event"
    },
    {
      "anonymous": false,
      "inputs": [
        {
          "indexed": true,
          "internalType": "bytes32",
          "name": "role",
          "type": "bytes32"
        },
        {
          "indexed": true,
          "internalType": "address",
          "name": "account",
          "type": "address"
        },
        {
          "indexed": true,
          "internalType": "address",
          "name": "sender",
          "type": "address"
        }
      ],
      "name": "RoleGranted",
      "type": "event"
    },
    {
      "anonymous": false,
      "inputs": [
        {
          "indexed": true,
          "internalType": "bytes32",
          "name": "role",
          "type": "bytes32"
        },
        {
          "indexed": true,
          "internalType": "address",
          "name": "account",
          "type": "address"
        },
        {
          "indexed": true,
          "internalType": "address",
          "name": "sender",
          "type": "address"
        }
      ],
      "name": "RoleRevoked",
      "type": "event"
    },
    {
      "anonymous": false,
      "inputs": [
        {
          "indexed": false,
          "internalType": "address",
          "name": "account",
          "type": "address"
        }
      ],
      "name": "Unpaused",
      "type": "event"
    },
    {
      "inputs": [],
      "name": "ADMIN_ROLE",
      "outputs": [
        {
          "internalType": "bytes32",
          "name": "",
          "type": "bytes32"
        }
      ],
      "stateMutability": "view",
      "type": "function"
    },
    {
      "inputs": [],
      "name": "DEFAULT_ADMIN_ROLE",
      "outputs": [
        {
          "internalType": "bytes32",
          "name": "",
          "type": "bytes32"
        }
      ],
      "stateMutability": "view",
      "type": "function"
    },
    {
      "inputs": [],
      "name": "EHR_PROVIDER_ROLE",
      "outputs": [
        {
          "internalType": "bytes32",
          "name": "",
          "type": "bytes32"
        }
      ],
      "stateMutability": "view",
      "type": "function"
    },
    {
      "inputs": [
        {
          "internalType": "bytes32",
          "name": "",
          "type": "bytes32"
        },
        {
          "internalType": "bytes32",
          "name": "",
          "type": "bytes32"
        }
      ],
      "name": "dataValidation",
      "outputs": [
        {
          "internalType": "bool",
          "name": "",
          "type": "bool"
        }
      ],
      "stateMutability": "view",
      "type": "function"
    },
    {
      "inputs": [
        {
          "internalType": "bytes32",
          "name": "_ehrId",
          "type": "bytes32"
        }
      ],
      "name": "deactivateEHR",
      "outputs": [],
      "stateMutability": "nonpayable",
      "type": "function"
    },
    {
      "inputs": [
        {
          "internalType": "bytes32",
          "name": "",
          "type": "bytes32"
        }
      ],
      "name": "ehrSystems",
      "outputs": [
        {
          "internalType": "string",
          "name": "name",
          "type": "string"
        },
        {
          "internalType": "string",
          "name": "endpoint",
          "type": "string"
        },
        {
          "internalType": "enum EHRConnector.EHRVendor",
          "name": "vendor",
          "type": "uint8"
        },
        {
          "internalType": "string",
          "name": "apiVersion",
          "type": "string"
        },
        {
          "internalType": "bool",
          "name": "active",
          "type": "bool"
        },
        {
          "internalType": "address",
          "name": "provider",
          "type": "address"
        }
      ],
      "stateMutability": "view",
      "type": "function"
    },
    {
      "inputs": [
        {
          "internalType": "bytes32",
          "name": "_ehrId",
          "type": "bytes32"
        }
      ],
      "name": "getEHRSystem",
      "outputs": [
        {
          "internalType": "string",
          "name": "name",
          "type": "string"
        },
        {
          "internalType": "string",
          "name": "endpoint",
          "type": "string"
        },
        {
          "internalType": "enum EHRConnector.EHRVendor",
          "name": "vendor",
          "type": "uint8"
        },
        {
          "internalType": "string",
          "name": "apiVersion",
          "type": "string"
        },
        {
          "internalType": "bool",
          "name": "active",
          "type": "bool"
        },
        {
          "internalType": "address",
          "name": "provider",
          "type": "address"
        }
      ],
      "stateMutability": "view",
      "type": "function"
    },
    {
      "inputs": [
        {
          "internalType": "bytes32",
          "name": "role",
          "type": "bytes32"
        }
      ],
      "name": "getRoleAdmin",
      "outputs": [
        {
          "internalType": "bytes32",
          "name": "",
          "type": "bytes32"
        }
      ],
      "stateMutability": "view",
      "type": "function"
    },
    {
      "inputs": [
        {
          "internalType": "address",
          "name": "_user",
          "type": "address"
        },
        {
          "internalType": "bytes32",
          "name": "_ehrId",
          "type": "bytes32"
        }
      ],
      "name": "getUserAccess",
      "outputs": [
        {
          "components": [
            {
              "internalType": "bytes32",
              "name": "ehrId",
              "type": "bytes32"
            },
            {
              "internalType": "uint256",
              "name": "grantedTime",
              "type": "uint256"
            },
            {
              "internalType": "uint256",
              "name": "expiryTime",
              "type": "uint256"
            },
            {
              "internalType": "bool",
              "name": "active",
              "type": "bool"
            },
            {
              "internalType": "string[]",
              "name": "permissions",
              "type": "string[]"
            }
          ],
          "internalType": "struct EHRConnector.DataAccess",
          "name": "",
          "type": "tuple"
        }
      ],
      "stateMutability": "view",
      "type": "function"
    },
    {
      "inputs": [
        {
          "internalType": "bytes32",
          "name": "_ehrId",
          "type": "bytes32"
        },
        {
          "internalType": "address",
          "name": "_user",
          "type": "address"
        },
        {
          "internalType": "uint256",
          "name": "_duration",
          "type": "uint256"
        },
        {
          "internalType": "string[]",
          "name": "_permissions",
          "type": "string[]"
        }
      ],
      "name": "grantAccess",
      "outputs": [],
      "stateMutability": "nonpayable",
      "type": "function"
    },
    {
      "inputs": [
        {
          "internalType": "bytes32",
          "name": "role",
          "type": "bytes32"
        },
        {
          "internalType": "address",
          "name": "account",
          "type": "address"
        }
      ],
      "name": "grantRole",
      "outputs": [],
      "stateMutability": "nonpayable",
      "type": "function"
    },
    {
      "inputs": [
        {
          "internalType": "bytes32",
          "name": "role",
          "type": "bytes32"
        },
        {
          "internalType": "address",
          "name": "account",
          "type": "address"
        }
      ],
      "name": "hasRole",
      "outputs": [
        {
          "internalType": "bool",
          "name": "",
          "type": "bool"
        }
      ],
      "stateMutability": "view",
      "type": "function"
    },
    {
      "inputs": [],
      "name": "identityContract",
      "outputs": [
        {
          "internalType": "contract IUHCIdentity",
          "name": "",
          "type": "address"
        }
      ],
      "stateMutability": "view",
      "type": "function"
    },
    {
      "inputs": [
        {
          "internalType": "bytes32",
          "name": "_ehrId",
          "type": "bytes32"
        },
        {
          "internalType": "bytes32",
          "name": "_dataHash",
          "type": "bytes32"
        }
      ],
      "name": "isDataValid",
      "outputs": [
        {
          "internalType": "bool",
          "name": "",
          "type": "bool"
        }
      ],
      "stateMutability": "view",
      "type": "function"
    },
    {
      "inputs": [],
      "name": "pause",
      "outputs": [],
      "stateMutability": "nonpayable",
      "type": "function"
    },
    {
      "inputs": [],
      "name": "paused",
      "outputs": [
        {
          "internalType": "bool",
          "name": "",
          "type": "bool"
        }
      ],
      "stateMutability": "view",
      "type": "function"
    },
    {
      "inputs": [
        {
          "internalType": "string",
          "name": "_name",
          "type": "string"
        },
        {
          "internalType": "string",
          "name": "_endpoint",
          "type": "string"
        },
        {
          "internalType": "enum EHRConnector.EHRVendor",
          "name": "_vendor",
          "type": "uint8"
        },
        {
          "internalType": "string",
          "name": "_apiVersion",
          "type": "string"
        }
      ],
      "name": "registerEHRSystem",
      "outputs": [
        {
          "internalType": "bytes32",
          "name": "",
          "type": "bytes32"
        }
      ],
      "stateMutability": "nonpayable",
      "type": "function"
    },
    {
      "inputs": [
        {
          "internalType": "bytes32",
          "name": "role",
          "type": "bytes32"
        },
        {
          "internalType": "address",
          "name": "account",
          "type": "address"
        }
      ],
      "name": "renounceRole",
      "outputs": [],
      "stateMutability": "nonpayable",
      "type": "function"
    },
    {
      "inputs": [
        {
          "internalType": "bytes32",
          "name": "role",
          "type": "bytes32"
        },
        {
          "internalType": "address",
          "name": "account",
          "type": "address"
        }
      ],
      "name": "revokeRole",
      "outputs": [],
      "stateMutability": "nonpayable",
      "type": "function"
    },
    {
      "inputs": [
        {
          "internalType": "bytes4",
          "name": "interfaceId",
          "type": "bytes4"
        }
      ],
      "name": "supportsInterface",
      "outputs": [
        {
          "internalType": "bool",
          "name": "",
          "type": "bool"
        }
      ],
      "stateMutability": "view",
      "type": "function"
    },
    {
      "inputs": [
        {
          "internalType": "bytes32",
          "name": "_ehrId",
          "type": "bytes32"
        },
        {
          "internalType": "bytes32",
          "name": "_dataHash",
          "type": "bytes32"
        },
        {
          "internalType": "bytes",
          "name": "",
          "type": "bytes"
        },
        {
          "internalType": "string",
          "name": "_dataType",
          "type": "string"
        }
      ],
      "name": "synchronizeData",
      "outputs": [],
      "stateMutability": "nonpayable",
      "type": "function"
    },
    {
      "inputs": [],
      "name": "unpause",
      "outputs": [],
      "stateMutability": "nonpayable",
      "type": "function"
    },
    {
      "inputs": [
        {
          "internalType": "address",
          "name": "",
          "type": "address"
        },
        {
          "internalType": "bytes32",
          "name": "",
          "type": "bytes32"
        }
      ],
      "name": "userAccess",
      "outputs": [
        {
          "internalType": "bytes32",
          "name": "ehrId",
          "type": "bytes32"
        },
        {
          "internalType": "uint256",
          "name": "grantedTime",
          "type": "uint256"
        },
        {
          "internalType": "uint256",
          "name": "expiryTime",
          "type": "uint256"
        },
        {
          "internalType": "bool",
          "name": "active",
          "type": "bool"
        }
      ],
      "stateMutability": "view",
      "type": "function"
    },
    {
      "inputs": [
        {
          "internalType": "bytes32",
          "name": "_ehrId",
          "type": "bytes32"
        },
        {
          "internalType": "bytes32",
          "name": "_dataHash",
          "type": "bytes32"
        },
        {
          "internalType": "bytes",
          "name": "_data",
          "type": "bytes"
        },
        {
          "internalType": "bytes",
          "name": "_signature",
          "type": "bytes"
        }
      ],
      "name": "validateData",
      "outputs": [
        {
          "internalType": "bool",
          "name": "",
          "type": "bool"
        }
      ],
      "stateMutability": "nonpayable",
      "type": "function"
    }
  ],
  "bytecode": "0x60806040523480156200001157600080fd5b506040516200253b3803806200253b833981016040819052620000349162000134565b600180546001600160a81b0319166101006001600160a01b038416021790556200006060003362000093565b6200008c7fa49807205ce4d355092ef5a8a18f56e8913cf4a201fbe287825b095693c217753362000093565b5062000166565b6000828152602081815260408083206001600160a01b038516845290915290205460ff1662000130576000828152602081815260408083206001600160a01b03851684529091529020805460ff19166001179055620000ef3390565b6001600160a01b0316816001600160a01b0316837f2f8788117e7eff1d82e926ec794901d17c78024a50270940304540a733656f0d60405160405180910390a45b5050565b6000602082840312156200014757600080fd5b81516001600160a01b03811681146200015f57600080fd5b9392505050565b6123c580620001766000396000f3fe608060405234801561001057600080fd5b50600436106101585760003560e01c80635a1f0bd5116100c357806391d148541161007c57806391d1485414610374578063a217fddf14610387578063b1030aaa1461038f578063c10e599d146103a2578063d547741f146103b7578063f277410e146103ca57600080fd5b80635a1f0bd5146102f65780635c975abb1461030957806367031bae1461031457806368ee83d41461034457806375b238fc146103575780638456cb591461036c57600080fd5b806324707529116101155780632470752914610256578063248a2cdc14610284578063248a9ca3146102a55780632f2ff15d146102c857806336568abe146102db5780633f4ba83a146102ee57600080fd5b806301ffc9a71461015d578063054c28281461018557806309ae0b511461019a578063124ab4e5146101ba5780631ba82d42146101df5780631bb8db0014610243575b600080fd5b61017061016b366004611b02565b6103f8565b60405190151581526020015b60405180910390f35b610198610193366004611be3565b61042f565b005b6101ad6101a8366004611c76565b610676565b60405161017c9190611cf0565b6101cd6101c8366004611d85565b6107dc565b60405161017c96959493929190611dc8565b6102216101ed366004611c76565b6003602081815260009384526040808520909152918352912080546001820154600283015492909301549092919060ff1684565b604080519485526020850193909352918301521515606082015260800161017c565b610198610251366004611e32565b6109e4565b610170610264366004611f19565b600091825260046020908152604080842092845291905290205460ff1690565b610297610292366004611f3b565b610bf1565b60405190815260200161017c565b6102976102b3366004611d85565b60009081526020819052604090206001015490565b6101986102d6366004611fc3565b610e30565b6101986102e9366004611fc3565b610e5a565b610198610ed8565b6101cd610304366004611d85565b610efb565b60015460ff16610170565b60015461032c9061010090046001600160a01b031681565b6040516001600160a01b03909116815260200161017c565b610170610352366004611be3565b6110de565b61029760008051602061237083398151915281565b6101986111e6565b610170610382366004611fc3565b611206565b610297600081565b61019861039d366004611d85565b61122f565b61029760008051602061235083398151915281565b6101986103c5366004611fc3565b611294565b6101706103d8366004611f19565b600460209081526000928352604080842090915290825290205460ff1681565b60006001600160e01b03198216637965db0b60e01b148061042957506301ffc9a760e01b6001600160e01b03198316145b92915050565b6104376112b9565b60008481526002602052604090206004015460ff166104715760405162461bcd60e51b815260040161046890611fef565b60405180910390fd5b3360009081526003602081815260408084208885529091529091209081015460ff166104d25760405162461bcd60e51b815260206004820152601060248201526f4e6f206163746976652061636365737360801b6044820152606401610468565b80600201544211156105175760405162461bcd60e51b815260206004820152600e60248201526d1058d8d95cdcc8195e1c1a5c995960921b6044820152606401610468565b6105f481600401805480602002602001604051908101604052809291908181526020016000905b828210156105ea57838290600052602060002001805461055d90612017565b80601f016020809104026020016040519081016040528092919081815260200182805461058990612017565b80156105d65780601f106105ab576101008083540402835291602001916105d6565b820191906000526020600020905b8154815290600101906020018083116105b957829003601f168201915b50505050508152602001906001019061053e565b5050505083611301565b6106345760405162461bcd60e51b815260206004820152601160248201527014195c9b5a5cdcda5bdb8819195b9a5959607a1b6044820152606401610468565b83857fce31682aa73d6a38a6fb3f1d0c5568a02c9378667990afd3fb83317f9251993f4260405161066791815260200190565b60405180910390a35050505050565b6106ad6040518060a00160405280600080191681526020016000815260200160008152602001600015158152602001606081525090565b6001600160a01b03831660009081526003602081815260408084208685528252808420815160a081018352815481526001820154818501526002820154818401529381015460ff16151560608501526004810180548351818602810186019094528084529495919460808701949192909184015b828210156107cd57838290600052602060002001805461074090612017565b80601f016020809104026020016040519081016040528092919081815260200182805461076c90612017565b80156107b95780601f1061078e576101008083540402835291602001916107b9565b820191906000526020600020905b81548152906001019060200180831161079c57829003601f168201915b505050505081526020019060010190610721565b50505091525090949350505050565b60008181526002602081905260408220908101546004820154825460609485949093859385938493928392600184019260ff928316926003860192908116916101009091046001600160a01b031690869061083690612017565b80601f016020809104026020016040519081016040528092919081815260200182805461086290612017565b80156108af5780601f10610884576101008083540402835291602001916108af565b820191906000526020600020905b81548152906001019060200180831161089257829003601f168201915b505050505095508480546108c290612017565b80601f01602080910402602001604051908101604052809291908181526020018280546108ee90612017565b801561093b5780601f106109105761010080835404028352916020019161093b565b820191906000526020600020905b81548152906001019060200180831161091e57829003601f168201915b5050505050945082805461094e90612017565b80601f016020809104026020016040519081016040528092919081815260200182805461097a90612017565b80156109c75780601f1061099c576101008083540402835291602001916109c7565b820191906000526020600020905b8154815290600101906020018083116109aa57829003601f168201915b505050505092509650965096509650965096505091939550919395565b6109ec6112b9565b60008481526002602052604090206004015460ff16610a1d5760405162461bcd60e51b815260040161046890611fef565b60008481526002602052604090206004015461010090046001600160a01b0316331480610a5d5750610a5d60008051602061237083398151915233611206565b610a9a5760405162461bcd60e51b815260206004820152600e60248201526d139bdd08185d5d1a1bdc9a5e995960921b6044820152606401610468565b60015460405163b9209e3360e01b81526001600160a01b0385811660048301526101009092049091169063b9209e3390602401602060405180830381865afa158015610aea573d6000803e3d6000fd5b505050506040513d601f19601f82011682018060405250810190610b0e9190612051565b610b4e5760405162461bcd60e51b8152602060048201526011602482015270155cd95c881b9bdd081d995c9a599a5959607a1b6044820152606401610468565b6001600160a01b038316600090815260036020908152604080832087845290915290208481554260018201819055610b87908490612089565b600282015560038101805460ff191660011790558151610bb09060048301906020850190611a45565b50836001600160a01b0316857ffb0d878058fa0fa7787395856cffd8a6cc8c542d9d67a0c121fe56be1c658959836002015460405161066791815260200190565b6000600080516020612370833981519152610c0b81611362565b610c136112b9565b600180546040516395a8c58d60e01b81526101009091046001600160a01b0316916395a8c58d91610c4891339160040161209c565b602060405180830381865afa158015610c65573d6000803e3d6000fd5b505050506040513d601f19601f82011682018060405250810190610c899190612051565b610cc65760405162461bcd60e51b815260206004820152600e60248201526d2737ba103090383937bb34b232b960911b6044820152606401610468565b600086868642604051602001610cdf94939291906120c9565b60408051601f1981840301815291815281516020928301206000818152600290935291206004015490915061010090046001600160a01b031615610d525760405162461bcd60e51b815260206004820152600a6024820152694548522065786973747360b01b6044820152606401610468565b600081815260026020526040902080610d6b8982612166565b5060018101610d7a8882612166565b5060028101805487919060ff19166001836005811115610d9c57610d9c611d9e565b021790555060038101610daf8682612166565b506004810180543361010081026001600160a81b031990921691909117600117909155610deb906000805160206123508339815191529061136c565b817f4de59af5cf7481a77ce974760c8f3a606ef542d4a559954531f3d666f5552d228988604051610e1d929190612226565b60405180910390a2509695505050505050565b600082815260208190526040902060010154610e4b81611362565b610e55838361136c565b505050565b6001600160a01b0381163314610eca5760405162461bcd60e51b815260206004820152602f60248201527f416363657373436f6e74726f6c3a2063616e206f6e6c792072656e6f756e636560448201526e103937b632b9903337b91039b2b63360891b6064820152608401610468565b610ed482826113f0565b5050565b600080516020612370833981519152610ef081611362565b610ef8611455565b50565b600260205260009081526040902080548190610f1690612017565b80601f0160208091040260200160405190810160405280929190818152602001828054610f4290612017565b8015610f8f5780601f10610f6457610100808354040283529160200191610f8f565b820191906000526020600020905b815481529060010190602001808311610f7257829003601f168201915b505050505090806001018054610fa490612017565b80601f0160208091040260200160405190810160405280929190818152602001828054610fd090612017565b801561101d5780601f10610ff25761010080835404028352916020019161101d565b820191906000526020600020905b81548152906001019060200180831161100057829003601f168201915b5050506002840154600385018054949560ff90921694919350915061104190612017565b80601f016020809104026020016040519081016040528092919081815260200182805461106d90612017565b80156110ba5780601f1061108f576101008083540402835291602001916110ba565b820191906000526020600020905b81548152906001019060200180831161109d57829003601f168201915b5050506004909301549192505060ff8116906001600160a01b036101009091041686565b60006110e86112b9565b60008581526002602052604090206004015460ff166111195760405162461bcd60e51b815260040161046890611fef565b61113160008051602061235083398151915233611206565b6111705760405162461bcd60e51b815260206004820152601060248201526f2737ba1022a42910383937bb34b232b960811b6044820152606401610468565b600061117d8484886114a7565b6000878152600460209081526040808320898452825291829020805460ff19168415159081179091559151918252919250869188917f728617260ca9aec2c1f46837bbd9cf1d9f23e6cf9a9f6514063179ca3a47b52d910160405180910390a395945050505050565b6000805160206123708339815191526111fe81611362565b610ef8611543565b6000918252602082815260408084206001600160a01b0393909316845291905290205460ff1690565b60008051602061237083398151915261124781611362565b60008281526002602052604090206004015460ff166112785760405162461bcd60e51b815260040161046890611fef565b506000908152600260205260409020600401805460ff19169055565b6000828152602081905260409020600101546112af81611362565b610e5583836113f0565b60015460ff16156112ff5760405162461bcd60e51b815260206004820152601060248201526f14185d5cd8589b194e881c185d5cd95960821b6044820152606401610468565b565b6000805b835181101561135857828051906020012084828151811061132857611328612248565b60200260200101518051906020012003611346576001915050610429565b806113508161225e565b915050611305565b5060009392505050565b610ef8813361157e565b6113768282611206565b610ed4576000828152602081815260408083206001600160a01b03851684529091529020805460ff191660011790556113ac3390565b6001600160a01b0316816001600160a01b0316837f2f8788117e7eff1d82e926ec794901d17c78024a50270940304540a733656f0d60405160405180910390a45050565b6113fa8282611206565b15610ed4576000828152602081815260408083206001600160a01b0385168085529252808320805460ff1916905551339285917ff6391f5c32d9c69d2a47ea670b442974b53935d1edc7fd64eb21e047a839171b9190a45050565b61145d6115d7565b6001805460ff191690557f5db9ee0a495bf2e6ff9c91a7834c1ba4fdd244a5e8aa4e537bd38aeae4b073aa335b6040516001600160a01b03909116815260200160405180910390a1565b60008084836040516020016114bd929190612277565b604051602081830303815290604052805190602001209050600061150e827f19457468657265756d205369676e6564204d6573736167653a0a3332000000006000908152601c91909152603c902090565b9050600061151c8287611620565b905061153660008051602061235083398151915282611206565b93505050505b9392505050565b61154b6112b9565b6001805460ff1916811790557f62e78cea01bee320cd4e420270b5ea74000d11b0c9f74754ebdbfc544b05a2583361148a565b6115888282611206565b610ed45761159581611644565b6115a0836020611656565b6040516020016115b1929190612299565b60408051601f198184030181529082905262461bcd60e51b82526104689160040161230e565b60015460ff166112ff5760405162461bcd60e51b815260206004820152601460248201527314185d5cd8589b194e881b9bdd081c185d5cd95960621b6044820152606401610468565b600080600061162f85856117f2565b9150915061163c81611837565b509392505050565b60606104296001600160a01b03831660145b60606000611665836002612321565b611670906002612089565b67ffffffffffffffff81111561168857611688611b2c565b6040519080825280601f01601f1916602001820160405280156116b2576020820181803683370190505b509050600360fc1b816000815181106116cd576116cd612248565b60200101906001600160f81b031916908160001a905350600f60fb1b816001815181106116fc576116fc612248565b60200101906001600160f81b031916908160001a9053506000611720846002612321565b61172b906001612089565b90505b60018111156117a3576f181899199a1a9b1b9c1cb0b131b232b360811b85600f166010811061175f5761175f612248565b1a60f81b82828151811061177557611775612248565b60200101906001600160f81b031916908160001a90535060049490941c9361179c81612338565b905061172e565b50831561153c5760405162461bcd60e51b815260206004820181905260248201527f537472696e67733a20686578206c656e67746820696e73756666696369656e746044820152606401610468565b60008082516041036118285760208301516040840151606085015160001a61181c87828585611981565b94509450505050611830565b506000905060025b9250929050565b600081600481111561184b5761184b611d9e565b036118535750565b600181600481111561186757611867611d9e565b036118b45760405162461bcd60e51b815260206004820152601860248201527f45434453413a20696e76616c6964207369676e617475726500000000000000006044820152606401610468565b60028160048111156118c8576118c8611d9e565b036119155760405162461bcd60e51b815260206004820152601f60248201527f45434453413a20696e76616c6964207369676e6174757265206c656e677468006044820152606401610468565b600381600481111561192957611929611d9e565b03610ef85760405162461bcd60e51b815260206004820152602260248201527f45434453413a20696e76616c6964207369676e6174757265202773272076616c604482015261756560f01b6064820152608401610468565b6000807f7fffffffffffffffffffffffffffffff5d576e7357a4501ddfe92f46681b20a08311156119b85750600090506003611a3c565b6040805160008082526020820180845289905260ff881692820192909252606081018690526080810185905260019060a0016020604051602081039080840390855afa158015611a0c573d6000803e3d6000fd5b5050604051601f1901519150506001600160a01b038116611a3557600060019250925050611a3c565b9150600090505b94509492505050565b828054828255906000526020600020908101928215611a8b579160200282015b82811115611a8b5782518290611a7b9082612166565b5091602001919060010190611a65565b50611a97929150611a9b565b5090565b80821115611a97576000611aaf8282611ab8565b50600101611a9b565b508054611ac490612017565b6000825580601f10611ad4575050565b601f016020900490600052602060002090810190610ef891905b80821115611a975760008155600101611aee565b600060208284031215611b1457600080fd5b81356001600160e01b03198116811461153c57600080fd5b634e487b7160e01b600052604160045260246000fd5b604051601f8201601f1916810167ffffffffffffffff81118282101715611b6b57611b6b611b2c565b604052919050565b600082601f830112611b8457600080fd5b813567ffffffffffffffff811115611b9e57611b9e611b2c565b611bb1601f8201601f1916602001611b42565b818152846020838601011115611bc657600080fd5b816020850160208301376000918101602001919091529392505050565b60008060008060808587031215611bf957600080fd5b8435935060208501359250604085013567ffffffffffffffff80821115611c1f57600080fd5b611c2b88838901611b73565b93506060870135915080821115611c4157600080fd5b50611c4e87828801611b73565b91505092959194509250565b80356001600160a01b0381168114611c7157600080fd5b919050565b60008060408385031215611c8957600080fd5b611c9283611c5a565b946020939093013593505050565b60005b83811015611cbb578181015183820152602001611ca3565b50506000910152565b60008151808452611cdc816020860160208601611ca0565b601f01601f19169290920160200192915050565b6000602080835260c0830184518285015281850151604085015260408501516060850152606085015115156080850152608085015160a08086015281815180845260e08701915060e08160051b8801019350848301925060005b81811015611d785760df19888603018352611d66858551611cc4565b94509285019291850191600101611d4a565b5092979650505050505050565b600060208284031215611d9757600080fd5b5035919050565b634e487b7160e01b600052602160045260246000fd5b60068110611dc457611dc4611d9e565b9052565b60c081526000611ddb60c0830189611cc4565b8281036020840152611ded8189611cc4565b9050611dfc6040840188611db4565b8281036060840152611e0e8187611cc4565b941515608084015250506001600160a01b039190911660a090910152949350505050565b60008060008060808587031215611e4857600080fd5b843593506020611e59818701611c5a565b935060408601359250606086013567ffffffffffffffff80821115611e7d57600080fd5b818801915088601f830112611e9157600080fd5b813581811115611ea357611ea3611b2c565b8060051b611eb2858201611b42565b918252838101850191858101908c841115611ecc57600080fd5b86860192505b83831015611f0857823585811115611eea5760008081fd5b611ef88e89838a0101611b73565b8352509186019190860190611ed2565b999c989b5096995050505050505050565b60008060408385031215611f2c57600080fd5b50508035926020909101359150565b60008060008060808587031215611f5157600080fd5b843567ffffffffffffffff80821115611f6957600080fd5b611f7588838901611b73565b95506020870135915080821115611f8b57600080fd5b611f9788838901611b73565b94506040870135915060068210611fad57600080fd5b90925060608601359080821115611c4157600080fd5b60008060408385031215611fd657600080fd5b82359150611fe660208401611c5a565b90509250929050565b6020808252600e908201526d454852206e6f742061637469766560901b604082015260600190565b600181811c9082168061202b57607f821691505b60208210810361204b57634e487b7160e01b600052602260045260246000fd5b50919050565b60006020828403121561206357600080fd5b8151801515811461153c57600080fd5b634e487b7160e01b600052601160045260246000fd5b8082018082111561042957610429612073565b6001600160a01b038316815260408101600483106120bc576120bc611d9e565b8260208301529392505050565b600085516120db818460208a01611ca0565b8551908301906120ef818360208a01611ca0565b016006851061210057612100611d9e565b60f89490941b84525050600182015260210192915050565b601f821115610e5557600081815260208120601f850160051c8101602086101561213f5750805b601f850160051c820191505b8181101561215e5782815560010161214b565b505050505050565b815167ffffffffffffffff81111561218057612180611b2c565b6121948161218e8454612017565b84612118565b602080601f8311600181146121c957600084156121b15750858301515b600019600386901b1c1916600185901b17855561215e565b600085815260208120601f198616915b828110156121f8578886015182559484019460019091019084016121d9565b50858210156122165787850151600019600388901b60f8161c191681555b5050505050600190811b01905550565b6040815260006122396040830185611cc4565b905061153c6020830184611db4565b634e487b7160e01b600052603260045260246000fd5b60006001820161227057612270612073565b5060010190565b60008351612289818460208801611ca0565b9190910191825250602001919050565b7f416363657373436f6e74726f6c3a206163636f756e74200000000000000000008152600083516122d1816017850160208801611ca0565b7001034b99036b4b9b9b4b733903937b6329607d1b6017918401918201528351612302816028840160208801611ca0565b01602801949350505050565b60208152600061153c6020830184611cc4565b808202811582820484141761042957610429612073565b60008161234757612347612073565b50600019019056fe84a5d52790d9a05a95a1aa3164a560d0a868ad0783fcd7910a3d9d9a10644fd1a49807205ce4d355092ef5a8a18f56e8913cf4a201fbe287825b095693c21775a26469706673582212202a853a26c4b692c98cebb6bad1550300403bc0397533d643041b398be0465f9664736f6c63430008130033",
  "linkReferences": {},
  "deployedLinkReferences": {}
}