{
  "_format": "hh-sol-artifact-1",
  "contractName": "RewardMechanism",
  "sourceName": "contracts/tokens/RewardMechanism.sol",
  "abi": [
    {
      "inputs": [
        {
          "internalType": "address",
          "name": "_uhcToken",
          "type": "address"
        },
        {
          "internalType": "address",
          "name": "_identityContract",
          "type": "address"
        }
      ],
      "stateMutability": "nonpayable",
      "type": "constructor"
    },
    {
      "anonymous": false,
      "inputs": [
        {
          "indexed": true,
          "internalType": "bytes32",
          "name": "rewardTypeId",
          "type": "bytes32"
        },
        {
          "indexed": false,
          "internalType": "uint256",
          "name": "multiplier",
          "type": "uint256"
        }
      ],
      "name": "MultiplierUpdated",
      "type": "event"
    },
    {
      "anonymous": false,
      "inputs": [
        {
          "indexed": false,
          "internalType": "address",
          "name": "account",
          "type": "address"
        }
      ],
      "name": "Paused",
      "type": "event"
    },
    {
      "anonymous": false,
      "inputs": [
        {
          "indexed": true,
          "internalType": "address",
          "name": "user",
          "type": "address"
        },
        {
          "indexed": true,
          "internalType": "bytes32",
          "name": "rewardTypeId",
          "type": "bytes32"
        },
        {
          "indexed": false,
          "internalType": "uint256",
          "name": "amount",
          "type": "uint256"
        }
      ],
      "name": "RewardClaimed",
      "type": "event"
    },
    {
      "anonymous": false,
      "inputs": [
        {
          "indexed": true,
          "internalType": "bytes32",
          "name": "rewardTypeId",
          "type": "bytes32"
        },
        {
          "indexed": false,
          "internalType": "string",
          "name": "name",
          "type": "string"
        },
        {
          "indexed": false,
          "internalType": "uint256",
          "name": "baseAmount",
          "type": "uint256"
        }
      ],
      "name": "RewardTypeCreated",
      "type": "event"
    },
    {
      "anonymous": false,
      "inputs": [
        {
          "indexed": true,
          "internalType": "bytes32",
          "name": "rewardTypeId",
          "type": "bytes32"
        },
        {
          "indexed": false,
          "internalType": "uint256",
          "name": "newBaseAmount",
          "type": "uint256"
        }
      ],
      "name": "RewardTypeUpdated",
      "type": "event"
    },
    {
      "anonymous": false,
      "inputs": [
        {
          "indexed": true,
          "internalType": "bytes32",
          "name": "role",
          "type": "bytes32"
        },
        {
          "indexed": true,
          "internalType": "bytes32",
          "name": "previousAdminRole",
          "type": "bytes32"
        },
        {
          "indexed": true,
          "internalType": "bytes32",
          "name": "newAdminRole",
          "type": "bytes32"
        }
      ],
      "name": "RoleAdminChanged",
      "type": "event"
    },
    {
      "anonymous": false,
      "inputs": [
        {
          "indexed": true,
          "internalType": "bytes32",
          "name": "role",
          "type": "bytes32"
        },
        {
          "indexed": true,
          "internalType": "address",
          "name": "account",
          "type": "address"
        },
        {
          "indexed": true,
          "internalType": "address",
          "name": "sender",
          "type": "address"
        }
      ],
      "name": "RoleGranted",
      "type": "event"
    },
    {
      "anonymous": false,
      "inputs": [
        {
          "indexed": true,
          "internalType": "bytes32",
          "name": "role",
          "type": "bytes32"
        },
        {
          "indexed": true,
          "internalType": "address",
          "name": "account",
          "type": "address"
        },
        {
          "indexed": true,
          "internalType": "address",
          "name": "sender",
          "type": "address"
        }
      ],
      "name": "RoleRevoked",
      "type": "event"
    },
    {
      "anonymous": false,
      "inputs": [
        {
          "indexed": false,
          "internalType": "address",
          "name": "account",
          "type": "address"
        }
      ],
      "name": "Unpaused",
      "type": "event"
    },
    {
      "inputs": [],
      "name": "ADMIN_ROLE",
      "outputs": [
        {
          "internalType": "bytes32",
          "name": "",
          "type": "bytes32"
        }
      ],
      "stateMutability": "view",
      "type": "function"
    },
    {
      "inputs": [],
      "name": "DEFAULT_ADMIN_ROLE",
      "outputs": [
        {
          "internalType": "bytes32",
          "name": "",
          "type": "bytes32"
        }
      ],
      "stateMutability": "view",
      "type": "function"
    },
    {
      "inputs": [],
      "name": "REWARD_MANAGER_ROLE",
      "outputs": [
        {
          "internalType": "bytes32",
          "name": "",
          "type": "bytes32"
        }
      ],
      "stateMutability": "view",
      "type": "function"
    },
    {
      "inputs": [
        {
          "internalType": "bytes32",
          "name": "_rewardTypeId",
          "type": "bytes32"
        },
        {
          "internalType": "address",
          "name": "_user",
          "type": "address"
        }
      ],
      "name": "calculateReward",
      "outputs": [
        {
          "internalType": "uint256",
          "name": "",
          "type": "uint256"
        }
      ],
      "stateMutability": "view",
      "type": "function"
    },
    {
      "inputs": [
        {
          "internalType": "bytes32",
          "name": "_rewardTypeId",
          "type": "bytes32"
        },
        {
          "internalType": "bytes",
          "name": "_proof",
          "type": "bytes"
        }
      ],
      "name": "claimReward",
      "outputs": [],
      "stateMutability": "nonpayable",
      "type": "function"
    },
    {
      "inputs": [
        {
          "internalType": "string",
          "name": "_name",
          "type": "string"
        },
        {
          "internalType": "uint256",
          "name": "_baseAmount",
          "type": "uint256"
        },
        {
          "internalType": "uint256",
          "name": "_cooldownPeriod",
          "type": "uint256"
        }
      ],
      "name": "createRewardType",
      "outputs": [
        {
          "internalType": "bytes32",
          "name": "",
          "type": "bytes32"
        }
      ],
      "stateMutability": "nonpayable",
      "type": "function"
    },
    {
      "inputs": [
        {
          "internalType": "bytes32",
          "name": "_rewardTypeId",
          "type": "bytes32"
        }
      ],
      "name": "getRewardType",
      "outputs": [
        {
          "components": [
            {
              "internalType": "string",
              "name": "name",
              "type": "string"
            },
            {
              "internalType": "uint256",
              "name": "baseAmount",
              "type": "uint256"
            },
            {
              "internalType": "bool",
              "name": "active",
              "type": "bool"
            },
            {
              "internalType": "uint256",
              "name": "cooldownPeriod",
              "type": "uint256"
            }
          ],
          "internalType": "struct RewardMechanism.RewardType",
          "name": "",
          "type": "tuple"
        }
      ],
      "stateMutability": "view",
      "type": "function"
    },
    {
      "inputs": [
        {
          "internalType": "bytes32",
          "name": "role",
          "type": "bytes32"
        }
      ],
      "name": "getRoleAdmin",
      "outputs": [
        {
          "internalType": "bytes32",
          "name": "",
          "type": "bytes32"
        }
      ],
      "stateMutability": "view",
      "type": "function"
    },
    {
      "inputs": [
        {
          "internalType": "address",
          "name": "_user",
          "type": "address"
        },
        {
          "internalType": "bytes32",
          "name": "_rewardTypeId",
          "type": "bytes32"
        }
      ],
      "name": "getUserRewardInfo",
      "outputs": [
        {
          "internalType": "uint256",
          "name": "totalEarned",
          "type": "uint256"
        },
        {
          "internalType": "uint256",
          "name": "lastRewardTime",
          "type": "uint256"
        },
        {
          "internalType": "uint256",
          "name": "lastTypeClaim",
          "type": "uint256"
        }
      ],
      "stateMutability": "view",
      "type": "function"
    },
    {
      "inputs": [
        {
          "internalType": "bytes32",
          "name": "role",
          "type": "bytes32"
        },
        {
          "internalType": "address",
          "name": "account",
          "type": "address"
        }
      ],
      "name": "grantRole",
      "outputs": [],
      "stateMutability": "nonpayable",
      "type": "function"
    },
    {
      "inputs": [
        {
          "internalType": "bytes32",
          "name": "role",
          "type": "bytes32"
        },
        {
          "internalType": "address",
          "name": "account",
          "type": "address"
        }
      ],
      "name": "hasRole",
      "outputs": [
        {
          "internalType": "bool",
          "name": "",
          "type": "bool"
        }
      ],
      "stateMutability": "view",
      "type": "function"
    },
    {
      "inputs": [],
      "name": "identityContract",
      "outputs": [
        {
          "internalType": "contract IUHCIdentity",
          "name": "",
          "type": "address"
        }
      ],
      "stateMutability": "view",
      "type": "function"
    },
    {
      "inputs": [],
      "name": "pause",
      "outputs": [],
      "stateMutability": "nonpayable",
      "type": "function"
    },
    {
      "inputs": [],
      "name": "paused",
      "outputs": [
        {
          "internalType": "bool",
          "name": "",
          "type": "bool"
        }
      ],
      "stateMutability": "view",
      "type": "function"
    },
    {
      "inputs": [
        {
          "internalType": "bytes32",
          "name": "role",
          "type": "bytes32"
        },
        {
          "internalType": "address",
          "name": "account",
          "type": "address"
        }
      ],
      "name": "renounceRole",
      "outputs": [],
      "stateMutability": "nonpayable",
      "type": "function"
    },
    {
      "inputs": [
        {
          "internalType": "bytes32",
          "name": "role",
          "type": "bytes32"
        },
        {
          "internalType": "address",
          "name": "account",
          "type": "address"
        }
      ],
      "name": "revokeRole",
      "outputs": [],
      "stateMutability": "nonpayable",
      "type": "function"
    },
    {
      "inputs": [
        {
          "internalType": "bytes32",
          "name": "",
          "type": "bytes32"
        }
      ],
      "name": "rewardTypeMultipliers",
      "outputs": [
        {
          "internalType": "uint256",
          "name": "",
          "type": "uint256"
        }
      ],
      "stateMutability": "view",
      "type": "function"
    },
    {
      "inputs": [
        {
          "internalType": "bytes32",
          "name": "",
          "type": "bytes32"
        }
      ],
      "name": "rewardTypes",
      "outputs": [
        {
          "internalType": "string",
          "name": "name",
          "type": "string"
        },
        {
          "internalType": "uint256",
          "name": "baseAmount",
          "type": "uint256"
        },
        {
          "internalType": "bool",
          "name": "active",
          "type": "bool"
        },
        {
          "internalType": "uint256",
          "name": "cooldownPeriod",
          "type": "uint256"
        }
      ],
      "stateMutability": "view",
      "type": "function"
    },
    {
      "inputs": [
        {
          "internalType": "bytes4",
          "name": "interfaceId",
          "type": "bytes4"
        }
      ],
      "name": "supportsInterface",
      "outputs": [
        {
          "internalType": "bool",
          "name": "",
          "type": "bool"
        }
      ],
      "stateMutability": "view",
      "type": "function"
    },
    {
      "inputs": [],
      "name": "uhcToken",
      "outputs": [
        {
          "internalType": "contract IERC20",
          "name": "",
          "type": "address"
        }
      ],
      "stateMutability": "view",
      "type": "function"
    },
    {
      "inputs": [],
      "name": "unpause",
      "outputs": [],
      "stateMutability": "nonpayable",
      "type": "function"
    },
    {
      "inputs": [
        {
          "internalType": "bytes32",
          "name": "_rewardTypeId",
          "type": "bytes32"
        },
        {
          "internalType": "uint256",
          "name": "_multiplier",
          "type": "uint256"
        }
      ],
      "name": "updateMultiplier",
      "outputs": [],
      "stateMutability": "nonpayable",
      "type": "function"
    },
    {
      "inputs": [
        {
          "internalType": "bytes32",
          "name": "_rewardTypeId",
          "type": "bytes32"
        },
        {
          "internalType": "uint256",
          "name": "_newBaseAmount",
          "type": "uint256"
        },
        {
          "internalType": "uint256",
          "name": "_newCooldownPeriod",
          "type": "uint256"
        }
      ],
      "name": "updateRewardType",
      "outputs": [],
      "stateMutability": "nonpayable",
      "type": "function"
    },
    {
      "inputs": [
        {
          "internalType": "address",
          "name": "",
          "type": "address"
        }
      ],
      "name": "userRewards",
      "outputs": [
        {
          "internalType": "uint256",
          "name": "totalEarned",
          "type": "uint256"
        },
        {
          "internalType": "uint256",
          "name": "lastRewardTime",
          "type": "uint256"
        }
      ],
      "stateMutability": "view",
      "type": "function"
    },
    {
      "inputs": [
        {
          "internalType": "address",
          "name": "_token",
          "type": "address"
        },
        {
          "internalType": "uint256",
          "name": "_amount",
          "type": "uint256"
        }
      ],
      "name": "withdrawTokens",
      "outputs": [],
      "stateMutability": "nonpayable",
      "type": "function"
    }
  ],
  "bytecode": "0x60806040523480156200001157600080fd5b5060405162001c1b38038062001c1b83398101604081905262000034916200019d565b600180546001600160a81b0319166101006001600160a01b038581169190910291909117909155600280546001600160a01b0319169183169190911790556200007f600033620000df565b620000ab7fa49807205ce4d355092ef5a8a18f56e8913cf4a201fbe287825b095693c2177533620000df565b620000d77f0f51adb3f49e4a9bbb17b3783f025995eaf8c24be2c8eefff214bdfda05ef94d33620000df565b5050620001d5565b6000828152602081815260408083206001600160a01b038516845290915290205460ff166200017c576000828152602081815260408083206001600160a01b03851684529091529020805460ff191660011790556200013b3390565b6001600160a01b0316816001600160a01b0316837f2f8788117e7eff1d82e926ec794901d17c78024a50270940304540a733656f0d60405160405180910390a45b5050565b80516001600160a01b03811681146200019857600080fd5b919050565b60008060408385031215620001b157600080fd5b620001bc8362000180565b9150620001cc6020840162000180565b90509250929050565b611a3680620001e56000396000f3fe608060405234801561001057600080fd5b50600436106101735760003560e01c806361a17197116100de57806391d1485411610097578063afa4e17011610071578063afa4e170146103c4578063bf223e81146103e7578063d547741f146103fa578063de2c88a31461040d57600080fd5b806391d14854146103895780639de20c041461039c578063a217fddf146103bc57600080fd5b806361a171971461031e57806367031bae14610331578063687e0465146103445780636d750d801461035757806375b238fc1461036c5780638456cb591461038157600080fd5b80632bbf245f116101305780632bbf245f146102655780632f2ff15d146102c557806336568abe146102d8578063392a3a8e146102eb5780633f4ba83a1461030b5780635c975abb1461031357600080fd5b806301ffc9a7146101785780630660f1e8146101a057806306b091f9146101dc57806319d415cd146101f1578063248a9ca314610221578063250cfd7114610252575b600080fd5b61018b61018636600461135d565b610420565b60405190151581526020015b60405180910390f35b6101c76101ae3660046113a3565b6004602052600090815260409020805460019091015482565b60408051928352602083019190915201610197565b6101ef6101ea3660046113be565b610457565b005b6001546102099061010090046001600160a01b031681565b6040516001600160a01b039091168152602001610197565b61024461022f3660046113e8565b60009081526020819052604090206001015490565b604051908152602001610197565b610244610260366004611401565b61052e565b6102aa6102733660046113be565b6001600160a01b03919091166000908152600460209081526040808320805460018201549585526002909101909252909120549092565b60408051938452602084019290925290820152606001610197565b6101ef6102d3366004611401565b6105ac565b6101ef6102e6366004611401565b6105d1565b6102fe6102f93660046113e8565b61064f565b604051610197919061147d565b6101ef610750565b60015460ff1661018b565b6101ef61032c3660046114c5565b610773565b600254610209906001600160a01b031681565b6101ef6103523660046114e7565b61085b565b6102446000805160206119c183398151915281565b6102446000805160206119e183398151915281565b6101ef610b8a565b61018b610397366004611401565b610baa565b6102446103aa3660046113e8565b60056020526000908152604090205481565b610244600081565b6103d76103d23660046113e8565b610bd3565b6040516101979493929190611563565b6101ef6103f5366004611592565b610c89565b6101ef610408366004611401565b610d37565b61024461041b3660046115d4565b610d5c565b60006001600160e01b03198216637965db0b60e01b148061045157506301ffc9a760e01b6001600160e01b03198316145b92915050565b6000805160206119e183398151915261046f81610ed1565b60405163a9059cbb60e01b8152336004820152602481018390526001600160a01b0384169063a9059cbb906044016020604051808303816000875af11580156104bc573d6000803e3d6000fd5b505050506040513d601f19601f820116820180604052508101906104e09190611698565b6105295760405162461bcd60e51b8152602060048201526015602482015274151bdad95b881d1c985b9cd9995c8819985a5b1959605a1b60448201526064015b60405180910390fd5b505050565b600082815260036020908152604080832060058352818420546001600160a01b0386168552600490935290832054909190606490156105755761057281600a610edb565b90505b6105a261271061059c83610596868860010154610eee90919063ffffffff16565b90610eee565b90610efa565b9695505050505050565b6000828152602081905260409020600101546105c781610ed1565b6105298383610f06565b6001600160a01b03811633146106415760405162461bcd60e51b815260206004820152602f60248201527f416363657373436f6e74726f6c3a2063616e206f6e6c792072656e6f756e636560448201526e103937b632b9903337b91039b2b63360891b6064820152608401610520565b61064b8282610f8a565b5050565b61067c60405180608001604052806060815260200160008152602001600015158152602001600081525090565b600082815260036020526040908190208151608081019092528054829082906106a4906116ba565b80601f01602080910402602001604051908101604052809291908181526020018280546106d0906116ba565b801561071d5780601f106106f25761010080835404028352916020019161071d565b820191906000526020600020905b81548152906001019060200180831161070057829003601f168201915b505050918352505060018201546020820152600282015460ff161515604082015260039091015460609091015292915050565b6000805160206119e183398151915261076881610ed1565b610770610fef565b50565b6000805160206119c183398151915261078b81610ed1565b610793611041565b60008381526003602052604090206002015460ff166107c45760405162461bcd60e51b8152600401610520906116f4565b600082116108095760405162461bcd60e51b815260206004820152601260248201527124b73b30b634b21036bab63a34b83634b2b960711b6044820152606401610520565b600083815260056020526040908190208390555183907fddc13c1eda50f2e13bdd253f4d38ff2a6d13b2cf499b366bbdd5be0d2139d7609061084e9085815260200190565b60405180910390a2505050565b610863611041565b60025460405163b9209e3360e01b81523360048201526001600160a01b039091169063b9209e3390602401602060405180830381865afa1580156108ab573d6000803e3d6000fd5b505050506040513d601f19601f820116820180604052508101906108cf9190611698565b61090f5760405162461bcd60e51b8152602060048201526011602482015270155cd95c881b9bdd081d995c9a599a5959607a1b6044820152606401610520565b60008381526003602052604090206002015460ff166109405760405162461bcd60e51b8152600401610520906116f4565b33600090815260046020908152604080832086845260038084528285209081015460028301909452919093205490916109799190610edb565b4210156109c85760405162461bcd60e51b815260206004820152601b60248201527f436f6f6c646f776e20706572696f64206e6f7420656c617073656400000000006044820152606401610520565b6109d485338686611089565b610a105760405162461bcd60e51b815260206004820152600d60248201526c24b73b30b634b210383937b7b360991b6044820152606401610520565b6000610a1c863361052e565b905060008111610a645760405162461bcd60e51b81526020600482015260136024820152724e6f2072657761726420617661696c61626c6560681b6044820152606401610520565b8254610a709082610edb565b83554260018085018290556000888152600286016020526040908190209290925554905163a9059cbb60e01b8152336004820152602481018390526101009091046001600160a01b03169063a9059cbb906044016020604051808303816000875af1158015610ae3573d6000803e3d6000fd5b505050506040513d601f19601f82011682018060405250810190610b079190611698565b610b4b5760405162461bcd60e51b8152602060048201526015602482015274151bdad95b881d1c985b9cd9995c8819985a5b1959605a1b6044820152606401610520565b604051818152869033907fdfe866d7c08bef238dd5e4f60399e266a24c579cb669f3a39d012c99778ab1b49060200160405180910390a3505050505050565b6000805160206119e1833981519152610ba281610ed1565b6107706110d2565b6000918252602082815260408084206001600160a01b0393909316845291905290205460ff1690565b600360205260009081526040902080548190610bee906116ba565b80601f0160208091040260200160405190810160405280929190818152602001828054610c1a906116ba565b8015610c675780601f10610c3c57610100808354040283529160200191610c67565b820191906000526020600020905b815481529060010190602001808311610c4a57829003601f168201915b50505050600183015460028401546003909401549293909260ff909116915084565b6000805160206119c1833981519152610ca181610ed1565b610ca9611041565b60008481526003602052604090206002015460ff16610cda5760405162461bcd60e51b8152600401610520906116f4565b60008481526003602081905260409182902060018101869055018390555184907fe63ea550714ee2284e8760274f44e989056974a12ba2d22ea1ac89b6ac63df2190610d299086815260200190565b60405180910390a250505050565b600082815260208190526040902060010154610d5281610ed1565b6105298383610f8a565b60006000805160206119c1833981519152610d7681610ed1565b610d7e611041565b60008542604051602001610d93929190611724565b60408051601f1981840301815291815281516020928301206000818152600390935291206001015490915015610e0b5760405162461bcd60e51b815260206004820152601a60248201527f526577617264207479706520616c7265616479206578697374730000000000006044820152606401610520565b60408051608081018252878152602080820188905260018284015260608201879052600084815260039091529190912081518190610e499082611794565b50602082810151600183015560408084015160028401805460ff191691151591909117905560609093015160039092019190915560008381526005909152819020606490555181907f9f1371454981142c24987e0a1e66a9599f870dcebb01fac144da92e71b9a77f090610ec09089908990611854565b60405180910390a295945050505050565b610770813361110d565b6000610ee7828461188c565b9392505050565b6000610ee7828461189f565b6000610ee782846118b6565b610f108282610baa565b61064b576000828152602081815260408083206001600160a01b03851684529091529020805460ff19166001179055610f463390565b6001600160a01b0316816001600160a01b0316837f2f8788117e7eff1d82e926ec794901d17c78024a50270940304540a733656f0d60405160405180910390a45050565b610f948282610baa565b1561064b576000828152602081815260408083206001600160a01b0385168085529252808320805460ff1916905551339285917ff6391f5c32d9c69d2a47ea670b442974b53935d1edc7fd64eb21e047a839171b9190a45050565b610ff7611166565b6001805460ff191690557f5db9ee0a495bf2e6ff9c91a7834c1ba4fdd244a5e8aa4e537bd38aeae4b073aa335b6040516001600160a01b03909116815260200160405180910390a1565b60015460ff16156110875760405162461bcd60e51b815260206004820152601060248201526f14185d5cd8589b194e881c185d5cd95960821b6044820152606401610520565b565b600080858585856040516020016110a394939291906118d8565b60408051601f198184030181529190528051602090910120905080158015906105a25750505015159392505050565b6110da611041565b6001805460ff1916811790557f62e78cea01bee320cd4e420270b5ea74000d11b0c9f74754ebdbfc544b05a25833611024565b6111178282610baa565b61064b57611124816111af565b61112f8360206111c1565b60405160200161114092919061190b565b60408051601f198184030181529082905262461bcd60e51b825261052091600401611980565b60015460ff166110875760405162461bcd60e51b815260206004820152601460248201527314185d5cd8589b194e881b9bdd081c185d5cd95960621b6044820152606401610520565b60606104516001600160a01b03831660145b606060006111d083600261189f565b6111db90600261188c565b67ffffffffffffffff8111156111f3576111f36115be565b6040519080825280601f01601f19166020018201604052801561121d576020820181803683370190505b509050600360fc1b8160008151811061123857611238611993565b60200101906001600160f81b031916908160001a905350600f60fb1b8160018151811061126757611267611993565b60200101906001600160f81b031916908160001a905350600061128b84600261189f565b61129690600161188c565b90505b600181111561130e576f181899199a1a9b1b9c1cb0b131b232b360811b85600f16601081106112ca576112ca611993565b1a60f81b8282815181106112e0576112e0611993565b60200101906001600160f81b031916908160001a90535060049490941c93611307816119a9565b9050611299565b508315610ee75760405162461bcd60e51b815260206004820181905260248201527f537472696e67733a20686578206c656e67746820696e73756666696369656e746044820152606401610520565b60006020828403121561136f57600080fd5b81356001600160e01b031981168114610ee757600080fd5b80356001600160a01b038116811461139e57600080fd5b919050565b6000602082840312156113b557600080fd5b610ee782611387565b600080604083850312156113d157600080fd5b6113da83611387565b946020939093013593505050565b6000602082840312156113fa57600080fd5b5035919050565b6000806040838503121561141457600080fd5b8235915061142460208401611387565b90509250929050565b60005b83811015611448578181015183820152602001611430565b50506000910152565b6000815180845261146981602086016020860161142d565b601f01601f19169290920160200192915050565b60208152600082516080602084015261149960a0840182611451565b905060208401516040840152604084015115156060840152606084015160808401528091505092915050565b600080604083850312156114d857600080fd5b50508035926020909101359150565b6000806000604084860312156114fc57600080fd5b83359250602084013567ffffffffffffffff8082111561151b57600080fd5b818601915086601f83011261152f57600080fd5b81358181111561153e57600080fd5b87602082850101111561155057600080fd5b6020830194508093505050509250925092565b6080815260006115766080830187611451565b6020830195909552509115156040830152606090910152919050565b6000806000606084860312156115a757600080fd5b505081359360208301359350604090920135919050565b634e487b7160e01b600052604160045260246000fd5b6000806000606084860312156115e957600080fd5b833567ffffffffffffffff8082111561160157600080fd5b818601915086601f83011261161557600080fd5b813581811115611627576116276115be565b604051601f8201601f19908116603f0116810190838211818310171561164f5761164f6115be565b8160405282815289602084870101111561166857600080fd5b82602086016020830137600060208483010152809750505050505060208401359150604084013590509250925092565b6000602082840312156116aa57600080fd5b81518015158114610ee757600080fd5b600181811c908216806116ce57607f821691505b6020821081036116ee57634e487b7160e01b600052602260045260246000fd5b50919050565b6020808252601690820152755265776172642074797065206e6f742061637469766560501b604082015260600190565b6000835161173681846020880161142d565b9190910191825250602001919050565b601f82111561052957600081815260208120601f850160051c8101602086101561176d5750805b601f850160051c820191505b8181101561178c57828155600101611779565b505050505050565b815167ffffffffffffffff8111156117ae576117ae6115be565b6117c2816117bc84546116ba565b84611746565b602080601f8311600181146117f757600084156117df5750858301515b600019600386901b1c1916600185901b17855561178c565b600085815260208120601f198616915b8281101561182657888601518255948401946001909101908401611807565b50858210156118445787850151600019600388901b60f8161c191681555b5050505050600190811b01905550565b6040815260006118676040830185611451565b90508260208301529392505050565b634e487b7160e01b600052601160045260246000fd5b8082018082111561045157610451611876565b808202811582820484141761045157610451611876565b6000826118d357634e487b7160e01b600052601260045260246000fd5b500490565b8481526bffffffffffffffffffffffff198460601b16602082015281836034830137600091016034019081529392505050565b7f416363657373436f6e74726f6c3a206163636f756e742000000000000000000081526000835161194381601785016020880161142d565b7001034b99036b4b9b9b4b733903937b6329607d1b601791840191820152835161197481602884016020880161142d565b01602801949350505050565b602081526000610ee76020830184611451565b634e487b7160e01b600052603260045260246000fd5b6000816119b8576119b8611876565b50600019019056fe0f51adb3f49e4a9bbb17b3783f025995eaf8c24be2c8eefff214bdfda05ef94da49807205ce4d355092ef5a8a18f56e8913cf4a201fbe287825b095693c21775a264697066735822122049da3b35c5d0d305064104342a63f7ae26253c6424dee125693cf172efc1398864736f6c63430008130033",
  "linkReferences": {},
  "deployedLinkReferences": {}
}