{
  "_format": "hh-sol-artifact-1",
  "contractName": "SelectiveDisclosure",
  "sourceName": "contracts/privacy/SelectiveDisclosure.sol",
  "abi": [
    {
      "inputs": [],
      "stateMutability": "nonpayable",
      "type": "constructor"
    },
    {
      "anonymous": false,
      "inputs": [
        {
          "indexed": true,
          "internalType": "bytes32",
          "name": "attributeId",
          "type": "bytes32"
        },
        {
          "indexed": true,
          "internalType": "address",
          "name": "owner",
          "type": "address"
        },
        {
          "indexed": false,
          "internalType": "bytes32",
          "name": "attributeHash",
          "type": "bytes32"
        }
      ],
      "name": "AttributeCreated",
      "type": "event"
    },
    {
      "anonymous": false,
      "inputs": [
        {
          "indexed": true,
          "internalType": "bytes32",
          "name": "attributeId",
          "type": "bytes32"
        },
        {
          "indexed": true,
          "internalType": "address",
          "name": "grantee",
          "type": "address"
        },
        {
          "indexed": false,
          "internalType": "uint256",
          "name": "expiryTime",
          "type": "uint256"
        }
      ],
      "name": "AttributeGranted",
      "type": "event"
    },
    {
      "anonymous": false,
      "inputs": [
        {
          "indexed": true,
          "internalType": "bytes32",
          "name": "attributeId",
          "type": "bytes32"
        },
        {
          "indexed": true,
          "internalType": "address",
          "name": "owner",
          "type": "address"
        }
      ],
      "name": "AttributeRevoked",
      "type": "event"
    },
    {
      "anonymous": false,
      "inputs": [
        {
          "indexed": false,
          "internalType": "address",
          "name": "account",
          "type": "address"
        }
      ],
      "name": "Paused",
      "type": "event"
    },
    {
      "anonymous": false,
      "inputs": [
        {
          "indexed": true,
          "internalType": "bytes32",
          "name": "policyId",
          "type": "bytes32"
        },
        {
          "indexed": true,
          "internalType": "address",
          "name": "creator",
          "type": "address"
        }
      ],
      "name": "PolicyCreated",
      "type": "event"
    },
    {
      "anonymous": false,
      "inputs": [
        {
          "indexed": true,
          "internalType": "bytes32",
          "name": "role",
          "type": "bytes32"
        },
        {
          "indexed": true,
          "internalType": "bytes32",
          "name": "previousAdminRole",
          "type": "bytes32"
        },
        {
          "indexed": true,
          "internalType": "bytes32",
          "name": "newAdminRole",
          "type": "bytes32"
        }
      ],
      "name": "RoleAdminChanged",
      "type": "event"
    },
    {
      "anonymous": false,
      "inputs": [
        {
          "indexed": true,
          "internalType": "bytes32",
          "name": "role",
          "type": "bytes32"
        },
        {
          "indexed": true,
          "internalType": "address",
          "name": "account",
          "type": "address"
        },
        {
          "indexed": true,
          "internalType": "address",
          "name": "sender",
          "type": "address"
        }
      ],
      "name": "RoleGranted",
      "type": "event"
    },
    {
      "anonymous": false,
      "inputs": [
        {
          "indexed": true,
          "internalType": "bytes32",
          "name": "role",
          "type": "bytes32"
        },
        {
          "indexed": true,
          "internalType": "address",
          "name": "account",
          "type": "address"
        },
        {
          "indexed": true,
          "internalType": "address",
          "name": "sender",
          "type": "address"
        }
      ],
      "name": "RoleRevoked",
      "type": "event"
    },
    {
      "anonymous": false,
      "inputs": [
        {
          "indexed": false,
          "internalType": "address",
          "name": "account",
          "type": "address"
        }
      ],
      "name": "Unpaused",
      "type": "event"
    },
    {
      "inputs": [],
      "name": "ADMIN_ROLE",
      "outputs": [
        {
          "internalType": "bytes32",
          "name": "",
          "type": "bytes32"
        }
      ],
      "stateMutability": "view",
      "type": "function"
    },
    {
      "inputs": [],
      "name": "ATTRIBUTE_AUTHORITY_ROLE",
      "outputs": [
        {
          "internalType": "bytes32",
          "name": "",
          "type": "bytes32"
        }
      ],
      "stateMutability": "view",
      "type": "function"
    },
    {
      "inputs": [],
      "name": "DEFAULT_ADMIN_ROLE",
      "outputs": [
        {
          "internalType": "bytes32",
          "name": "",
          "type": "bytes32"
        }
      ],
      "stateMutability": "view",
      "type": "function"
    },
    {
      "inputs": [
        {
          "internalType": "bytes32",
          "name": "",
          "type": "bytes32"
        },
        {
          "internalType": "address",
          "name": "",
          "type": "address"
        }
      ],
      "name": "attributeGrants",
      "outputs": [
        {
          "internalType": "bytes32",
          "name": "attributeId",
          "type": "bytes32"
        },
        {
          "internalType": "address",
          "name": "grantee",
          "type": "address"
        },
        {
          "internalType": "uint256",
          "name": "expiryTime",
          "type": "uint256"
        },
        {
          "internalType": "bytes32",
          "name": "encryptedKey",
          "type": "bytes32"
        }
      ],
      "stateMutability": "view",
      "type": "function"
    },
    {
      "inputs": [
        {
          "internalType": "bytes32",
          "name": "",
          "type": "bytes32"
        }
      ],
      "name": "attributes",
      "outputs": [
        {
          "internalType": "bytes32",
          "name": "attributeHash",
          "type": "bytes32"
        },
        {
          "internalType": "bytes32",
          "name": "encryptedValue",
          "type": "bytes32"
        },
        {
          "internalType": "address",
          "name": "owner",
          "type": "address"
        },
        {
          "internalType": "uint256",
          "name": "timestamp",
          "type": "uint256"
        },
        {
          "internalType": "bool",
          "name": "revoked",
          "type": "bool"
        }
      ],
      "stateMutability": "view",
      "type": "function"
    },
    {
      "inputs": [
        {
          "internalType": "bytes32",
          "name": "_attributeHash",
          "type": "bytes32"
        },
        {
          "internalType": "bytes32",
          "name": "_encryptedValue",
          "type": "bytes32"
        },
        {
          "internalType": "bytes",
          "name": "_signature",
          "type": "bytes"
        }
      ],
      "name": "createAttribute",
      "outputs": [
        {
          "internalType": "bytes32",
          "name": "",
          "type": "bytes32"
        }
      ],
      "stateMutability": "nonpayable",
      "type": "function"
    },
    {
      "inputs": [
        {
          "internalType": "bytes32",
          "name": "_policyHash",
          "type": "bytes32"
        },
        {
          "internalType": "bytes32[]",
          "name": "",
          "type": "bytes32[]"
        }
      ],
      "name": "createDisclosurePolicy",
      "outputs": [
        {
          "internalType": "bytes32",
          "name": "",
          "type": "bytes32"
        }
      ],
      "stateMutability": "nonpayable",
      "type": "function"
    },
    {
      "inputs": [
        {
          "internalType": "bytes32",
          "name": "_attributeId",
          "type": "bytes32"
        }
      ],
      "name": "getAttribute",
      "outputs": [
        {
          "components": [
            {
              "internalType": "bytes32",
              "name": "attributeHash",
              "type": "bytes32"
            },
            {
              "internalType": "bytes32",
              "name": "encryptedValue",
              "type": "bytes32"
            },
            {
              "internalType": "address",
              "name": "owner",
              "type": "address"
            },
            {
              "internalType": "uint256",
              "name": "timestamp",
              "type": "uint256"
            },
            {
              "internalType": "bool",
              "name": "revoked",
              "type": "bool"
            }
          ],
          "internalType": "struct SelectiveDisclosure.Attribute",
          "name": "",
          "type": "tuple"
        }
      ],
      "stateMutability": "view",
      "type": "function"
    },
    {
      "inputs": [
        {
          "internalType": "bytes32",
          "name": "_attributeId",
          "type": "bytes32"
        },
        {
          "internalType": "address",
          "name": "_grantee",
          "type": "address"
        }
      ],
      "name": "getAttributeGrant",
      "outputs": [
        {
          "components": [
            {
              "internalType": "bytes32",
              "name": "attributeId",
              "type": "bytes32"
            },
            {
              "internalType": "address",
              "name": "grantee",
              "type": "address"
            },
            {
              "internalType": "uint256",
              "name": "expiryTime",
              "type": "uint256"
            },
            {
              "internalType": "bytes32",
              "name": "encryptedKey",
              "type": "bytes32"
            }
          ],
          "internalType": "struct SelectiveDisclosure.AttributeGrant",
          "name": "",
          "type": "tuple"
        }
      ],
      "stateMutability": "view",
      "type": "function"
    },
    {
      "inputs": [
        {
          "internalType": "bytes32",
          "name": "_policyId",
          "type": "bytes32"
        }
      ],
      "name": "getPolicy",
      "outputs": [
        {
          "components": [
            {
              "internalType": "bytes32",
              "name": "policyHash",
              "type": "bytes32"
            },
            {
              "internalType": "address",
              "name": "creator",
              "type": "address"
            },
            {
              "internalType": "uint256",
              "name": "timestamp",
              "type": "uint256"
            },
            {
              "internalType": "bool",
              "name": "active",
              "type": "bool"
            }
          ],
          "internalType": "struct SelectiveDisclosure.DisclosurePolicy",
          "name": "",
          "type": "tuple"
        }
      ],
      "stateMutability": "view",
      "type": "function"
    },
    {
      "inputs": [
        {
          "internalType": "bytes32",
          "name": "role",
          "type": "bytes32"
        }
      ],
      "name": "getRoleAdmin",
      "outputs": [
        {
          "internalType": "bytes32",
          "name": "",
          "type": "bytes32"
        }
      ],
      "stateMutability": "view",
      "type": "function"
    },
    {
      "inputs": [
        {
          "internalType": "bytes32",
          "name": "_attributeId",
          "type": "bytes32"
        },
        {
          "internalType": "address",
          "name": "_grantee",
          "type": "address"
        },
        {
          "internalType": "uint256",
          "name": "_expiryTime",
          "type": "uint256"
        },
        {
          "internalType": "bytes32",
          "name": "_encryptedKey",
          "type": "bytes32"
        }
      ],
      "name": "grantAttributeAccess",
      "outputs": [],
      "stateMutability": "nonpayable",
      "type": "function"
    },
    {
      "inputs": [
        {
          "internalType": "bytes32",
          "name": "role",
          "type": "bytes32"
        },
        {
          "internalType": "address",
          "name": "account",
          "type": "address"
        }
      ],
      "name": "grantRole",
      "outputs": [],
      "stateMutability": "nonpayable",
      "type": "function"
    },
    {
      "inputs": [
        {
          "internalType": "bytes32",
          "name": "role",
          "type": "bytes32"
        },
        {
          "internalType": "address",
          "name": "account",
          "type": "address"
        }
      ],
      "name": "hasRole",
      "outputs": [
        {
          "internalType": "bool",
          "name": "",
          "type": "bool"
        }
      ],
      "stateMutability": "view",
      "type": "function"
    },
    {
      "inputs": [],
      "name": "pause",
      "outputs": [],
      "stateMutability": "nonpayable",
      "type": "function"
    },
    {
      "inputs": [],
      "name": "paused",
      "outputs": [
        {
          "internalType": "bool",
          "name": "",
          "type": "bool"
        }
      ],
      "stateMutability": "view",
      "type": "function"
    },
    {
      "inputs": [
        {
          "internalType": "bytes32",
          "name": "",
          "type": "bytes32"
        }
      ],
      "name": "policies",
      "outputs": [
        {
          "internalType": "bytes32",
          "name": "policyHash",
          "type": "bytes32"
        },
        {
          "internalType": "address",
          "name": "creator",
          "type": "address"
        },
        {
          "internalType": "uint256",
          "name": "timestamp",
          "type": "uint256"
        },
        {
          "internalType": "bool",
          "name": "active",
          "type": "bool"
        }
      ],
      "stateMutability": "view",
      "type": "function"
    },
    {
      "inputs": [
        {
          "internalType": "bytes32",
          "name": "role",
          "type": "bytes32"
        },
        {
          "internalType": "address",
          "name": "account",
          "type": "address"
        }
      ],
      "name": "renounceRole",
      "outputs": [],
      "stateMutability": "nonpayable",
      "type": "function"
    },
    {
      "inputs": [
        {
          "internalType": "bytes32",
          "name": "_attributeId",
          "type": "bytes32"
        }
      ],
      "name": "revokeAttribute",
      "outputs": [],
      "stateMutability": "nonpayable",
      "type": "function"
    },
    {
      "inputs": [
        {
          "internalType": "bytes32",
          "name": "role",
          "type": "bytes32"
        },
        {
          "internalType": "address",
          "name": "account",
          "type": "address"
        }
      ],
      "name": "revokeRole",
      "outputs": [],
      "stateMutability": "nonpayable",
      "type": "function"
    },
    {
      "inputs": [
        {
          "internalType": "bytes4",
          "name": "interfaceId",
          "type": "bytes4"
        }
      ],
      "name": "supportsInterface",
      "outputs": [
        {
          "internalType": "bool",
          "name": "",
          "type": "bool"
        }
      ],
      "stateMutability": "view",
      "type": "function"
    },
    {
      "inputs": [],
      "name": "unpause",
      "outputs": [],
      "stateMutability": "nonpayable",
      "type": "function"
    },
    {
      "inputs": [
        {
          "internalType": "address",
          "name": "",
          "type": "address"
        },
        {
          "internalType": "bytes32",
          "name": "",
          "type": "bytes32"
        }
      ],
      "name": "userAttributes",
      "outputs": [
        {
          "internalType": "bool",
          "name": "",
          "type": "bool"
        }
      ],
      "stateMutability": "view",
      "type": "function"
    },
    {
      "inputs": [
        {
          "internalType": "bytes32",
          "name": "_attributeId",
          "type": "bytes32"
        },
        {
          "internalType": "address",
          "name": "_discloser",
          "type": "address"
        },
        {
          "internalType": "bytes32",
          "name": "_policyId",
          "type": "bytes32"
        },
        {
          "internalType": "bytes",
          "name": "_proof",
          "type": "bytes"
        }
      ],
      "name": "verifyAttributeDisclosure",
      "outputs": [
        {
          "internalType": "bool",
          "name": "",
          "type": "bool"
        }
      ],
      "stateMutability": "view",
      "type": "function"
    }
  ],
  "bytecode": "0x60806040523480156200001157600080fd5b506001805460ff191690556200002960003362000087565b620000557fa49807205ce4d355092ef5a8a18f56e8913cf4a201fbe287825b095693c217753362000087565b620000817f9123e2abebfa47946eceb7d9f1266689c1eca191305ee87d963d3cd4ebb4b5023362000087565b62000128565b6000828152602081815260408083206001600160a01b038516845290915290205460ff1662000124576000828152602081815260408083206001600160a01b03851684529091529020805460ff19166001179055620000e33390565b6001600160a01b0316816001600160a01b0316837f2f8788117e7eff1d82e926ec794901d17c78024a50270940304540a733656f0d60405160405180910390a45b5050565b611c2780620001386000396000f3fe608060405234801561001057600080fd5b50600436106101585760003560e01c806375b238fc116100c3578063b115ce0d1161007c578063b115ce0d146103d9578063b6f74ca61461045b578063d547741f146104cd578063ddbfd8ef146104e0578063e19e3f2e1461054d578063eb43e0331461056057600080fd5b806375b238fc146102ce5780638456cb59146102e357806391d14854146102eb578063a217fddf146102fe578063a3f685f914610306578063b0f5e631146103c657600080fd5b8063354210b111610115578063354210b11461021857806336568abe146102465780633f4ba83a146102595780635c975abb146102615780635d58ca2b1461026c5780636ce248d5146102bb57600080fd5b806301ffc9a71461015d578063044cc1d6146101855780630be1fcdf146101a65780630ceb23c9146101bb578063248a9ca3146101e25780632f2ff15d14610205575b600080fd5b61017061016b36600461179e565b6105bb565b60405190151581526020015b60405180910390f35b6101986101933660046117c8565b6105f2565b60405190815260200161017c565b6101b96101b4366004611847565b610711565b005b6101987f9123e2abebfa47946eceb7d9f1266689c1eca191305ee87d963d3cd4ebb4b50281565b6101986101f0366004611847565b60009081526020819052604090206001015490565b6101b961021336600461187c565b610829565b6101706102263660046118a8565b600560209081526000928352604080842090915290825290205460ff1681565b6101b961025436600461187c565b610853565b6101b96108d1565b60015460ff16610170565b61027f61027a36600461187c565b6108f4565b60405161017c9190815181526020808301516001600160a01b031690820152604080830151908201526060918201519181019190915260800190565b6101706102c9366004611914565b6109be565b610198600080516020611bd283398151915281565b6101b9610bd4565b6101706102f936600461187c565b610bf4565b610198600081565b610388610314366004611847565b6040805160808101825260008082526020820181905291810182905260608101919091525060009081526003602081815260409283902083516080810185528154815260018201546001600160a01b03169281019290925260028101549382019390935291015460ff161515606082015290565b60405161017c9190815181526020808301516001600160a01b0316908201526040808301519082015260609182015115159181019190915260800190565b6101b96103d436600461197c565b610c1d565b6104236103e7366004611847565b6002602081905260009182526040909120805460018201549282015460038301546004909301549193926001600160a01b039091169160ff1685565b6040805195865260208601949094526001600160a01b039092169284019290925260608301919091521515608082015260a00161017c565b6104a561046936600461187c565b6004602090815260009283526040808420909152908252902080546001820154600283015460039093015491926001600160a01b039091169184565b604080519485526001600160a01b03909316602085015291830152606082015260800161017c565b6101b96104db36600461187c565b610dcb565b6105236104ee366004611847565b6003602081905260009182526040909120805460018201546002830154929093015490926001600160a01b0316919060ff1684565b604080519485526001600160a01b039093166020850152918301521515606082015260800161017c565b61019861055b3660046119b7565b610df0565b61057361056e366004611847565b610ff0565b60405161017c919081518152602080830151908201526040808301516001600160a01b0316908201526060808301519082015260809182015115159181019190915260a00190565b60006001600160e01b03198216637965db0b60e01b14806105ec57506301ffc9a760e01b6001600160e01b03198316145b92915050565b60007f9123e2abebfa47946eceb7d9f1266689c1eca191305ee87d963d3cd4ebb4b50261061e816110d5565b6106266110df565b6040516bffffffffffffffffffffffff193360601b1660208201526034810186905242605482015260009060740160408051808303601f1901815282825280516020918201206080840183528984523382850181815242868601908152600160608801818152600086815260039788905288812099518a55935191890180546001600160a01b0319166001600160a01b0390931692909217909155905160028801555195909301805460ff191695151595909517909455915191935083917fe2914980516df94c6fce399d4a7570a14c9d6b2560a5c29343fd06aba98ed80c9190a395945050505050565b6107196110df565b600081815260026020819052604090912001546001600160a01b03163314806107555750610755600080516020611bd283398151915233610bf4565b61077a5760405162461bcd60e51b815260040161077190611a0a565b60405180910390fd5b60008181526002602052604090206004015460ff16156107ce5760405162461bcd60e51b815260206004820152600f60248201526e105b1c9958591e481c995d9bdad959608a1b6044820152606401610771565b600081815260026020819052604080832060048101805460ff191660011790559091015490516001600160a01b039091169183917fea89d6e94c7ebea4be045cef36677807c34d9c5e4d9c9880561177d80d0cca6d9190a350565b600082815260208190526040902060010154610844816110d5565b61084e8383611127565b505050565b6001600160a01b03811633146108c35760405162461bcd60e51b815260206004820152602f60248201527f416363657373436f6e74726f6c3a2063616e206f6e6c792072656e6f756e636560448201526e103937b632b9903337b91039b2b63360891b6064820152608401610771565b6108cd82826111ab565b5050565b600080516020611bd28339815191526108e9816110d5565b6108f1611210565b50565b604080516080810182526000808252602082018190529181018290526060810191909152600083815260026020819052604090912001546001600160a01b031633148061094957506001600160a01b03821633145b6109655760405162461bcd60e51b815260040161077190611a0a565b5060008281526004602090815260408083206001600160a01b0380861685529083529281902081516080810183528154815260018201549094169284019290925260028201549083015260030154606082015292915050565b60008381526003602081905260408220015460ff16610a135760405162461bcd60e51b8152602060048201526011602482015270506f6c696379206e6f742061637469766560781b6044820152606401610771565b600086815260026020818152604092839020835160a08101855281548152600182015492810192909252918201546001600160a01b031692810192909252600381015460608301526004015460ff161580156080830152610aaa5760405162461bcd60e51b8152602060048201526011602482015270105d1d1c9a589d5d19481c995d9bdad959607a1b6044820152606401610771565b856001600160a01b031681604001516001600160a01b031614610b035760405162461bcd60e51b815260206004820152601160248201527024b73b30b634b2103234b9b1b637b9b2b960791b6044820152606401610771565b600087815260046020908152604080832033845282529182902082516080810184528154815260018201546001600160a01b0316928101929092526002810154928201839052600301546060820152904210610b925760405162461bcd60e51b815260206004820152600e60248201526d1058d8d95cdcc8195e1c1a5c995960921b6044820152606401610771565b60008888888888604051602001610bad959493929190611a32565b60408051808303601f19018152919052805160209091012015159998505050505050505050565b600080516020611bd2833981519152610bec816110d5565b6108f1611262565b6000918252602082815260408084206001600160a01b0393909316845291905290205460ff1690565b610c256110df565b600084815260026020819052604090912001546001600160a01b03163314610c855760405162461bcd60e51b81526020600482015260136024820152722737ba1030ba3a3934b13aba329037bbb732b960691b6044820152606401610771565b60008481526002602052604090206004015460ff1615610cdb5760405162461bcd60e51b8152602060048201526011602482015270105d1d1c9a589d5d19481c995d9bdad959607a1b6044820152606401610771565b428211610d205760405162461bcd60e51b8152602060048201526013602482015272496e76616c6964206578706972792074696d6560681b6044820152606401610771565b604080516080810182528581526001600160a01b0385811660208084018281528486018881526060860188815260008c81526004855288812086825285528890209651875591516001870180546001600160a01b03191691909616179094559251600285015591516003909301929092559151848152909186917fc20a57d88327b822b7d66b2d15f3d2eba29cfbf1b9c6d0b3abb283e059c3e5ae910160405180910390a350505050565b600082815260208190526040902060010154610de6816110d5565b61084e83836111ab565b6000610dfa6110df565b60408051602081018790529081018590524260608201526000906080016040516020818303038152906040528051906020012090506000610e7c85858080601f016020809104026020016040519081016040528093929190818152602001838380828437600092019190915250610e76925086915061129d9050565b906112d0565b90506001600160a01b0381163314610eca5760405162461bcd60e51b8152602060048201526011602482015270496e76616c6964207369676e617475726560781b6044820152606401610771565b6040516bffffffffffffffffffffffff193360601b1660208201526034810188905242605482015260009060740160408051601f19818403018152828252805160209182012060a0840183528b84528184018b815233858501818152426060880190815260006080890181815286825260028089528983209a518b5595516001808c01919091559351958a0180546001600160a01b039097166001600160a01b0319909716969096179095559051600389015592516004909701805497151560ff1998891617905581835260058552858320848452855291859020805490961690911790945591518b815291935083917f88036add56e7b05b1dfc924e3542c44ab4a85e880adccd243d2a990e57dd8513910160405180910390a3979650505050505050565b6040805160a081018252600080825260208201819052918101829052606081018290526080810191909152600082815260026020819052604090912001546001600160a01b031633148061105f5750600082815260046020908152604080832033845290915290206002015442105b61107b5760405162461bcd60e51b815260040161077190611a0a565b50600090815260026020818152604092839020835160a08101855281548152600182015492810192909252918201546001600160a01b031692810192909252600381015460608301526004015460ff161515608082015290565b6108f181336112f4565b60015460ff16156111255760405162461bcd60e51b815260206004820152601060248201526f14185d5cd8589b194e881c185d5cd95960821b6044820152606401610771565b565b6111318282610bf4565b6108cd576000828152602081815260408083206001600160a01b03851684529091529020805460ff191660011790556111673390565b6001600160a01b0316816001600160a01b0316837f2f8788117e7eff1d82e926ec794901d17c78024a50270940304540a733656f0d60405160405180910390a45050565b6111b58282610bf4565b156108cd576000828152602081815260408083206001600160a01b0385168085529252808320805460ff1916905551339285917ff6391f5c32d9c69d2a47ea670b442974b53935d1edc7fd64eb21e047a839171b9190a45050565b61121861134d565b6001805460ff191690557f5db9ee0a495bf2e6ff9c91a7834c1ba4fdd244a5e8aa4e537bd38aeae4b073aa335b6040516001600160a01b03909116815260200160405180910390a1565b61126a6110df565b6001805460ff1916811790557f62e78cea01bee320cd4e420270b5ea74000d11b0c9f74754ebdbfc544b05a25833611245565b7f19457468657265756d205369676e6564204d6573736167653a0a3332000000006000908152601c91909152603c902090565b60008060006112df8585611396565b915091506112ec816113db565b509392505050565b6112fe8282610bf4565b6108cd5761130b81611525565b611316836020611537565b604051602001611327929190611a90565b60408051601f198184030181529082905262461bcd60e51b825261077191600401611b05565b60015460ff166111255760405162461bcd60e51b815260206004820152601460248201527314185d5cd8589b194e881b9bdd081c185d5cd95960621b6044820152606401610771565b60008082516041036113cc5760208301516040840151606085015160001a6113c0878285856116da565b945094505050506113d4565b506000905060025b9250929050565b60008160048111156113ef576113ef611b38565b036113f75750565b600181600481111561140b5761140b611b38565b036114585760405162461bcd60e51b815260206004820152601860248201527f45434453413a20696e76616c6964207369676e617475726500000000000000006044820152606401610771565b600281600481111561146c5761146c611b38565b036114b95760405162461bcd60e51b815260206004820152601f60248201527f45434453413a20696e76616c6964207369676e6174757265206c656e677468006044820152606401610771565b60038160048111156114cd576114cd611b38565b036108f15760405162461bcd60e51b815260206004820152602260248201527f45434453413a20696e76616c6964207369676e6174757265202773272076616c604482015261756560f01b6064820152608401610771565b60606105ec6001600160a01b03831660145b60606000611546836002611b64565b611551906002611b7b565b67ffffffffffffffff81111561156957611569611b8e565b6040519080825280601f01601f191660200182016040528015611593576020820181803683370190505b509050600360fc1b816000815181106115ae576115ae611ba4565b60200101906001600160f81b031916908160001a905350600f60fb1b816001815181106115dd576115dd611ba4565b60200101906001600160f81b031916908160001a9053506000611601846002611b64565b61160c906001611b7b565b90505b6001811115611684576f181899199a1a9b1b9c1cb0b131b232b360811b85600f166010811061164057611640611ba4565b1a60f81b82828151811061165657611656611ba4565b60200101906001600160f81b031916908160001a90535060049490941c9361167d81611bba565b905061160f565b5083156116d35760405162461bcd60e51b815260206004820181905260248201527f537472696e67733a20686578206c656e67746820696e73756666696369656e746044820152606401610771565b9392505050565b6000807f7fffffffffffffffffffffffffffffff5d576e7357a4501ddfe92f46681b20a08311156117115750600090506003611795565b6040805160008082526020820180845289905260ff881692820192909252606081018690526080810185905260019060a0016020604051602081039080840390855afa158015611765573d6000803e3d6000fd5b5050604051601f1901519150506001600160a01b03811661178e57600060019250925050611795565b9150600090505b94509492505050565b6000602082840312156117b057600080fd5b81356001600160e01b0319811681146116d357600080fd5b6000806000604084860312156117dd57600080fd5b83359250602084013567ffffffffffffffff808211156117fc57600080fd5b818601915086601f83011261181057600080fd5b81358181111561181f57600080fd5b8760208260051b850101111561183457600080fd5b6020830194508093505050509250925092565b60006020828403121561185957600080fd5b5035919050565b80356001600160a01b038116811461187757600080fd5b919050565b6000806040838503121561188f57600080fd5b8235915061189f60208401611860565b90509250929050565b600080604083850312156118bb57600080fd5b6118c483611860565b946020939093013593505050565b60008083601f8401126118e457600080fd5b50813567ffffffffffffffff8111156118fc57600080fd5b6020830191508360208285010111156113d457600080fd5b60008060008060006080868803121561192c57600080fd5b8535945061193c60208701611860565b935060408601359250606086013567ffffffffffffffff81111561195f57600080fd5b61196b888289016118d2565b969995985093965092949392505050565b6000806000806080858703121561199257600080fd5b843593506119a260208601611860565b93969395505050506040820135916060013590565b600080600080606085870312156119cd57600080fd5b8435935060208501359250604085013567ffffffffffffffff8111156119f257600080fd5b6119fe878288016118d2565b95989497509550505050565b6020808252600e908201526d139bdd08185d5d1a1bdc9a5e995960921b604082015260600190565b8581526bffffffffffffffffffffffff198560601b1660208201528360348201528183605483013760009101605401908152949350505050565b60005b83811015611a87578181015183820152602001611a6f565b50506000910152565b7f416363657373436f6e74726f6c3a206163636f756e7420000000000000000000815260008351611ac8816017850160208801611a6c565b7001034b99036b4b9b9b4b733903937b6329607d1b6017918401918201528351611af9816028840160208801611a6c565b01602801949350505050565b6020815260008251806020840152611b24816040850160208701611a6c565b601f01601f19169190910160400192915050565b634e487b7160e01b600052602160045260246000fd5b634e487b7160e01b600052601160045260246000fd5b80820281158282048414176105ec576105ec611b4e565b808201808211156105ec576105ec611b4e565b634e487b7160e01b600052604160045260246000fd5b634e487b7160e01b600052603260045260246000fd5b600081611bc957611bc9611b4e565b50600019019056fea49807205ce4d355092ef5a8a18f56e8913cf4a201fbe287825b095693c21775a264697066735822122035f91dc465cc291a10409f0d614adfb4f154a376deeb0ad0c6f2ece06de3a6f864736f6c63430008130033",
  "linkReferences": {},
  "deployedLinkReferences": {}
}