{
  "_format": "hh-sol-artifact-1",
  "contractName": "UHCAccessControl",
  "sourceName": "contracts/core/UHCAccessControl.sol",
  "abi": [
    {
      "inputs": [
        {
          "internalType": "address",
          "name": "_identityContract",
          "type": "address"
        }
      ],
      "stateMutability": "nonpayable",
      "type": "constructor"
    },
    {
      "anonymous": false,
      "inputs": [
        {
          "indexed": true,
          "internalType": "address",
          "name": "resource",
          "type": "address"
        },
        {
          "indexed": true,
          "internalType": "address",
          "name": "grantee",
          "type": "address"
        },
        {
          "indexed": false,
          "internalType": "enum IUHCAccessControl.AccessLevel",
          "name": "level",
          "type": "uint8"
        },
        {
          "indexed": false,
          "internalType": "uint256",
          "name": "expiryTime",
          "type": "uint256"
        }
      ],
      "name": "AccessGranted",
      "type": "event"
    },
    {
      "anonymous": false,
      "inputs": [
        {
          "indexed": true,
          "internalType": "address",
          "name": "resource",
          "type": "address"
        },
        {
          "indexed": true,
          "internalType": "address",
          "name": "grantee",
          "type": "address"
        }
      ],
      "name": "AccessRevoked",
      "type": "event"
    },
    {
      "anonymous": false,
      "inputs": [
        {
          "indexed": true,
          "internalType": "address",
          "name": "resource",
          "type": "address"
        },
        {
          "indexed": true,
          "internalType": "address",
          "name": "grantee",
          "type": "address"
        },
        {
          "indexed": false,
          "internalType": "uint256",
          "name": "duration",
          "type": "uint256"
        }
      ],
      "name": "EmergencyAccessGranted",
      "type": "event"
    },
    {
      "anonymous": false,
      "inputs": [
        {
          "indexed": true,
          "internalType": "address",
          "name": "resource",
          "type": "address"
        },
        {
          "indexed": true,
          "internalType": "address",
          "name": "requester",
          "type": "address"
        },
        {
          "indexed": false,
          "internalType": "string",
          "name": "reason",
          "type": "string"
        }
      ],
      "name": "EmergencyAccessRequested",
      "type": "event"
    },
    {
      "anonymous": false,
      "inputs": [
        {
          "indexed": true,
          "internalType": "address",
          "name": "resource",
          "type": "address"
        },
        {
          "indexed": true,
          "internalType": "address",
          "name": "grantee",
          "type": "address"
        }
      ],
      "name": "EmergencyAccessRevoked",
      "type": "event"
    },
    {
      "anonymous": false,
      "inputs": [
        {
          "indexed": false,
          "internalType": "address",
          "name": "account",
          "type": "address"
        }
      ],
      "name": "Paused",
      "type": "event"
    },
    {
      "anonymous": false,
      "inputs": [
        {
          "indexed": true,
          "internalType": "bytes32",
          "name": "role",
          "type": "bytes32"
        },
        {
          "indexed": true,
          "internalType": "bytes32",
          "name": "previousAdminRole",
          "type": "bytes32"
        },
        {
          "indexed": true,
          "internalType": "bytes32",
          "name": "newAdminRole",
          "type": "bytes32"
        }
      ],
      "name": "RoleAdminChanged",
      "type": "event"
    },
    {
      "anonymous": false,
      "inputs": [
        {
          "indexed": true,
          "internalType": "bytes32",
          "name": "role",
          "type": "bytes32"
        },
        {
          "indexed": true,
          "internalType": "address",
          "name": "account",
          "type": "address"
        },
        {
          "indexed": true,
          "internalType": "address",
          "name": "sender",
          "type": "address"
        }
      ],
      "name": "RoleGranted",
      "type": "event"
    },
    {
      "anonymous": false,
      "inputs": [
        {
          "indexed": true,
          "internalType": "bytes32",
          "name": "role",
          "type": "bytes32"
        },
        {
          "indexed": true,
          "internalType": "address",
          "name": "account",
          "type": "address"
        },
        {
          "indexed": true,
          "internalType": "address",
          "name": "sender",
          "type": "address"
        }
      ],
      "name": "RoleRevoked",
      "type": "event"
    },
    {
      "anonymous": false,
      "inputs": [
        {
          "indexed": false,
          "internalType": "address",
          "name": "account",
          "type": "address"
        }
      ],
      "name": "Unpaused",
      "type": "event"
    },
    {
      "inputs": [],
      "name": "ADMIN_ROLE",
      "outputs": [
        {
          "internalType": "bytes32",
          "name": "",
          "type": "bytes32"
        }
      ],
      "stateMutability": "view",
      "type": "function"
    },
    {
      "inputs": [],
      "name": "DEFAULT_ADMIN_ROLE",
      "outputs": [
        {
          "internalType": "bytes32",
          "name": "",
          "type": "bytes32"
        }
      ],
      "stateMutability": "view",
      "type": "function"
    },
    {
      "inputs": [],
      "name": "EMERGENCY_ROLE",
      "outputs": [
        {
          "internalType": "bytes32",
          "name": "",
          "type": "bytes32"
        }
      ],
      "stateMutability": "view",
      "type": "function"
    },
    {
      "inputs": [
        {
          "internalType": "address",
          "name": "_resource",
          "type": "address"
        },
        {
          "internalType": "address",
          "name": "_grantee",
          "type": "address"
        }
      ],
      "name": "getPermission",
      "outputs": [
        {
          "components": [
            {
              "internalType": "address",
              "name": "grantee",
              "type": "address"
            },
            {
              "internalType": "enum IUHCAccessControl.AccessLevel",
              "name": "level",
              "type": "uint8"
            },
            {
              "internalType": "uint256",
              "name": "expiryTime",
              "type": "uint256"
            },
            {
              "internalType": "bool",
              "name": "emergencyAccess",
              "type": "bool"
            }
          ],
          "internalType": "struct IUHCAccessControl.Permission",
          "name": "",
          "type": "tuple"
        }
      ],
      "stateMutability": "view",
      "type": "function"
    },
    {
      "inputs": [
        {
          "internalType": "bytes32",
          "name": "role",
          "type": "bytes32"
        }
      ],
      "name": "getRoleAdmin",
      "outputs": [
        {
          "internalType": "bytes32",
          "name": "",
          "type": "bytes32"
        }
      ],
      "stateMutability": "view",
      "type": "function"
    },
    {
      "inputs": [
        {
          "internalType": "address",
          "name": "_resource",
          "type": "address"
        },
        {
          "internalType": "address",
          "name": "_grantee",
          "type": "address"
        },
        {
          "internalType": "enum IUHCAccessControl.AccessLevel",
          "name": "_level",
          "type": "uint8"
        },
        {
          "internalType": "uint256",
          "name": "_expiryTime",
          "type": "uint256"
        }
      ],
      "name": "grantAccess",
      "outputs": [],
      "stateMutability": "nonpayable",
      "type": "function"
    },
    {
      "inputs": [
        {
          "internalType": "address",
          "name": "_resource",
          "type": "address"
        },
        {
          "internalType": "address",
          "name": "_grantee",
          "type": "address"
        },
        {
          "internalType": "uint256",
          "name": "_duration",
          "type": "uint256"
        }
      ],
      "name": "grantEmergencyAccess",
      "outputs": [],
      "stateMutability": "nonpayable",
      "type": "function"
    },
    {
      "inputs": [
        {
          "internalType": "bytes32",
          "name": "role",
          "type": "bytes32"
        },
        {
          "internalType": "address",
          "name": "account",
          "type": "address"
        }
      ],
      "name": "grantRole",
      "outputs": [],
      "stateMutability": "nonpayable",
      "type": "function"
    },
    {
      "inputs": [
        {
          "internalType": "address",
          "name": "_resource",
          "type": "address"
        },
        {
          "internalType": "address",
          "name": "_grantee",
          "type": "address"
        },
        {
          "internalType": "enum IUHCAccessControl.AccessLevel",
          "name": "_requiredLevel",
          "type": "uint8"
        }
      ],
      "name": "hasAccess",
      "outputs": [
        {
          "internalType": "bool",
          "name": "",
          "type": "bool"
        }
      ],
      "stateMutability": "view",
      "type": "function"
    },
    {
      "inputs": [
        {
          "internalType": "address",
          "name": "_resource",
          "type": "address"
        },
        {
          "internalType": "address",
          "name": "_grantee",
          "type": "address"
        }
      ],
      "name": "hasEmergencyAccess",
      "outputs": [
        {
          "internalType": "bool",
          "name": "",
          "type": "bool"
        }
      ],
      "stateMutability": "view",
      "type": "function"
    },
    {
      "inputs": [
        {
          "internalType": "bytes32",
          "name": "role",
          "type": "bytes32"
        },
        {
          "internalType": "address",
          "name": "account",
          "type": "address"
        }
      ],
      "name": "hasRole",
      "outputs": [
        {
          "internalType": "bool",
          "name": "",
          "type": "bool"
        }
      ],
      "stateMutability": "view",
      "type": "function"
    },
    {
      "inputs": [],
      "name": "identityContract",
      "outputs": [
        {
          "internalType": "contract IUHCIdentity",
          "name": "",
          "type": "address"
        }
      ],
      "stateMutability": "view",
      "type": "function"
    },
    {
      "inputs": [],
      "name": "pause",
      "outputs": [],
      "stateMutability": "nonpayable",
      "type": "function"
    },
    {
      "inputs": [],
      "name": "paused",
      "outputs": [
        {
          "internalType": "bool",
          "name": "",
          "type": "bool"
        }
      ],
      "stateMutability": "view",
      "type": "function"
    },
    {
      "inputs": [
        {
          "internalType": "bytes32",
          "name": "role",
          "type": "bytes32"
        },
        {
          "internalType": "address",
          "name": "account",
          "type": "address"
        }
      ],
      "name": "renounceRole",
      "outputs": [],
      "stateMutability": "nonpayable",
      "type": "function"
    },
    {
      "inputs": [
        {
          "internalType": "address",
          "name": "_resource",
          "type": "address"
        },
        {
          "internalType": "string",
          "name": "_reason",
          "type": "string"
        }
      ],
      "name": "requestEmergencyAccess",
      "outputs": [],
      "stateMutability": "nonpayable",
      "type": "function"
    },
    {
      "inputs": [
        {
          "internalType": "address",
          "name": "_resource",
          "type": "address"
        },
        {
          "internalType": "address",
          "name": "_grantee",
          "type": "address"
        }
      ],
      "name": "revokeAccess",
      "outputs": [],
      "stateMutability": "nonpayable",
      "type": "function"
    },
    {
      "inputs": [
        {
          "internalType": "address",
          "name": "_resource",
          "type": "address"
        },
        {
          "internalType": "address",
          "name": "_grantee",
          "type": "address"
        }
      ],
      "name": "revokeEmergencyAccess",
      "outputs": [],
      "stateMutability": "nonpayable",
      "type": "function"
    },
    {
      "inputs": [
        {
          "internalType": "bytes32",
          "name": "role",
          "type": "bytes32"
        },
        {
          "internalType": "address",
          "name": "account",
          "type": "address"
        }
      ],
      "name": "revokeRole",
      "outputs": [],
      "stateMutability": "nonpayable",
      "type": "function"
    },
    {
      "inputs": [
        {
          "internalType": "bytes4",
          "name": "interfaceId",
          "type": "bytes4"
        }
      ],
      "name": "supportsInterface",
      "outputs": [
        {
          "internalType": "bool",
          "name": "",
          "type": "bool"
        }
      ],
      "stateMutability": "view",
      "type": "function"
    },
    {
      "inputs": [],
      "name": "unpause",
      "outputs": [],
      "stateMutability": "nonpayable",
      "type": "function"
    }
  ],
  "bytecode": "0x60806040523480156200001157600080fd5b506040516200189738038062001897833981016040819052620000349162000134565b600180546001600160a81b0319166101006001600160a01b038416021790556200006060003362000093565b6200008c7fa49807205ce4d355092ef5a8a18f56e8913cf4a201fbe287825b095693c217753362000093565b5062000166565b6000828152602081815260408083206001600160a01b038516845290915290205460ff1662000130576000828152602081815260408083206001600160a01b03851684529091529020805460ff19166001179055620000ef3390565b6001600160a01b0316816001600160a01b0316837f2f8788117e7eff1d82e926ec794901d17c78024a50270940304540a733656f0d60405160405180910390a45b5050565b6000602082840312156200014757600080fd5b81516001600160a01b03811681146200015f57600080fd5b9392505050565b61172180620001766000396000f3fe608060405234801561001057600080fd5b50600436106101375760003560e01c80635f6ea340116100b857806390218ee81161007c57806390218ee8146102a3578063910185dd146102b657806391d14854146102d6578063a217fddf146102e9578063d547741f146102f1578063f54eeeb71461030457600080fd5b80635f6ea3401461023057806363e358fd1461024357806367031bae1461025657806375b238fc146102865780638456cb591461029b57600080fd5b8063248a9ca3116100ff578063248a9ca3146101d45780632f2ff15d146101f757806336568abe1461020a5780633f4ba83a1461021d5780635c975abb1461022557600080fd5b806301ffc9a71461013c578063131746361461016457806313d054d714610179578063178882631461018c57806320df43591461019f575b600080fd5b61014f61014a366004611241565b610317565b60405190151581526020015b60405180910390f35b610177610172366004611296565b61034e565b005b6101776101873660046112e1565b6105fe565b61014f61019a36600461131d565b6107ca565b6101c67fbf233dd2aafeb4d50879c4aa5c81e96d92f6e6945c906a58f9f2d1c1631b4b2681565b60405190815260200161015b565b6101c66101e2366004611360565b60009081526020819052604090206001015490565b610177610205366004611379565b6108dd565b610177610218366004611379565b610907565b610177610985565b60015460ff1661014f565b61017761023e3660046113a5565b6109a8565b6101776102513660046113a5565b610b24565b60015461026e9061010090046001600160a01b031681565b6040516001600160a01b03909116815260200161015b565b6101c66000805160206116cc83398151915281565b610177610bc8565b61014f6102b13660046113a5565b610be8565b6102c96102c43660046113a5565b610c4b565b60405161015b9190611407565b61014f6102e4366004611379565b610cf5565b6101c6600081565b6101776102ff366004611379565b610d1e565b610177610312366004611448565b610d43565b60006001600160e01b03198216637965db0b60e01b148061034857506301ffc9a760e01b6001600160e01b03198316145b92915050565b60015460405163b9209e3360e01b81523360048201526101009091046001600160a01b03169063b9209e3390602401602060405180830381865afa15801561039a573d6000803e3d6000fd5b505050506040513d601f19601f820116820180604052508101906103be91906114cb565b6103e35760405162461bcd60e51b81526004016103da906114ed565b60405180910390fd5b6103eb610e29565b4281116104305760405162461bcd60e51b8152602060048201526013602482015272496e76616c6964206578706972792074696d6560681b60448201526064016103da565b60015460405163b9209e3360e01b81526001600160a01b0385811660048301526101009092049091169063b9209e3390602401602060405180830381865afa158015610480573d6000803e3d6000fd5b505050506040513d601f19601f820116820180604052508101906104a491906114cb565b6104e75760405162461bcd60e51b815260206004820152601460248201527311dc985b9d1959481b9bdd081d995c9a599a595960621b60448201526064016103da565b6040518060800160405280846001600160a01b03168152602001836003811115610513576105136113cf565b81526020808201849052600060409283018190526001600160a01b03808916825260028352838220888216835283529290208351815493166001600160a01b0319841681178255918401519092909183916001600160a81b03191617600160a01b836003811115610586576105866113cf565b021790555060408281015160018301556060909201516002909101805460ff1916911515919091179055516001600160a01b0384811691908616907f3b04af5dc95353bc596c48500f93fc47e7dd3696d02fc82d07d281b6bf810adc906105f09086908690611532565b60405180910390a350505050565b7fbf233dd2aafeb4d50879c4aa5c81e96d92f6e6945c906a58f9f2d1c1631b4b2661062881610e71565b610630610e29565b60015460405163b9209e3360e01b81526001600160a01b0385811660048301526101009092049091169063b9209e3390602401602060405180830381865afa158015610680573d6000803e3d6000fd5b505050506040513d601f19601f820116820180604052508101906106a491906114cb565b6106e75760405162461bcd60e51b815260206004820152601460248201527311dc985b9d1959481b9bdd081d995c9a599a595960621b60448201526064016103da565b6201518082111561072e5760405162461bcd60e51b81526020600482015260116024820152704475726174696f6e20746f6f206c6f6e6760781b60448201526064016103da565b600061073a8342611563565b6001600160a01b038087166000818152600260208181526040808420958b16808552958252808420909201805460ff19166001179055838352600381528183208584529052908190208490555192935090917f5d1675d647fd82d7866123d4b61e400e9b9cd41946ae22001974c31e8addb20b906107bb9087815260200190565b60405180910390a35050505050565b6001600160a01b0383811660009081526002602090815260408083208685168452825280832081516080810190925280549485168252929384939192830190600160a01b900460ff166003811115610824576108246113cf565b6003811115610835576108356113cf565b81526001820154602082015260029091015460ff1615156040909101526060810151909150801561088a57506001600160a01b0380861660009081526003602090815260408083209388168352929052205442105b156108995760019150506108d6565b8260038111156108ab576108ab6113cf565b816020015160038111156108c1576108c16113cf565b101580156108d25750428160400151115b9150505b9392505050565b6000828152602081905260409020600101546108f881610e71565b6109028383610e7b565b505050565b6001600160a01b03811633146109775760405162461bcd60e51b815260206004820152602f60248201527f416363657373436f6e74726f6c3a2063616e206f6e6c792072656e6f756e636560448201526e103937b632b9903337b91039b2b63360891b60648201526084016103da565b6109818282610eff565b5050565b6000805160206116cc83398151915261099d81610e71565b6109a5610f64565b50565b60015460405163b9209e3360e01b81523360048201526101009091046001600160a01b03169063b9209e3390602401602060405180830381865afa1580156109f4573d6000803e3d6000fd5b505050506040513d601f19601f82011682018060405250810190610a1891906114cb565b610a345760405162461bcd60e51b81526004016103da906114ed565b610a3c610e29565b336001600160a01b0383161480610a665750610a666000805160206116cc83398151915233610cf5565b610ab25760405162461bcd60e51b815260206004820152601f60248201527f4e6f7420617574686f72697a656420746f207265766f6b65206163636573730060448201526064016103da565b6001600160a01b0380831660008181526002602081815260408084209587168085529590915280832080546001600160a81b031916815560018101849055909101805460ff19169055517f825c8be24eb0df19500f63e86c29e7d0d951e73056b889b891d85e40938d9b6e9190a35050565b7fbf233dd2aafeb4d50879c4aa5c81e96d92f6e6945c906a58f9f2d1c1631b4b26610b4e81610e71565b610b56610e29565b6001600160a01b038084166000818152600260208181526040808420958816808552958252808420909201805460ff19169055838352600381528183208584529052808220829055517f381ceeb666db3e3c307a575ad34d05f5b497665803dd1983e06e72dd7b4120e49190a3505050565b6000805160206116cc833981519152610be081610e71565b6109a5610fb6565b6001600160a01b03808316600090815260026020818152604080842094861684529390529181209091015460ff1680156108d65750506001600160a01b039182166000908152600360209081526040808320939094168252919091522054421090565b604080516080808201835260008083526020808401829052838501829052606084018290526001600160a01b03878116835260028252858320878216845282529185902085519384019095528454918216835292939192830190600160a01b900460ff166003811115610cc057610cc06113cf565b6003811115610cd157610cd16113cf565b81526001820154602082015260029091015460ff1615156040909101529392505050565b6000918252602082815260408084206001600160a01b0393909316845291905290205460ff1690565b600082815260208190526040902060010154610d3981610e71565b6109028383610eff565b60015460405163b9209e3360e01b81523360048201526101009091046001600160a01b03169063b9209e3390602401602060405180830381865afa158015610d8f573d6000803e3d6000fd5b505050506040513d601f19601f82011682018060405250810190610db391906114cb565b610dcf5760405162461bcd60e51b81526004016103da906114ed565b610dd7610e29565b336001600160a01b0316836001600160a01b03167f376f99a9911a35f532012cd670e53bfd0b627e31883a681036884feb91be49ac8484604051610e1c929190611576565b60405180910390a3505050565b60015460ff1615610e6f5760405162461bcd60e51b815260206004820152601060248201526f14185d5cd8589b194e881c185d5cd95960821b60448201526064016103da565b565b6109a58133610ff1565b610e858282610cf5565b610981576000828152602081815260408083206001600160a01b03851684529091529020805460ff19166001179055610ebb3390565b6001600160a01b0316816001600160a01b0316837f2f8788117e7eff1d82e926ec794901d17c78024a50270940304540a733656f0d60405160405180910390a45050565b610f098282610cf5565b15610981576000828152602081815260408083206001600160a01b0385168085529252808320805460ff1916905551339285917ff6391f5c32d9c69d2a47ea670b442974b53935d1edc7fd64eb21e047a839171b9190a45050565b610f6c61104a565b6001805460ff191690557f5db9ee0a495bf2e6ff9c91a7834c1ba4fdd244a5e8aa4e537bd38aeae4b073aa335b6040516001600160a01b03909116815260200160405180910390a1565b610fbe610e29565b6001805460ff1916811790557f62e78cea01bee320cd4e420270b5ea74000d11b0c9f74754ebdbfc544b05a25833610f99565b610ffb8282610cf5565b6109815761100881611093565b6110138360206110a5565b6040516020016110249291906115c9565b60408051601f198184030181529082905262461bcd60e51b82526103da9160040161163e565b60015460ff16610e6f5760405162461bcd60e51b815260206004820152601460248201527314185d5cd8589b194e881b9bdd081c185d5cd95960621b60448201526064016103da565b60606103486001600160a01b03831660145b606060006110b4836002611671565b6110bf906002611563565b67ffffffffffffffff8111156110d7576110d7611688565b6040519080825280601f01601f191660200182016040528015611101576020820181803683370190505b509050600360fc1b8160008151811061111c5761111c61169e565b60200101906001600160f81b031916908160001a905350600f60fb1b8160018151811061114b5761114b61169e565b60200101906001600160f81b031916908160001a905350600061116f846002611671565b61117a906001611563565b90505b60018111156111f2576f181899199a1a9b1b9c1cb0b131b232b360811b85600f16601081106111ae576111ae61169e565b1a60f81b8282815181106111c4576111c461169e565b60200101906001600160f81b031916908160001a90535060049490941c936111eb816116b4565b905061117d565b5083156108d65760405162461bcd60e51b815260206004820181905260248201527f537472696e67733a20686578206c656e67746820696e73756666696369656e7460448201526064016103da565b60006020828403121561125357600080fd5b81356001600160e01b0319811681146108d657600080fd5b80356001600160a01b038116811461128257600080fd5b919050565b80356004811061128257600080fd5b600080600080608085870312156112ac57600080fd5b6112b58561126b565b93506112c36020860161126b565b92506112d160408601611287565b9396929550929360600135925050565b6000806000606084860312156112f657600080fd5b6112ff8461126b565b925061130d6020850161126b565b9150604084013590509250925092565b60008060006060848603121561133257600080fd5b61133b8461126b565b92506113496020850161126b565b915061135760408501611287565b90509250925092565b60006020828403121561137257600080fd5b5035919050565b6000806040838503121561138c57600080fd5b8235915061139c6020840161126b565b90509250929050565b600080604083850312156113b857600080fd5b6113c18361126b565b915061139c6020840161126b565b634e487b7160e01b600052602160045260246000fd5b6004811061140357634e487b7160e01b600052602160045260246000fd5b9052565b81516001600160a01b03168152602080830151608083019161142b908401826113e5565b506040830151604083015260608301511515606083015292915050565b60008060006040848603121561145d57600080fd5b6114668461126b565b9250602084013567ffffffffffffffff8082111561148357600080fd5b818601915086601f83011261149757600080fd5b8135818111156114a657600080fd5b8760208285010111156114b857600080fd5b6020830194508093505050509250925092565b6000602082840312156114dd57600080fd5b815180151581146108d657600080fd5b60208082526025908201527f554843416363657373436f6e74726f6c3a2043616c6c6572206e6f74207665726040820152641a599a595960da1b606082015260800190565b6040810161154082856113e5565b8260208301529392505050565b634e487b7160e01b600052601160045260246000fd5b808201808211156103485761034861154d565b60208152816020820152818360408301376000818301604090810191909152601f909201601f19160101919050565b60005b838110156115c05781810151838201526020016115a8565b50506000910152565b7f416363657373436f6e74726f6c3a206163636f756e74200000000000000000008152600083516116018160178501602088016115a5565b7001034b99036b4b9b9b4b733903937b6329607d1b60179184019182015283516116328160288401602088016115a5565b01602801949350505050565b602081526000825180602084015261165d8160408501602087016115a5565b601f01601f19169190910160400192915050565b80820281158282048414176103485761034861154d565b634e487b7160e01b600052604160045260246000fd5b634e487b7160e01b600052603260045260246000fd5b6000816116c3576116c361154d565b50600019019056fea49807205ce4d355092ef5a8a18f56e8913cf4a201fbe287825b095693c21775a2646970667358221220fa7bae16cff4557b808a2b995aac954f327343db6a5c2e7281bbed6469df633b64736f6c63430008130033",
  "linkReferences": {},
  "deployedLinkReferences": {}
}