{
  "_format": "hh-sol-artifact-1",
  "contractName": "PasskeyVerifier",
  "sourceName": "contracts/utils/PasskeyVerifier.sol",
  "abi": [
    {
      "inputs": [],
      "stateMutability": "nonpayable",
      "type": "constructor"
    },
    {
      "anonymous": false,
      "inputs": [
        {
          "indexed": true,
          "internalType": "address",
          "name": "user",
          "type": "address"
        },
        {
          "indexed": true,
          "internalType": "bytes32",
          "name": "credentialId",
          "type": "bytes32"
        }
      ],
      "name": "PasskeyAuthenticated",
      "type": "event"
    },
    {
      "anonymous": false,
      "inputs": [
        {
          "indexed": true,
          "internalType": "address",
          "name": "user",
          "type": "address"
        },
        {
          "indexed": true,
          "internalType": "bytes32",
          "name": "credentialId",
          "type": "bytes32"
        }
      ],
      "name": "PasskeyDeactivated",
      "type": "event"
    },
    {
      "anonymous": false,
      "inputs": [
        {
          "indexed": true,
          "internalType": "address",
          "name": "user",
          "type": "address"
        },
        {
          "indexed": true,
          "internalType": "bytes32",
          "name": "credentialId",
          "type": "bytes32"
        },
        {
          "indexed": false,
          "internalType": "bytes32",
          "name": "publicKeyHash",
          "type": "bytes32"
        }
      ],
      "name": "PasskeyRegistered",
      "type": "event"
    },
    {
      "anonymous": false,
      "inputs": [
        {
          "indexed": false,
          "internalType": "address",
          "name": "account",
          "type": "address"
        }
      ],
      "name": "Paused",
      "type": "event"
    },
    {
      "anonymous": false,
      "inputs": [
        {
          "indexed": true,
          "internalType": "bytes32",
          "name": "role",
          "type": "bytes32"
        },
        {
          "indexed": true,
          "internalType": "bytes32",
          "name": "previousAdminRole",
          "type": "bytes32"
        },
        {
          "indexed": true,
          "internalType": "bytes32",
          "name": "newAdminRole",
          "type": "bytes32"
        }
      ],
      "name": "RoleAdminChanged",
      "type": "event"
    },
    {
      "anonymous": false,
      "inputs": [
        {
          "indexed": true,
          "internalType": "bytes32",
          "name": "role",
          "type": "bytes32"
        },
        {
          "indexed": true,
          "internalType": "address",
          "name": "account",
          "type": "address"
        },
        {
          "indexed": true,
          "internalType": "address",
          "name": "sender",
          "type": "address"
        }
      ],
      "name": "RoleGranted",
      "type": "event"
    },
    {
      "anonymous": false,
      "inputs": [
        {
          "indexed": true,
          "internalType": "bytes32",
          "name": "role",
          "type": "bytes32"
        },
        {
          "indexed": true,
          "internalType": "address",
          "name": "account",
          "type": "address"
        },
        {
          "indexed": true,
          "internalType": "address",
          "name": "sender",
          "type": "address"
        }
      ],
      "name": "RoleRevoked",
      "type": "event"
    },
    {
      "anonymous": false,
      "inputs": [
        {
          "indexed": false,
          "internalType": "address",
          "name": "account",
          "type": "address"
        }
      ],
      "name": "Unpaused",
      "type": "event"
    },
    {
      "inputs": [],
      "name": "ADMIN_ROLE",
      "outputs": [
        {
          "internalType": "bytes32",
          "name": "",
          "type": "bytes32"
        }
      ],
      "stateMutability": "view",
      "type": "function"
    },
    {
      "inputs": [],
      "name": "DEFAULT_ADMIN_ROLE",
      "outputs": [
        {
          "internalType": "bytes32",
          "name": "",
          "type": "bytes32"
        }
      ],
      "stateMutability": "view",
      "type": "function"
    },
    {
      "inputs": [],
      "name": "VERIFIER_ROLE",
      "outputs": [
        {
          "internalType": "bytes32",
          "name": "",
          "type": "bytes32"
        }
      ],
      "stateMutability": "view",
      "type": "function"
    },
    {
      "inputs": [
        {
          "internalType": "address",
          "name": "_user",
          "type": "address"
        },
        {
          "internalType": "bytes32",
          "name": "_credentialId",
          "type": "bytes32"
        }
      ],
      "name": "deactivatePasskey",
      "outputs": [],
      "stateMutability": "nonpayable",
      "type": "function"
    },
    {
      "inputs": [
        {
          "internalType": "bytes32",
          "name": "role",
          "type": "bytes32"
        }
      ],
      "name": "getRoleAdmin",
      "outputs": [
        {
          "internalType": "bytes32",
          "name": "",
          "type": "bytes32"
        }
      ],
      "stateMutability": "view",
      "type": "function"
    },
    {
      "inputs": [
        {
          "internalType": "address",
          "name": "_user",
          "type": "address"
        }
      ],
      "name": "getUserCredentials",
      "outputs": [
        {
          "components": [
            {
              "internalType": "bytes32",
              "name": "credentialId",
              "type": "bytes32"
            },
            {
              "internalType": "bytes32",
              "name": "publicKeyHash",
              "type": "bytes32"
            },
            {
              "internalType": "uint256",
              "name": "signCount",
              "type": "uint256"
            },
            {
              "internalType": "bool",
              "name": "isActive",
              "type": "bool"
            }
          ],
          "internalType": "struct PasskeyVerifier.PasskeyCredential[]",
          "name": "",
          "type": "tuple[]"
        }
      ],
      "stateMutability": "view",
      "type": "function"
    },
    {
      "inputs": [
        {
          "internalType": "bytes32",
          "name": "role",
          "type": "bytes32"
        },
        {
          "internalType": "address",
          "name": "account",
          "type": "address"
        }
      ],
      "name": "grantRole",
      "outputs": [],
      "stateMutability": "nonpayable",
      "type": "function"
    },
    {
      "inputs": [
        {
          "internalType": "bytes32",
          "name": "role",
          "type": "bytes32"
        },
        {
          "internalType": "address",
          "name": "account",
          "type": "address"
        }
      ],
      "name": "hasRole",
      "outputs": [
        {
          "internalType": "bool",
          "name": "",
          "type": "bool"
        }
      ],
      "stateMutability": "view",
      "type": "function"
    },
    {
      "inputs": [
        {
          "internalType": "bytes32",
          "name": "_credentialId",
          "type": "bytes32"
        }
      ],
      "name": "isCredentialRegistered",
      "outputs": [
        {
          "internalType": "bool",
          "name": "",
          "type": "bool"
        }
      ],
      "stateMutability": "view",
      "type": "function"
    },
    {
      "inputs": [],
      "name": "pause",
      "outputs": [],
      "stateMutability": "nonpayable",
      "type": "function"
    },
    {
      "inputs": [],
      "name": "paused",
      "outputs": [
        {
          "internalType": "bool",
          "name": "",
          "type": "bool"
        }
      ],
      "stateMutability": "view",
      "type": "function"
    },
    {
      "inputs": [
        {
          "internalType": "address",
          "name": "_user",
          "type": "address"
        },
        {
          "internalType": "bytes32",
          "name": "_credentialId",
          "type": "bytes32"
        },
        {
          "internalType": "bytes",
          "name": "_publicKey",
          "type": "bytes"
        }
      ],
      "name": "registerPasskey",
      "outputs": [],
      "stateMutability": "nonpayable",
      "type": "function"
    },
    {
      "inputs": [
        {
          "internalType": "bytes32",
          "name": "",
          "type": "bytes32"
        }
      ],
      "name": "registeredCredentialIds",
      "outputs": [
        {
          "internalType": "bool",
          "name": "",
          "type": "bool"
        }
      ],
      "stateMutability": "view",
      "type": "function"
    },
    {
      "inputs": [
        {
          "internalType": "bytes32",
          "name": "role",
          "type": "bytes32"
        },
        {
          "internalType": "address",
          "name": "account",
          "type": "address"
        }
      ],
      "name": "renounceRole",
      "outputs": [],
      "stateMutability": "nonpayable",
      "type": "function"
    },
    {
      "inputs": [
        {
          "internalType": "bytes32",
          "name": "role",
          "type": "bytes32"
        },
        {
          "internalType": "address",
          "name": "account",
          "type": "address"
        }
      ],
      "name": "revokeRole",
      "outputs": [],
      "stateMutability": "nonpayable",
      "type": "function"
    },
    {
      "inputs": [
        {
          "internalType": "bytes4",
          "name": "interfaceId",
          "type": "bytes4"
        }
      ],
      "name": "supportsInterface",
      "outputs": [
        {
          "internalType": "bool",
          "name": "",
          "type": "bool"
        }
      ],
      "stateMutability": "view",
      "type": "function"
    },
    {
      "inputs": [],
      "name": "unpause",
      "outputs": [],
      "stateMutability": "nonpayable",
      "type": "function"
    },
    {
      "inputs": [
        {
          "internalType": "address",
          "name": "",
          "type": "address"
        },
        {
          "internalType": "uint256",
          "name": "",
          "type": "uint256"
        }
      ],
      "name": "userCredentials",
      "outputs": [
        {
          "internalType": "bytes32",
          "name": "credentialId",
          "type": "bytes32"
        },
        {
          "internalType": "bytes32",
          "name": "publicKeyHash",
          "type": "bytes32"
        },
        {
          "internalType": "uint256",
          "name": "signCount",
          "type": "uint256"
        },
        {
          "internalType": "bool",
          "name": "isActive",
          "type": "bool"
        }
      ],
      "stateMutability": "view",
      "type": "function"
    },
    {
      "inputs": [
        {
          "internalType": "address",
          "name": "_user",
          "type": "address"
        },
        {
          "internalType": "bytes32",
          "name": "_credentialId",
          "type": "bytes32"
        },
        {
          "internalType": "bytes",
          "name": "_signature",
          "type": "bytes"
        },
        {
          "internalType": "bytes",
          "name": "_authenticatorData",
          "type": "bytes"
        },
        {
          "internalType": "bytes",
          "name": "_clientDataJSON",
          "type": "bytes"
        },
        {
          "internalType": "uint256",
          "name": "_newSignCount",
          "type": "uint256"
        }
      ],
      "name": "verifyAuthentication",
      "outputs": [
        {
          "internalType": "bool",
          "name": "",
          "type": "bool"
        }
      ],
      "stateMutability": "nonpayable",
      "type": "function"
    }
  ],
  "bytecode": "0x608060405234801561001057600080fd5b506001805460ff19169055610026600033610055565b6100507fa49807205ce4d355092ef5a8a18f56e8913cf4a201fbe287825b095693c2177533610055565b6100f4565b6000828152602081815260408083206001600160a01b038516845290915290205460ff166100f0576000828152602081815260408083206001600160a01b03851684529091529020805460ff191660011790556100af3390565b6001600160a01b0316816001600160a01b0316837f2f8788117e7eff1d82e926ec794901d17c78024a50270940304540a733656f0d60405160405180910390a45b5050565b6113f8806101036000396000f3fe608060405234801561001057600080fd5b50600436106101215760003560e01c80638627aa91116100ad578063b9f4d0a811610071578063b9f4d0a814610270578063c76d291914610283578063d547741f146102a3578063e7705db6146102b6578063f399af29146102dd57600080fd5b80638627aa91146101ea57806391d148541461020d5780639364ace91461022057806398d2ca6414610255578063a217fddf1461026857600080fd5b80633f4ba83a116100f45780633f4ba83a146101a75780635c975abb146101af5780636cd6b4ca146101ba57806375b238fc146101cd5780638456cb59146101e257600080fd5b806301ffc9a714610126578063248a9ca31461014e5780632f2ff15d1461017f57806336568abe14610194575b600080fd5b610139610134366004610f83565b610300565b60405190151581526020015b60405180910390f35b61017161015c366004610fad565b60009081526020819052604090206001015490565b604051908152602001610145565b61019261018d366004610fe2565b610337565b005b6101926101a2366004610fe2565b610361565b6101926103e4565b60015460ff16610139565b6101926101c836600461100e565b610407565b6101716000805160206113a383398151915281565b61019261056b565b6101396101f8366004610fad565b60036020526000908152604090205460ff1681565b61013961021b366004610fe2565b61058b565b61023361022e36600461100e565b6105b4565b6040805194855260208501939093529183015215156060820152608001610145565b610192610263366004611081565b6105fd565b610171600081565b61013961027e3660046110db565b610779565b610296610291366004611197565b610aa3565b60405161014591906111b2565b6101926102b1366004610fe2565b610b3f565b6101717f0ce23c3e399818cfee81a7ab0880f714e53d7672b08df0fa62f2843416e1ea0981565b6101396102eb366004610fad565b60009081526003602052604090205460ff1690565b60006001600160e01b03198216637965db0b60e01b148061033157506301ffc9a760e01b6001600160e01b03198316145b92915050565b60008281526020819052604090206001015461035281610b64565b61035c8383610b6e565b505050565b6001600160a01b03811633146103d65760405162461bcd60e51b815260206004820152602f60248201527f416363657373436f6e74726f6c3a2063616e206f6e6c792072656e6f756e636560448201526e103937b632b9903337b91039b2b63360891b60648201526084015b60405180910390fd5b6103e08282610bf2565b5050565b6000805160206113a38339815191526103fc81610b64565b610404610c57565b50565b6000805160206113a383398151915261041f81610b64565b6001600160a01b0383166000908152600260205260408120905b8154811015610522578382828154811061045557610455611218565b906000526020600020906004020160000154148015610499575081818154811061048157610481611218565b600091825260209091206003600490920201015460ff165b156105105760008282815481106104b2576104b2611218565b60009182526020822060049190910201600301805460ff19169215159290921790915560405185916001600160a01b038816917f9578c2954f783aef36e2943c71c50849436e7033b5b0744180cf2414cf3e40b29190a35050505050565b8061051a81611244565b915050610439565b5060405162461bcd60e51b815260206004820152601b60248201527f4163746976652063726564656e7469616c206e6f7420666f756e64000000000060448201526064016103cd565b6000805160206113a383398151915261058381610b64565b610404610ca9565b6000918252602082815260408084206001600160a01b0393909316845291905290205460ff1690565b600260205281600052604060002081815481106105d057600080fd5b60009182526020909120600490910201805460018201546002830154600390930154919450925060ff1684565b7f0ce23c3e399818cfee81a7ab0880f714e53d7672b08df0fa62f2843416e1ea0961062781610b64565b61062f610ce4565b60008481526003602052604090205460ff161561068e5760405162461bcd60e51b815260206004820181905260248201527f43726564656e7469616c20494420616c7265616479207265676973746572656460448201526064016103cd565b600083836040516106a092919061125d565b60408051918290038220608083018252878352602080840182815260008585018181526001606088018181526001600160a01b038f168085526002808852898620805480860182559087528887208c51600490920201908155965187850155935193860193909355516003948501805491151560ff199283161790558d845293909452908590208054909216909217905591519093508791907f099d6ecfd2519ec3fd11e2911126304b2d27e555270dabbe28dc87aa3a930886906107689086815260200190565b60405180910390a350505050505050565b60007f0ce23c3e399818cfee81a7ab0880f714e53d7672b08df0fa62f2843416e1ea096107a581610b64565b6107ad610ce4565b6001600160a01b038b166000908152600260205260408120905b8154811015610a55578b8282815481106107e3576107e3611218565b90600052602060002090600402016000015403610a435781818154811061080c5761080c611218565b600091825260209091206003600490920201015460ff1661086f5760405162461bcd60e51b815260206004820152601860248201527f43726564656e7469616c206973206e6f7420616374697665000000000000000060448201526064016103cd565b81818154811061088157610881611218565b90600052602060002090600402016002015485116108d65760405162461bcd60e51b8152602060048201526012602482015271125b9d985b1a59081cda59db8818dbdd5b9d60721b60448201526064016103cd565b6000898989896040516108ea92919061125d565b60405190819003812061090193929160200161126d565b6040516020818303038152906040528051906020012090508b8b60405161092992919061125d565b604051809103902083838154811061094357610943611218565b90600052602060002090600402016001015414801561099857508b8b60405161096d92919061125d565b6040805191829003822060208301849052910160405160208183030381529060405280519060200120145b6109d85760405162461bcd60e51b8152602060048201526011602482015270496e76616c6964207369676e617475726560781b60448201526064016103cd565b858383815481106109eb576109eb611218565b9060005260206000209060040201600201819055508c8e6001600160a01b03167f7e3bb7142c7ae2921150dbb0f49330c41e3d9eef9e5562f90cee7bfd599e006a60405160405180910390a360019450505050610a95565b80610a4d81611244565b9150506107c7565b5060405162461bcd60e51b815260206004820152601460248201527310dc9959195b9d1a585b081b9bdd08199bdd5b9960621b60448201526064016103cd565b509998505050505050505050565b6001600160a01b0381166000908152600260209081526040808320805482518185028101850190935280835260609492939192909184015b82821015610b34576000848152602090819020604080516080810182526004860290920180548352600180820154848601526002820154928401929092526003015460ff16151560608301529083529092019101610adb565b505050509050919050565b600082815260208190526040902060010154610b5a81610b64565b61035c8383610bf2565b6104048133610d2c565b610b78828261058b565b6103e0576000828152602081815260408083206001600160a01b03851684529091529020805460ff19166001179055610bae3390565b6001600160a01b0316816001600160a01b0316837f2f8788117e7eff1d82e926ec794901d17c78024a50270940304540a733656f0d60405160405180910390a45050565b610bfc828261058b565b156103e0576000828152602081815260408083206001600160a01b0385168085529252808320805460ff1916905551339285917ff6391f5c32d9c69d2a47ea670b442974b53935d1edc7fd64eb21e047a839171b9190a45050565b610c5f610d85565b6001805460ff191690557f5db9ee0a495bf2e6ff9c91a7834c1ba4fdd244a5e8aa4e537bd38aeae4b073aa335b6040516001600160a01b03909116815260200160405180910390a1565b610cb1610ce4565b6001805460ff1916811790557f62e78cea01bee320cd4e420270b5ea74000d11b0c9f74754ebdbfc544b05a25833610c8c565b60015460ff1615610d2a5760405162461bcd60e51b815260206004820152601060248201526f14185d5cd8589b194e881c185d5cd95960821b60448201526064016103cd565b565b610d36828261058b565b6103e057610d4381610dce565b610d4e836020610de0565b604051602001610d5f9291906112a3565b60408051601f198184030181529082905262461bcd60e51b82526103cd91600401611318565b60015460ff16610d2a5760405162461bcd60e51b815260206004820152601460248201527314185d5cd8589b194e881b9bdd081c185d5cd95960621b60448201526064016103cd565b60606103316001600160a01b03831660145b60606000610def83600261134b565b610dfa906002611362565b67ffffffffffffffff811115610e1257610e12611375565b6040519080825280601f01601f191660200182016040528015610e3c576020820181803683370190505b509050600360fc1b81600081518110610e5757610e57611218565b60200101906001600160f81b031916908160001a905350600f60fb1b81600181518110610e8657610e86611218565b60200101906001600160f81b031916908160001a9053506000610eaa84600261134b565b610eb5906001611362565b90505b6001811115610f2d576f181899199a1a9b1b9c1cb0b131b232b360811b85600f1660108110610ee957610ee9611218565b1a60f81b828281518110610eff57610eff611218565b60200101906001600160f81b031916908160001a90535060049490941c93610f268161138b565b9050610eb8565b508315610f7c5760405162461bcd60e51b815260206004820181905260248201527f537472696e67733a20686578206c656e67746820696e73756666696369656e7460448201526064016103cd565b9392505050565b600060208284031215610f9557600080fd5b81356001600160e01b031981168114610f7c57600080fd5b600060208284031215610fbf57600080fd5b5035919050565b80356001600160a01b0381168114610fdd57600080fd5b919050565b60008060408385031215610ff557600080fd5b8235915061100560208401610fc6565b90509250929050565b6000806040838503121561102157600080fd5b61102a83610fc6565b946020939093013593505050565b60008083601f84011261104a57600080fd5b50813567ffffffffffffffff81111561106257600080fd5b60208301915083602082850101111561107a57600080fd5b9250929050565b6000806000806060858703121561109757600080fd5b6110a085610fc6565b935060208501359250604085013567ffffffffffffffff8111156110c357600080fd5b6110cf87828801611038565b95989497509550505050565b600080600080600080600080600060c08a8c0312156110f957600080fd5b6111028a610fc6565b985060208a0135975060408a013567ffffffffffffffff8082111561112657600080fd5b6111328d838e01611038565b909950975060608c013591508082111561114b57600080fd5b6111578d838e01611038565b909750955060808c013591508082111561117057600080fd5b5061117d8c828d01611038565b9a9d999c50979a9699959894979660a00135949350505050565b6000602082840312156111a957600080fd5b610f7c82610fc6565b602080825282518282018190526000919060409081850190868401855b8281101561120b5781518051855286810151878601528581015186860152606090810151151590850152608090930192908501906001016111cf565b5091979650505050505050565b634e487b7160e01b600052603260045260246000fd5b634e487b7160e01b600052601160045260246000fd5b6000600182016112565761125661122e565b5060010190565b8183823760009101908152919050565b82848237909101908152602001919050565b60005b8381101561129a578181015183820152602001611282565b50506000910152565b7f416363657373436f6e74726f6c3a206163636f756e74200000000000000000008152600083516112db81601785016020880161127f565b7001034b99036b4b9b9b4b733903937b6329607d1b601791840191820152835161130c81602884016020880161127f565b01602801949350505050565b602081526000825180602084015261133781604085016020870161127f565b601f01601f19169190910160400192915050565b80820281158282048414176103315761033161122e565b808201808211156103315761033161122e565b634e487b7160e01b600052604160045260246000fd5b60008161139a5761139a61122e565b50600019019056fea49807205ce4d355092ef5a8a18f56e8913cf4a201fbe287825b095693c21775a26469706673582212200c242330b7d01d8a00dd4e5bea3bed702efd19cb8b1c0f5dd1ff25236c261ddb64736f6c63430008130033",
  "linkReferences": {},
  "deployedLinkReferences": {}
}