{
  "_format": "hh-sol-artifact-1",
  "contractName": "UHCIdentity",
  "sourceName": "contracts/core/UHCIdentity.sol",
  "abi": [
    {
      "inputs": [],
      "stateMutability": "nonpayable",
      "type": "constructor"
    },
    {
      "anonymous": false,
      "inputs": [
        {
          "indexed": true,
          "internalType": "address",
          "name": "wallet",
          "type": "address"
        },
        {
          "indexed": false,
          "internalType": "enum IUHCIdentity.IdentityType",
          "name": "role",
          "type": "uint8"
        }
      ],
      "name": "IdentityRegistered",
      "type": "event"
    },
    {
      "anonymous": false,
      "inputs": [
        {
          "indexed": true,
          "internalType": "address",
          "name": "wallet",
          "type": "address"
        },
        {
          "indexed": false,
          "internalType": "uint256",
          "name": "timestamp",
          "type": "uint256"
        }
      ],
      "name": "IdentityRevoked",
      "type": "event"
    },
    {
      "anonymous": false,
      "inputs": [
        {
          "indexed": true,
          "internalType": "address",
          "name": "wallet",
          "type": "address"
        },
        {
          "indexed": false,
          "internalType": "uint256",
          "name": "timestamp",
          "type": "uint256"
        }
      ],
      "name": "IdentityVerified",
      "type": "event"
    },
    {
      "anonymous": false,
      "inputs": [
        {
          "indexed": true,
          "internalType": "address",
          "name": "wallet",
          "type": "address"
        },
        {
          "indexed": false,
          "internalType": "bytes32",
          "name": "metadataHash",
          "type": "bytes32"
        }
      ],
      "name": "MetadataUpdated",
      "type": "event"
    },
    {
      "anonymous": false,
      "inputs": [
        {
          "indexed": false,
          "internalType": "address",
          "name": "account",
          "type": "address"
        }
      ],
      "name": "Paused",
      "type": "event"
    },
    {
      "anonymous": false,
      "inputs": [
        {
          "indexed": true,
          "internalType": "bytes32",
          "name": "role",
          "type": "bytes32"
        },
        {
          "indexed": true,
          "internalType": "bytes32",
          "name": "previousAdminRole",
          "type": "bytes32"
        },
        {
          "indexed": true,
          "internalType": "bytes32",
          "name": "newAdminRole",
          "type": "bytes32"
        }
      ],
      "name": "RoleAdminChanged",
      "type": "event"
    },
    {
      "anonymous": false,
      "inputs": [
        {
          "indexed": true,
          "internalType": "bytes32",
          "name": "role",
          "type": "bytes32"
        },
        {
          "indexed": true,
          "internalType": "address",
          "name": "account",
          "type": "address"
        },
        {
          "indexed": true,
          "internalType": "address",
          "name": "sender",
          "type": "address"
        }
      ],
      "name": "RoleGranted",
      "type": "event"
    },
    {
      "anonymous": false,
      "inputs": [
        {
          "indexed": true,
          "internalType": "bytes32",
          "name": "role",
          "type": "bytes32"
        },
        {
          "indexed": true,
          "internalType": "address",
          "name": "account",
          "type": "address"
        },
        {
          "indexed": true,
          "internalType": "address",
          "name": "sender",
          "type": "address"
        }
      ],
      "name": "RoleRevoked",
      "type": "event"
    },
    {
      "anonymous": false,
      "inputs": [
        {
          "indexed": false,
          "internalType": "address",
          "name": "account",
          "type": "address"
        }
      ],
      "name": "Unpaused",
      "type": "event"
    },
    {
      "inputs": [],
      "name": "ADMIN_ROLE",
      "outputs": [
        {
          "internalType": "bytes32",
          "name": "",
          "type": "bytes32"
        }
      ],
      "stateMutability": "view",
      "type": "function"
    },
    {
      "inputs": [],
      "name": "DEFAULT_ADMIN_ROLE",
      "outputs": [
        {
          "internalType": "bytes32",
          "name": "",
          "type": "bytes32"
        }
      ],
      "stateMutability": "view",
      "type": "function"
    },
    {
      "inputs": [],
      "name": "VERIFIER_ROLE",
      "outputs": [
        {
          "internalType": "bytes32",
          "name": "",
          "type": "bytes32"
        }
      ],
      "stateMutability": "view",
      "type": "function"
    },
    {
      "inputs": [
        {
          "internalType": "address",
          "name": "_wallet",
          "type": "address"
        }
      ],
      "name": "getIdentity",
      "outputs": [
        {
          "components": [
            {
              "internalType": "address",
              "name": "wallet",
              "type": "address"
            },
            {
              "internalType": "bytes32",
              "name": "identityHash",
              "type": "bytes32"
            },
            {
              "internalType": "enum IUHCIdentity.IdentityType",
              "name": "role",
              "type": "uint8"
            },
            {
              "internalType": "enum IUHCIdentity.VerificationStatus",
              "name": "status",
              "type": "uint8"
            },
            {
              "internalType": "uint256",
              "name": "verificationTimestamp",
              "type": "uint256"
            },
            {
              "internalType": "bytes32",
              "name": "metadataHash",
              "type": "bytes32"
            }
          ],
          "internalType": "struct IUHCIdentity.Identity",
          "name": "",
          "type": "tuple"
        }
      ],
      "stateMutability": "view",
      "type": "function"
    },
    {
      "inputs": [
        {
          "internalType": "bytes32",
          "name": "role",
          "type": "bytes32"
        }
      ],
      "name": "getRoleAdmin",
      "outputs": [
        {
          "internalType": "bytes32",
          "name": "",
          "type": "bytes32"
        }
      ],
      "stateMutability": "view",
      "type": "function"
    },
    {
      "inputs": [
        {
          "internalType": "bytes32",
          "name": "role",
          "type": "bytes32"
        },
        {
          "internalType": "address",
          "name": "account",
          "type": "address"
        }
      ],
      "name": "grantRole",
      "outputs": [],
      "stateMutability": "nonpayable",
      "type": "function"
    },
    {
      "inputs": [
        {
          "internalType": "bytes32",
          "name": "role",
          "type": "bytes32"
        },
        {
          "internalType": "address",
          "name": "account",
          "type": "address"
        }
      ],
      "name": "hasRole",
      "outputs": [
        {
          "internalType": "bool",
          "name": "",
          "type": "bool"
        }
      ],
      "stateMutability": "view",
      "type": "function"
    },
    {
      "inputs": [
        {
          "internalType": "address",
          "name": "_wallet",
          "type": "address"
        },
        {
          "internalType": "enum IUHCIdentity.IdentityType",
          "name": "_role",
          "type": "uint8"
        }
      ],
      "name": "hasRole",
      "outputs": [
        {
          "internalType": "bool",
          "name": "",
          "type": "bool"
        }
      ],
      "stateMutability": "view",
      "type": "function"
    },
    {
      "inputs": [
        {
          "internalType": "address",
          "name": "_wallet",
          "type": "address"
        }
      ],
      "name": "isVerified",
      "outputs": [
        {
          "internalType": "bool",
          "name": "",
          "type": "bool"
        }
      ],
      "stateMutability": "view",
      "type": "function"
    },
    {
      "inputs": [],
      "name": "pause",
      "outputs": [],
      "stateMutability": "nonpayable",
      "type": "function"
    },
    {
      "inputs": [],
      "name": "paused",
      "outputs": [
        {
          "internalType": "bool",
          "name": "",
          "type": "bool"
        }
      ],
      "stateMutability": "view",
      "type": "function"
    },
    {
      "inputs": [
        {
          "internalType": "bytes32",
          "name": "_identityHash",
          "type": "bytes32"
        },
        {
          "internalType": "enum IUHCIdentity.IdentityType",
          "name": "_role",
          "type": "uint8"
        },
        {
          "internalType": "bytes32",
          "name": "_metadataHash",
          "type": "bytes32"
        }
      ],
      "name": "registerIdentity",
      "outputs": [],
      "stateMutability": "nonpayable",
      "type": "function"
    },
    {
      "inputs": [
        {
          "internalType": "bytes32",
          "name": "role",
          "type": "bytes32"
        },
        {
          "internalType": "address",
          "name": "account",
          "type": "address"
        }
      ],
      "name": "renounceRole",
      "outputs": [],
      "stateMutability": "nonpayable",
      "type": "function"
    },
    {
      "inputs": [
        {
          "internalType": "address",
          "name": "_wallet",
          "type": "address"
        }
      ],
      "name": "revokeIdentity",
      "outputs": [],
      "stateMutability": "nonpayable",
      "type": "function"
    },
    {
      "inputs": [
        {
          "internalType": "bytes32",
          "name": "role",
          "type": "bytes32"
        },
        {
          "internalType": "address",
          "name": "account",
          "type": "address"
        }
      ],
      "name": "revokeRole",
      "outputs": [],
      "stateMutability": "nonpayable",
      "type": "function"
    },
    {
      "inputs": [
        {
          "internalType": "bytes4",
          "name": "interfaceId",
          "type": "bytes4"
        }
      ],
      "name": "supportsInterface",
      "outputs": [
        {
          "internalType": "bool",
          "name": "",
          "type": "bool"
        }
      ],
      "stateMutability": "view",
      "type": "function"
    },
    {
      "inputs": [],
      "name": "unpause",
      "outputs": [],
      "stateMutability": "nonpayable",
      "type": "function"
    },
    {
      "inputs": [
        {
          "internalType": "bytes32",
          "name": "_metadataHash",
          "type": "bytes32"
        }
      ],
      "name": "updateMetadata",
      "outputs": [],
      "stateMutability": "nonpayable",
      "type": "function"
    },
    {
      "inputs": [
        {
          "internalType": "address",
          "name": "_wallet",
          "type": "address"
        }
      ],
      "name": "verifyIdentity",
      "outputs": [],
      "stateMutability": "nonpayable",
      "type": "function"
    }
  ],
  "bytecode": "0x608060405234801561001057600080fd5b506001805460ff19169055610026600033610055565b6100507fa49807205ce4d355092ef5a8a18f56e8913cf4a201fbe287825b095693c2177533610055565b6100f4565b6000828152602081815260408083206001600160a01b038516845290915290205460ff166100f0576000828152602081815260408083206001600160a01b03851684529091529020805460ff191660011790556100af3390565b6001600160a01b0316816001600160a01b0316837f2f8788117e7eff1d82e926ec794901d17c78024a50270940304540a733656f0d60405160405180910390a45b5050565b611319806101036000396000f3fe608060405234801561001057600080fd5b50600436106101215760003560e01c80635c975abb116100ad578063a217fddf11610071578063a217fddf14610256578063b5b90fd91461025e578063b9209e3314610271578063d547741f14610284578063e7705db61461029757600080fd5b80635c975abb1461020857806375b238fc146102135780638456cb591461022857806391d148541461023057806395a8c58d1461024357600080fd5b80632fea7b81116100f45780632fea7b81146101a757806336568abe146101c75780633f4ba83a146101da5780634f2d7778146101e257806350ee8134146101f557600080fd5b806301ffc9a7146101265780630ebddd171461014e578063248a9ca3146101635780632f2ff15d14610194575b600080fd5b610139610134366004610fbb565b6102be565b60405190151581526020015b60405180910390f35b61016161015c366004611001565b6102f5565b005b61018661017136600461101c565b60009081526020819052604090206001015490565b604051908152602001610145565b6101616101a2366004611035565b6103f8565b6101ba6101b5366004611001565b610422565b6040516101459190611095565b6101616101d5366004611035565b610518565b610161610596565b6101616101f036600461101c565b6105b9565b610161610203366004611102565b61071f565b60015460ff16610139565b6101866000805160206112c483398151915281565b610161610947565b61013961023e366004611035565b610967565b610139610251366004611137565b610990565b610186600081565b61016161026c366004611001565b610a1e565b61013961027f366004611001565b610b41565b610161610292366004611035565b610b7e565b6101867f0ce23c3e399818cfee81a7ab0880f714e53d7672b08df0fa62f2843416e1ea0981565b60006001600160e01b03198216637965db0b60e01b14806102ef57506301ffc9a760e01b6001600160e01b03198316145b92915050565b6000805160206112c483398151915261030d81610ba3565b610315610bad565b60026001600160a01b03831660009081526002602081905260409091200154610100900460ff16600381111561034d5761034d611061565b146103975760405162461bcd60e51b81526020600482015260156024820152741259195b9d1a5d1e481b9bdd081d995c9a599a5959605a1b60448201526064015b60405180910390fd5b6001600160a01b038216600081815260026020818152604092839020909101805461ff00191661030017905590514281527f3e3c59bb369a9da1f5c9df74adb044e1181c4e20448838f42d9e860bb0a18cdb91015b60405180910390a25050565b60008281526020819052604090206001015461041381610ba3565b61041d8383610bf5565b505050565b61045b6040805160c081018252600080825260208201819052909182019081526020016000815260006020820181905260409091015290565b6001600160a01b03808316600090815260026020818152604092839020835160c0810185528154909516855260018101549185019190915290810154909183019060ff1660038111156104b0576104b0611061565b60038111156104c1576104c1611061565b81526020016002820160019054906101000a900460ff1660038111156104e9576104e9611061565b60038111156104fa576104fa611061565b81526003820154602082015260049091015460409091015292915050565b6001600160a01b03811633146105885760405162461bcd60e51b815260206004820152602f60248201527f416363657373436f6e74726f6c3a2063616e206f6e6c792072656e6f756e636560448201526e103937b632b9903337b91039b2b63360891b606482015260840161038e565b6105928282610c79565b5050565b6000805160206112c48339815191526105ae81610ba3565b6105b6610cde565b50565b336105d26000805160206112c483398151915233610967565b80610609575060023360009081526002602081905260409091200154610100900460ff16600381111561060757610607611061565b145b61066b5760405162461bcd60e51b815260206004820152602d60248201527f5548434964656e746974793a2043616c6c6572206d757374206265207665726960448201526c3334b2b21037b91030b236b4b760991b606482015260840161038e565b610673610bad565b336000908152600260205260409020546001600160a01b03166106d85760405162461bcd60e51b815260206004820152601760248201527f4964656e7469747920646f6573206e6f74206578697374000000000000000000604482015260640161038e565b3360008181526002602052604090819020600401849055517f7d81f7140a88606ff947059266f01d842ecfe4eb057861602ca1d31b846bb9d8906103ec9085815260200190565b610727610bad565b60008381526003602052604090205460ff16156107865760405162461bcd60e51b815260206004820152601a60248201527f4964656e74697479206861736820616c72656164792075736564000000000000604482015260640161038e565b33600090815260026020819052604082200154610100900460ff1660038111156107b2576107b2611061565b146107ff5760405162461bcd60e51b815260206004820152601b60248201527f4964656e7469747920616c726561647920726567697374657265640000000000604482015260640161038e565b6040518060c00160405280336001600160a01b0316815260200184815260200183600381111561083157610831611061565b815260200160018152600060208083018290526040928301859052338252600280825291839020845181546001600160a01b0319166001600160a01b03909116178155908401516001808301919091559284015191810180549193909160ff1916908360038111156108a5576108a5611061565b0217905550606082015160028201805461ff0019166101008360038111156108cf576108cf611061565b0217905550608082015160038083019190915560a0909201516004909101556000848152602091909152604090819020805460ff191660011790555133907f86a58c82e62b892fa072dfec4db14fe739f8ff6cd5486346411c210390c8cc339061093a908590611161565b60405180910390a2505050565b6000805160206112c483398151915261095f81610ba3565b6105b6610d30565b6000918252602082815260408084206001600160a01b0393909316845291905290205460ff1690565b60008160038111156109a4576109a4611061565b6001600160a01b0384166000908152600260208190526040909120015460ff1660038111156109d5576109d5611061565b148015610a17575060026001600160a01b03841660009081526002602081905260409091200154610100900460ff166003811115610a1557610a15611061565b145b9392505050565b7f0ce23c3e399818cfee81a7ab0880f714e53d7672b08df0fa62f2843416e1ea09610a4881610ba3565b610a50610bad565b60016001600160a01b03831660009081526002602081905260409091200154610100900460ff166003811115610a8857610a88611061565b14610adf5760405162461bcd60e51b815260206004820152602160248201527f4964656e74697479206e6f742070656e64696e6720766572696669636174696f6044820152603760f91b606482015260840161038e565b6001600160a01b038216600081815260026020818152604092839020918201805461ff00191661020017905542600390920182905591519081527f201a5a9a3e3f6b0c73a6d63220a9d2ef703797c59033d36f0e63f2db8e32900791016103ec565b6001600160a01b03811660009081526002602081905260408220810154610100900460ff166003811115610b7757610b77611061565b1492915050565b600082815260208190526040902060010154610b9981610ba3565b61041d8383610c79565b6105b68133610d6b565b60015460ff1615610bf35760405162461bcd60e51b815260206004820152601060248201526f14185d5cd8589b194e881c185d5cd95960821b604482015260640161038e565b565b610bff8282610967565b610592576000828152602081815260408083206001600160a01b03851684529091529020805460ff19166001179055610c353390565b6001600160a01b0316816001600160a01b0316837f2f8788117e7eff1d82e926ec794901d17c78024a50270940304540a733656f0d60405160405180910390a45050565b610c838282610967565b15610592576000828152602081815260408083206001600160a01b0385168085529252808320805460ff1916905551339285917ff6391f5c32d9c69d2a47ea670b442974b53935d1edc7fd64eb21e047a839171b9190a45050565b610ce6610dc4565b6001805460ff191690557f5db9ee0a495bf2e6ff9c91a7834c1ba4fdd244a5e8aa4e537bd38aeae4b073aa335b6040516001600160a01b03909116815260200160405180910390a1565b610d38610bad565b6001805460ff1916811790557f62e78cea01bee320cd4e420270b5ea74000d11b0c9f74754ebdbfc544b05a25833610d13565b610d758282610967565b61059257610d8281610e0d565b610d8d836020610e1f565b604051602001610d9e929190611198565b60408051601f198184030181529082905262461bcd60e51b825261038e9160040161120d565b60015460ff16610bf35760405162461bcd60e51b815260206004820152601460248201527314185d5cd8589b194e881b9bdd081c185d5cd95960621b604482015260640161038e565b60606102ef6001600160a01b03831660145b60606000610e2e836002611256565b610e3990600261126d565b67ffffffffffffffff811115610e5157610e51611280565b6040519080825280601f01601f191660200182016040528015610e7b576020820181803683370190505b509050600360fc1b81600081518110610e9657610e96611296565b60200101906001600160f81b031916908160001a905350600f60fb1b81600181518110610ec557610ec5611296565b60200101906001600160f81b031916908160001a9053506000610ee9846002611256565b610ef490600161126d565b90505b6001811115610f6c576f181899199a1a9b1b9c1cb0b131b232b360811b85600f1660108110610f2857610f28611296565b1a60f81b828281518110610f3e57610f3e611296565b60200101906001600160f81b031916908160001a90535060049490941c93610f65816112ac565b9050610ef7565b508315610a175760405162461bcd60e51b815260206004820181905260248201527f537472696e67733a20686578206c656e67746820696e73756666696369656e74604482015260640161038e565b600060208284031215610fcd57600080fd5b81356001600160e01b031981168114610a1757600080fd5b80356001600160a01b0381168114610ffc57600080fd5b919050565b60006020828403121561101357600080fd5b610a1782610fe5565b60006020828403121561102e57600080fd5b5035919050565b6000806040838503121561104857600080fd5b8235915061105860208401610fe5565b90509250929050565b634e487b7160e01b600052602160045260246000fd5b600481106105b657634e487b7160e01b600052602160045260246000fd5b81516001600160a01b0316815260208083015190820152604082015160c08201906110bf81611077565b604083015260608301516110d281611077565b806060840152506080830151608083015260a083015160a083015292915050565b803560048110610ffc57600080fd5b60008060006060848603121561111757600080fd5b83359250611127602085016110f3565b9150604084013590509250925092565b6000806040838503121561114a57600080fd5b61115383610fe5565b9150611058602084016110f3565b6020810161116e83611077565b91905290565b60005b8381101561118f578181015183820152602001611177565b50506000910152565b7f416363657373436f6e74726f6c3a206163636f756e74200000000000000000008152600083516111d0816017850160208801611174565b7001034b99036b4b9b9b4b733903937b6329607d1b6017918401918201528351611201816028840160208801611174565b01602801949350505050565b602081526000825180602084015261122c816040850160208701611174565b601f01601f19169190910160400192915050565b634e487b7160e01b600052601160045260246000fd5b80820281158282048414176102ef576102ef611240565b808201808211156102ef576102ef611240565b634e487b7160e01b600052604160045260246000fd5b634e487b7160e01b600052603260045260246000fd5b6000816112bb576112bb611240565b50600019019056fea49807205ce4d355092ef5a8a18f56e8913cf4a201fbe287825b095693c21775a26469706673582212208582a1a8edf3bafe8b6c8e870f1ea59196683d1aad988e7e99e9422971ee472164736f6c63430008130033",
  "linkReferences": {},
  "deployedLinkReferences": {}
}