{
  "_format": "hh-sol-artifact-1",
  "contractName": "TimeLockedAccess",
  "sourceName": "contracts/utils/TimeLockedAccess.sol",
  "abi": [
    {
      "inputs": [],
      "stateMutability": "nonpayable",
      "type": "constructor"
    },
    {
      "anonymous": false,
      "inputs": [
        {
          "indexed": true,
          "internalType": "bytes32",
          "name": "grantId",
          "type": "bytes32"
        },
        {
          "indexed": true,
          "internalType": "address",
          "name": "grantee",
          "type": "address"
        },
        {
          "indexed": true,
          "internalType": "bytes32",
          "name": "resourceId",
          "type": "bytes32"
        },
        {
          "indexed": false,
          "internalType": "enum TimeLockedAccess.AccessType",
          "name": "accessType",
          "type": "uint8"
        },
        {
          "indexed": false,
          "internalType": "uint256",
          "name": "startTime",
          "type": "uint256"
        },
        {
          "indexed": false,
          "internalType": "uint256",
          "name": "endTime",
          "type": "uint256"
        }
      ],
      "name": "AccessGranted",
      "type": "event"
    },
    {
      "anonymous": false,
      "inputs": [
        {
          "indexed": true,
          "internalType": "bytes32",
          "name": "grantId",
          "type": "bytes32"
        },
        {
          "indexed": true,
          "internalType": "address",
          "name": "grantee",
          "type": "address"
        }
      ],
      "name": "AccessRevoked",
      "type": "event"
    },
    {
      "anonymous": false,
      "inputs": [
        {
          "indexed": true,
          "internalType": "address",
          "name": "user",
          "type": "address"
        },
        {
          "indexed": true,
          "internalType": "bytes32",
          "name": "resourceId",
          "type": "bytes32"
        },
        {
          "indexed": false,
          "internalType": "uint256",
          "name": "timestamp",
          "type": "uint256"
        }
      ],
      "name": "EmergencyAccessUsed",
      "type": "event"
    },
    {
      "anonymous": false,
      "inputs": [
        {
          "indexed": false,
          "internalType": "address",
          "name": "account",
          "type": "address"
        }
      ],
      "name": "Paused",
      "type": "event"
    },
    {
      "anonymous": false,
      "inputs": [
        {
          "indexed": true,
          "internalType": "bytes32",
          "name": "role",
          "type": "bytes32"
        },
        {
          "indexed": true,
          "internalType": "bytes32",
          "name": "previousAdminRole",
          "type": "bytes32"
        },
        {
          "indexed": true,
          "internalType": "bytes32",
          "name": "newAdminRole",
          "type": "bytes32"
        }
      ],
      "name": "RoleAdminChanged",
      "type": "event"
    },
    {
      "anonymous": false,
      "inputs": [
        {
          "indexed": true,
          "internalType": "bytes32",
          "name": "role",
          "type": "bytes32"
        },
        {
          "indexed": true,
          "internalType": "address",
          "name": "account",
          "type": "address"
        },
        {
          "indexed": true,
          "internalType": "address",
          "name": "sender",
          "type": "address"
        }
      ],
      "name": "RoleGranted",
      "type": "event"
    },
    {
      "anonymous": false,
      "inputs": [
        {
          "indexed": true,
          "internalType": "bytes32",
          "name": "role",
          "type": "bytes32"
        },
        {
          "indexed": true,
          "internalType": "address",
          "name": "account",
          "type": "address"
        },
        {
          "indexed": true,
          "internalType": "address",
          "name": "sender",
          "type": "address"
        }
      ],
      "name": "RoleRevoked",
      "type": "event"
    },
    {
      "anonymous": false,
      "inputs": [
        {
          "indexed": false,
          "internalType": "address",
          "name": "account",
          "type": "address"
        }
      ],
      "name": "Unpaused",
      "type": "event"
    },
    {
      "inputs": [],
      "name": "ADMIN_ROLE",
      "outputs": [
        {
          "internalType": "bytes32",
          "name": "",
          "type": "bytes32"
        }
      ],
      "stateMutability": "view",
      "type": "function"
    },
    {
      "inputs": [],
      "name": "DEFAULT_ADMIN_ROLE",
      "outputs": [
        {
          "internalType": "bytes32",
          "name": "",
          "type": "bytes32"
        }
      ],
      "stateMutability": "view",
      "type": "function"
    },
    {
      "inputs": [],
      "name": "GRANTOR_ROLE",
      "outputs": [
        {
          "internalType": "bytes32",
          "name": "",
          "type": "bytes32"
        }
      ],
      "stateMutability": "view",
      "type": "function"
    },
    {
      "inputs": [
        {
          "internalType": "bytes32",
          "name": "",
          "type": "bytes32"
        }
      ],
      "name": "accessGrants",
      "outputs": [
        {
          "internalType": "address",
          "name": "grantee",
          "type": "address"
        },
        {
          "internalType": "uint256",
          "name": "startTime",
          "type": "uint256"
        },
        {
          "internalType": "uint256",
          "name": "endTime",
          "type": "uint256"
        },
        {
          "internalType": "bytes32",
          "name": "resourceId",
          "type": "bytes32"
        },
        {
          "internalType": "enum TimeLockedAccess.AccessType",
          "name": "accessType",
          "type": "uint8"
        },
        {
          "internalType": "bool",
          "name": "isActive",
          "type": "bool"
        }
      ],
      "stateMutability": "view",
      "type": "function"
    },
    {
      "inputs": [
        {
          "internalType": "bytes32",
          "name": "_grantId",
          "type": "bytes32"
        },
        {
          "internalType": "uint256",
          "name": "_additionalDuration",
          "type": "uint256"
        }
      ],
      "name": "extendAccess",
      "outputs": [],
      "stateMutability": "nonpayable",
      "type": "function"
    },
    {
      "inputs": [
        {
          "internalType": "bytes32",
          "name": "role",
          "type": "bytes32"
        }
      ],
      "name": "getRoleAdmin",
      "outputs": [
        {
          "internalType": "bytes32",
          "name": "",
          "type": "bytes32"
        }
      ],
      "stateMutability": "view",
      "type": "function"
    },
    {
      "inputs": [
        {
          "internalType": "address",
          "name": "_user",
          "type": "address"
        }
      ],
      "name": "getUserGrants",
      "outputs": [
        {
          "components": [
            {
              "internalType": "address",
              "name": "grantee",
              "type": "address"
            },
            {
              "internalType": "uint256",
              "name": "startTime",
              "type": "uint256"
            },
            {
              "internalType": "uint256",
              "name": "endTime",
              "type": "uint256"
            },
            {
              "internalType": "bytes32",
              "name": "resourceId",
              "type": "bytes32"
            },
            {
              "internalType": "enum TimeLockedAccess.AccessType",
              "name": "accessType",
              "type": "uint8"
            },
            {
              "internalType": "bool",
              "name": "isActive",
              "type": "bool"
            }
          ],
          "internalType": "struct TimeLockedAccess.AccessGrant[]",
          "name": "",
          "type": "tuple[]"
        }
      ],
      "stateMutability": "view",
      "type": "function"
    },
    {
      "inputs": [
        {
          "internalType": "address",
          "name": "_grantee",
          "type": "address"
        },
        {
          "internalType": "bytes32",
          "name": "_resourceId",
          "type": "bytes32"
        },
        {
          "internalType": "enum TimeLockedAccess.AccessType",
          "name": "_accessType",
          "type": "uint8"
        },
        {
          "internalType": "uint256",
          "name": "_startTime",
          "type": "uint256"
        },
        {
          "internalType": "uint256",
          "name": "_duration",
          "type": "uint256"
        }
      ],
      "name": "grantAccess",
      "outputs": [
        {
          "internalType": "bytes32",
          "name": "",
          "type": "bytes32"
        }
      ],
      "stateMutability": "nonpayable",
      "type": "function"
    },
    {
      "inputs": [
        {
          "internalType": "bytes32",
          "name": "role",
          "type": "bytes32"
        },
        {
          "internalType": "address",
          "name": "account",
          "type": "address"
        }
      ],
      "name": "grantRole",
      "outputs": [],
      "stateMutability": "nonpayable",
      "type": "function"
    },
    {
      "inputs": [
        {
          "internalType": "address",
          "name": "_user",
          "type": "address"
        },
        {
          "internalType": "bytes32",
          "name": "_resourceId",
          "type": "bytes32"
        },
        {
          "internalType": "enum TimeLockedAccess.AccessType",
          "name": "_requiredAccess",
          "type": "uint8"
        }
      ],
      "name": "hasAccess",
      "outputs": [
        {
          "internalType": "bool",
          "name": "",
          "type": "bool"
        }
      ],
      "stateMutability": "view",
      "type": "function"
    },
    {
      "inputs": [
        {
          "internalType": "bytes32",
          "name": "role",
          "type": "bytes32"
        },
        {
          "internalType": "address",
          "name": "account",
          "type": "address"
        }
      ],
      "name": "hasRole",
      "outputs": [
        {
          "internalType": "bool",
          "name": "",
          "type": "bool"
        }
      ],
      "stateMutability": "view",
      "type": "function"
    },
    {
      "inputs": [],
      "name": "pause",
      "outputs": [],
      "stateMutability": "nonpayable",
      "type": "function"
    },
    {
      "inputs": [],
      "name": "paused",
      "outputs": [
        {
          "internalType": "bool",
          "name": "",
          "type": "bool"
        }
      ],
      "stateMutability": "view",
      "type": "function"
    },
    {
      "inputs": [
        {
          "internalType": "address",
          "name": "_user",
          "type": "address"
        },
        {
          "internalType": "bytes32",
          "name": "_resourceId",
          "type": "bytes32"
        }
      ],
      "name": "recordEmergencyAccess",
      "outputs": [],
      "stateMutability": "nonpayable",
      "type": "function"
    },
    {
      "inputs": [
        {
          "internalType": "bytes32",
          "name": "role",
          "type": "bytes32"
        },
        {
          "internalType": "address",
          "name": "account",
          "type": "address"
        }
      ],
      "name": "renounceRole",
      "outputs": [],
      "stateMutability": "nonpayable",
      "type": "function"
    },
    {
      "inputs": [
        {
          "internalType": "bytes32",
          "name": "",
          "type": "bytes32"
        },
        {
          "internalType": "address",
          "name": "",
          "type": "address"
        }
      ],
      "name": "resourceAccess",
      "outputs": [
        {
          "internalType": "bool",
          "name": "",
          "type": "bool"
        }
      ],
      "stateMutability": "view",
      "type": "function"
    },
    {
      "inputs": [
        {
          "internalType": "bytes32",
          "name": "_grantId",
          "type": "bytes32"
        }
      ],
      "name": "revokeAccess",
      "outputs": [],
      "stateMutability": "nonpayable",
      "type": "function"
    },
    {
      "inputs": [
        {
          "internalType": "bytes32",
          "name": "role",
          "type": "bytes32"
        },
        {
          "internalType": "address",
          "name": "account",
          "type": "address"
        }
      ],
      "name": "revokeRole",
      "outputs": [],
      "stateMutability": "nonpayable",
      "type": "function"
    },
    {
      "inputs": [
        {
          "internalType": "bytes4",
          "name": "interfaceId",
          "type": "bytes4"
        }
      ],
      "name": "supportsInterface",
      "outputs": [
        {
          "internalType": "bool",
          "name": "",
          "type": "bool"
        }
      ],
      "stateMutability": "view",
      "type": "function"
    },
    {
      "inputs": [],
      "name": "unpause",
      "outputs": [],
      "stateMutability": "nonpayable",
      "type": "function"
    },
    {
      "inputs": [
        {
          "internalType": "address",
          "name": "",
          "type": "address"
        },
        {
          "internalType": "uint256",
          "name": "",
          "type": "uint256"
        }
      ],
      "name": "userGrants",
      "outputs": [
        {
          "internalType": "bytes32",
          "name": "",
          "type": "bytes32"
        }
      ],
      "stateMutability": "view",
      "type": "function"
    }
  ],
  "bytecode": "0x608060405234801561001057600080fd5b506001805460ff1916905561002660003361007f565b6100507fa49807205ce4d355092ef5a8a18f56e8913cf4a201fbe287825b095693c217753361007f565b61007a7fd10feaa7fea55567e367a112bc53907318a50949442dfc0570945570c5af57cf3361007f565b61011e565b6000828152602081815260408083206001600160a01b038516845290915290205460ff1661011a576000828152602081815260408083206001600160a01b03851684529091529020805460ff191660011790556100d93390565b6001600160a01b0316816001600160a01b0316837f2f8788117e7eff1d82e926ec794901d17c78024a50270940304540a733656f0d60405160405180910390a45b5050565b6116fe806200012e6000396000f3fe608060405234801561001057600080fd5b50600436106101375760003560e01c806375b238fc116100b8578063afdb7caf1161007c578063afdb7caf146102a1578063b1263ada146102b4578063d547741f146102c7578063e15fb83f146102da578063ec0e3484146102ef578063fce74aea1461030257600080fd5b806375b238fc1461022957806380b118b0146102505780638456cb591461027e57806391d1485414610286578063a217fddf1461029957600080fd5b806332f82b7b116100ff57806332f82b7b146101dd57806336568abe146101f05780633f4ba83a146102035780635c975abb1461020b57806369a2be0b1461021657600080fd5b806301ffc9a71461013c5780630c06628c14610164578063248a9ca31461018457806324ea5704146101b55780632f2ff15d146101c8575b600080fd5b61014f61014a36600461128c565b610367565b60405190151581526020015b60405180910390f35b6101776101723660046112d2565b61039e565b60405161015b9190611325565b6101a76101923660046113b2565b60009081526020819052604090206001015490565b60405190815260200161015b565b61014f6101c33660046113da565b6105cc565b6101db6101d6366004611416565b61071e565b005b6101a76101eb366004611442565b610748565b6101db6101fe366004611416565b610a43565b6101db610ac1565b60015460ff1661014f565b6101db610224366004611490565b610af6565b6101a77fa49807205ce4d355092ef5a8a18f56e8913cf4a201fbe287825b095693c2177581565b61014f61025e366004611416565b600460209081526000928352604080842090915290825290205460ff1681565b6101db610c81565b61014f610294366004611416565b610cb3565b6101a7600081565b6101a76102af3660046114b2565b610cdc565b6101db6102c23660046113b2565b610d0d565b6101db6102d5366004611416565b610dee565b6101a76000805160206116a983398151915281565b6101db6102fd3660046114b2565b610e13565b6103556103103660046113b2565b6002602081905260009182526040909120805460018201549282015460038301546004909301546001600160a01b039092169392909160ff8082169161010090041686565b60405161015b969594939291906114dc565b60006001600160e01b03198216637965db0b60e01b148061039857506301ffc9a760e01b6001600160e01b03198316145b92915050565b6001600160a01b0381166000908152600360205260408120606091805b825481101561042957600260008483815481106103da576103da611521565b9060005260206000200154815260200190815260200160002060040160019054906101000a900460ff161561041757816104138161154d565b9250505b806104218161154d565b9150506103bb565b5060008167ffffffffffffffff81111561044557610445611566565b6040519080825280602002602001820160405280156104a557816020015b6040805160c08101825260008082526020808301829052928201819052606082018190526080820181905260a082015282526000199092019101816104635790505b5090506000805b84548110156105c1576000600260008784815481106104cd576104cd611521565b9060005260206000200154815260200190815260200160002090508060040160019054906101000a900460ff16156105ae576040805160c08101825282546001600160a01b0316815260018301546020820152600283015491810191909152600380830154606083015260048301548391608084019160ff1690811115610556576105566112ed565b6003811115610567576105676112ed565b815260049190910154610100900460ff161515602090910152845185908590811061059457610594611521565b602002602001018190525082806105aa9061154d565b9350505b50806105b98161154d565b9150506104ac565b509095945050505050565b60008281526004602090815260408083206001600160a01b038716845290915281205460ff166105fe57506000610717565b6001600160a01b0384166000908152600360205260408120905b81548110156107105760006002600084848154811061063957610639611521565b9060005260206000200154815260200190815260200160002090508060040160019054906101000a900460ff1680156106755750858160030154145b8015610685575080600101544210155b8015610695575080600201544211155b80156106ec57506003600482015460ff1660038111156106b7576106b76112ed565b14806106ec57508460038111156106d0576106d06112ed565b600482015460ff1660038111156106e9576106e96112ed565b10155b156106fd5760019350505050610717565b50806107088161154d565b915050610618565b5060009150505b9392505050565b60008281526020819052604090206001015461073981610e74565b6107438383610e7e565b505050565b60006000805160206116a983398151915261076281610e74565b61076a610f02565b6001600160a01b0387166107c55760405162461bcd60e51b815260206004820152601760248201527f496e76616c6964206772616e746565206164647265737300000000000000000060448201526064015b60405180910390fd5b428410156108155760405162461bcd60e51b815260206004820152601c60248201527f53746172742074696d65206d75737420626520696e206675747572650000000060448201526064016107bc565b600083116108615760405162461bcd60e51b81526020600482015260196024820152784475726174696f6e206d75737420626520706f73697469766560381b60448201526064016107bc565b6040516bffffffffffffffffffffffff19606089901b1660208201526034810187905260548101859052426074820152600090609401604051602081830303815290604052805190602001209050600084866108bd919061157c565b905060006040518060c001604052808b6001600160a01b031681526020018881526020018381526020018a81526020018960038111156108ff576108ff6112ed565b81526001602091820181905260008681526002808452604091829020855181546001600160a01b0319166001600160a01b03909116178155938501518484015590840151908301556060830151600380840191909155608084015160048401805495965086959193909260ff19909216918490811115610981576109816112ed565b021790555060a09190910151600491820180549115156101000261ff00199092169190911790556001600160a01b038b166000818152600360209081526040808320805460018181018355918552838520018990558e845294825280832084845290915290819020805460ff191690931790925590518a919085907f07ab6b174d2de4d8e6ea68d4dad3fdd727863efd43b7ff35953b1f1351ef323f90610a2d908d908d90899061158f565b60405180910390a4509098975050505050505050565b6001600160a01b0381163314610ab35760405162461bcd60e51b815260206004820152602f60248201527f416363657373436f6e74726f6c3a2063616e206f6e6c792072656e6f756e636560448201526e103937b632b9903337b91039b2b63360891b60648201526084016107bc565b610abd8282610f4a565b5050565b7fa49807205ce4d355092ef5a8a18f56e8913cf4a201fbe287825b095693c21775610aeb81610e74565b610af3610faf565b50565b6000805160206116a9833981519152610b0e81610e74565b610b16610f02565b60008211610b625760405162461bcd60e51b81526020600482015260196024820152784475726174696f6e206d75737420626520706f73697469766560381b60448201526064016107bc565b60008381526002602052604090206004810154610100900460ff16610bbc5760405162461bcd60e51b815260206004820152601060248201526f4772616e74206e6f742061637469766560801b60448201526064016107bc565b42816002015411610bff5760405162461bcd60e51b815260206004820152600d60248201526c11dc985b9d08195e1c1a5c9959609a1b60448201526064016107bc565b82816002016000828254610c13919061157c565b9091555050600381015481546004830154600184015460028501546040516001600160a01b039094169389937f07ab6b174d2de4d8e6ea68d4dad3fdd727863efd43b7ff35953b1f1351ef323f93610c739360ff9092169290919061158f565b60405180910390a450505050565b7fa49807205ce4d355092ef5a8a18f56e8913cf4a201fbe287825b095693c21775610cab81610e74565b610af3611001565b6000918252602082815260408084206001600160a01b0393909316845291905290205460ff1690565b60036020528160005260406000208181548110610cf857600080fd5b90600052602060002001600091509150505481565b6000805160206116a9833981519152610d2581610e74565b60008281526002602052604090206004810154610100900460ff16610d7f5760405162461bcd60e51b815260206004820152601060248201526f4772616e74206e6f742061637469766560801b60448201526064016107bc565b6004808201805461ff0019169055600382015460009081526020918252604080822084546001600160a01b0390811684529352808220805460ff191690558354905192169185917fe7906b77ea165c70ad8268ce5b59b778a198edf9c1ae4118378eefdc76fce5f491a3505050565b600082815260208190526040902060010154610e0981610e74565b6107438383610f4a565b6000805160206116a9833981519152610e2b81610e74565b81836001600160a01b03167f446ca5bb3b585b66f683398b48061c224873ed39570c9bd2e69d56e3809bb3dc42604051610e6791815260200190565b60405180910390a3505050565b610af3813361103c565b610e888282610cb3565b610abd576000828152602081815260408083206001600160a01b03851684529091529020805460ff19166001179055610ebe3390565b6001600160a01b0316816001600160a01b0316837f2f8788117e7eff1d82e926ec794901d17c78024a50270940304540a733656f0d60405160405180910390a45050565b60015460ff1615610f485760405162461bcd60e51b815260206004820152601060248201526f14185d5cd8589b194e881c185d5cd95960821b60448201526064016107bc565b565b610f548282610cb3565b15610abd576000828152602081815260408083206001600160a01b0385168085529252808320805460ff1916905551339285917ff6391f5c32d9c69d2a47ea670b442974b53935d1edc7fd64eb21e047a839171b9190a45050565b610fb7611095565b6001805460ff191690557f5db9ee0a495bf2e6ff9c91a7834c1ba4fdd244a5e8aa4e537bd38aeae4b073aa335b6040516001600160a01b03909116815260200160405180910390a1565b611009610f02565b6001805460ff1916811790557f62e78cea01bee320cd4e420270b5ea74000d11b0c9f74754ebdbfc544b05a25833610fe4565b6110468282610cb3565b610abd57611053816110de565b61105e8360206110f0565b60405160200161106f9291906115d2565b60408051601f198184030181529082905262461bcd60e51b82526107bc91600401611647565b60015460ff16610f485760405162461bcd60e51b815260206004820152601460248201527314185d5cd8589b194e881b9bdd081c185d5cd95960621b60448201526064016107bc565b60606103986001600160a01b03831660145b606060006110ff83600261167a565b61110a90600261157c565b67ffffffffffffffff81111561112257611122611566565b6040519080825280601f01601f19166020018201604052801561114c576020820181803683370190505b509050600360fc1b8160008151811061116757611167611521565b60200101906001600160f81b031916908160001a905350600f60fb1b8160018151811061119657611196611521565b60200101906001600160f81b031916908160001a90535060006111ba84600261167a565b6111c590600161157c565b90505b600181111561123d576f181899199a1a9b1b9c1cb0b131b232b360811b85600f16601081106111f9576111f9611521565b1a60f81b82828151811061120f5761120f611521565b60200101906001600160f81b031916908160001a90535060049490941c9361123681611691565b90506111c8565b5083156107175760405162461bcd60e51b815260206004820181905260248201527f537472696e67733a20686578206c656e67746820696e73756666696369656e7460448201526064016107bc565b60006020828403121561129e57600080fd5b81356001600160e01b03198116811461071757600080fd5b80356001600160a01b03811681146112cd57600080fd5b919050565b6000602082840312156112e457600080fd5b610717826112b6565b634e487b7160e01b600052602160045260246000fd5b6004811061132157634e487b7160e01b600052602160045260246000fd5b9052565b602080825282518282018190526000919060409081850190868401855b828110156113a557815180516001600160a01b03168552868101518786015285810151868601526060808201519086015260808082015161138582880182611303565b505060a09081015115159085015260c09093019290850190600101611342565b5091979650505050505050565b6000602082840312156113c457600080fd5b5035919050565b8035600481106112cd57600080fd5b6000806000606084860312156113ef57600080fd5b6113f8846112b6565b92506020840135915061140d604085016113cb565b90509250925092565b6000806040838503121561142957600080fd5b82359150611439602084016112b6565b90509250929050565b600080600080600060a0868803121561145a57600080fd5b611463866112b6565b945060208601359350611478604087016113cb565b94979396509394606081013594506080013592915050565b600080604083850312156114a357600080fd5b50508035926020909101359150565b600080604083850312156114c557600080fd5b6114ce836112b6565b946020939093013593505050565b6001600160a01b038716815260208101869052604081018590526060810184905260c0810161150e6080830185611303565b82151560a0830152979650505050505050565b634e487b7160e01b600052603260045260246000fd5b634e487b7160e01b600052601160045260246000fd5b60006001820161155f5761155f611537565b5060010190565b634e487b7160e01b600052604160045260246000fd5b8082018082111561039857610398611537565b6060810161159d8286611303565b602082019390935260400152919050565b60005b838110156115c95781810151838201526020016115b1565b50506000910152565b7f416363657373436f6e74726f6c3a206163636f756e742000000000000000000081526000835161160a8160178501602088016115ae565b7001034b99036b4b9b9b4b733903937b6329607d1b601791840191820152835161163b8160288401602088016115ae565b01602801949350505050565b60208152600082518060208401526116668160408501602087016115ae565b601f01601f19169190910160400192915050565b808202811582820484141761039857610398611537565b6000816116a0576116a0611537565b50600019019056fed10feaa7fea55567e367a112bc53907318a50949442dfc0570945570c5af57cfa26469706673582212209298f1a83c795f274559a8c66120da6ad78f38833b8648941802da7ac3b831f664736f6c63430008130033",
  "linkReferences": {},
  "deployedLinkReferences": {}
}