{
  "_format": "hh-sol-artifact-1",
  "contractName": "StorageProof",
  "sourceName": "contracts/storage/StorageProof.sol",
  "abi": [
    {
      "inputs": [],
      "stateMutability": "nonpayable",
      "type": "constructor"
    },
    {
      "anonymous": false,
      "inputs": [
        {
          "indexed": true,
          "internalType": "bytes32",
          "name": "contentId",
          "type": "bytes32"
        },
        {
          "indexed": false,
          "internalType": "bool",
          "name": "success",
          "type": "bool"
        }
      ],
      "name": "ChallengeCompleted",
      "type": "event"
    },
    {
      "anonymous": false,
      "inputs": [
        {
          "indexed": true,
          "internalType": "bytes32",
          "name": "contentId",
          "type": "bytes32"
        },
        {
          "indexed": false,
          "internalType": "uint256",
          "name": "timestamp",
          "type": "uint256"
        },
        {
          "indexed": false,
          "internalType": "uint256",
          "name": "expiryTime",
          "type": "uint256"
        }
      ],
      "name": "ChallengeIssued",
      "type": "event"
    },
    {
      "anonymous": false,
      "inputs": [
        {
          "indexed": false,
          "internalType": "address",
          "name": "account",
          "type": "address"
        }
      ],
      "name": "Paused",
      "type": "event"
    },
    {
      "anonymous": false,
      "inputs": [
        {
          "indexed": true,
          "internalType": "bytes32",
          "name": "contentId",
          "type": "bytes32"
        },
        {
          "indexed": true,
          "internalType": "address",
          "name": "prover",
          "type": "address"
        },
        {
          "indexed": false,
          "internalType": "bytes32",
          "name": "contentHash",
          "type": "bytes32"
        }
      ],
      "name": "ProofSubmitted",
      "type": "event"
    },
    {
      "anonymous": false,
      "inputs": [
        {
          "indexed": true,
          "internalType": "bytes32",
          "name": "role",
          "type": "bytes32"
        },
        {
          "indexed": true,
          "internalType": "bytes32",
          "name": "previousAdminRole",
          "type": "bytes32"
        },
        {
          "indexed": true,
          "internalType": "bytes32",
          "name": "newAdminRole",
          "type": "bytes32"
        }
      ],
      "name": "RoleAdminChanged",
      "type": "event"
    },
    {
      "anonymous": false,
      "inputs": [
        {
          "indexed": true,
          "internalType": "bytes32",
          "name": "role",
          "type": "bytes32"
        },
        {
          "indexed": true,
          "internalType": "address",
          "name": "account",
          "type": "address"
        },
        {
          "indexed": true,
          "internalType": "address",
          "name": "sender",
          "type": "address"
        }
      ],
      "name": "RoleGranted",
      "type": "event"
    },
    {
      "anonymous": false,
      "inputs": [
        {
          "indexed": true,
          "internalType": "bytes32",
          "name": "role",
          "type": "bytes32"
        },
        {
          "indexed": true,
          "internalType": "address",
          "name": "account",
          "type": "address"
        },
        {
          "indexed": true,
          "internalType": "address",
          "name": "sender",
          "type": "address"
        }
      ],
      "name": "RoleRevoked",
      "type": "event"
    },
    {
      "anonymous": false,
      "inputs": [
        {
          "indexed": false,
          "internalType": "address",
          "name": "account",
          "type": "address"
        }
      ],
      "name": "Unpaused",
      "type": "event"
    },
    {
      "inputs": [],
      "name": "ADMIN_ROLE",
      "outputs": [
        {
          "internalType": "bytes32",
          "name": "",
          "type": "bytes32"
        }
      ],
      "stateMutability": "view",
      "type": "function"
    },
    {
      "inputs": [],
      "name": "CHALLENGE_DURATION",
      "outputs": [
        {
          "internalType": "uint256",
          "name": "",
          "type": "uint256"
        }
      ],
      "stateMutability": "view",
      "type": "function"
    },
    {
      "inputs": [],
      "name": "DEFAULT_ADMIN_ROLE",
      "outputs": [
        {
          "internalType": "bytes32",
          "name": "",
          "type": "bytes32"
        }
      ],
      "stateMutability": "view",
      "type": "function"
    },
    {
      "inputs": [],
      "name": "MAX_PROOF_AGE",
      "outputs": [
        {
          "internalType": "uint256",
          "name": "",
          "type": "uint256"
        }
      ],
      "stateMutability": "view",
      "type": "function"
    },
    {
      "inputs": [],
      "name": "MIN_PROOFS_REQUIRED",
      "outputs": [
        {
          "internalType": "uint256",
          "name": "",
          "type": "uint256"
        }
      ],
      "stateMutability": "view",
      "type": "function"
    },
    {
      "inputs": [],
      "name": "PROVER_ROLE",
      "outputs": [
        {
          "internalType": "bytes32",
          "name": "",
          "type": "bytes32"
        }
      ],
      "stateMutability": "view",
      "type": "function"
    },
    {
      "inputs": [
        {
          "internalType": "bytes32",
          "name": "",
          "type": "bytes32"
        }
      ],
      "name": "challenges",
      "outputs": [
        {
          "internalType": "bytes32",
          "name": "contentId",
          "type": "bytes32"
        },
        {
          "internalType": "uint256",
          "name": "timestamp",
          "type": "uint256"
        },
        {
          "internalType": "uint256",
          "name": "expiryTime",
          "type": "uint256"
        },
        {
          "internalType": "bool",
          "name": "completed",
          "type": "bool"
        }
      ],
      "stateMutability": "view",
      "type": "function"
    },
    {
      "inputs": [
        {
          "internalType": "bytes32",
          "name": "_contentId",
          "type": "bytes32"
        }
      ],
      "name": "getChallenge",
      "outputs": [
        {
          "components": [
            {
              "internalType": "bytes32",
              "name": "contentId",
              "type": "bytes32"
            },
            {
              "internalType": "uint256",
              "name": "timestamp",
              "type": "uint256"
            },
            {
              "internalType": "uint256",
              "name": "expiryTime",
              "type": "uint256"
            },
            {
              "internalType": "bool",
              "name": "completed",
              "type": "bool"
            }
          ],
          "internalType": "struct StorageProof.Challenge",
          "name": "",
          "type": "tuple"
        }
      ],
      "stateMutability": "view",
      "type": "function"
    },
    {
      "inputs": [
        {
          "internalType": "bytes32",
          "name": "_contentId",
          "type": "bytes32"
        }
      ],
      "name": "getProofs",
      "outputs": [
        {
          "components": [
            {
              "internalType": "bytes32",
              "name": "contentHash",
              "type": "bytes32"
            },
            {
              "internalType": "uint256",
              "name": "timestamp",
              "type": "uint256"
            },
            {
              "internalType": "address",
              "name": "prover",
              "type": "address"
            },
            {
              "internalType": "bytes",
              "name": "signature",
              "type": "bytes"
            },
            {
              "internalType": "bool",
              "name": "isValid",
              "type": "bool"
            }
          ],
          "internalType": "struct StorageProof.Proof[]",
          "name": "",
          "type": "tuple[]"
        }
      ],
      "stateMutability": "view",
      "type": "function"
    },
    {
      "inputs": [
        {
          "internalType": "address",
          "name": "_prover",
          "type": "address"
        }
      ],
      "name": "getProverReputation",
      "outputs": [
        {
          "internalType": "uint256",
          "name": "",
          "type": "uint256"
        }
      ],
      "stateMutability": "view",
      "type": "function"
    },
    {
      "inputs": [
        {
          "internalType": "bytes32",
          "name": "role",
          "type": "bytes32"
        }
      ],
      "name": "getRoleAdmin",
      "outputs": [
        {
          "internalType": "bytes32",
          "name": "",
          "type": "bytes32"
        }
      ],
      "stateMutability": "view",
      "type": "function"
    },
    {
      "inputs": [
        {
          "internalType": "bytes32",
          "name": "role",
          "type": "bytes32"
        },
        {
          "internalType": "address",
          "name": "account",
          "type": "address"
        }
      ],
      "name": "grantRole",
      "outputs": [],
      "stateMutability": "nonpayable",
      "type": "function"
    },
    {
      "inputs": [
        {
          "internalType": "bytes32",
          "name": "role",
          "type": "bytes32"
        },
        {
          "internalType": "address",
          "name": "account",
          "type": "address"
        }
      ],
      "name": "hasRole",
      "outputs": [
        {
          "internalType": "bool",
          "name": "",
          "type": "bool"
        }
      ],
      "stateMutability": "view",
      "type": "function"
    },
    {
      "inputs": [
        {
          "internalType": "bytes32",
          "name": "_contentId",
          "type": "bytes32"
        }
      ],
      "name": "issueChallenge",
      "outputs": [],
      "stateMutability": "nonpayable",
      "type": "function"
    },
    {
      "inputs": [],
      "name": "pause",
      "outputs": [],
      "stateMutability": "nonpayable",
      "type": "function"
    },
    {
      "inputs": [],
      "name": "paused",
      "outputs": [
        {
          "internalType": "bool",
          "name": "",
          "type": "bool"
        }
      ],
      "stateMutability": "view",
      "type": "function"
    },
    {
      "inputs": [
        {
          "internalType": "bytes32",
          "name": "",
          "type": "bytes32"
        },
        {
          "internalType": "uint256",
          "name": "",
          "type": "uint256"
        }
      ],
      "name": "proofs",
      "outputs": [
        {
          "internalType": "bytes32",
          "name": "contentHash",
          "type": "bytes32"
        },
        {
          "internalType": "uint256",
          "name": "timestamp",
          "type": "uint256"
        },
        {
          "internalType": "address",
          "name": "prover",
          "type": "address"
        },
        {
          "internalType": "bytes",
          "name": "signature",
          "type": "bytes"
        },
        {
          "internalType": "bool",
          "name": "isValid",
          "type": "bool"
        }
      ],
      "stateMutability": "view",
      "type": "function"
    },
    {
      "inputs": [
        {
          "internalType": "address",
          "name": "",
          "type": "address"
        }
      ],
      "name": "proverReputations",
      "outputs": [
        {
          "internalType": "uint256",
          "name": "",
          "type": "uint256"
        }
      ],
      "stateMutability": "view",
      "type": "function"
    },
    {
      "inputs": [
        {
          "internalType": "bytes32",
          "name": "role",
          "type": "bytes32"
        },
        {
          "internalType": "address",
          "name": "account",
          "type": "address"
        }
      ],
      "name": "renounceRole",
      "outputs": [],
      "stateMutability": "nonpayable",
      "type": "function"
    },
    {
      "inputs": [
        {
          "internalType": "bytes32",
          "name": "role",
          "type": "bytes32"
        },
        {
          "internalType": "address",
          "name": "account",
          "type": "address"
        }
      ],
      "name": "revokeRole",
      "outputs": [],
      "stateMutability": "nonpayable",
      "type": "function"
    },
    {
      "inputs": [
        {
          "internalType": "bytes32",
          "name": "_contentId",
          "type": "bytes32"
        },
        {
          "internalType": "bytes32",
          "name": "_contentHash",
          "type": "bytes32"
        },
        {
          "internalType": "bytes",
          "name": "_signature",
          "type": "bytes"
        }
      ],
      "name": "submitProof",
      "outputs": [],
      "stateMutability": "nonpayable",
      "type": "function"
    },
    {
      "inputs": [
        {
          "internalType": "bytes4",
          "name": "interfaceId",
          "type": "bytes4"
        }
      ],
      "name": "supportsInterface",
      "outputs": [
        {
          "internalType": "bool",
          "name": "",
          "type": "bool"
        }
      ],
      "stateMutability": "view",
      "type": "function"
    },
    {
      "inputs": [],
      "name": "unpause",
      "outputs": [],
      "stateMutability": "nonpayable",
      "type": "function"
    }
  ],
  "bytecode": "0x60806040523480156200001157600080fd5b506001805460ff19169055620000296000336200005b565b620000557fa49807205ce4d355092ef5a8a18f56e8913cf4a201fbe287825b095693c21775336200005b565b620000fc565b6000828152602081815260408083206001600160a01b038516845290915290205460ff16620000f8576000828152602081815260408083206001600160a01b03851684529091529020805460ff19166001179055620000b73390565b6001600160a01b0316816001600160a01b0316837f2f8788117e7eff1d82e926ec794901d17c78024a50270940304540a733656f0d60405160405180910390a45b5050565b611dc7806200010c6000396000f3fe608060405234801561001057600080fd5b506004361061014d5760003560e01c80635c975abb116100c3578063a1666e6d1161007c578063a1666e6d14610378578063a217fddf1461038b578063c1e69b6614610393578063d547741f146103ef578063dc9a4ef614610402578063f3fb66b21461042957600080fd5b80635c975abb1461031357806367ab845b1461031e57806375b238fc146103285780637fb585371461033d5780638456cb591461035d57806391d148541461036557600080fd5b80632f2ff15d116101155780632f2ff15d1461021857806336568abe1461022d5780633f4ba83a14610240578063458d2bf11461024857806352e0716a146102f65780635bb396941461030957600080fd5b806301ffc9a71461015257806311f43c511461017a578063165cf38e146101a85780632093c15b146101d1578063248a9ca3146101f5575b600080fd5b610165610160366004611871565b610431565b60405190151581526020015b60405180910390f35b61019a6101883660046118b7565b60046020526000908152604090205481565b604051908152602001610171565b61019a6101b63660046118b7565b6001600160a01b031660009081526004602052604090205490565b6101e46101df3660046118d2565b610468565b604051610171959493929190611944565b61019a610203366004611985565b60009081526020819052604090206001015490565b61022b61022636600461199e565b61054c565b005b61022b61023b36600461199e565b610576565b61022b6105f9565b6102c1610256366004611985565b6040805160808101825260008082526020820181905291810182905260608101919091525060009081526003602081815260409283902083516080810185528154815260018201549281019290925260028101549382019390935291015460ff161515606082015290565b604051610171919081518152602080830151908201526040808301519082015260609182015115159181019190915260800190565b61022b6103043660046119ca565b61061c565b61019a62278d0081565b60015460ff16610165565b61019a6201518081565b61019a600080516020611d7283398151915281565b61035061034b366004611985565b6109a1565b6040516101719190611a4a565b61022b610ae2565b61016561037336600461199e565b610b02565b61022b610386366004611985565b610b2b565b61019a600081565b6103cd6103a1366004611985565b600360208190526000918252604090912080546001820154600283015492909301549092919060ff1684565b6040805194855260208501939093529183015215156060820152608001610171565b61022b6103fd36600461199e565b610c86565b61019a7f60044782a422109ac08a415e44260ad5d3bad63d96ebe1fac0363399642ee3f281565b61019a600381565b60006001600160e01b03198216637965db0b60e01b148061046257506301ffc9a760e01b6001600160e01b03198316145b92915050565b6002602052816000526040600020818154811061048457600080fd5b600091825260209091206005909102018054600182015460028301546003840180549396509194506001600160a01b031692916104c090611aef565b80601f01602080910402602001604051908101604052809291908181526020018280546104ec90611aef565b80156105395780601f1061050e57610100808354040283529160200191610539565b820191906000526020600020905b81548152906001019060200180831161051c57829003601f168201915b5050506004909301549192505060ff1685565b60008281526020819052604090206001015461056781610cab565b6105718383610cb5565b505050565b6001600160a01b03811633146105eb5760405162461bcd60e51b815260206004820152602f60248201527f416363657373436f6e74726f6c3a2063616e206f6e6c792072656e6f756e636560448201526e103937b632b9903337b91039b2b63360891b60648201526084015b60405180910390fd5b6105f58282610d39565b5050565b600080516020611d7283398151915261061181610cab565b610619610d9e565b50565b7f60044782a422109ac08a415e44260ad5d3bad63d96ebe1fac0363399642ee3f261064681610cab565b61064e610df0565b60008581526003602052604090205485146106a15760405162461bcd60e51b81526020600482015260136024820152724e6f20616374697665206368616c6c656e676560681b60448201526064016105e2565b6000858152600360208190526040909120015460ff16156107045760405162461bcd60e51b815260206004820152601b60248201527f4368616c6c656e676520616c726561647920636f6d706c65746564000000000060448201526064016105e2565b6000858152600360205260409020600201544211156107595760405162461bcd60e51b815260206004820152601160248201527010da185b1b195b99d948195e1c1a5c9959607a1b60448201526064016105e2565b604080516020810187905290810185905242606082015260009060800160405160208183030381529060405280519060200120905060006107db85858080601f0160208091040260200160405190810160405280939291908181526020018383808284376000920191909152506107d59250869150610e389050565b90610e6b565b90506001600160a01b03811633146108295760405162461bcd60e51b8152602060048201526011602482015270496e76616c6964207369676e617475726560781b60448201526064016105e2565b60006040518060a00160405280888152602001428152602001336001600160a01b0316815260200187878080601f01602080910402602001604051908101604052809392919081815260200183838082843760009201829052509385525050600160209384018190528c8352600280855260408085208054808501825590865294869020875160059096020194855594860151918401919091559284015192820180546001600160a01b0319166001600160a01b03909416939093179092556060830151929350839290915060038201906109049082611b8d565b50608091909101516004918201805460ff19169115159190911790553360009081526020919091526040812080549161093c83611c63565b9091555050604051878152339089907feb2780adf2acf16ef7057c790f43119785597f54a968faa605e11b7b7126862b9060200160405180910390a36000888152600260205260409020546003116109975761099788610e8f565b5050505050505050565b606060026000838152602001908152602001600020805480602002602001604051908101604052809291908181526020016000905b82821015610ad75760008481526020908190206040805160a081018252600586029092018054835260018101549383019390935260028301546001600160a01b031690820152600382018054919291606084019190610a3490611aef565b80601f0160208091040260200160405190810160405280929190818152602001828054610a6090611aef565b8015610aad5780601f10610a8257610100808354040283529160200191610aad565b820191906000526020600020905b815481529060010190602001808311610a9057829003601f168201915b50505091835250506004919091015460ff16151560209182015290825260019290920191016109d6565b505050509050919050565b600080516020611d72833981519152610afa81610cab565b610619610f55565b6000918252602082815260408084206001600160a01b0393909316845291905290205460ff1690565b600080516020611d72833981519152610b4381610cab565b610b4b610df0565b6000828152600360205260409020541580610b7857506000828152600360208190526040909120015460ff165b80610b93575060008281526003602052604090206002015442115b610bdf5760405162461bcd60e51b815260206004820152601760248201527f416374697665206368616c6c656e67652065786973747300000000000000000060448201526064016105e2565b6000610bee6201518042611c7c565b604080516080810182528581524260208083018281528385018681526000606086018181528b825260038086529188902096518755925160018701559051600286015590519301805460ff191693151593909317909255825190815290810183905291925084917f259d028048dbd60e53a762242cdb03f53c5db4908aa6671347b3fe0bd37de2c591015b60405180910390a2505050565b600082815260208190526040902060010154610ca181610cab565b6105718383610d39565b6106198133610f90565b610cbf8282610b02565b6105f5576000828152602081815260408083206001600160a01b03851684529091529020805460ff19166001179055610cf53390565b6001600160a01b0316816001600160a01b0316837f2f8788117e7eff1d82e926ec794901d17c78024a50270940304540a733656f0d60405160405180910390a45050565b610d438282610b02565b156105f5576000828152602081815260408083206001600160a01b0385168085529252808320805460ff1916905551339285917ff6391f5c32d9c69d2a47ea670b442974b53935d1edc7fd64eb21e047a839171b9190a45050565b610da6610fe9565b6001805460ff191690557f5db9ee0a495bf2e6ff9c91a7834c1ba4fdd244a5e8aa4e537bd38aeae4b073aa335b6040516001600160a01b03909116815260200160405180910390a1565b60015460ff1615610e365760405162461bcd60e51b815260206004820152601060248201526f14185d5cd8589b194e881c185d5cd95960821b60448201526064016105e2565b565b7f19457468657265756d205369676e6564204d6573736167653a0a3332000000006000908152601c91909152603c902090565b6000806000610e7a8585611032565b91509150610e8781611077565b509392505050565b60008181526002602052604090205460031115610ee45760405162461bcd60e51b8152602060048201526013602482015272496e73756666696369656e742070726f6f667360681b60448201526064016105e2565b6000610eef826111c1565b600083815260036020819052604090912001805460ff1916600117905590508015801590610f2157610f21838361150c565b827f8998813f9e18d58d458ecec31ed23dad9836f965c44fe175affc682b0686c70982604051610c79911515815260200190565b610f5d610df0565b6001805460ff1916811790557f62e78cea01bee320cd4e420270b5ea74000d11b0c9f74754ebdbfc544b05a25833610dd3565b610f9a8282610b02565b6105f557610fa7816115f8565b610fb283602061160a565b604051602001610fc3929190611c8f565b60408051601f198184030181529082905262461bcd60e51b82526105e291600401611d04565b60015460ff16610e365760405162461bcd60e51b815260206004820152601460248201527314185d5cd8589b194e881b9bdd081c185d5cd95960621b60448201526064016105e2565b60008082516041036110685760208301516040840151606085015160001a61105c878285856117ad565b94509450505050611070565b506000905060025b9250929050565b600081600481111561108b5761108b611d17565b036110935750565b60018160048111156110a7576110a7611d17565b036110f45760405162461bcd60e51b815260206004820152601860248201527f45434453413a20696e76616c6964207369676e6174757265000000000000000060448201526064016105e2565b600281600481111561110857611108611d17565b036111555760405162461bcd60e51b815260206004820152601f60248201527f45434453413a20696e76616c6964207369676e6174757265206c656e6774680060448201526064016105e2565b600381600481111561116957611169611d17565b036106195760405162461bcd60e51b815260206004820152602260248201527f45434453413a20696e76616c6964207369676e6174757265202773272076616c604482015261756560f01b60648201526084016105e2565b600081815260026020908152604080832080548251818502810185019093528083528493849084015b828210156112eb5760008481526020908190206040805160a081018252600586029092018054835260018101549383019390935260028301546001600160a01b03169082015260038201805491929160608401919061124890611aef565b80601f016020809104026020016040519081016040528092919081815260200182805461127490611aef565b80156112c15780601f10611296576101008083540402835291602001916112c1565b820191906000526020600020905b8154815290600101906020018083116112a457829003601f168201915b50505091835250506004919091015460ff16151560209182015290825260019290920191016111ea565b5050505090506000815167ffffffffffffffff81111561130d5761130d611b29565b60405190808252806020026020018201604052801561135257816020015b604080518082019091526000808252602082015281526020019060019003908161132b5790505b5090506000805b835181101561146857600084828151811061137657611376611d2d565b60200260200101516000015190506000805b848110156113fd57828682815181106113a3576113a3611d2d565b602002602001015160000151036113eb578581815181106113c6576113c6611d2d565b602002602001015160200180518091906113df90611c63565b905250600191506113fd565b806113f581611c63565b915050611388565b508015801561140c5750845184105b15611453576040518060400160405280838152602001600181525085858151811061143957611439611d2d565b6020026020010181905250838061144f90611c63565b9450505b5050808061146090611c63565b915050611359565b50600080805b838110156114ee578285828151811061148957611489611d2d565b60200260200101516020015111156114dc578481815181106114ad576114ad611d2d565b60200260200101516020015192508481815181106114cd576114cd611d2d565b60200260200101516000015191505b806114e681611c63565b91505061146e565b5060038210156114ff576000611501565b805b979650505050505050565b6000828152600260205260408120905b81548110156115f2578282828154811061153857611538611d2d565b906000526020600020906005020160000154146115e057600082828154811061156357611563611d2d565b906000526020600020906005020160040160006101000a81548160ff021916908315150217905550600460008383815481106115a1576115a1611d2d565b60009182526020808320600260059093020191909101546001600160a01b0316835282019290925260400181208054916115da83611d43565b91905055505b806115ea81611c63565b91505061151c565b50505050565b60606104626001600160a01b03831660145b60606000611619836002611d5a565b611624906002611c7c565b67ffffffffffffffff81111561163c5761163c611b29565b6040519080825280601f01601f191660200182016040528015611666576020820181803683370190505b509050600360fc1b8160008151811061168157611681611d2d565b60200101906001600160f81b031916908160001a905350600f60fb1b816001815181106116b0576116b0611d2d565b60200101906001600160f81b031916908160001a90535060006116d4846002611d5a565b6116df906001611c7c565b90505b6001811115611757576f181899199a1a9b1b9c1cb0b131b232b360811b85600f166010811061171357611713611d2d565b1a60f81b82828151811061172957611729611d2d565b60200101906001600160f81b031916908160001a90535060049490941c9361175081611d43565b90506116e2565b5083156117a65760405162461bcd60e51b815260206004820181905260248201527f537472696e67733a20686578206c656e67746820696e73756666696369656e7460448201526064016105e2565b9392505050565b6000807f7fffffffffffffffffffffffffffffff5d576e7357a4501ddfe92f46681b20a08311156117e45750600090506003611868565b6040805160008082526020820180845289905260ff881692820192909252606081018690526080810185905260019060a0016020604051602081039080840390855afa158015611838573d6000803e3d6000fd5b5050604051601f1901519150506001600160a01b03811661186157600060019250925050611868565b9150600090505b94509492505050565b60006020828403121561188357600080fd5b81356001600160e01b0319811681146117a657600080fd5b80356001600160a01b03811681146118b257600080fd5b919050565b6000602082840312156118c957600080fd5b6117a68261189b565b600080604083850312156118e557600080fd5b50508035926020909101359150565b60005b8381101561190f5781810151838201526020016118f7565b50506000910152565b600081518084526119308160208601602086016118f4565b601f01601f19169290920160200192915050565b85815284602082015260018060a01b038416604082015260a06060820152600061197160a0830185611918565b905082151560808301529695505050505050565b60006020828403121561199757600080fd5b5035919050565b600080604083850312156119b157600080fd5b823591506119c16020840161189b565b90509250929050565b600080600080606085870312156119e057600080fd5b8435935060208501359250604085013567ffffffffffffffff80821115611a0657600080fd5b818701915087601f830112611a1a57600080fd5b813581811115611a2957600080fd5b886020828501011115611a3b57600080fd5b95989497505060200194505050565b60006020808301818452808551808352604092508286019150828160051b87010184880160005b83811015611ae157888303603f190185528151805184528781015188850152868101516001600160a01b03168785015260608082015160a08287018190529190611abd83880182611918565b60809485015115159790940196909652505094870194925090860190600101611a71565b509098975050505050505050565b600181811c90821680611b0357607f821691505b602082108103611b2357634e487b7160e01b600052602260045260246000fd5b50919050565b634e487b7160e01b600052604160045260246000fd5b601f82111561057157600081815260208120601f850160051c81016020861015611b665750805b601f850160051c820191505b81811015611b8557828155600101611b72565b505050505050565b815167ffffffffffffffff811115611ba757611ba7611b29565b611bbb81611bb58454611aef565b84611b3f565b602080601f831160018114611bf05760008415611bd85750858301515b600019600386901b1c1916600185901b178555611b85565b600085815260208120601f198616915b82811015611c1f57888601518255948401946001909101908401611c00565b5085821015611c3d5787850151600019600388901b60f8161c191681555b5050505050600190811b01905550565b634e487b7160e01b600052601160045260246000fd5b600060018201611c7557611c75611c4d565b5060010190565b8082018082111561046257610462611c4d565b7f416363657373436f6e74726f6c3a206163636f756e7420000000000000000000815260008351611cc78160178501602088016118f4565b7001034b99036b4b9b9b4b733903937b6329607d1b6017918401918201528351611cf88160288401602088016118f4565b01602801949350505050565b6020815260006117a66020830184611918565b634e487b7160e01b600052602160045260246000fd5b634e487b7160e01b600052603260045260246000fd5b600081611d5257611d52611c4d565b506000190190565b808202811582820484141761046257610462611c4d56fea49807205ce4d355092ef5a8a18f56e8913cf4a201fbe287825b095693c21775a2646970667358221220468bd4df688ed7ff5f2f7fa4fd1822d6679dcaaadf7160b5ff371886c156eb4764736f6c63430008130033",
  "linkReferences": {},
  "deployedLinkReferences": {}
}