{
  "_format": "hh-sol-artifact-1",
  "contractName": "PrivacyGuard",
  "sourceName": "contracts/privacy/PrivacyGuard.sol",
  "abi": [
    {
      "inputs": [],
      "stateMutability": "nonpayable",
      "type": "constructor"
    },
    {
      "anonymous": false,
      "inputs": [
        {
          "indexed": true,
          "internalType": "address",
          "name": "user",
          "type": "address"
        },
        {
          "indexed": true,
          "internalType": "bytes32",
          "name": "policyId",
          "type": "bytes32"
        },
        {
          "indexed": false,
          "internalType": "bool",
          "name": "consented",
          "type": "bool"
        }
      ],
      "name": "ConsentRecorded",
      "type": "event"
    },
    {
      "anonymous": false,
      "inputs": [
        {
          "indexed": true,
          "internalType": "address",
          "name": "owner",
          "type": "address"
        },
        {
          "indexed": true,
          "internalType": "address",
          "name": "accessor",
          "type": "address"
        }
      ],
      "name": "DataAccessApproved",
      "type": "event"
    },
    {
      "anonymous": false,
      "inputs": [
        {
          "indexed": false,
          "internalType": "address",
          "name": "account",
          "type": "address"
        }
      ],
      "name": "Paused",
      "type": "event"
    },
    {
      "anonymous": false,
      "inputs": [
        {
          "indexed": true,
          "internalType": "bytes32",
          "name": "policyId",
          "type": "bytes32"
        },
        {
          "indexed": true,
          "internalType": "address",
          "name": "creator",
          "type": "address"
        },
        {
          "indexed": false,
          "internalType": "uint256",
          "name": "version",
          "type": "uint256"
        }
      ],
      "name": "PolicyCreated",
      "type": "event"
    },
    {
      "anonymous": false,
      "inputs": [
        {
          "indexed": true,
          "internalType": "address",
          "name": "user",
          "type": "address"
        },
        {
          "indexed": false,
          "internalType": "bytes32",
          "name": "preferencesHash",
          "type": "bytes32"
        }
      ],
      "name": "PreferencesUpdated",
      "type": "event"
    },
    {
      "anonymous": false,
      "inputs": [
        {
          "indexed": true,
          "internalType": "bytes32",
          "name": "role",
          "type": "bytes32"
        },
        {
          "indexed": true,
          "internalType": "bytes32",
          "name": "previousAdminRole",
          "type": "bytes32"
        },
        {
          "indexed": true,
          "internalType": "bytes32",
          "name": "newAdminRole",
          "type": "bytes32"
        }
      ],
      "name": "RoleAdminChanged",
      "type": "event"
    },
    {
      "anonymous": false,
      "inputs": [
        {
          "indexed": true,
          "internalType": "bytes32",
          "name": "role",
          "type": "bytes32"
        },
        {
          "indexed": true,
          "internalType": "address",
          "name": "account",
          "type": "address"
        },
        {
          "indexed": true,
          "internalType": "address",
          "name": "sender",
          "type": "address"
        }
      ],
      "name": "RoleGranted",
      "type": "event"
    },
    {
      "anonymous": false,
      "inputs": [
        {
          "indexed": true,
          "internalType": "bytes32",
          "name": "role",
          "type": "bytes32"
        },
        {
          "indexed": true,
          "internalType": "address",
          "name": "account",
          "type": "address"
        },
        {
          "indexed": true,
          "internalType": "address",
          "name": "sender",
          "type": "address"
        }
      ],
      "name": "RoleRevoked",
      "type": "event"
    },
    {
      "anonymous": false,
      "inputs": [
        {
          "indexed": false,
          "internalType": "address",
          "name": "account",
          "type": "address"
        }
      ],
      "name": "Unpaused",
      "type": "event"
    },
    {
      "inputs": [],
      "name": "ADMIN_ROLE",
      "outputs": [
        {
          "internalType": "bytes32",
          "name": "",
          "type": "bytes32"
        }
      ],
      "stateMutability": "view",
      "type": "function"
    },
    {
      "inputs": [],
      "name": "DEFAULT_ADMIN_ROLE",
      "outputs": [
        {
          "internalType": "bytes32",
          "name": "",
          "type": "bytes32"
        }
      ],
      "stateMutability": "view",
      "type": "function"
    },
    {
      "inputs": [],
      "name": "PRIVACY_OFFICER_ROLE",
      "outputs": [
        {
          "internalType": "bytes32",
          "name": "",
          "type": "bytes32"
        }
      ],
      "stateMutability": "view",
      "type": "function"
    },
    {
      "inputs": [
        {
          "internalType": "address",
          "name": "_accessor",
          "type": "address"
        }
      ],
      "name": "approveDataAccess",
      "outputs": [],
      "stateMutability": "nonpayable",
      "type": "function"
    },
    {
      "inputs": [
        {
          "internalType": "address",
          "name": "_dataOwner",
          "type": "address"
        },
        {
          "internalType": "address",
          "name": "_dataAccessor",
          "type": "address"
        },
        {
          "internalType": "bytes32",
          "name": "_policyId",
          "type": "bytes32"
        }
      ],
      "name": "checkPrivacyCompliance",
      "outputs": [
        {
          "internalType": "bool",
          "name": "",
          "type": "bool"
        }
      ],
      "stateMutability": "view",
      "type": "function"
    },
    {
      "inputs": [
        {
          "internalType": "address",
          "name": "",
          "type": "address"
        },
        {
          "internalType": "bytes32",
          "name": "",
          "type": "bytes32"
        }
      ],
      "name": "consents",
      "outputs": [
        {
          "internalType": "address",
          "name": "user",
          "type": "address"
        },
        {
          "internalType": "bytes32",
          "name": "policyId",
          "type": "bytes32"
        },
        {
          "internalType": "uint256",
          "name": "timestamp",
          "type": "uint256"
        },
        {
          "internalType": "bool",
          "name": "consented",
          "type": "bool"
        },
        {
          "internalType": "bytes32",
          "name": "proofHash",
          "type": "bytes32"
        }
      ],
      "stateMutability": "view",
      "type": "function"
    },
    {
      "inputs": [
        {
          "internalType": "bytes32",
          "name": "_policyHash",
          "type": "bytes32"
        },
        {
          "internalType": "bytes32",
          "name": "_metadataHash",
          "type": "bytes32"
        }
      ],
      "name": "createPrivacyPolicy",
      "outputs": [
        {
          "internalType": "bytes32",
          "name": "",
          "type": "bytes32"
        }
      ],
      "stateMutability": "nonpayable",
      "type": "function"
    },
    {
      "inputs": [
        {
          "internalType": "address",
          "name": "",
          "type": "address"
        },
        {
          "internalType": "address",
          "name": "",
          "type": "address"
        }
      ],
      "name": "dataAccessApprovals",
      "outputs": [
        {
          "internalType": "bool",
          "name": "",
          "type": "bool"
        }
      ],
      "stateMutability": "view",
      "type": "function"
    },
    {
      "inputs": [
        {
          "internalType": "address",
          "name": "_user",
          "type": "address"
        },
        {
          "internalType": "bytes32",
          "name": "_policyId",
          "type": "bytes32"
        }
      ],
      "name": "getConsentRecord",
      "outputs": [
        {
          "components": [
            {
              "internalType": "address",
              "name": "user",
              "type": "address"
            },
            {
              "internalType": "bytes32",
              "name": "policyId",
              "type": "bytes32"
            },
            {
              "internalType": "uint256",
              "name": "timestamp",
              "type": "uint256"
            },
            {
              "internalType": "bool",
              "name": "consented",
              "type": "bool"
            },
            {
              "internalType": "bytes32",
              "name": "proofHash",
              "type": "bytes32"
            }
          ],
          "internalType": "struct PrivacyGuard.ConsentRecord",
          "name": "",
          "type": "tuple"
        }
      ],
      "stateMutability": "view",
      "type": "function"
    },
    {
      "inputs": [
        {
          "internalType": "bytes32",
          "name": "_policyId",
          "type": "bytes32"
        }
      ],
      "name": "getPrivacyPolicy",
      "outputs": [
        {
          "components": [
            {
              "internalType": "bytes32",
              "name": "policyHash",
              "type": "bytes32"
            },
            {
              "internalType": "address",
              "name": "creator",
              "type": "address"
            },
            {
              "internalType": "uint256",
              "name": "timestamp",
              "type": "uint256"
            },
            {
              "internalType": "bool",
              "name": "active",
              "type": "bool"
            },
            {
              "internalType": "uint256",
              "name": "version",
              "type": "uint256"
            },
            {
              "internalType": "bytes32",
              "name": "metadataHash",
              "type": "bytes32"
            }
          ],
          "internalType": "struct PrivacyGuard.PrivacyPolicy",
          "name": "",
          "type": "tuple"
        }
      ],
      "stateMutability": "view",
      "type": "function"
    },
    {
      "inputs": [
        {
          "internalType": "address",
          "name": "_user",
          "type": "address"
        }
      ],
      "name": "getPrivacyPreferences",
      "outputs": [
        {
          "components": [
            {
              "internalType": "address",
              "name": "user",
              "type": "address"
            },
            {
              "internalType": "bytes32",
              "name": "preferencesHash",
              "type": "bytes32"
            },
            {
              "internalType": "uint256",
              "name": "timestamp",
              "type": "uint256"
            },
            {
              "internalType": "bytes32",
              "name": "encryptedPreferences",
              "type": "bytes32"
            },
            {
              "internalType": "bool",
              "name": "active",
              "type": "bool"
            }
          ],
          "internalType": "struct PrivacyGuard.PrivacyPreference",
          "name": "",
          "type": "tuple"
        }
      ],
      "stateMutability": "view",
      "type": "function"
    },
    {
      "inputs": [
        {
          "internalType": "bytes32",
          "name": "role",
          "type": "bytes32"
        }
      ],
      "name": "getRoleAdmin",
      "outputs": [
        {
          "internalType": "bytes32",
          "name": "",
          "type": "bytes32"
        }
      ],
      "stateMutability": "view",
      "type": "function"
    },
    {
      "inputs": [
        {
          "internalType": "bytes32",
          "name": "role",
          "type": "bytes32"
        },
        {
          "internalType": "address",
          "name": "account",
          "type": "address"
        }
      ],
      "name": "grantRole",
      "outputs": [],
      "stateMutability": "nonpayable",
      "type": "function"
    },
    {
      "inputs": [
        {
          "internalType": "bytes32",
          "name": "role",
          "type": "bytes32"
        },
        {
          "internalType": "address",
          "name": "account",
          "type": "address"
        }
      ],
      "name": "hasRole",
      "outputs": [
        {
          "internalType": "bool",
          "name": "",
          "type": "bool"
        }
      ],
      "stateMutability": "view",
      "type": "function"
    },
    {
      "inputs": [],
      "name": "pause",
      "outputs": [],
      "stateMutability": "nonpayable",
      "type": "function"
    },
    {
      "inputs": [],
      "name": "paused",
      "outputs": [
        {
          "internalType": "bool",
          "name": "",
          "type": "bool"
        }
      ],
      "stateMutability": "view",
      "type": "function"
    },
    {
      "inputs": [
        {
          "internalType": "bytes32",
          "name": "",
          "type": "bytes32"
        }
      ],
      "name": "policies",
      "outputs": [
        {
          "internalType": "bytes32",
          "name": "policyHash",
          "type": "bytes32"
        },
        {
          "internalType": "address",
          "name": "creator",
          "type": "address"
        },
        {
          "internalType": "uint256",
          "name": "timestamp",
          "type": "uint256"
        },
        {
          "internalType": "bool",
          "name": "active",
          "type": "bool"
        },
        {
          "internalType": "uint256",
          "name": "version",
          "type": "uint256"
        },
        {
          "internalType": "bytes32",
          "name": "metadataHash",
          "type": "bytes32"
        }
      ],
      "stateMutability": "view",
      "type": "function"
    },
    {
      "inputs": [
        {
          "internalType": "address",
          "name": "",
          "type": "address"
        }
      ],
      "name": "preferences",
      "outputs": [
        {
          "internalType": "address",
          "name": "user",
          "type": "address"
        },
        {
          "internalType": "bytes32",
          "name": "preferencesHash",
          "type": "bytes32"
        },
        {
          "internalType": "uint256",
          "name": "timestamp",
          "type": "uint256"
        },
        {
          "internalType": "bytes32",
          "name": "encryptedPreferences",
          "type": "bytes32"
        },
        {
          "internalType": "bool",
          "name": "active",
          "type": "bool"
        }
      ],
      "stateMutability": "view",
      "type": "function"
    },
    {
      "inputs": [
        {
          "internalType": "bytes32",
          "name": "_policyId",
          "type": "bytes32"
        },
        {
          "internalType": "bool",
          "name": "_consent",
          "type": "bool"
        },
        {
          "internalType": "bytes32",
          "name": "_proofHash",
          "type": "bytes32"
        },
        {
          "internalType": "bytes",
          "name": "_signature",
          "type": "bytes"
        }
      ],
      "name": "recordConsent",
      "outputs": [],
      "stateMutability": "nonpayable",
      "type": "function"
    },
    {
      "inputs": [
        {
          "internalType": "bytes32",
          "name": "role",
          "type": "bytes32"
        },
        {
          "internalType": "address",
          "name": "account",
          "type": "address"
        }
      ],
      "name": "renounceRole",
      "outputs": [],
      "stateMutability": "nonpayable",
      "type": "function"
    },
    {
      "inputs": [
        {
          "internalType": "address",
          "name": "_accessor",
          "type": "address"
        }
      ],
      "name": "revokeDataAccess",
      "outputs": [],
      "stateMutability": "nonpayable",
      "type": "function"
    },
    {
      "inputs": [
        {
          "internalType": "bytes32",
          "name": "role",
          "type": "bytes32"
        },
        {
          "internalType": "address",
          "name": "account",
          "type": "address"
        }
      ],
      "name": "revokeRole",
      "outputs": [],
      "stateMutability": "nonpayable",
      "type": "function"
    },
    {
      "inputs": [
        {
          "internalType": "bytes4",
          "name": "interfaceId",
          "type": "bytes4"
        }
      ],
      "name": "supportsInterface",
      "outputs": [
        {
          "internalType": "bool",
          "name": "",
          "type": "bool"
        }
      ],
      "stateMutability": "view",
      "type": "function"
    },
    {
      "inputs": [],
      "name": "unpause",
      "outputs": [],
      "stateMutability": "nonpayable",
      "type": "function"
    },
    {
      "inputs": [
        {
          "internalType": "bytes32",
          "name": "_preferencesHash",
          "type": "bytes32"
        },
        {
          "internalType": "bytes32",
          "name": "_encryptedPreferences",
          "type": "bytes32"
        },
        {
          "internalType": "bytes",
          "name": "_signature",
          "type": "bytes"
        }
      ],
      "name": "updatePrivacyPreferences",
      "outputs": [],
      "stateMutability": "nonpayable",
      "type": "function"
    }
  ],
  "bytecode": "0x60806040523480156200001157600080fd5b506001805460ff191690556200002960003362000087565b620000557fa49807205ce4d355092ef5a8a18f56e8913cf4a201fbe287825b095693c217753362000087565b620000817fbd6c01bd09485228a1b6e2f82797067ffa0e38468d139cd167844c36a589c62a3362000087565b62000128565b6000828152602081815260408083206001600160a01b038516845290915290205460ff1662000124576000828152602081815260408083206001600160a01b03851684529091529020805460ff19166001179055620000e33390565b6001600160a01b0316816001600160a01b0316837f2f8788117e7eff1d82e926ec794901d17c78024a50270940304540a733656f0d60405160405180910390a45b5050565b611d1480620001386000396000f3fe608060405234801561001057600080fd5b50600436106101735760003560e01c8063696447db116100de57806391d1485411610097578063d08d80dd11610071578063d08d80dd14610598578063d547741f146105ad578063ddbfd8ef146105c0578063f3f8ae221461064957600080fd5b806391d14854146104fe578063a00af1ea14610511578063a217fddf1461059057600080fd5b8063696447db146102e1578063737d0c741461033c57806375b238fc1461034f5780638456cb5914610376578063873d6a621461037e578063897023dc1461040857600080fd5b806348e3bcf71161013057806348e3bcf7146102145780634e16ead21461024257806352c7ffb7146102555780635c975abb146102685780635e7eb50a14610273578063686f56da1461028657600080fd5b806301ffc9a714610178578063248a9ca3146101a05780632f2ff15d146101d157806336568abe146101e65780633f4ba83a146101f95780633fbef88014610201575b600080fd5b61018b6101863660046118fd565b61065c565b60405190151581526020015b60405180910390f35b6101c36101ae366004611927565b60009081526020819052604090206001015490565b604051908152602001610197565b6101e46101df36600461195c565b610693565b005b6101e46101f436600461195c565b6106bd565b6101e4610740565b6101e461020f366004611988565b610775565b61018b6102223660046119a3565b600560209081526000928352604080842090915290825290205460ff1681565b61018b6102503660046119cd565b610813565b6101e4610263366004611a4b565b610979565b60015460ff1661018b565b6101e4610281366004611aba565b610bd9565b610299610294366004611b0d565b610d68565b604051610197919081516001600160a01b0316815260208083015190820152604080830151908201526060808301511515908201526080918201519181019190915260a00190565b6102f46102ef366004611988565b610e61565b604051610197919081516001600160a01b0316815260208083015190820152604080830151908201526060808301519082015260809182015115159181019190915260a00190565b6101c361034a366004611b37565b610f51565b6101c37fa49807205ce4d355092ef5a8a18f56e8913cf4a201fbe287825b095693c2177581565b6101e46110c3565b6103d461038c366004611b0d565b60046020818152600093845260408085209091529183529120805460018201546002830154600384015493909401546001600160a01b03909216939092909160ff9091169085565b604080516001600160a01b03909616865260208601949094529284019190915215156060830152608082015260a001610197565b6104ac610416366004611927565b6040805160c081018252600080825260208201819052918101829052606081018290526080810182905260a081019190915250600090815260026020818152604092839020835160c0810185528154815260018201546001600160a01b0316928101929092529182015492810192909252600381015460ff1615156060830152600481015460808301526005015460a082015290565b6040516101979190815181526020808301516001600160a01b031690820152604080830151908201526060808301511515908201526080808301519082015260a0918201519181019190915260c00190565b61018b61050c36600461195c565b6110f5565b61055c61051f366004611988565b6003602081905260009182526040909120805460018201546002830154938301546004909301546001600160a01b03909216939092909160ff1685565b604080516001600160a01b03909616865260208601949094529284019190915260608301521515608082015260a001610197565b6101c3600081565b6101c3600080516020611cbf83398151915281565b6101e46105bb36600461195c565b61111e565b6106126105ce366004611927565b600260208190526000918252604090912080546001820154928201546003830154600484015460059094015492946001600160a01b031693919260ff909116919086565b604080519687526001600160a01b0390951660208701529385019290925215156060840152608083015260a082015260c001610197565b6101e4610657366004611988565b611143565b60006001600160e01b03198216637965db0b60e01b148061068d57506301ffc9a760e01b6001600160e01b03198316145b92915050565b6000828152602081905260409020600101546106ae8161123b565b6106b88383611245565b505050565b6001600160a01b03811633146107325760405162461bcd60e51b815260206004820152602f60248201527f416363657373436f6e74726f6c3a2063616e206f6e6c792072656e6f756e636560448201526e103937b632b9903337b91039b2b63360891b60648201526084015b60405180910390fd5b61073c82826112c9565b5050565b7fa49807205ce4d355092ef5a8a18f56e8913cf4a201fbe287825b095693c2177561076a8161123b565b61077261132e565b50565b61077d611380565b3360009081526005602090815260408083206001600160a01b038516845290915290205460ff166107e55760405162461bcd60e51b81526020600482015260126024820152714e6f20617070726f76616c2065786973747360701b6044820152606401610729565b3360009081526005602090815260408083206001600160a01b0394909416835292905220805460ff19169055565b60008181526002602052604081206003015460ff166108685760405162461bcd60e51b8152602060048201526011602482015270506f6c696379206e6f742061637469766560781b6044820152606401610729565b6001600160a01b038085166000908152600460208181526040808420878552825292839020835160a08101855281549095168552600181015491850191909152600281015492840192909252600382015460ff1615156060840181905291015460808301526108db576000915050610972565b6001600160a01b0380861660009081526005602090815260408083209388168352929052205460ff16610912576000915050610972565b50506001600160a01b03808416600090815260036020818152604092839020835160a0810185528154909516855260018101549185019190915260028101549284019290925281015460608301526004015460ff16151560809091018190525b9392505050565b610981611380565b60008581526002602052604090206003015460ff166109d65760405162461bcd60e51b8152602060048201526011602482015270506f6c696379206e6f742061637469766560781b6044820152606401610729565b604080516020810187905285151560f81b91810191909152604181018490524260618201526000906081016040516020818303038152906040528051906020012090506000610a6684848080601f016020809104026020016040519081016040528093929190818152602001838380828437600092019190915250610a6092508691506113c89050565b906113fb565b90506001600160a01b0381163314610ab45760405162461bcd60e51b8152602060048201526011602482015270496e76616c6964207369676e617475726560781b6044820152606401610729565b6040518060a00160405280336001600160a01b0316815260200188815260200142815260200187151581526020018681525060046000336001600160a01b03166001600160a01b03168152602001908152602001600020600089815260200190815260200160002060008201518160000160006101000a8154816001600160a01b0302191690836001600160a01b03160217905550602082015181600101556040820151816002015560608201518160030160006101000a81548160ff0219169083151502179055506080820151816004015590505086336001600160a01b03167f493c81b92757532bffb47cc6d690ba09ed0ef59d490164c7eeedf68fe1a2027f88604051610bc8911515815260200190565b60405180910390a350505050505050565b610be1611380565b60408051602081018690529081018490524260608201526000906080016040516020818303038152906040528051906020012090506000610c5d84848080601f016020809104026020016040519081016040528093929190818152602001838380828437600092019190915250610a6092508691506113c89050565b90506001600160a01b0381163314610cab5760405162461bcd60e51b8152602060048201526011602482015270496e76616c6964207369676e617475726560781b6044820152606401610729565b6040805160a0810182523380825260208083018a815242848601908152606085018b815260016080870181815260008781526003808852908a9020985189546001600160a01b0319166001600160a01b03909116178955945191880191909155915160028701555191850191909155516004909301805460ff19169315159390931790925591518881527fda242c5b0eea64f514e11a7a9df86f22ce4de76fb9dbe019873934e26be123c1910160405180910390a2505050505050565b6040805160a0810182526000808252602082018190529181018290526060810182905260808101919091526001600160a01b038316331480610dbd5750610dbd600080516020611cbf833981519152336110f5565b610dfa5760405162461bcd60e51b815260206004820152600e60248201526d139bdd08185d5d1a1bdc9a5e995960921b6044820152606401610729565b506001600160a01b03918216600090815260046020818152604080842094845293815291839020835160a08101855281549095168552600181015492850192909252600282015492840192909252600381015460ff16151560608401520154608082015290565b6040805160a0810182526000808252602082018190529181018290526060810182905260808101919091526001600160a01b038216331480610eb65750610eb6600080516020611cbf833981519152336110f5565b610ef35760405162461bcd60e51b815260206004820152600e60248201526d139bdd08185d5d1a1bdc9a5e995960921b6044820152606401610729565b506001600160a01b03908116600090815260036020818152604092839020835160a0810185528154909516855260018101549185019190915260028101549284019290925281015460608301526004015460ff161515608082015290565b6000600080516020611cbf833981519152610f6b8161123b565b610f73611380565b6040516bffffffffffffffffffffffff193360601b1660208201526034810185905242605482015260009060740160408051601f1981840301815291815281516020928301206000818152600290935291205490915060019015610ff157600082815260026020526040902060040154610fee906001611b6f565b90505b6040805160c081018252878152336020808301828152428486019081526001606086018181526080870189815260a088018e815260008c81526002808952908b902099518a55955193890180546001600160a01b0319166001600160a01b0390951694909417909355925193870193909355915160038601805460ff191691151591909117905551600485015551600590930192909255915183815284917fa65021ead0e71f533a8e80c600fda75df13683803a8b5633aa0664fb643e9157910160405180910390a350949350505050565b7fa49807205ce4d355092ef5a8a18f56e8913cf4a201fbe287825b095693c217756110ed8161123b565b61077261141f565b6000918252602082815260408084206001600160a01b0393909316845291905290205460ff1690565b6000828152602081905260409020600101546111398161123b565b6106b883836112c9565b61114b611380565b6001600160a01b0381166111945760405162461bcd60e51b815260206004820152601060248201526f24b73b30b634b21030b1b1b2b9b9b7b960811b6044820152606401610729565b336001600160a01b038216036111e25760405162461bcd60e51b815260206004820152601360248201527221b0b73737ba1030b8383937bb329039b2b63360691b6044820152606401610729565b3360008181526005602090815260408083206001600160a01b0386168085529252808320805460ff19166001179055519092917fedcdede0062d1074de0adaf2a60475ad8f496769a857efaccb5af4b94c4f19a891a350565b610772813361145a565b61124f82826110f5565b61073c576000828152602081815260408083206001600160a01b03851684529091529020805460ff191660011790556112853390565b6001600160a01b0316816001600160a01b0316837f2f8788117e7eff1d82e926ec794901d17c78024a50270940304540a733656f0d60405160405180910390a45050565b6112d382826110f5565b1561073c576000828152602081815260408083206001600160a01b0385168085529252808320805460ff1916905551339285917ff6391f5c32d9c69d2a47ea670b442974b53935d1edc7fd64eb21e047a839171b9190a45050565b6113366114b3565b6001805460ff191690557f5db9ee0a495bf2e6ff9c91a7834c1ba4fdd244a5e8aa4e537bd38aeae4b073aa335b6040516001600160a01b03909116815260200160405180910390a1565b60015460ff16156113c65760405162461bcd60e51b815260206004820152601060248201526f14185d5cd8589b194e881c185d5cd95960821b6044820152606401610729565b565b7f19457468657265756d205369676e6564204d6573736167653a0a3332000000006000908152601c91909152603c902090565b600080600061140a85856114fc565b9150915061141781611541565b509392505050565b611427611380565b6001805460ff1916811790557f62e78cea01bee320cd4e420270b5ea74000d11b0c9f74754ebdbfc544b05a25833611363565b61146482826110f5565b61073c576114718161168b565b61147c83602061169d565b60405160200161148d929190611ba6565b60408051601f198184030181529082905262461bcd60e51b825261072991600401611c1b565b60015460ff166113c65760405162461bcd60e51b815260206004820152601460248201527314185d5cd8589b194e881b9bdd081c185d5cd95960621b6044820152606401610729565b60008082516041036115325760208301516040840151606085015160001a61152687828585611839565b9450945050505061153a565b506000905060025b9250929050565b600081600481111561155557611555611c4e565b0361155d5750565b600181600481111561157157611571611c4e565b036115be5760405162461bcd60e51b815260206004820152601860248201527f45434453413a20696e76616c6964207369676e617475726500000000000000006044820152606401610729565b60028160048111156115d2576115d2611c4e565b0361161f5760405162461bcd60e51b815260206004820152601f60248201527f45434453413a20696e76616c6964207369676e6174757265206c656e677468006044820152606401610729565b600381600481111561163357611633611c4e565b036107725760405162461bcd60e51b815260206004820152602260248201527f45434453413a20696e76616c6964207369676e6174757265202773272076616c604482015261756560f01b6064820152608401610729565b606061068d6001600160a01b03831660145b606060006116ac836002611c64565b6116b7906002611b6f565b67ffffffffffffffff8111156116cf576116cf611c7b565b6040519080825280601f01601f1916602001820160405280156116f9576020820181803683370190505b509050600360fc1b8160008151811061171457611714611c91565b60200101906001600160f81b031916908160001a905350600f60fb1b8160018151811061174357611743611c91565b60200101906001600160f81b031916908160001a9053506000611767846002611c64565b611772906001611b6f565b90505b60018111156117ea576f181899199a1a9b1b9c1cb0b131b232b360811b85600f16601081106117a6576117a6611c91565b1a60f81b8282815181106117bc576117bc611c91565b60200101906001600160f81b031916908160001a90535060049490941c936117e381611ca7565b9050611775565b5083156109725760405162461bcd60e51b815260206004820181905260248201527f537472696e67733a20686578206c656e67746820696e73756666696369656e746044820152606401610729565b6000807f7fffffffffffffffffffffffffffffff5d576e7357a4501ddfe92f46681b20a083111561187057506000905060036118f4565b6040805160008082526020820180845289905260ff881692820192909252606081018690526080810185905260019060a0016020604051602081039080840390855afa1580156118c4573d6000803e3d6000fd5b5050604051601f1901519150506001600160a01b0381166118ed576000600192509250506118f4565b9150600090505b94509492505050565b60006020828403121561190f57600080fd5b81356001600160e01b03198116811461097257600080fd5b60006020828403121561193957600080fd5b5035919050565b80356001600160a01b038116811461195757600080fd5b919050565b6000806040838503121561196f57600080fd5b8235915061197f60208401611940565b90509250929050565b60006020828403121561199a57600080fd5b61097282611940565b600080604083850312156119b657600080fd5b6119bf83611940565b915061197f60208401611940565b6000806000606084860312156119e257600080fd5b6119eb84611940565b92506119f960208501611940565b9150604084013590509250925092565b60008083601f840112611a1b57600080fd5b50813567ffffffffffffffff811115611a3357600080fd5b60208301915083602082850101111561153a57600080fd5b600080600080600060808688031215611a6357600080fd5b8535945060208601358015158114611a7a57600080fd5b935060408601359250606086013567ffffffffffffffff811115611a9d57600080fd5b611aa988828901611a09565b969995985093965092949392505050565b60008060008060608587031215611ad057600080fd5b8435935060208501359250604085013567ffffffffffffffff811115611af557600080fd5b611b0187828801611a09565b95989497509550505050565b60008060408385031215611b2057600080fd5b611b2983611940565b946020939093013593505050565b60008060408385031215611b4a57600080fd5b50508035926020909101359150565b634e487b7160e01b600052601160045260246000fd5b8082018082111561068d5761068d611b59565b60005b83811015611b9d578181015183820152602001611b85565b50506000910152565b7f416363657373436f6e74726f6c3a206163636f756e7420000000000000000000815260008351611bde816017850160208801611b82565b7001034b99036b4b9b9b4b733903937b6329607d1b6017918401918201528351611c0f816028840160208801611b82565b01602801949350505050565b6020815260008251806020840152611c3a816040850160208701611b82565b601f01601f19169190910160400192915050565b634e487b7160e01b600052602160045260246000fd5b808202811582820484141761068d5761068d611b59565b634e487b7160e01b600052604160045260246000fd5b634e487b7160e01b600052603260045260246000fd5b600081611cb657611cb6611b59565b50600019019056febd6c01bd09485228a1b6e2f82797067ffa0e38468d139cd167844c36a589c62aa26469706673582212209f08e7f1f07a41793d26d2e9b38413fc9fb3b9acf03435dc6ec91c31ccff5b9a64736f6c63430008130033",
  "linkReferences": {},
  "deployedLinkReferences": {}
}