{
  "_format": "hh-sol-artifact-1",
  "contractName": "ZKProofVerifier",
  "sourceName": "contracts/privacy/ZKProofVerifier.sol",
  "abi": [
    {
      "inputs": [],
      "stateMutability": "nonpayable",
      "type": "constructor"
    },
    {
      "anonymous": false,
      "inputs": [
        {
          "indexed": false,
          "internalType": "address",
          "name": "account",
          "type": "address"
        }
      ],
      "name": "Paused",
      "type": "event"
    },
    {
      "anonymous": false,
      "inputs": [
        {
          "indexed": true,
          "internalType": "bytes32",
          "name": "proofId",
          "type": "bytes32"
        },
        {
          "indexed": true,
          "internalType": "address",
          "name": "prover",
          "type": "address"
        },
        {
          "indexed": false,
          "internalType": "bytes32",
          "name": "publicInputHash",
          "type": "bytes32"
        }
      ],
      "name": "ProofSubmitted",
      "type": "event"
    },
    {
      "anonymous": false,
      "inputs": [
        {
          "indexed": true,
          "internalType": "bytes32",
          "name": "proofId",
          "type": "bytes32"
        },
        {
          "indexed": true,
          "internalType": "address",
          "name": "verifier",
          "type": "address"
        }
      ],
      "name": "ProofVerified",
      "type": "event"
    },
    {
      "anonymous": false,
      "inputs": [
        {
          "indexed": true,
          "internalType": "bytes32",
          "name": "role",
          "type": "bytes32"
        },
        {
          "indexed": true,
          "internalType": "bytes32",
          "name": "previousAdminRole",
          "type": "bytes32"
        },
        {
          "indexed": true,
          "internalType": "bytes32",
          "name": "newAdminRole",
          "type": "bytes32"
        }
      ],
      "name": "RoleAdminChanged",
      "type": "event"
    },
    {
      "anonymous": false,
      "inputs": [
        {
          "indexed": true,
          "internalType": "bytes32",
          "name": "role",
          "type": "bytes32"
        },
        {
          "indexed": true,
          "internalType": "address",
          "name": "account",
          "type": "address"
        },
        {
          "indexed": true,
          "internalType": "address",
          "name": "sender",
          "type": "address"
        }
      ],
      "name": "RoleGranted",
      "type": "event"
    },
    {
      "anonymous": false,
      "inputs": [
        {
          "indexed": true,
          "internalType": "bytes32",
          "name": "role",
          "type": "bytes32"
        },
        {
          "indexed": true,
          "internalType": "address",
          "name": "account",
          "type": "address"
        },
        {
          "indexed": true,
          "internalType": "address",
          "name": "sender",
          "type": "address"
        }
      ],
      "name": "RoleRevoked",
      "type": "event"
    },
    {
      "anonymous": false,
      "inputs": [
        {
          "indexed": false,
          "internalType": "address",
          "name": "account",
          "type": "address"
        }
      ],
      "name": "Unpaused",
      "type": "event"
    },
    {
      "anonymous": false,
      "inputs": [
        {
          "indexed": true,
          "internalType": "address",
          "name": "verifier",
          "type": "address"
        },
        {
          "indexed": false,
          "internalType": "bytes32",
          "name": "keyHash",
          "type": "bytes32"
        }
      ],
      "name": "VerifierKeyUpdated",
      "type": "event"
    },
    {
      "inputs": [],
      "name": "ADMIN_ROLE",
      "outputs": [
        {
          "internalType": "bytes32",
          "name": "",
          "type": "bytes32"
        }
      ],
      "stateMutability": "view",
      "type": "function"
    },
    {
      "inputs": [],
      "name": "DEFAULT_ADMIN_ROLE",
      "outputs": [
        {
          "internalType": "bytes32",
          "name": "",
          "type": "bytes32"
        }
      ],
      "stateMutability": "view",
      "type": "function"
    },
    {
      "inputs": [],
      "name": "VERIFIER_ROLE",
      "outputs": [
        {
          "internalType": "bytes32",
          "name": "",
          "type": "bytes32"
        }
      ],
      "stateMutability": "view",
      "type": "function"
    },
    {
      "inputs": [
        {
          "internalType": "address",
          "name": "_verifier",
          "type": "address"
        }
      ],
      "name": "deactivateVerifierKey",
      "outputs": [],
      "stateMutability": "nonpayable",
      "type": "function"
    },
    {
      "inputs": [
        {
          "internalType": "bytes32",
          "name": "_proofId",
          "type": "bytes32"
        }
      ],
      "name": "getProof",
      "outputs": [
        {
          "components": [
            {
              "internalType": "bytes32",
              "name": "proofHash",
              "type": "bytes32"
            },
            {
              "internalType": "bytes32",
              "name": "publicInputHash",
              "type": "bytes32"
            },
            {
              "internalType": "address",
              "name": "prover",
              "type": "address"
            },
            {
              "internalType": "uint256",
              "name": "timestamp",
              "type": "uint256"
            },
            {
              "internalType": "bool",
              "name": "verified",
              "type": "bool"
            }
          ],
          "internalType": "struct ZKProofVerifier.Proof",
          "name": "",
          "type": "tuple"
        }
      ],
      "stateMutability": "view",
      "type": "function"
    },
    {
      "inputs": [
        {
          "internalType": "bytes32",
          "name": "role",
          "type": "bytes32"
        }
      ],
      "name": "getRoleAdmin",
      "outputs": [
        {
          "internalType": "bytes32",
          "name": "",
          "type": "bytes32"
        }
      ],
      "stateMutability": "view",
      "type": "function"
    },
    {
      "inputs": [
        {
          "internalType": "bytes32",
          "name": "_proofId",
          "type": "bytes32"
        },
        {
          "internalType": "address",
          "name": "_grantee",
          "type": "address"
        }
      ],
      "name": "grantProofAccess",
      "outputs": [],
      "stateMutability": "nonpayable",
      "type": "function"
    },
    {
      "inputs": [
        {
          "internalType": "bytes32",
          "name": "role",
          "type": "bytes32"
        },
        {
          "internalType": "address",
          "name": "account",
          "type": "address"
        }
      ],
      "name": "grantRole",
      "outputs": [],
      "stateMutability": "nonpayable",
      "type": "function"
    },
    {
      "inputs": [
        {
          "internalType": "bytes32",
          "name": "_proofId",
          "type": "bytes32"
        },
        {
          "internalType": "address",
          "name": "_user",
          "type": "address"
        }
      ],
      "name": "hasProofAccess",
      "outputs": [
        {
          "internalType": "bool",
          "name": "",
          "type": "bool"
        }
      ],
      "stateMutability": "view",
      "type": "function"
    },
    {
      "inputs": [
        {
          "internalType": "bytes32",
          "name": "role",
          "type": "bytes32"
        },
        {
          "internalType": "address",
          "name": "account",
          "type": "address"
        }
      ],
      "name": "hasRole",
      "outputs": [
        {
          "internalType": "bool",
          "name": "",
          "type": "bool"
        }
      ],
      "stateMutability": "view",
      "type": "function"
    },
    {
      "inputs": [],
      "name": "pause",
      "outputs": [],
      "stateMutability": "nonpayable",
      "type": "function"
    },
    {
      "inputs": [],
      "name": "paused",
      "outputs": [
        {
          "internalType": "bool",
          "name": "",
          "type": "bool"
        }
      ],
      "stateMutability": "view",
      "type": "function"
    },
    {
      "inputs": [
        {
          "internalType": "bytes32",
          "name": "",
          "type": "bytes32"
        },
        {
          "internalType": "address",
          "name": "",
          "type": "address"
        }
      ],
      "name": "proofAccess",
      "outputs": [
        {
          "internalType": "bool",
          "name": "",
          "type": "bool"
        }
      ],
      "stateMutability": "view",
      "type": "function"
    },
    {
      "inputs": [
        {
          "internalType": "bytes32",
          "name": "",
          "type": "bytes32"
        }
      ],
      "name": "proofs",
      "outputs": [
        {
          "internalType": "bytes32",
          "name": "proofHash",
          "type": "bytes32"
        },
        {
          "internalType": "bytes32",
          "name": "publicInputHash",
          "type": "bytes32"
        },
        {
          "internalType": "address",
          "name": "prover",
          "type": "address"
        },
        {
          "internalType": "uint256",
          "name": "timestamp",
          "type": "uint256"
        },
        {
          "internalType": "bool",
          "name": "verified",
          "type": "bool"
        }
      ],
      "stateMutability": "view",
      "type": "function"
    },
    {
      "inputs": [
        {
          "internalType": "bytes32",
          "name": "role",
          "type": "bytes32"
        },
        {
          "internalType": "address",
          "name": "account",
          "type": "address"
        }
      ],
      "name": "renounceRole",
      "outputs": [],
      "stateMutability": "nonpayable",
      "type": "function"
    },
    {
      "inputs": [
        {
          "internalType": "bytes32",
          "name": "_proofId",
          "type": "bytes32"
        },
        {
          "internalType": "address",
          "name": "_grantee",
          "type": "address"
        }
      ],
      "name": "revokeProofAccess",
      "outputs": [],
      "stateMutability": "nonpayable",
      "type": "function"
    },
    {
      "inputs": [
        {
          "internalType": "bytes32",
          "name": "role",
          "type": "bytes32"
        },
        {
          "internalType": "address",
          "name": "account",
          "type": "address"
        }
      ],
      "name": "revokeRole",
      "outputs": [],
      "stateMutability": "nonpayable",
      "type": "function"
    },
    {
      "inputs": [
        {
          "internalType": "bytes32",
          "name": "_proofHash",
          "type": "bytes32"
        },
        {
          "internalType": "bytes32",
          "name": "_publicInputHash",
          "type": "bytes32"
        },
        {
          "internalType": "bytes",
          "name": "_signature",
          "type": "bytes"
        }
      ],
      "name": "submitProof",
      "outputs": [
        {
          "internalType": "bytes32",
          "name": "",
          "type": "bytes32"
        }
      ],
      "stateMutability": "nonpayable",
      "type": "function"
    },
    {
      "inputs": [
        {
          "internalType": "bytes4",
          "name": "interfaceId",
          "type": "bytes4"
        }
      ],
      "name": "supportsInterface",
      "outputs": [
        {
          "internalType": "bool",
          "name": "",
          "type": "bool"
        }
      ],
      "stateMutability": "view",
      "type": "function"
    },
    {
      "inputs": [],
      "name": "unpause",
      "outputs": [],
      "stateMutability": "nonpayable",
      "type": "function"
    },
    {
      "inputs": [
        {
          "internalType": "address",
          "name": "_verifier",
          "type": "address"
        },
        {
          "internalType": "bytes32",
          "name": "_keyHash",
          "type": "bytes32"
        },
        {
          "internalType": "uint256",
          "name": "_validUntil",
          "type": "uint256"
        }
      ],
      "name": "updateVerifierKey",
      "outputs": [],
      "stateMutability": "nonpayable",
      "type": "function"
    },
    {
      "inputs": [
        {
          "internalType": "address",
          "name": "",
          "type": "address"
        }
      ],
      "name": "verifierKeys",
      "outputs": [
        {
          "internalType": "bytes32",
          "name": "keyHash",
          "type": "bytes32"
        },
        {
          "internalType": "bool",
          "name": "isActive",
          "type": "bool"
        },
        {
          "internalType": "uint256",
          "name": "validUntil",
          "type": "uint256"
        }
      ],
      "stateMutability": "view",
      "type": "function"
    },
    {
      "inputs": [
        {
          "internalType": "bytes32",
          "name": "_proofId",
          "type": "bytes32"
        },
        {
          "internalType": "bytes32",
          "name": "_verifierInput",
          "type": "bytes32"
        },
        {
          "internalType": "bytes",
          "name": "_verifierSignature",
          "type": "bytes"
        }
      ],
      "name": "verifyProof",
      "outputs": [],
      "stateMutability": "nonpayable",
      "type": "function"
    }
  ],
  "bytecode": "0x60806040523480156200001157600080fd5b506001805460ff191690556200002960003362000087565b620000557fa49807205ce4d355092ef5a8a18f56e8913cf4a201fbe287825b095693c217753362000087565b620000817f0ce23c3e399818cfee81a7ab0880f714e53d7672b08df0fa62f2843416e1ea093362000087565b62000128565b6000828152602081815260408083206001600160a01b038516845290915290205460ff1662000124576000828152602081815260408083206001600160a01b03851684529091529020805460ff19166001179055620000e33390565b6001600160a01b0316816001600160a01b0316837f2f8788117e7eff1d82e926ec794901d17c78024a50270940304540a733656f0d60405160405180910390a45b5050565b6118b880620001386000396000f3fe608060405234801561001057600080fd5b506004361061014d5760003560e01c806360e15b40116100c3578063a217fddf1161007c578063a217fddf1461039f578063d22107fa146103a7578063d547741f146103d5578063dc1ea95d146103e8578063e7705db614610421578063e999196e1461043657600080fd5b806360e15b401461033657806375b238fc1461034957806377ac1ca21461035e5780638456cb59146103715780638f91ba4c1461037957806391d148541461038c57600080fd5b806336568abe1161011557806336568abe146102685780633f4ba83a1461027b578063444d95b0146102835780634fffb3cb1461030557806352e0716a146103185780635c975abb1461032b57600080fd5b806301ffc9a7146101525780631b80bb3a1461017a578063248a9ca3146101d5578063290701f9146102065780632f2ff15d14610253575b600080fd5b610165610160366004611584565b610449565b60405190151581526020015b60405180910390f35b61018d6101883660046115ae565b610480565b604051610171919081518152602080830151908201526040808301516001600160a01b0316908201526060808301519082015260809182015115159181019190915260a00190565b6101f86101e33660046115ae565b60009081526020819052604090206001015490565b604051908152602001610171565b6102386102143660046115e3565b600360205260009081526040902080546001820154600290920154909160ff169083565b60408051938452911515602084015290820152606001610171565b6102666102613660046115fe565b61056d565b005b6102666102763660046115fe565b610597565b610266610615565b6102cd6102913660046115ae565b6002602081905260009182526040909120805460018201549282015460038301546004909301549193926001600160a01b039091169160ff1685565b6040805195865260208601949094526001600160a01b039092169284019290925260608301919091521515608082015260a001610171565b6102666103133660046115fe565b610638565b6101f861032636600461162a565b61074a565b60015460ff16610165565b6102666103443660046115e3565b610946565b6101f860008051602061184383398151915281565b61026661036c3660046116aa565b6109ed565b610266610b3e565b61026661038736600461162a565b610b5e565b61016561039a3660046115fe565b610d6e565b6101f8600081565b6101656103b53660046115fe565b600460209081526000928352604080842090915290825290205460ff1681565b6102666103e33660046115fe565b610d97565b6101656103f63660046115fe565b60009182526004602090815260408084206001600160a01b0393909316845291905290205460ff1690565b6101f860008051602061186383398151915281565b6102666104443660046115fe565b610dbc565b60006001600160e01b03198216637965db0b60e01b148061047a57506301ffc9a760e01b6001600160e01b03198316145b92915050565b6040805160a081018252600080825260208083018290528284018290526060830182905260808301829052848252600481528382203383529052919091205460ff166105135760405162461bcd60e51b815260206004820152601c60248201527f4e6f7420617574686f72697a656420746f20766965772070726f6f660000000060448201526064015b60405180910390fd5b50600090815260026020818152604092839020835160a08101855281548152600182015492810192909252918201546001600160a01b031692810192909252600381015460608301526004015460ff161515608082015290565b60008281526020819052604090206001015461058881610ebb565b6105928383610ec5565b505050565b6001600160a01b03811633146106075760405162461bcd60e51b815260206004820152602f60248201527f416363657373436f6e74726f6c3a2063616e206f6e6c792072656e6f756e636560448201526e103937b632b9903337b91039b2b63360891b606482015260840161050a565b6106118282610f49565b5050565b60008051602061184383398151915261062d81610ebb565b610635610fae565b50565b610640611000565b600082815260026020819052604090912001546001600160a01b0316331461069c5760405162461bcd60e51b815260206004820152600f60248201526e2737ba10383937b7b31037bbb732b960891b604482015260640161050a565b6106b460008051602061186383398151915282610d6e565b806106dc5750600082815260026020819052604090912001546001600160a01b038281169116145b61071a5760405162461bcd60e51b815260206004820152600f60248201526e496e76616c6964206772616e74656560881b604482015260640161050a565b60009182526004602090815260408084206001600160a01b0390931684529190529020805460ff19166001179055565b6000610754611000565b604080516020810187905290810185905242606082015260009060800160405160208183030381529060405280519060200120905060006107d685858080601f0160208091040260200160405190810160405280939291908181526020018383808284376000920191909152506107d092508691506110489050565b9061107b565b90506001600160a01b03811633146108245760405162461bcd60e51b8152602060048201526011602482015270496e76616c6964207369676e617475726560781b604482015260640161050a565b6040516bffffffffffffffffffffffff193360601b1660208201526034810188905242605482015260009060740160408051601f19818403018152828252805160209182012060a0840183528b84528184018b815233858501818152426060880190815260006080890181815286825260028089528983209a518b5595516001808c01919091559351958a0180546001600160a01b039097166001600160a01b0319909716969096179095559051600389015592516004978801805491151560ff19928316179055968552858320828452855291859020805490961690911790945591518a815291935083917feb2780adf2acf16ef7057c790f43119785597f54a968faa605e11b7b7126862b910160405180910390a3979650505050505050565b60008051602061184383398151915261095e81610ebb565b610966611000565b6001600160a01b03821660009081526003602052604090206001015460ff166109c85760405162461bcd60e51b81526020600482015260146024820152734b657920616c726561647920696e61637469766560601b604482015260640161050a565b506001600160a01b03166000908152600360205260409020600101805460ff19169055565b600080516020611843833981519152610a0581610ebb565b610a0d611000565b428211610a5c5760405162461bcd60e51b815260206004820152601760248201527f496e76616c69642076616c696469747920706572696f64000000000000000000604482015260640161050a565b610a7460008051602061186383398151915285610d6e565b610ab15760405162461bcd60e51b815260206004820152600e60248201526d2737ba1030903b32b934b334b2b960911b604482015260640161050a565b60408051606081018252848152600160208083018281528385018781526001600160a01b038a16600081815260038552879020955186559151938501805460ff191694151594909417909355915160029093019290925591518581527f1b3fbda1fd43e64cb5613249b09baf3d3ed2da926614f632872200018c7dd31f910160405180910390a250505050565b600080516020611843833981519152610b5681610ebb565b61063561109f565b600080516020611863833981519152610b7681610ebb565b610b7e611000565b3360009081526003602052604090206001015460ff168015610bb157503360009081526003602052604090206002015442105b610bf45760405162461bcd60e51b8152602060048201526014602482015273496e76616c6964207665726966696572206b657960601b604482015260640161050a565b6000858152600260205260409020600481015460ff1615610c505760405162461bcd60e51b8152602060048201526016602482015275141c9bdbd988185b1c9958591e481d995c9a599a595960521b604482015260640161050a565b805460408051602081019290925281018690524260608201526000906080016040516020818303038152906040528051906020012090506000610cce86868080601f0160208091040260200160405190810160405280939291908181526020018383808284376000920191909152506107d092508691506110489050565b90506001600160a01b0381163314610d285760405162461bcd60e51b815260206004820152601a60248201527f496e76616c6964207665726966696572207369676e6174757265000000000000604482015260640161050a565b60048301805460ff19166001179055604051339089907f60d9367e24cc6f7fa9630b6542cd57edc20576d1a1169ff87a9eb34680a56acf90600090a35050505050505050565b6000918252602082815260408084206001600160a01b0393909316845291905290205460ff1690565b600082815260208190526040902060010154610db281610ebb565b6105928383610f49565b610dc4611000565b600082815260026020819052604090912001546001600160a01b03163314610e205760405162461bcd60e51b815260206004820152600f60248201526e2737ba10383937b7b31037bbb732b960891b604482015260640161050a565b600082815260026020819052604090912001546001600160a01b0390811690821603610e8e5760405162461bcd60e51b815260206004820152601a60248201527f43616e6e6f74207265766f6b65206f776e657220616363657373000000000000604482015260640161050a565b60009182526004602090815260408084206001600160a01b0390931684529190529020805460ff19169055565b61063581336110da565b610ecf8282610d6e565b610611576000828152602081815260408083206001600160a01b03851684529091529020805460ff19166001179055610f053390565b6001600160a01b0316816001600160a01b0316837f2f8788117e7eff1d82e926ec794901d17c78024a50270940304540a733656f0d60405160405180910390a45050565b610f538282610d6e565b15610611576000828152602081815260408083206001600160a01b0385168085529252808320805460ff1916905551339285917ff6391f5c32d9c69d2a47ea670b442974b53935d1edc7fd64eb21e047a839171b9190a45050565b610fb6611133565b6001805460ff191690557f5db9ee0a495bf2e6ff9c91a7834c1ba4fdd244a5e8aa4e537bd38aeae4b073aa335b6040516001600160a01b03909116815260200160405180910390a1565b60015460ff16156110465760405162461bcd60e51b815260206004820152601060248201526f14185d5cd8589b194e881c185d5cd95960821b604482015260640161050a565b565b7f19457468657265756d205369676e6564204d6573736167653a0a3332000000006000908152601c91909152603c902090565b600080600061108a858561117c565b91509150611097816111c1565b509392505050565b6110a7611000565b6001805460ff1916811790557f62e78cea01bee320cd4e420270b5ea74000d11b0c9f74754ebdbfc544b05a25833610fe3565b6110e48282610d6e565b610611576110f18161130b565b6110fc83602061131d565b60405160200161110d929190611701565b60408051601f198184030181529082905262461bcd60e51b825261050a91600401611776565b60015460ff166110465760405162461bcd60e51b815260206004820152601460248201527314185d5cd8589b194e881b9bdd081c185d5cd95960621b604482015260640161050a565b60008082516041036111b25760208301516040840151606085015160001a6111a6878285856114c0565b945094505050506111ba565b506000905060025b9250929050565b60008160048111156111d5576111d56117a9565b036111dd5750565b60018160048111156111f1576111f16117a9565b0361123e5760405162461bcd60e51b815260206004820152601860248201527f45434453413a20696e76616c6964207369676e61747572650000000000000000604482015260640161050a565b6002816004811115611252576112526117a9565b0361129f5760405162461bcd60e51b815260206004820152601f60248201527f45434453413a20696e76616c6964207369676e6174757265206c656e67746800604482015260640161050a565b60038160048111156112b3576112b36117a9565b036106355760405162461bcd60e51b815260206004820152602260248201527f45434453413a20696e76616c6964207369676e6174757265202773272076616c604482015261756560f01b606482015260840161050a565b606061047a6001600160a01b03831660145b6060600061132c8360026117d5565b6113379060026117ec565b67ffffffffffffffff81111561134f5761134f6117ff565b6040519080825280601f01601f191660200182016040528015611379576020820181803683370190505b509050600360fc1b8160008151811061139457611394611815565b60200101906001600160f81b031916908160001a905350600f60fb1b816001815181106113c3576113c3611815565b60200101906001600160f81b031916908160001a90535060006113e78460026117d5565b6113f29060016117ec565b90505b600181111561146a576f181899199a1a9b1b9c1cb0b131b232b360811b85600f166010811061142657611426611815565b1a60f81b82828151811061143c5761143c611815565b60200101906001600160f81b031916908160001a90535060049490941c936114638161182b565b90506113f5565b5083156114b95760405162461bcd60e51b815260206004820181905260248201527f537472696e67733a20686578206c656e67746820696e73756666696369656e74604482015260640161050a565b9392505050565b6000807f7fffffffffffffffffffffffffffffff5d576e7357a4501ddfe92f46681b20a08311156114f7575060009050600361157b565b6040805160008082526020820180845289905260ff881692820192909252606081018690526080810185905260019060a0016020604051602081039080840390855afa15801561154b573d6000803e3d6000fd5b5050604051601f1901519150506001600160a01b0381166115745760006001925092505061157b565b9150600090505b94509492505050565b60006020828403121561159657600080fd5b81356001600160e01b0319811681146114b957600080fd5b6000602082840312156115c057600080fd5b5035919050565b80356001600160a01b03811681146115de57600080fd5b919050565b6000602082840312156115f557600080fd5b6114b9826115c7565b6000806040838503121561161157600080fd5b82359150611621602084016115c7565b90509250929050565b6000806000806060858703121561164057600080fd5b8435935060208501359250604085013567ffffffffffffffff8082111561166657600080fd5b818701915087601f83011261167a57600080fd5b81358181111561168957600080fd5b88602082850101111561169b57600080fd5b95989497505060200194505050565b6000806000606084860312156116bf57600080fd5b6116c8846115c7565b95602085013595506040909401359392505050565b60005b838110156116f85781810151838201526020016116e0565b50506000910152565b7f416363657373436f6e74726f6c3a206163636f756e74200000000000000000008152600083516117398160178501602088016116dd565b7001034b99036b4b9b9b4b733903937b6329607d1b601791840191820152835161176a8160288401602088016116dd565b01602801949350505050565b60208152600082518060208401526117958160408501602087016116dd565b601f01601f19169190910160400192915050565b634e487b7160e01b600052602160045260246000fd5b634e487b7160e01b600052601160045260246000fd5b808202811582820484141761047a5761047a6117bf565b8082018082111561047a5761047a6117bf565b634e487b7160e01b600052604160045260246000fd5b634e487b7160e01b600052603260045260246000fd5b60008161183a5761183a6117bf565b50600019019056fea49807205ce4d355092ef5a8a18f56e8913cf4a201fbe287825b095693c217750ce23c3e399818cfee81a7ab0880f714e53d7672b08df0fa62f2843416e1ea09a2646970667358221220814dc99dbdcd3b4a7283034cbfe66803ad06ab731a79d24a79f1876554980b7864736f6c63430008130033",
  "linkReferences": {},
  "deployedLinkReferences": {}
}