{
  "_format": "hh-sol-artifact-1",
  "contractName": "EmergencyAccess",
  "sourceName": "contracts/core/EmergencyAccess.sol",
  "abi": [
    {
      "inputs": [
        {
          "internalType": "address",
          "name": "_identityContract",
          "type": "address"
        }
      ],
      "stateMutability": "nonpayable",
      "type": "constructor"
    },
    {
      "anonymous": false,
      "inputs": [
        {
          "indexed": true,
          "internalType": "address",
          "name": "patient",
          "type": "address"
        },
        {
          "indexed": true,
          "internalType": "address",
          "name": "provider",
          "type": "address"
        },
        {
          "indexed": false,
          "internalType": "uint256",
          "name": "expiryTime",
          "type": "uint256"
        }
      ],
      "name": "EmergencyAccessGranted",
      "type": "event"
    },
    {
      "anonymous": false,
      "inputs": [
        {
          "indexed": true,
          "internalType": "address",
          "name": "patient",
          "type": "address"
        },
        {
          "indexed": true,
          "internalType": "address",
          "name": "provider",
          "type": "address"
        },
        {
          "indexed": false,
          "internalType": "uint256",
          "name": "timestamp",
          "type": "uint256"
        },
        {
          "indexed": false,
          "internalType": "string",
          "name": "reason",
          "type": "string"
        }
      ],
      "name": "EmergencyAccessRequested",
      "type": "event"
    },
    {
      "anonymous": false,
      "inputs": [
        {
          "indexed": true,
          "internalType": "address",
          "name": "patient",
          "type": "address"
        },
        {
          "indexed": true,
          "internalType": "address",
          "name": "provider",
          "type": "address"
        }
      ],
      "name": "EmergencyAccessRevoked",
      "type": "event"
    },
    {
      "anonymous": false,
      "inputs": [
        {
          "indexed": false,
          "internalType": "address",
          "name": "account",
          "type": "address"
        }
      ],
      "name": "Paused",
      "type": "event"
    },
    {
      "anonymous": false,
      "inputs": [
        {
          "indexed": true,
          "internalType": "bytes32",
          "name": "role",
          "type": "bytes32"
        },
        {
          "indexed": true,
          "internalType": "bytes32",
          "name": "previousAdminRole",
          "type": "bytes32"
        },
        {
          "indexed": true,
          "internalType": "bytes32",
          "name": "newAdminRole",
          "type": "bytes32"
        }
      ],
      "name": "RoleAdminChanged",
      "type": "event"
    },
    {
      "anonymous": false,
      "inputs": [
        {
          "indexed": true,
          "internalType": "bytes32",
          "name": "role",
          "type": "bytes32"
        },
        {
          "indexed": true,
          "internalType": "address",
          "name": "account",
          "type": "address"
        },
        {
          "indexed": true,
          "internalType": "address",
          "name": "sender",
          "type": "address"
        }
      ],
      "name": "RoleGranted",
      "type": "event"
    },
    {
      "anonymous": false,
      "inputs": [
        {
          "indexed": true,
          "internalType": "bytes32",
          "name": "role",
          "type": "bytes32"
        },
        {
          "indexed": true,
          "internalType": "address",
          "name": "account",
          "type": "address"
        },
        {
          "indexed": true,
          "internalType": "address",
          "name": "sender",
          "type": "address"
        }
      ],
      "name": "RoleRevoked",
      "type": "event"
    },
    {
      "anonymous": false,
      "inputs": [
        {
          "indexed": false,
          "internalType": "address",
          "name": "account",
          "type": "address"
        }
      ],
      "name": "Unpaused",
      "type": "event"
    },
    {
      "inputs": [],
      "name": "ADMIN_ROLE",
      "outputs": [
        {
          "internalType": "bytes32",
          "name": "",
          "type": "bytes32"
        }
      ],
      "stateMutability": "view",
      "type": "function"
    },
    {
      "inputs": [],
      "name": "DEFAULT_ADMIN_ROLE",
      "outputs": [
        {
          "internalType": "bytes32",
          "name": "",
          "type": "bytes32"
        }
      ],
      "stateMutability": "view",
      "type": "function"
    },
    {
      "inputs": [],
      "name": "EMERGENCY_PROVIDER_ROLE",
      "outputs": [
        {
          "internalType": "bytes32",
          "name": "",
          "type": "bytes32"
        }
      ],
      "stateMutability": "view",
      "type": "function"
    },
    {
      "inputs": [],
      "name": "MAX_EMERGENCY_DURATION",
      "outputs": [
        {
          "internalType": "uint256",
          "name": "",
          "type": "uint256"
        }
      ],
      "stateMutability": "view",
      "type": "function"
    },
    {
      "inputs": [
        {
          "internalType": "address",
          "name": "",
          "type": "address"
        },
        {
          "internalType": "address",
          "name": "",
          "type": "address"
        }
      ],
      "name": "activeEmergencyAccess",
      "outputs": [
        {
          "internalType": "bool",
          "name": "",
          "type": "bool"
        }
      ],
      "stateMutability": "view",
      "type": "function"
    },
    {
      "inputs": [
        {
          "internalType": "address",
          "name": "",
          "type": "address"
        },
        {
          "internalType": "uint256",
          "name": "",
          "type": "uint256"
        }
      ],
      "name": "emergencyRequests",
      "outputs": [
        {
          "internalType": "address",
          "name": "provider",
          "type": "address"
        },
        {
          "internalType": "uint256",
          "name": "timestamp",
          "type": "uint256"
        },
        {
          "internalType": "string",
          "name": "reason",
          "type": "string"
        },
        {
          "internalType": "bool",
          "name": "isActive",
          "type": "bool"
        },
        {
          "internalType": "bool",
          "name": "isApproved",
          "type": "bool"
        },
        {
          "internalType": "uint256",
          "name": "expiryTime",
          "type": "uint256"
        }
      ],
      "stateMutability": "view",
      "type": "function"
    },
    {
      "inputs": [
        {
          "internalType": "address",
          "name": "_patient",
          "type": "address"
        }
      ],
      "name": "getEmergencyRequests",
      "outputs": [
        {
          "components": [
            {
              "internalType": "address",
              "name": "provider",
              "type": "address"
            },
            {
              "internalType": "uint256",
              "name": "timestamp",
              "type": "uint256"
            },
            {
              "internalType": "string",
              "name": "reason",
              "type": "string"
            },
            {
              "internalType": "bool",
              "name": "isActive",
              "type": "bool"
            },
            {
              "internalType": "bool",
              "name": "isApproved",
              "type": "bool"
            },
            {
              "internalType": "uint256",
              "name": "expiryTime",
              "type": "uint256"
            }
          ],
          "internalType": "struct EmergencyAccess.EmergencyRequest[]",
          "name": "",
          "type": "tuple[]"
        }
      ],
      "stateMutability": "view",
      "type": "function"
    },
    {
      "inputs": [
        {
          "internalType": "bytes32",
          "name": "role",
          "type": "bytes32"
        }
      ],
      "name": "getRoleAdmin",
      "outputs": [
        {
          "internalType": "bytes32",
          "name": "",
          "type": "bytes32"
        }
      ],
      "stateMutability": "view",
      "type": "function"
    },
    {
      "inputs": [
        {
          "internalType": "address",
          "name": "_provider",
          "type": "address"
        },
        {
          "internalType": "uint256",
          "name": "_duration",
          "type": "uint256"
        }
      ],
      "name": "grantEmergencyAccess",
      "outputs": [],
      "stateMutability": "nonpayable",
      "type": "function"
    },
    {
      "inputs": [
        {
          "internalType": "bytes32",
          "name": "role",
          "type": "bytes32"
        },
        {
          "internalType": "address",
          "name": "account",
          "type": "address"
        }
      ],
      "name": "grantRole",
      "outputs": [],
      "stateMutability": "nonpayable",
      "type": "function"
    },
    {
      "inputs": [
        {
          "internalType": "address",
          "name": "_patient",
          "type": "address"
        },
        {
          "internalType": "address",
          "name": "_provider",
          "type": "address"
        }
      ],
      "name": "hasEmergencyAccess",
      "outputs": [
        {
          "internalType": "bool",
          "name": "",
          "type": "bool"
        }
      ],
      "stateMutability": "view",
      "type": "function"
    },
    {
      "inputs": [
        {
          "internalType": "bytes32",
          "name": "role",
          "type": "bytes32"
        },
        {
          "internalType": "address",
          "name": "account",
          "type": "address"
        }
      ],
      "name": "hasRole",
      "outputs": [
        {
          "internalType": "bool",
          "name": "",
          "type": "bool"
        }
      ],
      "stateMutability": "view",
      "type": "function"
    },
    {
      "inputs": [],
      "name": "identityContract",
      "outputs": [
        {
          "internalType": "contract IUHCIdentity",
          "name": "",
          "type": "address"
        }
      ],
      "stateMutability": "view",
      "type": "function"
    },
    {
      "inputs": [],
      "name": "pause",
      "outputs": [],
      "stateMutability": "nonpayable",
      "type": "function"
    },
    {
      "inputs": [],
      "name": "paused",
      "outputs": [
        {
          "internalType": "bool",
          "name": "",
          "type": "bool"
        }
      ],
      "stateMutability": "view",
      "type": "function"
    },
    {
      "inputs": [
        {
          "internalType": "bytes32",
          "name": "role",
          "type": "bytes32"
        },
        {
          "internalType": "address",
          "name": "account",
          "type": "address"
        }
      ],
      "name": "renounceRole",
      "outputs": [],
      "stateMutability": "nonpayable",
      "type": "function"
    },
    {
      "inputs": [
        {
          "internalType": "address",
          "name": "_patient",
          "type": "address"
        },
        {
          "internalType": "string",
          "name": "_reason",
          "type": "string"
        }
      ],
      "name": "requestEmergencyAccess",
      "outputs": [],
      "stateMutability": "nonpayable",
      "type": "function"
    },
    {
      "inputs": [
        {
          "internalType": "address",
          "name": "_provider",
          "type": "address"
        }
      ],
      "name": "revokeEmergencyAccess",
      "outputs": [],
      "stateMutability": "nonpayable",
      "type": "function"
    },
    {
      "inputs": [
        {
          "internalType": "bytes32",
          "name": "role",
          "type": "bytes32"
        },
        {
          "internalType": "address",
          "name": "account",
          "type": "address"
        }
      ],
      "name": "revokeRole",
      "outputs": [],
      "stateMutability": "nonpayable",
      "type": "function"
    },
    {
      "inputs": [
        {
          "internalType": "bytes4",
          "name": "interfaceId",
          "type": "bytes4"
        }
      ],
      "name": "supportsInterface",
      "outputs": [
        {
          "internalType": "bool",
          "name": "",
          "type": "bool"
        }
      ],
      "stateMutability": "view",
      "type": "function"
    },
    {
      "inputs": [],
      "name": "unpause",
      "outputs": [],
      "stateMutability": "nonpayable",
      "type": "function"
    }
  ],
  "bytecode": "0x60806040523480156200001157600080fd5b5060405162001a2238038062001a22833981016040819052620000349162000134565b600180546001600160a81b0319166101006001600160a01b038416021790556200006060003362000093565b6200008c7fa49807205ce4d355092ef5a8a18f56e8913cf4a201fbe287825b095693c217753362000093565b5062000166565b6000828152602081815260408083206001600160a01b038516845290915290205460ff1662000130576000828152602081815260408083206001600160a01b03851684529091529020805460ff19166001179055620000ef3390565b6001600160a01b0316816001600160a01b0316837f2f8788117e7eff1d82e926ec794901d17c78024a50270940304540a733656f0d60405160405180910390a45b5050565b6000602082840312156200014757600080fd5b81516001600160a01b03811681146200015f57600080fd5b9392505050565b6118ac80620001766000396000f3fe608060405234801561001057600080fd5b50600436106101375760003560e01c80636852a15c116100b857806390218ee81161007c57806390218ee8146102d257806391d14854146102e5578063a217fddf146102f8578063cc66bbc314610300578063d547741f14610327578063f54eeeb71461033a57600080fd5b80636852a15c1461023d57806373b492ff1461026b57806375b238fc1461027e5780638456cb59146102a55780638bb15155146102ad57600080fd5b8063358296b1116100ff578063358296b1146101dd57806336568abe146101e75780633f4ba83a146101fa5780635c975abb1461020257806367031bae1461020d57600080fd5b806301ffc9a71461013c5780631a4991aa146101645780631d6d893e14610184578063248a9ca3146101995780632f2ff15d146101ca575b600080fd5b61014f61014a36600461131a565b61034d565b60405190151581526020015b60405180910390f35b610177610172366004611360565b610384565b60405161015b91906113cb565b610197610192366004611479565b6104da565b005b6101bc6101a73660046114a3565b60009081526020819052604090206001015490565b60405190815260200161015b565b6101976101d83660046114bc565b610755565b6101bc6201518081565b6101976101f53660046114bc565b61077f565b6101976107fd565b60015460ff1661014f565b6001546102259061010090046001600160a01b031681565b6040516001600160a01b03909116815260200161015b565b61014f61024b3660046114e8565b600360209081526000928352604080842090915290825290205460ff1681565b610197610279366004611360565b610832565b6101bc7fa49807205ce4d355092ef5a8a18f56e8913cf4a201fbe287825b095693c2177581565b6101976109fc565b6102c06102bb366004611479565b610a2e565b60405161015b96959493929190611512565b61014f6102e03660046114e8565b610b1d565b61014f6102f33660046114bc565b610c4d565b6101bc600081565b6101bc7f41e47756f5a888de61bec07faea1e39d68b2d6ce503e53d52f4471b552066fb081565b6101976103353660046114bc565b610c76565b610197610348366004611557565b610c9b565b60006001600160e01b03198216637965db0b60e01b148061037e57506301ffc9a760e01b6001600160e01b03198316145b92915050565b6001600160a01b0381166000908152600260209081526040808320805482518185028101850190935280835260609492939192909184015b828210156104cf5760008481526020908190206040805160c0810182526005860290920180546001600160a01b031683526001810154938301939093526002830180549293929184019161040f906115da565b80601f016020809104026020016040519081016040528092919081815260200182805461043b906115da565b80156104885780601f1061045d57610100808354040283529160200191610488565b820191906000526020600020905b81548152906001019060200180831161046b57829003601f168201915b5050509183525050600382015460ff8082161515602080850191909152610100909204161515604083015260049092015460609091015290825260019290920191016103bc565b505050509050919050565b6104e2610efb565b6201518081111561053a5760405162461bcd60e51b815260206004820152601860248201527f4475726174696f6e2065786365656473206d6178696d756d000000000000000060448201526064015b60405180910390fd5b3360009081526003602090815260408083206001600160a01b038616845290915290205460ff16156105ae5760405162461bcd60e51b815260206004820181905260248201527f456d657267656e63792061636365737320616c7265616479206772616e7465646044820152606401610531565b60006105ba824261162a565b3360008181526003602090815260408083206001600160a01b03891684528252808320805460ff1916600117905592825260029052208054919250905b801561070d576001600160a01b0385168261061360018461163d565b8154811061062357610623611650565b60009182526020909120600590910201546001600160a01b031614801561067957508161065160018361163d565b8154811061066157610661611650565b600091825260209091206003600590920201015460ff165b156106fb5760018261068b828461163d565b8154811061069b5761069b611650565b6000918252602090912060036005909202010180549115156101000261ff001990921691909117905582826106d160018461163d565b815481106106e1576106e1611650565b90600052602060002090600502016004018190555061070d565b8061070581611666565b9150506105f7565b506040518281526001600160a01b0385169033907f5d1675d647fd82d7866123d4b61e400e9b9cd41946ae22001974c31e8addb20b906020015b60405180910390a350505050565b60008281526020819052604090206001015461077081610f43565b61077a8383610f4d565b505050565b6001600160a01b03811633146107ef5760405162461bcd60e51b815260206004820152602f60248201527f416363657373436f6e74726f6c3a2063616e206f6e6c792072656e6f756e636560448201526e103937b632b9903337b91039b2b63360891b6064820152608401610531565b6107f98282610fd1565b5050565b7fa49807205ce4d355092ef5a8a18f56e8913cf4a201fbe287825b095693c2177561082781610f43565b61082f611036565b50565b61083a610efb565b3360009081526003602090815260408083206001600160a01b038516845290915290205460ff166108ad5760405162461bcd60e51b815260206004820152601a60248201527f4e6f2061637469766520656d657267656e6379206163636573730000000000006044820152606401610531565b3360008181526003602090815260408083206001600160a01b03861684528252808320805460ff19169055928252600290522080545b80156109c1576001600160a01b038316826108ff60018461163d565b8154811061090f5761090f611650565b60009182526020909120600590910201546001600160a01b031614801561096557508161093d60018361163d565b8154811061094d5761094d611650565b600091825260209091206003600590920201015460ff165b156109af5760008261097860018461163d565b8154811061098857610988611650565b60009182526020909120600590910201600301805460ff19169115159190911790556109c1565b806109b981611666565b9150506108e3565b506040516001600160a01b0383169033907f381ceeb666db3e3c307a575ad34d05f5b497665803dd1983e06e72dd7b4120e490600090a35050565b7fa49807205ce4d355092ef5a8a18f56e8913cf4a201fbe287825b095693c21775610a2681610f43565b61082f611088565b60026020528160005260406000208181548110610a4a57600080fd5b60009182526020909120600590910201805460018201546002830180546001600160a01b03909316955090935090610a81906115da565b80601f0160208091040260200160405190810160405280929190818152602001828054610aad906115da565b8015610afa5780601f10610acf57610100808354040283529160200191610afa565b820191906000526020600020905b815481529060010190602001808311610add57829003601f168201915b505050506003830154600490930154919260ff8082169361010090920416915086565b6001600160a01b03808316600090815260036020908152604080832093851683529290529081205460ff16610b545750600061037e565b6001600160a01b038316600090815260026020526040902080545b8015610c42576001600160a01b03841682610b8b60018461163d565b81548110610b9b57610b9b611650565b60009182526020909120600590910201546001600160a01b0316148015610bf1575081610bc960018361163d565b81548110610bd957610bd9611650565b600091825260209091206003600590920201015460ff165b15610c305781610c0260018361163d565b81548110610c1257610c12611650565b9060005260206000209060050201600401544211159250505061037e565b80610c3a81611666565b915050610b6f565b506000949350505050565b6000918252602082815260408084206001600160a01b0393909316845291905290205460ff1690565b600082815260208190526040902060010154610c9181610f43565b61077a8383610fd1565b610cc57f41e47756f5a888de61bec07faea1e39d68b2d6ce503e53d52f4471b552066fb033610c4d565b610d2b5760405162461bcd60e51b815260206004820152603160248201527f456d657267656e63794163636573733a2043616c6c6572206973206e6f74206560448201527036b2b933b2b731bc90383937bb34b232b960791b6064820152608401610531565b610d33610efb565b6001600160a01b038316600090815260036020908152604080832033845290915290205460ff1615610da75760405162461bcd60e51b815260206004820152601f60248201527f456d657267656e63792061636365737320616c726561647920616374697665006044820152606401610531565b60006040518060c00160405280336001600160a01b0316815260200142815260200184848080601f0160208091040260200160405190810160405280939291908181526020018383808284376000920182905250938552505060016020808501829052604080860185905260609095018490526001600160a01b038a8116855260028083528686208054808601825590875295839020885160059097020180546001600160a01b03191696909216959095178155908601519181019190915592840151939450849391830191610e7e9150826116e1565b506060820151600382018054608085015115156101000261ff00199315159390931661ffff199091161791909117905560a09091015160049091015560405133906001600160a01b038616907fefa93d9de37215c4cbd4d63e291fb7c7b7dab85fad4b145c2e7c4bdf5e94579f90610747904290889088906117a1565b60015460ff1615610f415760405162461bcd60e51b815260206004820152601060248201526f14185d5cd8589b194e881c185d5cd95960821b6044820152606401610531565b565b61082f81336110c3565b610f578282610c4d565b6107f9576000828152602081815260408083206001600160a01b03851684529091529020805460ff19166001179055610f8d3390565b6001600160a01b0316816001600160a01b0316837f2f8788117e7eff1d82e926ec794901d17c78024a50270940304540a733656f0d60405160405180910390a45050565b610fdb8282610c4d565b156107f9576000828152602081815260408083206001600160a01b0385168085529252808320805460ff1916905551339285917ff6391f5c32d9c69d2a47ea670b442974b53935d1edc7fd64eb21e047a839171b9190a45050565b61103e61111c565b6001805460ff191690557f5db9ee0a495bf2e6ff9c91a7834c1ba4fdd244a5e8aa4e537bd38aeae4b073aa335b6040516001600160a01b03909116815260200160405180910390a1565b611090610efb565b6001805460ff1916811790557f62e78cea01bee320cd4e420270b5ea74000d11b0c9f74754ebdbfc544b05a2583361106b565b6110cd8282610c4d565b6107f9576110da81611165565b6110e5836020611177565b6040516020016110f69291906117d7565b60408051601f198184030181529082905262461bcd60e51b82526105319160040161184c565b60015460ff16610f415760405162461bcd60e51b815260206004820152601460248201527314185d5cd8589b194e881b9bdd081c185d5cd95960621b6044820152606401610531565b606061037e6001600160a01b03831660145b6060600061118683600261185f565b61119190600261162a565b67ffffffffffffffff8111156111a9576111a961167d565b6040519080825280601f01601f1916602001820160405280156111d3576020820181803683370190505b509050600360fc1b816000815181106111ee576111ee611650565b60200101906001600160f81b031916908160001a905350600f60fb1b8160018151811061121d5761121d611650565b60200101906001600160f81b031916908160001a905350600061124184600261185f565b61124c90600161162a565b90505b60018111156112c4576f181899199a1a9b1b9c1cb0b131b232b360811b85600f166010811061128057611280611650565b1a60f81b82828151811061129657611296611650565b60200101906001600160f81b031916908160001a90535060049490941c936112bd81611666565b905061124f565b5083156113135760405162461bcd60e51b815260206004820181905260248201527f537472696e67733a20686578206c656e67746820696e73756666696369656e746044820152606401610531565b9392505050565b60006020828403121561132c57600080fd5b81356001600160e01b03198116811461131357600080fd5b80356001600160a01b038116811461135b57600080fd5b919050565b60006020828403121561137257600080fd5b61131382611344565b60005b8381101561139657818101518382015260200161137e565b50506000910152565b600081518084526113b781602086016020860161137b565b601f01601f19169290920160200192915050565b60006020808301818452808551808352604092508286019150828160051b87010184880160005b8381101561146b57888303603f19018552815180516001600160a01b0316845287810151888501528681015160c0888601819052906114338287018261139f565b60608481015115159088015260808085015115159088015260a0938401519390960192909252505093860193908601906001016113f2565b509098975050505050505050565b6000806040838503121561148c57600080fd5b61149583611344565b946020939093013593505050565b6000602082840312156114b557600080fd5b5035919050565b600080604083850312156114cf57600080fd5b823591506114df60208401611344565b90509250929050565b600080604083850312156114fb57600080fd5b61150483611344565b91506114df60208401611344565b60018060a01b038716815285602082015260c06040820152600061153960c083018761139f565b941515606083015250911515608083015260a0909101529392505050565b60008060006040848603121561156c57600080fd5b61157584611344565b9250602084013567ffffffffffffffff8082111561159257600080fd5b818601915086601f8301126115a657600080fd5b8135818111156115b557600080fd5b8760208285010111156115c757600080fd5b6020830194508093505050509250925092565b600181811c908216806115ee57607f821691505b60208210810361160e57634e487b7160e01b600052602260045260246000fd5b50919050565b634e487b7160e01b600052601160045260246000fd5b8082018082111561037e5761037e611614565b8181038181111561037e5761037e611614565b634e487b7160e01b600052603260045260246000fd5b60008161167557611675611614565b506000190190565b634e487b7160e01b600052604160045260246000fd5b601f82111561077a57600081815260208120601f850160051c810160208610156116ba5750805b601f850160051c820191505b818110156116d9578281556001016116c6565b505050505050565b815167ffffffffffffffff8111156116fb576116fb61167d565b61170f8161170984546115da565b84611693565b602080601f831160018114611744576000841561172c5750858301515b600019600386901b1c1916600185901b1785556116d9565b600085815260208120601f198616915b8281101561177357888601518255948401946001909101908401611754565b50858210156117915787850151600019600388901b60f8161c191681555b5050505050600190811b01905550565b83815260406020820152816040820152818360608301376000818301606090810191909152601f909201601f1916010192915050565b7f416363657373436f6e74726f6c3a206163636f756e742000000000000000000081526000835161180f81601785016020880161137b565b7001034b99036b4b9b9b4b733903937b6329607d1b601791840191820152835161184081602884016020880161137b565b01602801949350505050565b602081526000611313602083018461139f565b808202811582820484141761037e5761037e61161456fea2646970667358221220c58f4f59da5ef2523db26a499095e716f1e498e430ba16f160c8ee3dd2511ee064736f6c63430008130033",
  "linkReferences": {},
  "deployedLinkReferences": {}
}