{
  "_format": "hh-sol-artifact-1",
  "contractName": "IPFSStorageConnector",
  "sourceName": "contracts/storage/IPFSStorageConnector.sol",
  "abi": [
    {
      "inputs": [
        {
          "internalType": "address",
          "name": "_identityContract",
          "type": "address"
        }
      ],
      "stateMutability": "nonpayable",
      "type": "constructor"
    },
    {
      "anonymous": false,
      "inputs": [
        {
          "indexed": true,
          "internalType": "bytes32",
          "name": "contentId",
          "type": "bytes32"
        }
      ],
      "name": "ContentDeleted",
      "type": "event"
    },
    {
      "anonymous": false,
      "inputs": [
        {
          "indexed": true,
          "internalType": "bytes32",
          "name": "contentId",
          "type": "bytes32"
        },
        {
          "indexed": true,
          "internalType": "address",
          "name": "owner",
          "type": "address"
        },
        {
          "indexed": false,
          "internalType": "bytes32",
          "name": "contentHash",
          "type": "bytes32"
        }
      ],
      "name": "ContentStored",
      "type": "event"
    },
    {
      "anonymous": false,
      "inputs": [
        {
          "indexed": true,
          "internalType": "bytes32",
          "name": "contentId",
          "type": "bytes32"
        },
        {
          "indexed": false,
          "internalType": "bytes32",
          "name": "newContentHash",
          "type": "bytes32"
        }
      ],
      "name": "ContentUpdated",
      "type": "event"
    },
    {
      "anonymous": false,
      "inputs": [
        {
          "indexed": true,
          "internalType": "bytes32",
          "name": "contentId",
          "type": "bytes32"
        },
        {
          "indexed": false,
          "internalType": "uint256",
          "name": "version",
          "type": "uint256"
        }
      ],
      "name": "ContentVersionUpdated",
      "type": "event"
    },
    {
      "anonymous": false,
      "inputs": [
        {
          "indexed": true,
          "internalType": "bytes32",
          "name": "contentId",
          "type": "bytes32"
        },
        {
          "indexed": true,
          "internalType": "address",
          "name": "recipient",
          "type": "address"
        }
      ],
      "name": "EncryptionKeyShared",
      "type": "event"
    },
    {
      "anonymous": false,
      "inputs": [
        {
          "indexed": false,
          "internalType": "address",
          "name": "account",
          "type": "address"
        }
      ],
      "name": "Paused",
      "type": "event"
    },
    {
      "anonymous": false,
      "inputs": [
        {
          "indexed": true,
          "internalType": "bytes32",
          "name": "role",
          "type": "bytes32"
        },
        {
          "indexed": true,
          "internalType": "bytes32",
          "name": "previousAdminRole",
          "type": "bytes32"
        },
        {
          "indexed": true,
          "internalType": "bytes32",
          "name": "newAdminRole",
          "type": "bytes32"
        }
      ],
      "name": "RoleAdminChanged",
      "type": "event"
    },
    {
      "anonymous": false,
      "inputs": [
        {
          "indexed": true,
          "internalType": "bytes32",
          "name": "role",
          "type": "bytes32"
        },
        {
          "indexed": true,
          "internalType": "address",
          "name": "account",
          "type": "address"
        },
        {
          "indexed": true,
          "internalType": "address",
          "name": "sender",
          "type": "address"
        }
      ],
      "name": "RoleGranted",
      "type": "event"
    },
    {
      "anonymous": false,
      "inputs": [
        {
          "indexed": true,
          "internalType": "bytes32",
          "name": "role",
          "type": "bytes32"
        },
        {
          "indexed": true,
          "internalType": "address",
          "name": "account",
          "type": "address"
        },
        {
          "indexed": true,
          "internalType": "address",
          "name": "sender",
          "type": "address"
        }
      ],
      "name": "RoleRevoked",
      "type": "event"
    },
    {
      "anonymous": false,
      "inputs": [
        {
          "indexed": false,
          "internalType": "address",
          "name": "account",
          "type": "address"
        }
      ],
      "name": "Unpaused",
      "type": "event"
    },
    {
      "inputs": [],
      "name": "ADMIN_ROLE",
      "outputs": [
        {
          "internalType": "bytes32",
          "name": "",
          "type": "bytes32"
        }
      ],
      "stateMutability": "view",
      "type": "function"
    },
    {
      "inputs": [],
      "name": "DEFAULT_ADMIN_ROLE",
      "outputs": [
        {
          "internalType": "bytes32",
          "name": "",
          "type": "bytes32"
        }
      ],
      "stateMutability": "view",
      "type": "function"
    },
    {
      "inputs": [],
      "name": "STORAGE_PROVIDER_ROLE",
      "outputs": [
        {
          "internalType": "bytes32",
          "name": "",
          "type": "bytes32"
        }
      ],
      "stateMutability": "view",
      "type": "function"
    },
    {
      "inputs": [
        {
          "internalType": "bytes32",
          "name": "_contentId",
          "type": "bytes32"
        }
      ],
      "name": "deleteContent",
      "outputs": [],
      "stateMutability": "nonpayable",
      "type": "function"
    },
    {
      "inputs": [
        {
          "internalType": "bytes32",
          "name": "_contentId",
          "type": "bytes32"
        }
      ],
      "name": "getContentVersion",
      "outputs": [
        {
          "internalType": "uint256",
          "name": "",
          "type": "uint256"
        }
      ],
      "stateMutability": "view",
      "type": "function"
    },
    {
      "inputs": [
        {
          "internalType": "bytes32",
          "name": "_contentId",
          "type": "bytes32"
        }
      ],
      "name": "getEncryptionKey",
      "outputs": [
        {
          "internalType": "bytes32",
          "name": "",
          "type": "bytes32"
        }
      ],
      "stateMutability": "view",
      "type": "function"
    },
    {
      "inputs": [
        {
          "internalType": "bytes32",
          "name": "role",
          "type": "bytes32"
        }
      ],
      "name": "getRoleAdmin",
      "outputs": [
        {
          "internalType": "bytes32",
          "name": "",
          "type": "bytes32"
        }
      ],
      "stateMutability": "view",
      "type": "function"
    },
    {
      "inputs": [
        {
          "internalType": "bytes32",
          "name": "_contentId",
          "type": "bytes32"
        }
      ],
      "name": "getStorageEntry",
      "outputs": [
        {
          "components": [
            {
              "internalType": "bytes32",
              "name": "contentHash",
              "type": "bytes32"
            },
            {
              "internalType": "address",
              "name": "owner",
              "type": "address"
            },
            {
              "internalType": "uint256",
              "name": "timestamp",
              "type": "uint256"
            },
            {
              "internalType": "bool",
              "name": "isEncrypted",
              "type": "bool"
            },
            {
              "internalType": "bytes32",
              "name": "encryptionKeyHash",
              "type": "bytes32"
            },
            {
              "internalType": "bytes32",
              "name": "metadataHash",
              "type": "bytes32"
            }
          ],
          "internalType": "struct IStorageConnector.StorageEntry",
          "name": "",
          "type": "tuple"
        }
      ],
      "stateMutability": "view",
      "type": "function"
    },
    {
      "inputs": [
        {
          "internalType": "bytes32",
          "name": "role",
          "type": "bytes32"
        },
        {
          "internalType": "address",
          "name": "account",
          "type": "address"
        }
      ],
      "name": "grantRole",
      "outputs": [],
      "stateMutability": "nonpayable",
      "type": "function"
    },
    {
      "inputs": [
        {
          "internalType": "bytes32",
          "name": "role",
          "type": "bytes32"
        },
        {
          "internalType": "address",
          "name": "account",
          "type": "address"
        }
      ],
      "name": "hasRole",
      "outputs": [
        {
          "internalType": "bool",
          "name": "",
          "type": "bool"
        }
      ],
      "stateMutability": "view",
      "type": "function"
    },
    {
      "inputs": [],
      "name": "identityContract",
      "outputs": [
        {
          "internalType": "contract IUHCIdentity",
          "name": "",
          "type": "address"
        }
      ],
      "stateMutability": "view",
      "type": "function"
    },
    {
      "inputs": [
        {
          "internalType": "bytes32",
          "name": "_contentId",
          "type": "bytes32"
        },
        {
          "internalType": "address",
          "name": "_user",
          "type": "address"
        }
      ],
      "name": "isAuthorized",
      "outputs": [
        {
          "internalType": "bool",
          "name": "",
          "type": "bool"
        }
      ],
      "stateMutability": "view",
      "type": "function"
    },
    {
      "inputs": [],
      "name": "pause",
      "outputs": [],
      "stateMutability": "nonpayable",
      "type": "function"
    },
    {
      "inputs": [],
      "name": "paused",
      "outputs": [
        {
          "internalType": "bool",
          "name": "",
          "type": "bool"
        }
      ],
      "stateMutability": "view",
      "type": "function"
    },
    {
      "inputs": [
        {
          "internalType": "bytes32",
          "name": "role",
          "type": "bytes32"
        },
        {
          "internalType": "address",
          "name": "account",
          "type": "address"
        }
      ],
      "name": "renounceRole",
      "outputs": [],
      "stateMutability": "nonpayable",
      "type": "function"
    },
    {
      "inputs": [
        {
          "internalType": "bytes32",
          "name": "role",
          "type": "bytes32"
        },
        {
          "internalType": "address",
          "name": "account",
          "type": "address"
        }
      ],
      "name": "revokeRole",
      "outputs": [],
      "stateMutability": "nonpayable",
      "type": "function"
    },
    {
      "inputs": [
        {
          "internalType": "bytes32",
          "name": "_contentId",
          "type": "bytes32"
        },
        {
          "internalType": "address",
          "name": "_recipient",
          "type": "address"
        },
        {
          "internalType": "bytes32",
          "name": "_encryptedKey",
          "type": "bytes32"
        }
      ],
      "name": "shareEncryptionKey",
      "outputs": [],
      "stateMutability": "nonpayable",
      "type": "function"
    },
    {
      "inputs": [
        {
          "internalType": "bytes32",
          "name": "_contentHash",
          "type": "bytes32"
        },
        {
          "internalType": "bool",
          "name": "_isEncrypted",
          "type": "bool"
        },
        {
          "internalType": "bytes32",
          "name": "_encryptionKeyHash",
          "type": "bytes32"
        },
        {
          "internalType": "bytes32",
          "name": "_metadataHash",
          "type": "bytes32"
        }
      ],
      "name": "storeContent",
      "outputs": [
        {
          "internalType": "bytes32",
          "name": "",
          "type": "bytes32"
        }
      ],
      "stateMutability": "nonpayable",
      "type": "function"
    },
    {
      "inputs": [
        {
          "internalType": "bytes4",
          "name": "interfaceId",
          "type": "bytes4"
        }
      ],
      "name": "supportsInterface",
      "outputs": [
        {
          "internalType": "bool",
          "name": "",
          "type": "bool"
        }
      ],
      "stateMutability": "view",
      "type": "function"
    },
    {
      "inputs": [],
      "name": "unpause",
      "outputs": [],
      "stateMutability": "nonpayable",
      "type": "function"
    },
    {
      "inputs": [
        {
          "internalType": "bytes32",
          "name": "_contentId",
          "type": "bytes32"
        },
        {
          "internalType": "bytes32",
          "name": "_newContentHash",
          "type": "bytes32"
        },
        {
          "internalType": "bytes32",
          "name": "_newMetadataHash",
          "type": "bytes32"
        }
      ],
      "name": "updateContent",
      "outputs": [],
      "stateMutability": "nonpayable",
      "type": "function"
    },
    {
      "inputs": [
        {
          "internalType": "bytes32",
          "name": "_contentId",
          "type": "bytes32"
        },
        {
          "internalType": "bytes32",
          "name": "_contentHash",
          "type": "bytes32"
        }
      ],
      "name": "verifyContent",
      "outputs": [
        {
          "internalType": "bool",
          "name": "",
          "type": "bool"
        }
      ],
      "stateMutability": "view",
      "type": "function"
    }
  ],
  "bytecode": "0x60806040523480156200001157600080fd5b506040516200172138038062001721833981016040819052620000349162000134565b600180546001600160a81b0319166101006001600160a01b038416021790556200006060003362000093565b6200008c7fa49807205ce4d355092ef5a8a18f56e8913cf4a201fbe287825b095693c217753362000093565b5062000166565b6000828152602081815260408083206001600160a01b038516845290915290205460ff1662000130576000828152602081815260408083206001600160a01b03851684529091529020805460ff19166001179055620000ef3390565b6001600160a01b0316816001600160a01b0316837f2f8788117e7eff1d82e926ec794901d17c78024a50270940304540a733656f0d60405160405180910390a45b5050565b6000602082840312156200014757600080fd5b81516001600160a01b03811681146200015f57600080fd5b9392505050565b6115ab80620001766000396000f3fe608060405234801561001057600080fd5b50600436106101425760003560e01c806391d14854116100b8578063bba8fb9d1161007c578063bba8fb9d146102c5578063bcc292c81461032a578063bcddc0241461033d578063d547741f14610350578063ee56e8d014610363578063fe006fcd1461037657600080fd5b806391d148541461025d578063956db46514610270578063a2036faf14610283578063a217fddf14610296578063a49e33191461029e57600080fd5b80635c975abb1161010a5780635c975abb146101d0578063603759d4146101db57806367031bae146101fd5780636b9b784b1461022d57806375b238fc146102405780638456cb591461025557600080fd5b806301ffc9a714610147578063248a9ca31461016f5780632f2ff15d146101a057806336568abe146101b55780633f4ba83a146101c8575b600080fd5b61015a61015536600461122e565b610396565b60405190151581526020015b60405180910390f35b61019261017d366004611258565b60009081526020819052604090206001015490565b604051908152602001610166565b6101b36101ae36600461128d565b6103cd565b005b6101b36101c336600461128d565b6103f7565b6101b361047a565b60015460ff1661015a565b61015a6101e93660046112b9565b600091825260026020526040909120541490565b6001546102159061010090046001600160a01b031681565b6040516001600160a01b039091168152602001610166565b6101b361023b3660046112db565b61049d565b61019260008051602061155683398151915281565b6101b361069b565b61015a61026b36600461128d565b6106bb565b61015a61027e36600461128d565b6106e4565b610192610291366004611258565b61077c565b610192600081565b6101927f28269e640700c7265d3e162537c4c04ce20187c1c0fb68f1f5c972c74150859a81565b6102d86102d3366004611258565b610802565b6040516101669190815181526020808301516001600160a01b031690820152604080830151908201526060808301511515908201526080808301519082015260a0918201519181019190915260c00190565b6101b3610338366004611258565b6108ee565b61019261034b36600461131e565b610a74565b6101b361035e36600461128d565b610c30565b6101b361037136600461135b565b610c55565b610192610384366004611258565b60009081526004602052604090205490565b60006001600160e01b03198216637965db0b60e01b14806103c757506301ffc9a760e01b6001600160e01b03198316145b92915050565b6000828152602081905260409020600101546103e881610e0f565b6103f28383610e19565b505050565b6001600160a01b038116331461046c5760405162461bcd60e51b815260206004820152602f60248201527f416363657373436f6e74726f6c3a2063616e206f6e6c792072656e6f756e636560448201526e103937b632b9903337b91039b2b63360891b60648201526084015b60405180910390fd5b6104768282610e9d565b5050565b60008051602061155683398151915261049281610e0f565b61049a610f02565b50565b60015460405163b9209e3360e01b81523360048201526101009091046001600160a01b03169063b9209e3390602401602060405180830381865afa1580156104e9573d6000803e3d6000fd5b505050506040513d601f19601f8201168201806040525081019061050d9190611387565b6105295760405162461bcd60e51b8152600401610463906113a4565b610531610f54565b6000838152600260205260409020600101546001600160a01b0316331461058e5760405162461bcd60e51b81526020600482015260116024820152702737ba1031b7b73a32b73a1037bbb732b960791b6044820152606401610463565b60015460405163b9209e3360e01b81526001600160a01b0384811660048301526101009092049091169063b9209e3390602401602060405180830381865afa1580156105de573d6000803e3d6000fd5b505050506040513d601f19601f820116820180604052508101906106029190611387565b6106475760405162461bcd60e51b8152602060048201526016602482015275149958da5c1a595b9d081b9bdd081d995c9a599a595960521b6044820152606401610463565b60008381526003602090815260408083206001600160a01b038616808552925280832084905551909185917f0f24daf8a86e83909a462004b121b858f5329c2bdbd6341964cc4973212a2cec9190a3505050565b6000805160206115568339815191526106b381610e0f565b61049a610f9c565b6000918252602082815260408084206001600160a01b0393909316845291905290205460ff1690565b6000828152600260208181526040808420815160c0810183528154815260018201546001600160a01b039081169482018590529482015492810192909252600381015460ff1615156060830152600481015460808301526005015460a08201529184161480610774575060008481526003602090815260408083206001600160a01b038716845290915290205415155b949350505050565b600061078882336106e4565b6107e45760405162461bcd60e51b815260206004820152602760248201527f4e6f7420617574686f72697a656420746f2061636365737320656e6372797074604482015266696f6e206b657960c81b6064820152608401610463565b50600090815260036020908152604080832033845290915290205490565b6040805160c081018252600080825260208201819052918101829052606081018290526080810182905260a081019190915261083e82336106e4565b61088a5760405162461bcd60e51b815260206004820152601e60248201527f4e6f7420617574686f72697a656420746f207669657720636f6e74656e7400006044820152606401610463565b50600090815260026020818152604092839020835160c0810185528154815260018201546001600160a01b0316928101929092529182015492810192909252600381015460ff1615156060830152600481015460808301526005015460a082015290565b60015460405163b9209e3360e01b81523360048201526101009091046001600160a01b03169063b9209e3390602401602060405180830381865afa15801561093a573d6000803e3d6000fd5b505050506040513d601f19601f8201168201806040525081019061095e9190611387565b61097a5760405162461bcd60e51b8152600401610463906113a4565b610982610f54565b6000818152600260205260409020600101546001600160a01b03163314806109bd57506109bd600080516020611556833981519152336106bb565b6109fa5760405162461bcd60e51b815260206004820152600e60248201526d139bdd08185d5d1a1bdc9a5e995960921b6044820152606401610463565b60008181526002602081815260408084208481556001810180546001600160a01b031916905592830184905560038301805460ff19169055600480840185905560059093018490559190528082208290555182917f1f0db8360255c699ead187f3d3dc6d3c7b8ae82c070de6682571fdab38a8a4ed91a250565b60015460405163b9209e3360e01b815233600482015260009161010090046001600160a01b03169063b9209e3390602401602060405180830381865afa158015610ac2573d6000803e3d6000fd5b505050506040513d601f19601f82011682018060405250810190610ae69190611387565b610b025760405162461bcd60e51b8152600401610463906113a4565b610b0a610f54565b6040516bffffffffffffffffffffffff193360601b1660208201526034810186905242605482015260009060740160408051808303601f19018152828252805160209182012060c08401835289845233828501818152428686019081528b151560608801908152608088018c815260a089018c815260008781526002808a528a82209b518c5595516001808d0180546001600160a01b0319166001600160a01b03909316929092179091559451958b0195909555915160038a01805460ff1916911515919091179055516004808a0191909155905160059098019790975595845284902094909455915189815291935083917f939da95336795dfc65af119d4d4754ea7a97eac2ba6b2284b7845c034181eb8b910160405180910390a395945050505050565b600082815260208190526040902060010154610c4b81610e0f565b6103f28383610e9d565b60015460405163b9209e3360e01b81523360048201526101009091046001600160a01b03169063b9209e3390602401602060405180830381865afa158015610ca1573d6000803e3d6000fd5b505050506040513d601f19601f82011682018060405250810190610cc59190611387565b610ce15760405162461bcd60e51b8152600401610463906113a4565b610ce9610f54565b6000838152600260205260409020600101546001600160a01b03163314610d465760405162461bcd60e51b81526020600482015260116024820152702737ba1031b7b73a32b73a1037bbb732b960791b6044820152606401610463565b60008381526002602081815260408084208681556005810186905542938101939093556004909152822080549192610d7d83611403565b9190505550837fc7e650ee1b632d508b42e39a3cff31d5276eac5bc5c5e7e0f4d071d884ede96484604051610db491815260200190565b60405180910390a2837f27a6471c4fe1291227a7414ed504201c69016ea440480764305bd9114cc8b6406004600087815260200190815260200160002054604051610e0191815260200190565b60405180910390a250505050565b61049a8133610fd7565b610e2382826106bb565b610476576000828152602081815260408083206001600160a01b03851684529091529020805460ff19166001179055610e593390565b6001600160a01b0316816001600160a01b0316837f2f8788117e7eff1d82e926ec794901d17c78024a50270940304540a733656f0d60405160405180910390a45050565b610ea782826106bb565b15610476576000828152602081815260408083206001600160a01b0385168085529252808320805460ff1916905551339285917ff6391f5c32d9c69d2a47ea670b442974b53935d1edc7fd64eb21e047a839171b9190a45050565b610f0a611030565b6001805460ff191690557f5db9ee0a495bf2e6ff9c91a7834c1ba4fdd244a5e8aa4e537bd38aeae4b073aa335b6040516001600160a01b03909116815260200160405180910390a1565b60015460ff1615610f9a5760405162461bcd60e51b815260206004820152601060248201526f14185d5cd8589b194e881c185d5cd95960821b6044820152606401610463565b565b610fa4610f54565b6001805460ff1916811790557f62e78cea01bee320cd4e420270b5ea74000d11b0c9f74754ebdbfc544b05a25833610f37565b610fe182826106bb565b61047657610fee81611079565b610ff983602061108b565b60405160200161100a929190611440565b60408051601f198184030181529082905262461bcd60e51b8252610463916004016114b5565b60015460ff16610f9a5760405162461bcd60e51b815260206004820152601460248201527314185d5cd8589b194e881b9bdd081c185d5cd95960621b6044820152606401610463565b60606103c76001600160a01b03831660145b6060600061109a8360026114e8565b6110a59060026114ff565b67ffffffffffffffff8111156110bd576110bd611512565b6040519080825280601f01601f1916602001820160405280156110e7576020820181803683370190505b509050600360fc1b8160008151811061110257611102611528565b60200101906001600160f81b031916908160001a905350600f60fb1b8160018151811061113157611131611528565b60200101906001600160f81b031916908160001a90535060006111558460026114e8565b6111609060016114ff565b90505b60018111156111d8576f181899199a1a9b1b9c1cb0b131b232b360811b85600f166010811061119457611194611528565b1a60f81b8282815181106111aa576111aa611528565b60200101906001600160f81b031916908160001a90535060049490941c936111d18161153e565b9050611163565b5083156112275760405162461bcd60e51b815260206004820181905260248201527f537472696e67733a20686578206c656e67746820696e73756666696369656e746044820152606401610463565b9392505050565b60006020828403121561124057600080fd5b81356001600160e01b03198116811461122757600080fd5b60006020828403121561126a57600080fd5b5035919050565b80356001600160a01b038116811461128857600080fd5b919050565b600080604083850312156112a057600080fd5b823591506112b060208401611271565b90509250929050565b600080604083850312156112cc57600080fd5b50508035926020909101359150565b6000806000606084860312156112f057600080fd5b8335925061130060208501611271565b9150604084013590509250925092565b801515811461049a57600080fd5b6000806000806080858703121561133457600080fd5b84359350602085013561134681611310565b93969395505050506040820135916060013590565b60008060006060848603121561137057600080fd5b505081359360208301359350604090920135919050565b60006020828403121561139957600080fd5b815161122781611310565b60208082526029908201527f4950465353746f72616765436f6e6e6563746f723a2043616c6c6572206e6f74604082015268081d995c9a599a595960ba1b606082015260800190565b634e487b7160e01b600052601160045260246000fd5b600060018201611415576114156113ed565b5060010190565b60005b8381101561143757818101518382015260200161141f565b50506000910152565b7f416363657373436f6e74726f6c3a206163636f756e742000000000000000000081526000835161147881601785016020880161141c565b7001034b99036b4b9b9b4b733903937b6329607d1b60179184019182015283516114a981602884016020880161141c565b01602801949350505050565b60208152600082518060208401526114d481604085016020870161141c565b601f01601f19169190910160400192915050565b80820281158282048414176103c7576103c76113ed565b808201808211156103c7576103c76113ed565b634e487b7160e01b600052604160045260246000fd5b634e487b7160e01b600052603260045260246000fd5b60008161154d5761154d6113ed565b50600019019056fea49807205ce4d355092ef5a8a18f56e8913cf4a201fbe287825b095693c21775a2646970667358221220f534ef614b89f34a0859c2203861f84c20788c0353a118f6bf0ce19ec1fb98e664736f6c63430008130033",
  "linkReferences": {},
  "deployedLinkReferences": {}
}