{
  "_format": "hh-sol-artifact-1",
  "contractName": "HealthDataStorage",
  "sourceName": "contracts/storage/HealthDataStorage.sol",
  "abi": [
    {
      "inputs": [
        {
          "internalType": "address",
          "name": "_identityContract",
          "type": "address"
        }
      ],
      "stateMutability": "nonpayable",
      "type": "constructor"
    },
    {
      "anonymous": false,
      "inputs": [
        {
          "indexed": true,
          "internalType": "bytes32",
          "name": "dataId",
          "type": "bytes32"
        },
        {
          "indexed": true,
          "internalType": "address",
          "name": "grantee",
          "type": "address"
        },
        {
          "indexed": false,
          "internalType": "uint256",
          "name": "expiryTime",
          "type": "uint256"
        }
      ],
      "name": "AccessGranted",
      "type": "event"
    },
    {
      "anonymous": false,
      "inputs": [
        {
          "indexed": true,
          "internalType": "bytes32",
          "name": "dataId",
          "type": "bytes32"
        }
      ],
      "name": "DataDeactivated",
      "type": "event"
    },
    {
      "anonymous": false,
      "inputs": [
        {
          "indexed": true,
          "internalType": "bytes32",
          "name": "dataId",
          "type": "bytes32"
        },
        {
          "indexed": true,
          "internalType": "address",
          "name": "owner",
          "type": "address"
        },
        {
          "indexed": false,
          "internalType": "string",
          "name": "dataType",
          "type": "string"
        }
      ],
      "name": "DataStored",
      "type": "event"
    },
    {
      "anonymous": false,
      "inputs": [
        {
          "indexed": true,
          "internalType": "bytes32",
          "name": "dataId",
          "type": "bytes32"
        },
        {
          "indexed": false,
          "internalType": "bytes32",
          "name": "newDataHash",
          "type": "bytes32"
        }
      ],
      "name": "DataUpdated",
      "type": "event"
    },
    {
      "anonymous": false,
      "inputs": [
        {
          "indexed": false,
          "internalType": "address",
          "name": "account",
          "type": "address"
        }
      ],
      "name": "Paused",
      "type": "event"
    },
    {
      "anonymous": false,
      "inputs": [
        {
          "indexed": true,
          "internalType": "bytes32",
          "name": "role",
          "type": "bytes32"
        },
        {
          "indexed": true,
          "internalType": "bytes32",
          "name": "previousAdminRole",
          "type": "bytes32"
        },
        {
          "indexed": true,
          "internalType": "bytes32",
          "name": "newAdminRole",
          "type": "bytes32"
        }
      ],
      "name": "RoleAdminChanged",
      "type": "event"
    },
    {
      "anonymous": false,
      "inputs": [
        {
          "indexed": true,
          "internalType": "bytes32",
          "name": "role",
          "type": "bytes32"
        },
        {
          "indexed": true,
          "internalType": "address",
          "name": "account",
          "type": "address"
        },
        {
          "indexed": true,
          "internalType": "address",
          "name": "sender",
          "type": "address"
        }
      ],
      "name": "RoleGranted",
      "type": "event"
    },
    {
      "anonymous": false,
      "inputs": [
        {
          "indexed": true,
          "internalType": "bytes32",
          "name": "role",
          "type": "bytes32"
        },
        {
          "indexed": true,
          "internalType": "address",
          "name": "account",
          "type": "address"
        },
        {
          "indexed": true,
          "internalType": "address",
          "name": "sender",
          "type": "address"
        }
      ],
      "name": "RoleRevoked",
      "type": "event"
    },
    {
      "anonymous": false,
      "inputs": [
        {
          "indexed": false,
          "internalType": "address",
          "name": "account",
          "type": "address"
        }
      ],
      "name": "Unpaused",
      "type": "event"
    },
    {
      "inputs": [],
      "name": "ADMIN_ROLE",
      "outputs": [
        {
          "internalType": "bytes32",
          "name": "",
          "type": "bytes32"
        }
      ],
      "stateMutability": "view",
      "type": "function"
    },
    {
      "inputs": [],
      "name": "DATA_PROVIDER_ROLE",
      "outputs": [
        {
          "internalType": "bytes32",
          "name": "",
          "type": "bytes32"
        }
      ],
      "stateMutability": "view",
      "type": "function"
    },
    {
      "inputs": [],
      "name": "DEFAULT_ADMIN_ROLE",
      "outputs": [
        {
          "internalType": "bytes32",
          "name": "",
          "type": "bytes32"
        }
      ],
      "stateMutability": "view",
      "type": "function"
    },
    {
      "inputs": [
        {
          "internalType": "bytes32",
          "name": "",
          "type": "bytes32"
        },
        {
          "internalType": "address",
          "name": "",
          "type": "address"
        }
      ],
      "name": "dataAccess",
      "outputs": [
        {
          "internalType": "address",
          "name": "grantee",
          "type": "address"
        },
        {
          "internalType": "uint256",
          "name": "expiryTime",
          "type": "uint256"
        },
        {
          "internalType": "bytes32",
          "name": "encryptedKey",
          "type": "bytes32"
        },
        {
          "internalType": "bool",
          "name": "active",
          "type": "bool"
        }
      ],
      "stateMutability": "view",
      "type": "function"
    },
    {
      "inputs": [
        {
          "internalType": "string",
          "name": "",
          "type": "string"
        },
        {
          "internalType": "uint256",
          "name": "",
          "type": "uint256"
        }
      ],
      "name": "dataByType",
      "outputs": [
        {
          "internalType": "bytes32",
          "name": "",
          "type": "bytes32"
        }
      ],
      "stateMutability": "view",
      "type": "function"
    },
    {
      "inputs": [
        {
          "internalType": "bytes32",
          "name": "_dataId",
          "type": "bytes32"
        }
      ],
      "name": "deactivateData",
      "outputs": [],
      "stateMutability": "nonpayable",
      "type": "function"
    },
    {
      "inputs": [
        {
          "internalType": "bytes32",
          "name": "_dataId",
          "type": "bytes32"
        },
        {
          "internalType": "address",
          "name": "_grantee",
          "type": "address"
        }
      ],
      "name": "getAccess",
      "outputs": [
        {
          "components": [
            {
              "internalType": "address",
              "name": "grantee",
              "type": "address"
            },
            {
              "internalType": "uint256",
              "name": "expiryTime",
              "type": "uint256"
            },
            {
              "internalType": "bytes32",
              "name": "encryptedKey",
              "type": "bytes32"
            },
            {
              "internalType": "bool",
              "name": "active",
              "type": "bool"
            },
            {
              "internalType": "string[]",
              "name": "permissions",
              "type": "string[]"
            }
          ],
          "internalType": "struct HealthDataStorage.AccessGrant",
          "name": "",
          "type": "tuple"
        }
      ],
      "stateMutability": "view",
      "type": "function"
    },
    {
      "inputs": [
        {
          "internalType": "bytes32",
          "name": "_dataId",
          "type": "bytes32"
        }
      ],
      "name": "getData",
      "outputs": [
        {
          "components": [
            {
              "internalType": "bytes32",
              "name": "dataHash",
              "type": "bytes32"
            },
            {
              "internalType": "string",
              "name": "ipfsHash",
              "type": "string"
            },
            {
              "internalType": "address",
              "name": "owner",
              "type": "address"
            },
            {
              "internalType": "uint256",
              "name": "timestamp",
              "type": "uint256"
            },
            {
              "internalType": "bool",
              "name": "active",
              "type": "bool"
            },
            {
              "internalType": "bytes32",
              "name": "encryptionKey",
              "type": "bytes32"
            },
            {
              "internalType": "string",
              "name": "dataType",
              "type": "string"
            },
            {
              "internalType": "bytes32",
              "name": "metadataHash",
              "type": "bytes32"
            }
          ],
          "internalType": "struct HealthDataStorage.HealthData",
          "name": "",
          "type": "tuple"
        }
      ],
      "stateMutability": "view",
      "type": "function"
    },
    {
      "inputs": [
        {
          "internalType": "string",
          "name": "_dataType",
          "type": "string"
        }
      ],
      "name": "getDataByType",
      "outputs": [
        {
          "internalType": "bytes32[]",
          "name": "",
          "type": "bytes32[]"
        }
      ],
      "stateMutability": "view",
      "type": "function"
    },
    {
      "inputs": [
        {
          "internalType": "bytes32",
          "name": "role",
          "type": "bytes32"
        }
      ],
      "name": "getRoleAdmin",
      "outputs": [
        {
          "internalType": "bytes32",
          "name": "",
          "type": "bytes32"
        }
      ],
      "stateMutability": "view",
      "type": "function"
    },
    {
      "inputs": [
        {
          "internalType": "address",
          "name": "_user",
          "type": "address"
        }
      ],
      "name": "getUserData",
      "outputs": [
        {
          "internalType": "bytes32[]",
          "name": "",
          "type": "bytes32[]"
        }
      ],
      "stateMutability": "view",
      "type": "function"
    },
    {
      "inputs": [
        {
          "internalType": "bytes32",
          "name": "_dataId",
          "type": "bytes32"
        },
        {
          "internalType": "address",
          "name": "_grantee",
          "type": "address"
        },
        {
          "internalType": "uint256",
          "name": "_expiryTime",
          "type": "uint256"
        },
        {
          "internalType": "bytes32",
          "name": "_encryptedKey",
          "type": "bytes32"
        },
        {
          "internalType": "string[]",
          "name": "_permissions",
          "type": "string[]"
        }
      ],
      "name": "grantAccess",
      "outputs": [],
      "stateMutability": "nonpayable",
      "type": "function"
    },
    {
      "inputs": [
        {
          "internalType": "bytes32",
          "name": "role",
          "type": "bytes32"
        },
        {
          "internalType": "address",
          "name": "account",
          "type": "address"
        }
      ],
      "name": "grantRole",
      "outputs": [],
      "stateMutability": "nonpayable",
      "type": "function"
    },
    {
      "inputs": [
        {
          "internalType": "bytes32",
          "name": "role",
          "type": "bytes32"
        },
        {
          "internalType": "address",
          "name": "account",
          "type": "address"
        }
      ],
      "name": "hasRole",
      "outputs": [
        {
          "internalType": "bool",
          "name": "",
          "type": "bool"
        }
      ],
      "stateMutability": "view",
      "type": "function"
    },
    {
      "inputs": [
        {
          "internalType": "bytes32",
          "name": "",
          "type": "bytes32"
        }
      ],
      "name": "healthData",
      "outputs": [
        {
          "internalType": "bytes32",
          "name": "dataHash",
          "type": "bytes32"
        },
        {
          "internalType": "string",
          "name": "ipfsHash",
          "type": "string"
        },
        {
          "internalType": "address",
          "name": "owner",
          "type": "address"
        },
        {
          "internalType": "uint256",
          "name": "timestamp",
          "type": "uint256"
        },
        {
          "internalType": "bool",
          "name": "active",
          "type": "bool"
        },
        {
          "internalType": "bytes32",
          "name": "encryptionKey",
          "type": "bytes32"
        },
        {
          "internalType": "string",
          "name": "dataType",
          "type": "string"
        },
        {
          "internalType": "bytes32",
          "name": "metadataHash",
          "type": "bytes32"
        }
      ],
      "stateMutability": "view",
      "type": "function"
    },
    {
      "inputs": [],
      "name": "identityContract",
      "outputs": [
        {
          "internalType": "contract IUHCIdentity",
          "name": "",
          "type": "address"
        }
      ],
      "stateMutability": "view",
      "type": "function"
    },
    {
      "inputs": [],
      "name": "pause",
      "outputs": [],
      "stateMutability": "nonpayable",
      "type": "function"
    },
    {
      "inputs": [],
      "name": "paused",
      "outputs": [
        {
          "internalType": "bool",
          "name": "",
          "type": "bool"
        }
      ],
      "stateMutability": "view",
      "type": "function"
    },
    {
      "inputs": [
        {
          "internalType": "bytes32",
          "name": "role",
          "type": "bytes32"
        },
        {
          "internalType": "address",
          "name": "account",
          "type": "address"
        }
      ],
      "name": "renounceRole",
      "outputs": [],
      "stateMutability": "nonpayable",
      "type": "function"
    },
    {
      "inputs": [
        {
          "internalType": "bytes32",
          "name": "role",
          "type": "bytes32"
        },
        {
          "internalType": "address",
          "name": "account",
          "type": "address"
        }
      ],
      "name": "revokeRole",
      "outputs": [],
      "stateMutability": "nonpayable",
      "type": "function"
    },
    {
      "inputs": [
        {
          "internalType": "bytes32",
          "name": "_dataHash",
          "type": "bytes32"
        },
        {
          "internalType": "string",
          "name": "_ipfsHash",
          "type": "string"
        },
        {
          "internalType": "bytes32",
          "name": "_encryptionKey",
          "type": "bytes32"
        },
        {
          "internalType": "string",
          "name": "_dataType",
          "type": "string"
        },
        {
          "internalType": "bytes32",
          "name": "_metadataHash",
          "type": "bytes32"
        },
        {
          "internalType": "bytes",
          "name": "_signature",
          "type": "bytes"
        }
      ],
      "name": "storeData",
      "outputs": [
        {
          "internalType": "bytes32",
          "name": "",
          "type": "bytes32"
        }
      ],
      "stateMutability": "nonpayable",
      "type": "function"
    },
    {
      "inputs": [
        {
          "internalType": "bytes4",
          "name": "interfaceId",
          "type": "bytes4"
        }
      ],
      "name": "supportsInterface",
      "outputs": [
        {
          "internalType": "bool",
          "name": "",
          "type": "bool"
        }
      ],
      "stateMutability": "view",
      "type": "function"
    },
    {
      "inputs": [],
      "name": "unpause",
      "outputs": [],
      "stateMutability": "nonpayable",
      "type": "function"
    },
    {
      "inputs": [
        {
          "internalType": "bytes32",
          "name": "_dataId",
          "type": "bytes32"
        },
        {
          "internalType": "bytes32",
          "name": "_newDataHash",
          "type": "bytes32"
        },
        {
          "internalType": "string",
          "name": "_newIpfsHash",
          "type": "string"
        },
        {
          "internalType": "bytes32",
          "name": "_newEncryptionKey",
          "type": "bytes32"
        },
        {
          "internalType": "bytes32",
          "name": "_newMetadataHash",
          "type": "bytes32"
        },
        {
          "internalType": "bytes",
          "name": "_signature",
          "type": "bytes"
        }
      ],
      "name": "updateData",
      "outputs": [],
      "stateMutability": "nonpayable",
      "type": "function"
    },
    {
      "inputs": [
        {
          "internalType": "address",
          "name": "",
          "type": "address"
        },
        {
          "internalType": "uint256",
          "name": "",
          "type": "uint256"
        }
      ],
      "name": "userData",
      "outputs": [
        {
          "internalType": "bytes32",
          "name": "",
          "type": "bytes32"
        }
      ],
      "stateMutability": "view",
      "type": "function"
    }
  ],
  "bytecode": "0x60806040523480156200001157600080fd5b506040516200287438038062002874833981016040819052620000349162000160565b600180546001600160a81b0319166101006001600160a01b0384160217905562000060600033620000bf565b6200008c7fa49807205ce4d355092ef5a8a18f56e8913cf4a201fbe287825b095693c2177533620000bf565b620000b87fb6f6b279a7a4e2aa16012cbd36fcdc1fbdb91b92fd6dab57885c9de496473a8d33620000bf565b5062000192565b6000828152602081815260408083206001600160a01b038516845290915290205460ff166200015c576000828152602081815260408083206001600160a01b03851684529091529020805460ff191660011790556200011b3390565b6001600160a01b0316816001600160a01b0316837f2f8788117e7eff1d82e926ec794901d17c78024a50270940304540a733656f0d60405160405180910390a45b5050565b6000602082840312156200017357600080fd5b81516001600160a01b03811681146200018b57600080fd5b9392505050565b6126d280620001a26000396000f3fe608060405234801561001057600080fd5b50600436106101735760003560e01c80635c975abb116100de578063a217fddf11610097578063c2a4f21b11610071578063c2a4f21b14610381578063d547741f146103f9578063fd4e9dc21461040c578063ffc9896b1461041f57600080fd5b8063a217fddf14610353578063b7f092911461035b578063c26111111461036e57600080fd5b80635c975abb146102c157806367031bae146102cc57806375b238fc146102fc5780638456cb591461031157806391d1485414610319578063a191deb61461032c57600080fd5b806332b011d91161013057806332b011d91461022c57806336568abe1461024c5780633aeae31d1461025f5780633c05eca1146102865780633f4ba83a1461029957806354f6127f146102a157600080fd5b806301ffc9a7146101785780630c71fda2146101a0578063248a9ca3146101b55780632ca7f6cd146101e65780632f2ff15d146101f9578063305aa9011461020c575b600080fd5b61018b610186366004611d0a565b610432565b60405190151581526020015b60405180910390f35b6101b36101ae366004611d34565b610469565b005b6101d86101c3366004611d34565b60009081526020819052604090206001015490565b604051908152602001610197565b6101b36101f4366004611e04565b61056c565b6101b3610207366004611ea9565b61076a565b61021f61021a366004611ea9565b610794565b6040516101979190611f25565b61023f61023a366004611fc2565b610938565b6040516101979190611fff565b6101b361025a366004611ea9565b610a0c565b6101d87fb6f6b279a7a4e2aa16012cbd36fcdc1fbdb91b92fd6dab57885c9de496473a8d81565b6101d8610294366004612043565b610a8a565b6101b3610abb565b6102b46102af366004611d34565b610ade565b604051610197919061206d565b60015460ff1661018b565b6001546102e49061010090046001600160a01b031681565b6040516001600160a01b039091168152602001610197565b6101d860008051602061267d83398151915281565b6101b3610d3f565b61018b610327366004611ea9565b610d5f565b61033f61033a366004611d34565b610d88565b604051610197989796959493929190612104565b6101d8600081565b6101b361036936600461216d565b610eec565b6101d861037c366004612260565b611188565b6103cd61038f366004611ea9565b6003602081815260009384526040808520909152918352912080546001820154600283015492909301546001600160a01b0390911692919060ff1684565b604080516001600160a01b03909516855260208501939093529183015215156060820152608001610197565b6101b3610407366004611ea9565b6111b3565b6101d861041a3660046122a5565b6111d8565b61023f61042d36600461232f565b611507565b60006001600160e01b03198216637965db0b60e01b148061046357506301ffc9a760e01b6001600160e01b03198316145b92915050565b6104716115b7565b600081815260026020819052604090912001546001600160a01b03163314806104ad57506104ad60008051602061267d83398151915233610d5f565b6104d25760405162461bcd60e51b81526004016104c99061234a565b60405180910390fd5b60008181526002602052604090206004015460ff166105295760405162461bcd60e51b8152602060048201526013602482015272105b1c9958591e4819195858dd1a5d985d1959606a1b60448201526064016104c9565b600081815260026020526040808220600401805460ff191690555182917f9659a618828280e777b96195725e20368f8f313a7eb952b84740efa20764aa4491a250565b6105746115b7565b600086815260026020819052604090912001546001600160a01b031633146105cf5760405162461bcd60e51b815260206004820152600e60248201526d2737ba103230ba309037bbb732b960911b60448201526064016104c9565b60008681526002602052604090206004015460ff166106225760405162461bcd60e51b815260206004820152600f60248201526e44617461206e6f742061637469766560881b60448201526064016104c9565b60008686864260405160200161063b9493929190612372565b604051602081830303815290604052805190602001209050600061069683610690847f19457468657265756d205369676e6564204d6573736167653a0a3332000000006000908152601c91909152603c902090565b906115ff565b90506001600160a01b03811633146106e45760405162461bcd60e51b8152602060048201526011602482015270496e76616c6964207369676e617475726560781b60448201526064016104c9565b6000888152600260205260409020878155600101610702878261242e565b5060008881526002602052604090819020426003820155600581018790556007018590555188907fe1bcfeee26e104436c57d5eb81d610070d974b632e634094869ef7ea8e7ae7ed90610758908a815260200190565b60405180910390a25050505050505050565b60008281526020819052604090206001015461078581611623565b61078f838361162d565b505050565b6040805160a0810182526000808252602080830182905282840182905260608084018390526080840152858252600290819052929020909101546001600160a01b03163314806107ec57506001600160a01b03821633145b6108085760405162461bcd60e51b81526004016104c99061234a565b60008381526003602081815260408084206001600160a01b038088168652908352818520825160a081018452815490921682526001810154828501526002810154828401529384015460ff16151560608201526004840180548351818602810186019094528084529195608087019491929184015b8282101561092957838290600052602060002001805461089c906123a6565b80601f01602080910402602001604051908101604052809291908181526020018280546108c8906123a6565b80156109155780601f106108ea57610100808354040283529160200191610915565b820191906000526020600020905b8154815290600101906020018083116108f857829003601f168201915b50505050508152602001906001019061087d565b50505091525090949350505050565b60606109647fb6f6b279a7a4e2aa16012cbd36fcdc1fbdb91b92fd6dab57885c9de496473a8d33610d5f565b80610982575061098260008051602061267d83398151915233610d5f565b61099e5760405162461bcd60e51b81526004016104c99061234a565b6005826040516109ae91906124ee565b9081526040805191829003602090810183208054808302850183019093528284529190830182828015610a0057602002820191906000526020600020905b8154815260200190600101908083116109ec575b50505050509050919050565b6001600160a01b0381163314610a7c5760405162461bcd60e51b815260206004820152602f60248201527f416363657373436f6e74726f6c3a2063616e206f6e6c792072656e6f756e636560448201526e103937b632b9903337b91039b2b63360891b60648201526084016104c9565b610a8682826116b1565b5050565b60046020528160005260406000208181548110610aa657600080fd5b90600052602060002001600091509150505481565b60008051602061267d833981519152610ad381611623565b610adb611716565b50565b604080516101008101825260008082526060602083018190529282018190528282018190526080820181905260a0820181905260c082019290925260e0810191909152600082815260026020819052604090912001546001600160a01b0316331480610b8b57506000828152600360208181526040808420338552909152909120015460ff168015610b8b5750600082815260036020908152604080832033845290915290206001015442105b610ba75760405162461bcd60e51b81526004016104c99061234a565b600260008381526020019081526020016000206040518061010001604052908160008201548152602001600182018054610be0906123a6565b80601f0160208091040260200160405190810160405280929190818152602001828054610c0c906123a6565b8015610c595780601f10610c2e57610100808354040283529160200191610c59565b820191906000526020600020905b815481529060010190602001808311610c3c57829003601f168201915b505050918352505060028201546001600160a01b0316602082015260038201546040820152600482015460ff16151560608201526005820154608082015260068201805460a090920191610cac906123a6565b80601f0160208091040260200160405190810160405280929190818152602001828054610cd8906123a6565b8015610d255780601f10610cfa57610100808354040283529160200191610d25565b820191906000526020600020905b815481529060010190602001808311610d0857829003601f168201915b505050505081526020016007820154815250509050919050565b60008051602061267d833981519152610d5781611623565b610adb611768565b6000918252602082815260408084206001600160a01b0393909316845291905290205460ff1690565b60026020526000908152604090208054600182018054919291610daa906123a6565b80601f0160208091040260200160405190810160405280929190818152602001828054610dd6906123a6565b8015610e235780601f10610df857610100808354040283529160200191610e23565b820191906000526020600020905b815481529060010190602001808311610e0657829003601f168201915b505050600284015460038501546004860154600587015460068801805497986001600160a01b039095169793965060ff90921694509291610e63906123a6565b80601f0160208091040260200160405190810160405280929190818152602001828054610e8f906123a6565b8015610edc5780601f10610eb157610100808354040283529160200191610edc565b820191906000526020600020905b815481529060010190602001808311610ebf57829003601f168201915b5050505050908060070154905088565b610ef46115b7565b600085815260026020819052604090912001546001600160a01b03163314610f4f5760405162461bcd60e51b815260206004820152600e60248201526d2737ba103230ba309037bbb732b960911b60448201526064016104c9565b60008581526002602052604090206004015460ff16610fa25760405162461bcd60e51b815260206004820152600f60248201526e44617461206e6f742061637469766560881b60448201526064016104c9565b428311610fe75760405162461bcd60e51b8152602060048201526013602482015272496e76616c6964206578706972792074696d6560681b60448201526064016104c9565b60015460405163b9209e3360e01b81526001600160a01b0386811660048301526101009092049091169063b9209e3390602401602060405180830381865afa158015611037573d6000803e3d6000fd5b505050506040513d601f19601f8201168201806040525081019061105b919061250a565b61109e5760405162461bcd60e51b815260206004820152601460248201527311dc985b9d1959481b9bdd081d995c9a599a595960621b60448201526064016104c9565b6040805160a0810182526001600160a01b038681168083526020808401888152848601888152600160608701818152608088018a815260008f815260038088528b822098825297875299909920885181546001600160a01b031916981697909717875592519086015551600285015551918301805460ff19169215159290921790915592518051929391926111399260048501920190611c4d565b50905050836001600160a01b0316857ffb0d878058fa0fa7787395856cffd8a6cc8c542d9d67a0c121fe56be1c6589598560405161117991815260200190565b60405180910390a35050505050565b81516020818401810180516005825292820191850191909120919052805482908110610aa657600080fd5b6000828152602081905260409020600101546111ce81611623565b61078f83836116b1565b60006111e26115b7565b60015460405163b9209e3360e01b81523360048201526101009091046001600160a01b03169063b9209e3390602401602060405180830381865afa15801561122e573d6000803e3d6000fd5b505050506040513d601f19601f82011682018060405250810190611252919061250a565b6112925760405162461bcd60e51b8152602060048201526011602482015270155cd95c881b9bdd081d995c9a599a5959607a1b60448201526064016104c9565b6000878786426040516020016112ab949392919061252c565b604051602081830303815290604052805190602001209050600061130084610690847f19457468657265756d205369676e6564204d6573736167653a0a3332000000006000908152601c91909152603c902090565b90506001600160a01b038116331461134e5760405162461bcd60e51b8152602060048201526011602482015270496e76616c6964207369676e617475726560781b60448201526064016104c9565b6040516bffffffffffffffffffffffff193360601b166020820152603481018a905242605482015260009060740160408051601f198184030181528282528051602091820120610100840183528d84528382018d8152338585015242606086015260016080860181905260a086018e905260c086018d905260e086018c9052600083815260029094529390922084518155915190945090918201906113f3908261242e565b5060408201516002820180546001600160a01b0319166001600160a01b0390921691909117905560608201516003820155608082015160048201805460ff191691151591909117905560a0820151600582015560c0820151600682019061145a908261242e565b5060e09190910151600790910155336000908152600460209081526040808320805460018101825590845291909220018290555160059061149c9089906124ee565b90815260405190819003602090810182208054600181018255600091825291902001829055339082907feb4b6b9f7667858807ab5e00abcd59891d90e2c4c8dbeeba41febddb759bf2c1906114f2908b90612571565b60405180910390a39998505050505050505050565b60606001600160a01b038216331480611533575061153360008051602061267d83398151915233610d5f565b61154f5760405162461bcd60e51b81526004016104c99061234a565b6001600160a01b03821660009081526004602090815260409182902080548351818402810184019094528084529091830182828015610a0057602002820191906000526020600020908154815260200190600101908083116109ec5750505050509050919050565b60015460ff16156115fd5760405162461bcd60e51b815260206004820152601060248201526f14185d5cd8589b194e881c185d5cd95960821b60448201526064016104c9565b565b600080600061160e85856117a3565b9150915061161b816117e8565b509392505050565b610adb8133611932565b6116378282610d5f565b610a86576000828152602081815260408083206001600160a01b03851684529091529020805460ff1916600117905561166d3390565b6001600160a01b0316816001600160a01b0316837f2f8788117e7eff1d82e926ec794901d17c78024a50270940304540a733656f0d60405160405180910390a45050565b6116bb8282610d5f565b15610a86576000828152602081815260408083206001600160a01b0385168085529252808320805460ff1916905551339285917ff6391f5c32d9c69d2a47ea670b442974b53935d1edc7fd64eb21e047a839171b9190a45050565b61171e61198b565b6001805460ff191690557f5db9ee0a495bf2e6ff9c91a7834c1ba4fdd244a5e8aa4e537bd38aeae4b073aa335b6040516001600160a01b03909116815260200160405180910390a1565b6117706115b7565b6001805460ff1916811790557f62e78cea01bee320cd4e420270b5ea74000d11b0c9f74754ebdbfc544b05a2583361174b565b60008082516041036117d95760208301516040840151606085015160001a6117cd878285856119d4565b945094505050506117e1565b506000905060025b9250929050565b60008160048111156117fc576117fc612584565b036118045750565b600181600481111561181857611818612584565b036118655760405162461bcd60e51b815260206004820152601860248201527f45434453413a20696e76616c6964207369676e6174757265000000000000000060448201526064016104c9565b600281600481111561187957611879612584565b036118c65760405162461bcd60e51b815260206004820152601f60248201527f45434453413a20696e76616c6964207369676e6174757265206c656e6774680060448201526064016104c9565b60038160048111156118da576118da612584565b03610adb5760405162461bcd60e51b815260206004820152602260248201527f45434453413a20696e76616c6964207369676e6174757265202773272076616c604482015261756560f01b60648201526084016104c9565b61193c8282610d5f565b610a865761194981611a98565b611954836020611aaa565b60405160200161196592919061259a565b60408051601f198184030181529082905262461bcd60e51b82526104c991600401612571565b60015460ff166115fd5760405162461bcd60e51b815260206004820152601460248201527314185d5cd8589b194e881b9bdd081c185d5cd95960621b60448201526064016104c9565b6000807f7fffffffffffffffffffffffffffffff5d576e7357a4501ddfe92f46681b20a0831115611a0b5750600090506003611a8f565b6040805160008082526020820180845289905260ff881692820192909252606081018690526080810185905260019060a0016020604051602081039080840390855afa158015611a5f573d6000803e3d6000fd5b5050604051601f1901519150506001600160a01b038116611a8857600060019250925050611a8f565b9150600090505b94509492505050565b60606104636001600160a01b03831660145b60606000611ab9836002612625565b611ac490600261263c565b67ffffffffffffffff811115611adc57611adc611d4d565b6040519080825280601f01601f191660200182016040528015611b06576020820181803683370190505b509050600360fc1b81600081518110611b2157611b2161264f565b60200101906001600160f81b031916908160001a905350600f60fb1b81600181518110611b5057611b5061264f565b60200101906001600160f81b031916908160001a9053506000611b74846002612625565b611b7f90600161263c565b90505b6001811115611bf7576f181899199a1a9b1b9c1cb0b131b232b360811b85600f1660108110611bb357611bb361264f565b1a60f81b828281518110611bc957611bc961264f565b60200101906001600160f81b031916908160001a90535060049490941c93611bf081612665565b9050611b82565b508315611c465760405162461bcd60e51b815260206004820181905260248201527f537472696e67733a20686578206c656e67746820696e73756666696369656e7460448201526064016104c9565b9392505050565b828054828255906000526020600020908101928215611c93579160200282015b82811115611c935782518290611c83908261242e565b5091602001919060010190611c6d565b50611c9f929150611ca3565b5090565b80821115611c9f576000611cb78282611cc0565b50600101611ca3565b508054611ccc906123a6565b6000825580601f10611cdc575050565b601f016020900490600052602060002090810190610adb91905b80821115611c9f5760008155600101611cf6565b600060208284031215611d1c57600080fd5b81356001600160e01b031981168114611c4657600080fd5b600060208284031215611d4657600080fd5b5035919050565b634e487b7160e01b600052604160045260246000fd5b604051601f8201601f1916810167ffffffffffffffff81118282101715611d8c57611d8c611d4d565b604052919050565b600082601f830112611da557600080fd5b813567ffffffffffffffff811115611dbf57611dbf611d4d565b611dd2601f8201601f1916602001611d63565b818152846020838601011115611de757600080fd5b816020850160208301376000918101602001919091529392505050565b60008060008060008060c08789031215611e1d57600080fd5b8635955060208701359450604087013567ffffffffffffffff80821115611e4357600080fd5b611e4f8a838b01611d94565b9550606089013594506080890135935060a0890135915080821115611e7357600080fd5b50611e8089828a01611d94565b9150509295509295509295565b80356001600160a01b0381168114611ea457600080fd5b919050565b60008060408385031215611ebc57600080fd5b82359150611ecc60208401611e8d565b90509250929050565b60005b83811015611ef0578181015183820152602001611ed8565b50506000910152565b60008151808452611f11816020860160208601611ed5565b601f01601f19169290920160200192915050565b6000602080835260c0830160018060a01b038551168285015281850151604085015260408501516060850152606085015115156080850152608085015160a08086015281815180845260e08701915060e08160051b8801019350848301925060005b81811015611fb55760df19888603018352611fa3858551611ef9565b94509285019291850191600101611f87565b5092979650505050505050565b600060208284031215611fd457600080fd5b813567ffffffffffffffff811115611feb57600080fd5b611ff784828501611d94565b949350505050565b6020808252825182820181905260009190848201906040850190845b818110156120375783518352928401929184019160010161201b565b50909695505050505050565b6000806040838503121561205657600080fd5b61205f83611e8d565b946020939093013593505050565b602081528151602082015260006020830151610100806040850152612096610120850183611ef9565b915060018060a01b0360408601511660608501526060850151608085015260808501516120c760a086018215159052565b5060a085015160c085015260c0850151601f198584030160e08601526120ed8382611ef9565b92505060e085015181850152508091505092915050565b60006101008a835280602084015261211e8184018b611ef9565b6001600160a01b038a16604085015260608401899052871515608085015260a0840187905283810360c085015290506121578186611ef9565b9150508260e08301529998505050505050505050565b600080600080600060a0868803121561218557600080fd5b853594506020612196818801611e8d565b94506040870135935060608701359250608087013567ffffffffffffffff808211156121c157600080fd5b818901915089601f8301126121d557600080fd5b8135818111156121e7576121e7611d4d565b8060051b6121f6858201611d63565b918252838101850191858101908d84111561221057600080fd5b86860192505b8383101561224c5782358581111561222e5760008081fd5b61223c8f89838a0101611d94565b8352509186019190860190612216565b809750505050505050509295509295909350565b6000806040838503121561227357600080fd5b823567ffffffffffffffff81111561228a57600080fd5b61229685828601611d94565b95602094909401359450505050565b60008060008060008060c087890312156122be57600080fd5b86359550602087013567ffffffffffffffff808211156122dd57600080fd5b6122e98a838b01611d94565b965060408901359550606089013591508082111561230657600080fd5b6123128a838b01611d94565b94506080890135935060a0890135915080821115611e7357600080fd5b60006020828403121561234157600080fd5b611c4682611e8d565b6020808252600e908201526d139bdd08185d5d1a1bdc9a5e995960921b604082015260600190565b84815283602082015260008351612390816040850160208801611ed5565b6040920191820192909252606001949350505050565b600181811c908216806123ba57607f821691505b6020821081036123da57634e487b7160e01b600052602260045260246000fd5b50919050565b601f82111561078f57600081815260208120601f850160051c810160208610156124075750805b601f850160051c820191505b8181101561242657828155600101612413565b505050505050565b815167ffffffffffffffff81111561244857612448611d4d565b61245c8161245684546123a6565b846123e0565b602080601f83116001811461249157600084156124795750858301515b600019600386901b1c1916600185901b178555612426565b600085815260208120601f198616915b828110156124c0578886015182559484019460019091019084016124a1565b50858210156124de5787850151600019600388901b60f8161c191681555b5050505050600190811b01905550565b60008251612500818460208701611ed5565b9190910192915050565b60006020828403121561251c57600080fd5b81518015158114611c4657600080fd5b84815260008451612544816020850160208901611ed5565b8083019050845161255c816020840160208901611ed5565b01602081019390935250506040019392505050565b602081526000611c466020830184611ef9565b634e487b7160e01b600052602160045260246000fd5b7f416363657373436f6e74726f6c3a206163636f756e74200000000000000000008152600083516125d2816017850160208801611ed5565b7001034b99036b4b9b9b4b733903937b6329607d1b6017918401918201528351612603816028840160208801611ed5565b01602801949350505050565b634e487b7160e01b600052601160045260246000fd5b80820281158282048414176104635761046361260f565b808201808211156104635761046361260f565b634e487b7160e01b600052603260045260246000fd5b6000816126745761267461260f565b50600019019056fea49807205ce4d355092ef5a8a18f56e8913cf4a201fbe287825b095693c21775a2646970667358221220407ce1a1b75f8c0fe25c84d60e0f7bc6143f4e4c9074c76627d16ce9d9bfe18964736f6c63430008130033",
  "linkReferences": {},
  "deployedLinkReferences": {}
}