{
  "_format": "hh-sol-artifact-1",
  "contractName": "UHCToken",
  "sourceName": "contracts/tokens/UHCToken.sol",
  "abi": [
    {
      "inputs": [],
      "stateMutability": "nonpayable",
      "type": "constructor"
    },
    {
      "inputs": [],
      "name": "InvalidShortString",
      "type": "error"
    },
    {
      "inputs": [
        {
          "internalType": "string",
          "name": "str",
          "type": "string"
        }
      ],
      "name": "StringTooLong",
      "type": "error"
    },
    {
      "anonymous": false,
      "inputs": [
        {
          "indexed": true,
          "internalType": "address",
          "name": "account",
          "type": "address"
        }
      ],
      "name": "AddressBlacklisted",
      "type": "event"
    },
    {
      "anonymous": false,
      "inputs": [
        {
          "indexed": true,
          "internalType": "address",
          "name": "account",
          "type": "address"
        }
      ],
      "name": "AddressUnblacklisted",
      "type": "event"
    },
    {
      "anonymous": false,
      "inputs": [
        {
          "indexed": true,
          "internalType": "address",
          "name": "owner",
          "type": "address"
        },
        {
          "indexed": true,
          "internalType": "address",
          "name": "spender",
          "type": "address"
        },
        {
          "indexed": false,
          "internalType": "uint256",
          "name": "value",
          "type": "uint256"
        }
      ],
      "name": "Approval",
      "type": "event"
    },
    {
      "anonymous": false,
      "inputs": [
        {
          "indexed": true,
          "internalType": "address",
          "name": "delegator",
          "type": "address"
        },
        {
          "indexed": true,
          "internalType": "address",
          "name": "fromDelegate",
          "type": "address"
        },
        {
          "indexed": true,
          "internalType": "address",
          "name": "toDelegate",
          "type": "address"
        }
      ],
      "name": "DelegateChanged",
      "type": "event"
    },
    {
      "anonymous": false,
      "inputs": [
        {
          "indexed": true,
          "internalType": "address",
          "name": "delegate",
          "type": "address"
        },
        {
          "indexed": false,
          "internalType": "uint256",
          "name": "previousBalance",
          "type": "uint256"
        },
        {
          "indexed": false,
          "internalType": "uint256",
          "name": "newBalance",
          "type": "uint256"
        }
      ],
      "name": "DelegateVotesChanged",
      "type": "event"
    },
    {
      "anonymous": false,
      "inputs": [],
      "name": "EIP712DomainChanged",
      "type": "event"
    },
    {
      "anonymous": false,
      "inputs": [
        {
          "indexed": false,
          "internalType": "address",
          "name": "account",
          "type": "address"
        }
      ],
      "name": "Paused",
      "type": "event"
    },
    {
      "anonymous": false,
      "inputs": [
        {
          "indexed": true,
          "internalType": "bytes32",
          "name": "role",
          "type": "bytes32"
        },
        {
          "indexed": true,
          "internalType": "bytes32",
          "name": "previousAdminRole",
          "type": "bytes32"
        },
        {
          "indexed": true,
          "internalType": "bytes32",
          "name": "newAdminRole",
          "type": "bytes32"
        }
      ],
      "name": "RoleAdminChanged",
      "type": "event"
    },
    {
      "anonymous": false,
      "inputs": [
        {
          "indexed": true,
          "internalType": "bytes32",
          "name": "role",
          "type": "bytes32"
        },
        {
          "indexed": true,
          "internalType": "address",
          "name": "account",
          "type": "address"
        },
        {
          "indexed": true,
          "internalType": "address",
          "name": "sender",
          "type": "address"
        }
      ],
      "name": "RoleGranted",
      "type": "event"
    },
    {
      "anonymous": false,
      "inputs": [
        {
          "indexed": true,
          "internalType": "bytes32",
          "name": "role",
          "type": "bytes32"
        },
        {
          "indexed": true,
          "internalType": "address",
          "name": "account",
          "type": "address"
        },
        {
          "indexed": true,
          "internalType": "address",
          "name": "sender",
          "type": "address"
        }
      ],
      "name": "RoleRevoked",
      "type": "event"
    },
    {
      "anonymous": false,
      "inputs": [
        {
          "indexed": false,
          "internalType": "uint256",
          "name": "id",
          "type": "uint256"
        }
      ],
      "name": "Snapshot",
      "type": "event"
    },
    {
      "anonymous": false,
      "inputs": [
        {
          "indexed": true,
          "internalType": "address",
          "name": "from",
          "type": "address"
        },
        {
          "indexed": false,
          "internalType": "uint256",
          "name": "amount",
          "type": "uint256"
        }
      ],
      "name": "TokensBurned",
      "type": "event"
    },
    {
      "anonymous": false,
      "inputs": [
        {
          "indexed": true,
          "internalType": "address",
          "name": "to",
          "type": "address"
        },
        {
          "indexed": false,
          "internalType": "uint256",
          "name": "amount",
          "type": "uint256"
        }
      ],
      "name": "TokensMinted",
      "type": "event"
    },
    {
      "anonymous": false,
      "inputs": [
        {
          "indexed": true,
          "internalType": "address",
          "name": "from",
          "type": "address"
        },
        {
          "indexed": true,
          "internalType": "address",
          "name": "to",
          "type": "address"
        },
        {
          "indexed": false,
          "internalType": "uint256",
          "name": "value",
          "type": "uint256"
        }
      ],
      "name": "Transfer",
      "type": "event"
    },
    {
      "anonymous": false,
      "inputs": [
        {
          "indexed": false,
          "internalType": "address",
          "name": "account",
          "type": "address"
        }
      ],
      "name": "Unpaused",
      "type": "event"
    },
    {
      "inputs": [],
      "name": "CLOCK_MODE",
      "outputs": [
        {
          "internalType": "string",
          "name": "",
          "type": "string"
        }
      ],
      "stateMutability": "view",
      "type": "function"
    },
    {
      "inputs": [],
      "name": "DEFAULT_ADMIN_ROLE",
      "outputs": [
        {
          "internalType": "bytes32",
          "name": "",
          "type": "bytes32"
        }
      ],
      "stateMutability": "view",
      "type": "function"
    },
    {
      "inputs": [],
      "name": "DOMAIN_SEPARATOR",
      "outputs": [
        {
          "internalType": "bytes32",
          "name": "",
          "type": "bytes32"
        }
      ],
      "stateMutability": "view",
      "type": "function"
    },
    {
      "inputs": [],
      "name": "INITIAL_SUPPLY",
      "outputs": [
        {
          "internalType": "uint256",
          "name": "",
          "type": "uint256"
        }
      ],
      "stateMutability": "view",
      "type": "function"
    },
    {
      "inputs": [],
      "name": "MAX_SUPPLY",
      "outputs": [
        {
          "internalType": "uint256",
          "name": "",
          "type": "uint256"
        }
      ],
      "stateMutability": "view",
      "type": "function"
    },
    {
      "inputs": [],
      "name": "MINTER_ROLE",
      "outputs": [
        {
          "internalType": "bytes32",
          "name": "",
          "type": "bytes32"
        }
      ],
      "stateMutability": "view",
      "type": "function"
    },
    {
      "inputs": [],
      "name": "PAUSER_ROLE",
      "outputs": [
        {
          "internalType": "bytes32",
          "name": "",
          "type": "bytes32"
        }
      ],
      "stateMutability": "view",
      "type": "function"
    },
    {
      "inputs": [],
      "name": "SNAPSHOT_ROLE",
      "outputs": [
        {
          "internalType": "bytes32",
          "name": "",
          "type": "bytes32"
        }
      ],
      "stateMutability": "view",
      "type": "function"
    },
    {
      "inputs": [
        {
          "internalType": "address",
          "name": "owner",
          "type": "address"
        },
        {
          "internalType": "address",
          "name": "spender",
          "type": "address"
        }
      ],
      "name": "allowance",
      "outputs": [
        {
          "internalType": "uint256",
          "name": "",
          "type": "uint256"
        }
      ],
      "stateMutability": "view",
      "type": "function"
    },
    {
      "inputs": [
        {
          "internalType": "address",
          "name": "spender",
          "type": "address"
        },
        {
          "internalType": "uint256",
          "name": "amount",
          "type": "uint256"
        }
      ],
      "name": "approve",
      "outputs": [
        {
          "internalType": "bool",
          "name": "",
          "type": "bool"
        }
      ],
      "stateMutability": "nonpayable",
      "type": "function"
    },
    {
      "inputs": [
        {
          "internalType": "address",
          "name": "account",
          "type": "address"
        }
      ],
      "name": "balanceOf",
      "outputs": [
        {
          "internalType": "uint256",
          "name": "",
          "type": "uint256"
        }
      ],
      "stateMutability": "view",
      "type": "function"
    },
    {
      "inputs": [
        {
          "internalType": "address",
          "name": "account",
          "type": "address"
        },
        {
          "internalType": "uint256",
          "name": "snapshotId",
          "type": "uint256"
        }
      ],
      "name": "balanceOfAt",
      "outputs": [
        {
          "internalType": "uint256",
          "name": "",
          "type": "uint256"
        }
      ],
      "stateMutability": "view",
      "type": "function"
    },
    {
      "inputs": [
        {
          "internalType": "address",
          "name": "account",
          "type": "address"
        }
      ],
      "name": "blacklistAddress",
      "outputs": [],
      "stateMutability": "nonpayable",
      "type": "function"
    },
    {
      "inputs": [
        {
          "internalType": "uint256",
          "name": "amount",
          "type": "uint256"
        }
      ],
      "name": "burn",
      "outputs": [],
      "stateMutability": "nonpayable",
      "type": "function"
    },
    {
      "inputs": [
        {
          "internalType": "address",
          "name": "account",
          "type": "address"
        },
        {
          "internalType": "uint256",
          "name": "amount",
          "type": "uint256"
        }
      ],
      "name": "burnFrom",
      "outputs": [],
      "stateMutability": "nonpayable",
      "type": "function"
    },
    {
      "inputs": [
        {
          "internalType": "address",
          "name": "account",
          "type": "address"
        },
        {
          "internalType": "uint32",
          "name": "pos",
          "type": "uint32"
        }
      ],
      "name": "checkpoints",
      "outputs": [
        {
          "components": [
            {
              "internalType": "uint32",
              "name": "fromBlock",
              "type": "uint32"
            },
            {
              "internalType": "uint224",
              "name": "votes",
              "type": "uint224"
            }
          ],
          "internalType": "struct ERC20Votes.Checkpoint",
          "name": "",
          "type": "tuple"
        }
      ],
      "stateMutability": "view",
      "type": "function"
    },
    {
      "inputs": [],
      "name": "clock",
      "outputs": [
        {
          "internalType": "uint48",
          "name": "",
          "type": "uint48"
        }
      ],
      "stateMutability": "view",
      "type": "function"
    },
    {
      "inputs": [],
      "name": "decimals",
      "outputs": [
        {
          "internalType": "uint8",
          "name": "",
          "type": "uint8"
        }
      ],
      "stateMutability": "view",
      "type": "function"
    },
    {
      "inputs": [
        {
          "internalType": "address",
          "name": "spender",
          "type": "address"
        },
        {
          "internalType": "uint256",
          "name": "subtractedValue",
          "type": "uint256"
        }
      ],
      "name": "decreaseAllowance",
      "outputs": [
        {
          "internalType": "bool",
          "name": "",
          "type": "bool"
        }
      ],
      "stateMutability": "nonpayable",
      "type": "function"
    },
    {
      "inputs": [
        {
          "internalType": "address",
          "name": "delegatee",
          "type": "address"
        }
      ],
      "name": "delegate",
      "outputs": [],
      "stateMutability": "nonpayable",
      "type": "function"
    },
    {
      "inputs": [
        {
          "internalType": "address",
          "name": "delegatee",
          "type": "address"
        },
        {
          "internalType": "uint256",
          "name": "nonce",
          "type": "uint256"
        },
        {
          "internalType": "uint256",
          "name": "expiry",
          "type": "uint256"
        },
        {
          "internalType": "uint8",
          "name": "v",
          "type": "uint8"
        },
        {
          "internalType": "bytes32",
          "name": "r",
          "type": "bytes32"
        },
        {
          "internalType": "bytes32",
          "name": "s",
          "type": "bytes32"
        }
      ],
      "name": "delegateBySig",
      "outputs": [],
      "stateMutability": "nonpayable",
      "type": "function"
    },
    {
      "inputs": [
        {
          "internalType": "address",
          "name": "account",
          "type": "address"
        }
      ],
      "name": "delegates",
      "outputs": [
        {
          "internalType": "address",
          "name": "",
          "type": "address"
        }
      ],
      "stateMutability": "view",
      "type": "function"
    },
    {
      "inputs": [],
      "name": "eip712Domain",
      "outputs": [
        {
          "internalType": "bytes1",
          "name": "fields",
          "type": "bytes1"
        },
        {
          "internalType": "string",
          "name": "name",
          "type": "string"
        },
        {
          "internalType": "string",
          "name": "version",
          "type": "string"
        },
        {
          "internalType": "uint256",
          "name": "chainId",
          "type": "uint256"
        },
        {
          "internalType": "address",
          "name": "verifyingContract",
          "type": "address"
        },
        {
          "internalType": "bytes32",
          "name": "salt",
          "type": "bytes32"
        },
        {
          "internalType": "uint256[]",
          "name": "extensions",
          "type": "uint256[]"
        }
      ],
      "stateMutability": "view",
      "type": "function"
    },
    {
      "inputs": [
        {
          "internalType": "uint256",
          "name": "timepoint",
          "type": "uint256"
        }
      ],
      "name": "getPastTotalSupply",
      "outputs": [
        {
          "internalType": "uint256",
          "name": "",
          "type": "uint256"
        }
      ],
      "stateMutability": "view",
      "type": "function"
    },
    {
      "inputs": [
        {
          "internalType": "address",
          "name": "account",
          "type": "address"
        },
        {
          "internalType": "uint256",
          "name": "timepoint",
          "type": "uint256"
        }
      ],
      "name": "getPastVotes",
      "outputs": [
        {
          "internalType": "uint256",
          "name": "",
          "type": "uint256"
        }
      ],
      "stateMutability": "view",
      "type": "function"
    },
    {
      "inputs": [
        {
          "internalType": "bytes32",
          "name": "role",
          "type": "bytes32"
        }
      ],
      "name": "getRoleAdmin",
      "outputs": [
        {
          "internalType": "bytes32",
          "name": "",
          "type": "bytes32"
        }
      ],
      "stateMutability": "view",
      "type": "function"
    },
    {
      "inputs": [
        {
          "internalType": "address",
          "name": "account",
          "type": "address"
        }
      ],
      "name": "getVotes",
      "outputs": [
        {
          "internalType": "uint256",
          "name": "",
          "type": "uint256"
        }
      ],
      "stateMutability": "view",
      "type": "function"
    },
    {
      "inputs": [
        {
          "internalType": "bytes32",
          "name": "role",
          "type": "bytes32"
        },
        {
          "internalType": "address",
          "name": "account",
          "type": "address"
        }
      ],
      "name": "grantRole",
      "outputs": [],
      "stateMutability": "nonpayable",
      "type": "function"
    },
    {
      "inputs": [
        {
          "internalType": "bytes32",
          "name": "role",
          "type": "bytes32"
        },
        {
          "internalType": "address",
          "name": "account",
          "type": "address"
        }
      ],
      "name": "hasRole",
      "outputs": [
        {
          "internalType": "bool",
          "name": "",
          "type": "bool"
        }
      ],
      "stateMutability": "view",
      "type": "function"
    },
    {
      "inputs": [
        {
          "internalType": "address",
          "name": "spender",
          "type": "address"
        },
        {
          "internalType": "uint256",
          "name": "addedValue",
          "type": "uint256"
        }
      ],
      "name": "increaseAllowance",
      "outputs": [
        {
          "internalType": "bool",
          "name": "",
          "type": "bool"
        }
      ],
      "stateMutability": "nonpayable",
      "type": "function"
    },
    {
      "inputs": [
        {
          "internalType": "address",
          "name": "",
          "type": "address"
        }
      ],
      "name": "isBlacklisted",
      "outputs": [
        {
          "internalType": "bool",
          "name": "",
          "type": "bool"
        }
      ],
      "stateMutability": "view",
      "type": "function"
    },
    {
      "inputs": [
        {
          "internalType": "address",
          "name": "to",
          "type": "address"
        },
        {
          "internalType": "uint256",
          "name": "amount",
          "type": "uint256"
        }
      ],
      "name": "mint",
      "outputs": [],
      "stateMutability": "nonpayable",
      "type": "function"
    },
    {
      "inputs": [],
      "name": "name",
      "outputs": [
        {
          "internalType": "string",
          "name": "",
          "type": "string"
        }
      ],
      "stateMutability": "view",
      "type": "function"
    },
    {
      "inputs": [
        {
          "internalType": "address",
          "name": "owner",
          "type": "address"
        }
      ],
      "name": "nonces",
      "outputs": [
        {
          "internalType": "uint256",
          "name": "",
          "type": "uint256"
        }
      ],
      "stateMutability": "view",
      "type": "function"
    },
    {
      "inputs": [
        {
          "internalType": "address",
          "name": "account",
          "type": "address"
        }
      ],
      "name": "numCheckpoints",
      "outputs": [
        {
          "internalType": "uint32",
          "name": "",
          "type": "uint32"
        }
      ],
      "stateMutability": "view",
      "type": "function"
    },
    {
      "inputs": [],
      "name": "pause",
      "outputs": [],
      "stateMutability": "nonpayable",
      "type": "function"
    },
    {
      "inputs": [],
      "name": "paused",
      "outputs": [
        {
          "internalType": "bool",
          "name": "",
          "type": "bool"
        }
      ],
      "stateMutability": "view",
      "type": "function"
    },
    {
      "inputs": [
        {
          "internalType": "address",
          "name": "owner",
          "type": "address"
        },
        {
          "internalType": "address",
          "name": "spender",
          "type": "address"
        },
        {
          "internalType": "uint256",
          "name": "value",
          "type": "uint256"
        },
        {
          "internalType": "uint256",
          "name": "deadline",
          "type": "uint256"
        },
        {
          "internalType": "uint8",
          "name": "v",
          "type": "uint8"
        },
        {
          "internalType": "bytes32",
          "name": "r",
          "type": "bytes32"
        },
        {
          "internalType": "bytes32",
          "name": "s",
          "type": "bytes32"
        }
      ],
      "name": "permit",
      "outputs": [],
      "stateMutability": "nonpayable",
      "type": "function"
    },
    {
      "inputs": [
        {
          "internalType": "bytes32",
          "name": "role",
          "type": "bytes32"
        },
        {
          "internalType": "address",
          "name": "account",
          "type": "address"
        }
      ],
      "name": "renounceRole",
      "outputs": [],
      "stateMutability": "nonpayable",
      "type": "function"
    },
    {
      "inputs": [
        {
          "internalType": "bytes32",
          "name": "role",
          "type": "bytes32"
        },
        {
          "internalType": "address",
          "name": "account",
          "type": "address"
        }
      ],
      "name": "revokeRole",
      "outputs": [],
      "stateMutability": "nonpayable",
      "type": "function"
    },
    {
      "inputs": [],
      "name": "snapshot",
      "outputs": [],
      "stateMutability": "nonpayable",
      "type": "function"
    },
    {
      "inputs": [
        {
          "internalType": "bytes4",
          "name": "interfaceId",
          "type": "bytes4"
        }
      ],
      "name": "supportsInterface",
      "outputs": [
        {
          "internalType": "bool",
          "name": "",
          "type": "bool"
        }
      ],
      "stateMutability": "view",
      "type": "function"
    },
    {
      "inputs": [],
      "name": "symbol",
      "outputs": [
        {
          "internalType": "string",
          "name": "",
          "type": "string"
        }
      ],
      "stateMutability": "view",
      "type": "function"
    },
    {
      "inputs": [],
      "name": "totalSupply",
      "outputs": [
        {
          "internalType": "uint256",
          "name": "",
          "type": "uint256"
        }
      ],
      "stateMutability": "view",
      "type": "function"
    },
    {
      "inputs": [
        {
          "internalType": "uint256",
          "name": "snapshotId",
          "type": "uint256"
        }
      ],
      "name": "totalSupplyAt",
      "outputs": [
        {
          "internalType": "uint256",
          "name": "",
          "type": "uint256"
        }
      ],
      "stateMutability": "view",
      "type": "function"
    },
    {
      "inputs": [
        {
          "internalType": "address",
          "name": "to",
          "type": "address"
        },
        {
          "internalType": "uint256",
          "name": "amount",
          "type": "uint256"
        }
      ],
      "name": "transfer",
      "outputs": [
        {
          "internalType": "bool",
          "name": "",
          "type": "bool"
        }
      ],
      "stateMutability": "nonpayable",
      "type": "function"
    },
    {
      "inputs": [
        {
          "internalType": "address",
          "name": "from",
          "type": "address"
        },
        {
          "internalType": "address",
          "name": "to",
          "type": "address"
        },
        {
          "internalType": "uint256",
          "name": "amount",
          "type": "uint256"
        }
      ],
      "name": "transferFrom",
      "outputs": [
        {
          "internalType": "bool",
          "name": "",
          "type": "bool"
        }
      ],
      "stateMutability": "nonpayable",
      "type": "function"
    },
    {
      "inputs": [
        {
          "internalType": "address",
          "name": "account",
          "type": "address"
        }
      ],
      "name": "unblacklistAddress",
      "outputs": [],
      "stateMutability": "nonpayable",
      "type": "function"
    },
    {
      "inputs": [],
      "name": "unpause",
      "outputs": [],
      "stateMutability": "nonpayable",
      "type": "function"
    }
  ],
  "bytecode": "0x6101606040523480156200001257600080fd5b506040518060400160405280601c81526020017f556e6976657273616c204865616c746820436861696e20546f6b656e0000000081525080604051806040016040528060018152602001603160f81b8152506040518060400160405280601c81526020017f556e6976657273616c204865616c746820436861696e20546f6b656e000000008152506040518060400160405280600381526020016255484360e81b8152508160039081620000c7919062000c4f565b506004620000d6828262000c4f565b5050600a805460ff1916905550620000f082600b62000248565b610120526200010181600c62000248565b61014052815160208084019190912060e052815190820120610100524660a0526200018f60e05161010051604080517f8b73c3c69bb8fe3d512ecc4cf759cc79239f7b179b0ffacaa9a75d522b39400f60208201529081019290925260608201524660808201523060a082015260009060c00160405160208183030381529060405280519060200120905090565b60805250503060c05250620001a660003362000281565b620001d27f5fdbd35e8da83ee755d5e62a539e5ed7f47126abede0b8b10f9ea43dc6eed07f3362000281565b620001fe7f65d7a28e3265b37a6474929f336521b332c1681b933f6cb9f3376673440d862a3362000281565b6200022a7f9f2df0fed2c77648de5860a4cc508cd0818c85b8b8a1ab4ceeef8d981c8956a63362000281565b62000242336b033b2e3c9fd0803ce800000062000326565b62000de8565b60006020835110156200026857620002608362000332565b90506200027b565b8162000275848262000c4f565b5060ff90505b92915050565b60008281526009602090815260408083206001600160a01b038516845290915290205460ff16620003225760008281526009602090815260408083206001600160a01b03851684529091529020805460ff19166001179055620002e13390565b6001600160a01b0316816001600160a01b0316837f2f8788117e7eff1d82e926ec794901d17c78024a50270940304540a733656f0d60405160405180910390a45b5050565b6200032282826200037e565b600080829050601f8151111562000369578260405163305a27a960e01b815260040162000360919062000d1b565b60405180910390fd5b8051620003768262000d6b565b179392505050565b6200038a828262000426565b6001600160e01b036200039e620005018216565b1115620004075760405162461bcd60e51b815260206004820152603060248201527f4552433230566f7465733a20746f74616c20737570706c79207269736b73206f60448201526f766572666c6f77696e6720766f74657360801b606482015260840162000360565b620004206011620014ae6200050760201b17836200051c565b50505050565b6001600160a01b0382166200047e5760405162461bcd60e51b815260206004820152601f60248201527f45524332303a206d696e7420746f20746865207a65726f206164647265737300604482015260640162000360565b6200048c60008383620006a4565b8060026000828254620004a0919062000da6565b90915550506001600160a01b038216600081815260208181526040808320805486019055518481527fddf252ad1be2c89b69c2b068fc378daa952ba7f163c4a11628f55a4df523b3ef910160405180910390a3620003226000838362000744565b60025490565b600062000515828462000da6565b9392505050565b825460009081908181156200056b5760008781526020902082016000190160408051808201909152905463ffffffff8116825264010000000090046001600160e01b0316602082015262000580565b60408051808201909152600080825260208201525b905080602001516001600160e01b031693506200059e84868860201c565b9250600082118015620005cb5750620005b662000751565b65ffffffffffff16816000015163ffffffff16145b156200061457620005dc8362000763565b60008881526020902083016000190180546001600160e01b03929092166401000000000263ffffffff9092169190911790556200069a565b86604051806040016040528062000642620006346200075160201b60201c565b65ffffffffffff16620007d2565b63ffffffff168152602001620006588662000763565b6001600160e01b0390811690915282546001810184556000938452602093849020835194909301519091166401000000000263ffffffff909316929092179101555b5050935093915050565b620006ae62000839565b6001600160a01b03831660009081526012602052604090205460ff16158015620006f157506001600160a01b03821660009081526012602052604090205460ff16155b620007325760405162461bcd60e51b815260206004820152601060248201526f151c985b9cd9995c88189b1bd8dad95960821b604482015260640162000360565b6200073f83838362000883565b505050565b6200073f838383620008d7565b60006200075e436200090b565b905090565b60006001600160e01b03821115620007ce5760405162461bcd60e51b815260206004820152602760248201527f53616665436173743a2076616c756520646f65736e27742066697420696e20326044820152663234206269747360c81b606482015260840162000360565b5090565b600063ffffffff821115620007ce5760405162461bcd60e51b815260206004820152602660248201527f53616665436173743a2076616c756520646f65736e27742066697420696e203360448201526532206269747360d01b606482015260840162000360565b600a5460ff1615620008815760405162461bcd60e51b815260206004820152601060248201526f14185d5cd8589b194e881c185d5cd95960821b604482015260640162000360565b565b6001600160a01b038316620008a7576200089d8262000974565b6200073f620009ac565b6001600160a01b038216620008c1576200089d8362000974565b620008cc8362000974565b6200073f8262000974565b6001600160a01b038381166000908152600f60205260408082205485841683529120546200073f92918216911683620009bc565b600065ffffffffffff821115620007ce5760405162461bcd60e51b815260206004820152602660248201527f53616665436173743a2076616c756520646f65736e27742066697420696e203460448201526538206269747360d01b606482015260840162000360565b6001600160a01b03811660009081526005602090815260408083209183905290912054620009a9919062000af7565b62000af7565b50565b620008816006620009a360025490565b816001600160a01b0316836001600160a01b031614158015620009df5750600081115b156200073f576001600160a01b0383161562000a6c576001600160a01b03831660009081526010602090815260408220829162000a29919062000b46901b620014ba17856200051c565b91509150846001600160a01b031660008051602062004209833981519152838360405162000a61929190918252602082015260400190565b60405180910390a250505b6001600160a01b038216156200073f576001600160a01b03821660009081526010602090815260408220829162000ab0919062000507901b620014ae17856200051c565b91509150836001600160a01b031660008051602062004209833981519152838360405162000ae8929190918252602082015260400190565b60405180910390a25050505050565b600062000b0362000b54565b90508062000b118462000b60565b10156200073f578254600180820185556000858152602080822090930193909355938401805494850181558252902090910155565b600062000515828462000dbc565b60006200075e60085490565b8054600090810362000b7457506000919050565b8154829062000b869060019062000dbc565b8154811062000b995762000b9962000dd2565b90600052602060002001549050919050565b634e487b7160e01b600052604160045260246000fd5b600181811c9082168062000bd657607f821691505b60208210810362000bf757634e487b7160e01b600052602260045260246000fd5b50919050565b601f8211156200073f57600081815260208120601f850160051c8101602086101562000c265750805b601f850160051c820191505b8181101562000c475782815560010162000c32565b505050505050565b81516001600160401b0381111562000c6b5762000c6b62000bab565b62000c838162000c7c845462000bc1565b8462000bfd565b602080601f83116001811462000cbb576000841562000ca25750858301515b600019600386901b1c1916600185901b17855562000c47565b600085815260208120601f198616915b8281101562000cec5788860151825594840194600190910190840162000ccb565b508582101562000d0b5787850151600019600388901b60f8161c191681555b5050505050600190811b01905550565b600060208083528351808285015260005b8181101562000d4a5785810183015185820160400152820162000d2c565b506000604082860101526040601f19601f8301168501019250505092915050565b8051602080830151919081101562000bf75760001960209190910360031b1b16919050565b634e487b7160e01b600052601160045260246000fd5b808201808211156200027b576200027b62000d90565b818103818111156200027b576200027b62000d90565b634e487b7160e01b600052603260045260246000fd5b60805160a05160c05160e0516101005161012051610140516133c662000e436000396000610e1b01526000610df0015260006119830152600061195b015260006118b6015260006118e00152600061190a01526133c66000f3fe608060405234801561001057600080fd5b50600436106102bb5760003560e01c80637028e2cd116101825780639ab24eb0116100e9578063d5391393116100a2578063e63ab1e91161007c578063e63ab1e91461067e578063f1127ed8146106a5578063f3290d75146106e2578063fe575a87146106f557600080fd5b8063d539139314610631578063d547741f14610658578063dd62ed3e1461066b57600080fd5b80639ab24eb0146105ca578063a217fddf146105dd578063a457c2d7146105e5578063a9059cbb146105f8578063c3cda5201461060b578063d505accf1461061e57600080fd5b80638e539e8c1161013b5780638e539e8c1461056257806391d148541461057557806391ddadf41461058857806395d89b41146105a75780639711715a146105af578063981b24d0146105b757600080fd5b80637028e2cd146104c957806370a08231146104f057806379cc6790146105195780637ecebe001461052c5780638456cb591461053f57806384b0196e1461054757600080fd5b806339509351116102265780634bf5d7e9116101df5780634bf5d7e9146104245780634ee2cd7e1461042c578063587cde1e1461043f5780635c19a95c146104835780635c975abb146104965780636fcfff45146104a157600080fd5b806339509351146103bd5780633a46b1a8146103d05780633f4ba83a146103e357806340c10f19146103eb57806342966c68146103fe57806345e349491461041157600080fd5b80632f2ff15d116102785780632f2ff15d146103585780632ff2e9dc1461036d578063313ce5671461038057806332cb6b0c1461038f5780633644e515146103a257806336568abe146103aa57600080fd5b806301ffc9a7146102c057806306fdde03146102e8578063095ea7b3146102fd57806318160ddd1461031057806323b872dd14610322578063248a9ca314610335575b600080fd5b6102d36102ce366004612ec6565b610718565b60405190151581526020015b60405180910390f35b6102f061074f565b6040516102df9190612f40565b6102d361030b366004612f6a565b6107e1565b6002545b6040519081526020016102df565b6102d3610330366004612f94565b6107f9565b610314610343366004612fd0565b60009081526009602052604090206001015490565b61036b610366366004612fe9565b61081d565b005b6103146b033b2e3c9fd0803ce800000081565b604051601281526020016102df565b6103146b06765c793fa10079d000000081565b610314610847565b61036b6103b8366004612fe9565b610856565b6102d36103cb366004612f6a565b6108d9565b6103146103de366004612f6a565b6108fb565b61036b610980565b61036b6103f9366004612f6a565b6109b5565b61036b61040c366004612fd0565b610b09565b61036b61041f366004613015565b610ba3565b6102f0610c60565b61031461043a366004612f6a565b610cf8565b61046b61044d366004613015565b6001600160a01b039081166000908152600f60205260409020541690565b6040516001600160a01b0390911681526020016102df565b61036b610491366004613015565b610d51565b600a5460ff166102d3565b6104b46104af366004613015565b610d5b565b60405163ffffffff90911681526020016102df565b6103147f5fdbd35e8da83ee755d5e62a539e5ed7f47126abede0b8b10f9ea43dc6eed07f81565b6103146104fe366004613015565b6001600160a01b031660009081526020819052604090205490565b61036b610527366004612f6a565b610d7d565b61031461053a366004613015565b610d92565b61036b610db0565b61054f610de2565b6040516102df9796959493929190613030565b610314610570366004612fd0565b610e6b565b6102d3610583366004612fe9565b610ed2565b610590610efd565b60405165ffffffffffff90911681526020016102df565b6102f0610f08565b61036b610f17565b6103146105c5366004612fd0565b610f49565b6103146105d8366004613015565b610f74565b610314600081565b6102d36105f3366004612f6a565b610ff6565b6102d3610606366004612f6a565b611071565b61036b6106193660046130d7565b61107f565b61036b61062c36600461312f565b6111b5565b6103147f9f2df0fed2c77648de5860a4cc508cd0818c85b8b8a1ab4ceeef8d981c8956a681565b61036b610666366004612fe9565b611319565b610314610679366004613199565b61133e565b6103147f65d7a28e3265b37a6474929f336521b332c1681b933f6cb9f3376673440d862a81565b6106b86106b33660046131c3565b611369565b60408051825163ffffffff1681526020928301516001600160e01b031692810192909252016102df565b61036b6106f0366004613015565b6113ed565b6102d3610703366004613015565b60126020526000908152604090205460ff1681565b60006001600160e01b03198216637965db0b60e01b148061074957506301ffc9a760e01b6001600160e01b03198316145b92915050565b60606003805461075e90613203565b80601f016020809104026020016040519081016040528092919081815260200182805461078a90613203565b80156107d75780601f106107ac576101008083540402835291602001916107d7565b820191906000526020600020905b8154815290600101906020018083116107ba57829003601f168201915b5050505050905090565b6000336107ef8185856114c6565b5060019392505050565b6000336108078582856115ea565b610812858585611664565b506001949350505050565b60008281526009602052604090206001015461083881611819565b6108428383611823565b505050565b60006108516118a9565b905090565b6001600160a01b03811633146108cb5760405162461bcd60e51b815260206004820152602f60248201527f416363657373436f6e74726f6c3a2063616e206f6e6c792072656e6f756e636560448201526e103937b632b9903337b91039b2b63360891b60648201526084015b60405180910390fd5b6108d582826119d4565b5050565b6000336107ef8185856108ec838361133e565b6108f6919061324d565b6114c6565b6000610905610efd565b65ffffffffffff1682106109575760405162461bcd60e51b815260206004820152601960248201527804552433230566f7465733a20667574757265206c6f6f6b757603c1b60448201526064016108c2565b6001600160a01b03831660009081526010602052604090206109799083611a3b565b9392505050565b7f65d7a28e3265b37a6474929f336521b332c1681b933f6cb9f3376673440d862a6109aa81611819565b6109b2611b24565b50565b7f9f2df0fed2c77648de5860a4cc508cd0818c85b8b8a1ab4ceeef8d981c8956a66109df81611819565b6b06765c793fa10079d0000000826109f660025490565b610a00919061324d565b1115610a4e5760405162461bcd60e51b815260206004820152601760248201527f576f756c6420657863656564206d617820737570706c7900000000000000000060448201526064016108c2565b6001600160a01b03831660009081526012602052604090205460ff1615610ab75760405162461bcd60e51b815260206004820152601860248201527f526563697069656e7420697320626c61636b6c6973746564000000000000000060448201526064016108c2565b610ac18383611b76565b826001600160a01b03167f3f2c9d57c068687834f0de942a9babb9e5acab57d516d3480a3c16ee165a427383604051610afc91815260200190565b60405180910390a2505050565b3360009081526012602052604090205460ff1615610b625760405162461bcd60e51b81526020600482015260166024820152751058d8dbdd5b9d081a5cc8189b1858dadb1a5cdd195960521b60448201526064016108c2565b610b6b81611b80565b60405181815233907ffd38818f5291bf0bb3a2a48aadc06ba8757865d1dabd804585338aab3009dcb69060200160405180910390a250565b6000610bae81611819565b6001600160a01b03821660009081526012602052604090205460ff16610c165760405162461bcd60e51b815260206004820152601760248201527f41646472657373206e6f7420626c61636b6c697374656400000000000000000060448201526064016108c2565b6001600160a01b038216600081815260126020526040808220805460ff19169055517fb2aa8f2cce614e8fceaca560dbaf2a8ed3083e4ab371b10bf6d02e359216767a9190a25050565b606043610c6b610efd565b65ffffffffffff1614610cc05760405162461bcd60e51b815260206004820152601d60248201527f4552433230566f7465733a2062726f6b656e20636c6f636b206d6f646500000060448201526064016108c2565b5060408051808201909152601d81527f6d6f64653d626c6f636b6e756d6265722666726f6d3d64656661756c74000000602082015290565b6001600160a01b038216600090815260056020526040812081908190610d1f908590611b8a565b9150915081610d46576001600160a01b038516600090815260208190526040902054610d48565b805b95945050505050565b6109b23382611c80565b6001600160a01b03811660009081526010602052604081205461074990611cf9565b610d888233836115ea565b6108d58282611d62565b6001600160a01b0381166000908152600d6020526040812054610749565b7f65d7a28e3265b37a6474929f336521b332c1681b933f6cb9f3376673440d862a610dda81611819565b6109b2611d6c565b600060608082808083610e167f0000000000000000000000000000000000000000000000000000000000000000600b611da9565b610e417f0000000000000000000000000000000000000000000000000000000000000000600c611da9565b60408051600080825260208201909252600f60f81b9b939a50919850469750309650945092509050565b6000610e75610efd565b65ffffffffffff168210610ec75760405162461bcd60e51b815260206004820152601960248201527804552433230566f7465733a20667574757265206c6f6f6b757603c1b60448201526064016108c2565b610749601183611a3b565b60009182526009602090815260408084206001600160a01b0393909316845291905290205460ff1690565b600061085143611e54565b60606004805461075e90613203565b7f5fdbd35e8da83ee755d5e62a539e5ed7f47126abede0b8b10f9ea43dc6eed07f610f4181611819565b6108d5611ebb565b6000806000610f59846006611b8a565b9150915081610f6a57600254610f6c565b805b949350505050565b6001600160a01b0381166000908152601060205260408120548015610fe3576001600160a01b038316600090815260106020526040902080546000198301908110610fc157610fc1613276565b60009182526020909120015464010000000090046001600160e01b0316610fe6565b60005b6001600160e01b03169392505050565b60003381611004828661133e565b9050838110156110645760405162461bcd60e51b815260206004820152602560248201527f45524332303a2064656372656173656420616c6c6f77616e63652062656c6f77604482015264207a65726f60d81b60648201526084016108c2565b61081282868684036114c6565b6000336107ef818585611664565b834211156110cf5760405162461bcd60e51b815260206004820152601d60248201527f4552433230566f7465733a207369676e6174757265206578706972656400000060448201526064016108c2565b604080517fe48329057bfd03d55e49b547132e39cffd9c1820ad7b9d4c5307691425d15adf60208201526001600160a01b038816918101919091526060810186905260808101859052600090611149906111419060a00160405160208183030381529060405280519060200120611f15565b858585611f42565b905061115481611f6a565b86146111a25760405162461bcd60e51b815260206004820152601960248201527f4552433230566f7465733a20696e76616c6964206e6f6e63650000000000000060448201526064016108c2565b6111ac8188611c80565b50505050505050565b834211156112055760405162461bcd60e51b815260206004820152601d60248201527f45524332305065726d69743a206578706972656420646561646c696e6500000060448201526064016108c2565b60007f6e71edae12b1b97f4d1f60370fef10105fa2faae0126114a169c64845d6126c98888886112348c611f6a565b6040805160208101969096526001600160a01b0394851690860152929091166060840152608083015260a082015260c0810186905260e001604051602081830303815290604052805190602001209050600061128f82611f15565b9050600061129f82878787611f42565b9050896001600160a01b0316816001600160a01b0316146113025760405162461bcd60e51b815260206004820152601e60248201527f45524332305065726d69743a20696e76616c6964207369676e6174757265000060448201526064016108c2565b61130d8a8a8a6114c6565b50505050505050505050565b60008281526009602052604090206001015461133481611819565b61084283836119d4565b6001600160a01b03918216600090815260016020908152604080832093909416825291909152205490565b60408051808201909152600080825260208201526001600160a01b0383166000908152601060205260409020805463ffffffff84169081106113ad576113ad613276565b60009182526020918290206040805180820190915291015463ffffffff8116825264010000000090046001600160e01b0316918101919091529392505050565b60006113f881611819565b6001600160a01b03821660009081526012602052604090205460ff16156114615760405162461bcd60e51b815260206004820152601b60248201527f4164647265737320616c726561647920626c61636b6c6973746564000000000060448201526064016108c2565b6001600160a01b038216600081815260126020526040808220805460ff19166001179055517fdaf49ab9345b6cb75bcb5a7f726bff9183c34dcf5c098c385730f9fd893765f69190a25050565b6000610979828461324d565b6000610979828461328c565b6001600160a01b0383166115285760405162461bcd60e51b8152602060048201526024808201527f45524332303a20617070726f76652066726f6d20746865207a65726f206164646044820152637265737360e01b60648201526084016108c2565b6001600160a01b0382166115895760405162461bcd60e51b815260206004820152602260248201527f45524332303a20617070726f766520746f20746865207a65726f206164647265604482015261737360f01b60648201526084016108c2565b6001600160a01b0383811660008181526001602090815260408083209487168084529482529182902085905590518481527f8c5be1e5ebec7d5bd14f71427d1e84f3dd0314c0f7b2291e5b200ac8c7c3b925910160405180910390a3505050565b60006115f6848461133e565b9050600019811461165e57818110156116515760405162461bcd60e51b815260206004820152601d60248201527f45524332303a20696e73756666696369656e7420616c6c6f77616e636500000060448201526064016108c2565b61165e84848484036114c6565b50505050565b6001600160a01b0383166116c85760405162461bcd60e51b815260206004820152602560248201527f45524332303a207472616e736665722066726f6d20746865207a65726f206164604482015264647265737360d81b60648201526084016108c2565b6001600160a01b03821661172a5760405162461bcd60e51b815260206004820152602360248201527f45524332303a207472616e7366657220746f20746865207a65726f206164647260448201526265737360e81b60648201526084016108c2565b611735838383611f92565b6001600160a01b038316600090815260208190526040902054818110156117ad5760405162461bcd60e51b815260206004820152602660248201527f45524332303a207472616e7366657220616d6f756e7420657863656564732062604482015265616c616e636560d01b60648201526084016108c2565b6001600160a01b03848116600081815260208181526040808320878703905593871680835291849020805487019055925185815290927fddf252ad1be2c89b69c2b068fc378daa952ba7f163c4a11628f55a4df523b3ef910160405180910390a361165e848484612026565b6109b28133612031565b61182d8282610ed2565b6108d55760008281526009602090815260408083206001600160a01b03851684529091529020805460ff191660011790556118653390565b6001600160a01b0316816001600160a01b0316837f2f8788117e7eff1d82e926ec794901d17c78024a50270940304540a733656f0d60405160405180910390a45050565b6000306001600160a01b037f00000000000000000000000000000000000000000000000000000000000000001614801561190257507f000000000000000000000000000000000000000000000000000000000000000046145b1561192c57507f000000000000000000000000000000000000000000000000000000000000000090565b610851604080517f8b73c3c69bb8fe3d512ecc4cf759cc79239f7b179b0ffacaa9a75d522b39400f60208201527f0000000000000000000000000000000000000000000000000000000000000000918101919091527f000000000000000000000000000000000000000000000000000000000000000060608201524660808201523060a082015260009060c00160405160208183030381529060405280519060200120905090565b6119de8282610ed2565b156108d55760008281526009602090815260408083206001600160a01b0385168085529252808320805460ff1916905551339285917ff6391f5c32d9c69d2a47ea670b442974b53935d1edc7fd64eb21e047a839171b9190a45050565b815460009081816005811115611a95576000611a568461208a565b611a60908561328c565b600088815260209020909150869082015463ffffffff161115611a8557809150611a93565b611a9081600161324d565b92505b505b80821015611ae2576000611aa98383612172565b600088815260209020909150869082015463ffffffff161115611ace57809150611adc565b611ad981600161324d565b92505b50611a95565b8015611b0e576000868152602090208101600019015464010000000090046001600160e01b0316611b11565b60005b6001600160e01b03169695505050505050565b611b2c61218d565b600a805460ff191690557f5db9ee0a495bf2e6ff9c91a7834c1ba4fdd244a5e8aa4e537bd38aeae4b073aa335b6040516001600160a01b03909116815260200160405180910390a1565b6108d582826121d8565b6109b23382611d62565b60008060008411611bd65760405162461bcd60e51b815260206004820152601660248201527504552433230536e617073686f743a20696420697320360541b60448201526064016108c2565b611bde612262565b841115611c2d5760405162461bcd60e51b815260206004820152601d60248201527f4552433230536e617073686f743a206e6f6e6578697374656e7420696400000060448201526064016108c2565b6000611c39848661226d565b84549091508103611c51576000809250925050611c79565b6001846001018281548110611c6857611c68613276565b906000526020600020015492509250505b9250929050565b6001600160a01b038281166000818152600f60208181526040808420805485845282862054949093528787166001600160a01b03198416811790915590519190951694919391928592917f3134e8a2e6d97e929a7e54011ea5485d7d196dd5f0ba4d4ef95803e8e3fc257f9190a461165e82848361231a565b600063ffffffff821115611d5e5760405162461bcd60e51b815260206004820152602660248201527f53616665436173743a2076616c756520646f65736e27742066697420696e203360448201526532206269747360d01b60648201526084016108c2565b5090565b6108d58282612457565b611d7461246f565b600a805460ff191660011790557f62e78cea01bee320cd4e420270b5ea74000d11b0c9f74754ebdbfc544b05a258611b593390565b606060ff8314611dc357611dbc836124b5565b9050610749565b818054611dcf90613203565b80601f0160208091040260200160405190810160405280929190818152602001828054611dfb90613203565b8015611e485780601f10611e1d57610100808354040283529160200191611e48565b820191906000526020600020905b815481529060010190602001808311611e2b57829003601f168201915b50505050509050610749565b600065ffffffffffff821115611d5e5760405162461bcd60e51b815260206004820152602660248201527f53616665436173743a2076616c756520646f65736e27742066697420696e203460448201526538206269747360d01b60648201526084016108c2565b6000611ecb600880546001019055565b6000611ed5612262565b90507f8030e83b04d87bef53480e26263266d6ca66863aa8506aca6f2559d18aa1cb6781604051611f0891815260200190565b60405180910390a1919050565b6000610749611f226118a9565b8360405161190160f01b8152600281019290925260228201526042902090565b6000806000611f53878787876124f4565b91509150611f60816125b8565b5095945050505050565b6001600160a01b0381166000908152600d602052604090208054600181018255905b50919050565b611f9a61246f565b6001600160a01b03831660009081526012602052604090205460ff16158015611fdc57506001600160a01b03821660009081526012602052604090205460ff16155b61201b5760405162461bcd60e51b815260206004820152601060248201526f151c985b9cd9995c88189b1bd8dad95960821b60448201526064016108c2565b610842838383612702565b61084283838361274a565b61203b8282610ed2565b6108d5576120488161277c565b61205383602061278e565b60405160200161206492919061329f565b60408051601f198184030181529082905262461bcd60e51b82526108c291600401612f40565b60008160000361209c57506000919050565b600060016120a98461292a565b901c6001901b905060018184816120c2576120c2613314565b048201901c905060018184816120da576120da613314565b048201901c905060018184816120f2576120f2613314565b048201901c9050600181848161210a5761210a613314565b048201901c9050600181848161212257612122613314565b048201901c9050600181848161213a5761213a613314565b048201901c9050600181848161215257612152613314565b048201901c90506109798182858161216c5761216c613314565b046129be565b6000612181600284841861332a565b6109799084841661324d565b600a5460ff166121d65760405162461bcd60e51b815260206004820152601460248201527314185d5cd8589b194e881b9bdd081c185d5cd95960621b60448201526064016108c2565b565b6121e282826129d4565b6002546001600160e01b0310156122545760405162461bcd60e51b815260206004820152603060248201527f4552433230566f7465733a20746f74616c20737570706c79207269736b73206f60448201526f766572666c6f77696e6720766f74657360801b60648201526084016108c2565b61165e60116114ae83612aa7565b600061085160085490565b8154600090810361228057506000610749565b82546000905b808210156122cd57600061229a8383612172565b600087815260209020909150859082015411156122b9578091506122c7565b6122c481600161324d565b92505b50612286565b6000821180156122f95750836122f6866122e860018661328c565b600091825260209091200190565b54145b156123125761230960018361328c565b92505050610749565b509050610749565b816001600160a01b0316836001600160a01b03161415801561233c5750600081115b15610842576001600160a01b038316156123ca576001600160a01b03831660009081526010602052604081208190612377906114ba85612aa7565b91509150846001600160a01b03167fdec2bacdd2f05b59de34da9b523dff8be42e5e38e818c82fdb0bae774387a72483836040516123bf929190918252602082015260400190565b60405180910390a250505b6001600160a01b03821615610842576001600160a01b03821660009081526010602052604081208190612400906114ae85612aa7565b91509150836001600160a01b03167fdec2bacdd2f05b59de34da9b523dff8be42e5e38e818c82fdb0bae774387a7248383604051612448929190918252602082015260400190565b60405180910390a25050505050565b6124618282612c1c565b61165e60116114ba83612aa7565b600a5460ff16156121d65760405162461bcd60e51b815260206004820152601060248201526f14185d5cd8589b194e881c185d5cd95960821b60448201526064016108c2565b606060006124c283612d61565b604080516020808252818301909252919250600091906020820181803683375050509182525060208101929092525090565b6000807f7fffffffffffffffffffffffffffffff5d576e7357a4501ddfe92f46681b20a083111561252b57506000905060036125af565b6040805160008082526020820180845289905260ff881692820192909252606081018690526080810185905260019060a0016020604051602081039080840390855afa15801561257f573d6000803e3d6000fd5b5050604051601f1901519150506001600160a01b0381166125a8576000600192509250506125af565b9150600090505b94509492505050565b60008160048111156125cc576125cc61334c565b036125d45750565b60018160048111156125e8576125e861334c565b036126355760405162461bcd60e51b815260206004820152601860248201527f45434453413a20696e76616c6964207369676e6174757265000000000000000060448201526064016108c2565b60028160048111156126495761264961334c565b036126965760405162461bcd60e51b815260206004820152601f60248201527f45434453413a20696e76616c6964207369676e6174757265206c656e6774680060448201526064016108c2565b60038160048111156126aa576126aa61334c565b036109b25760405162461bcd60e51b815260206004820152602260248201527f45434453413a20696e76616c6964207369676e6174757265202773272076616c604482015261756560f01b60648201526084016108c2565b6001600160a01b0383166127215761271982612d89565b610842612dbb565b6001600160a01b0382166127385761271983612d89565b61274183612d89565b61084282612d89565b6001600160a01b038381166000908152600f60205260408082205485841683529120546108429291821691168361231a565b60606107496001600160a01b03831660145b6060600061279d836002613362565b6127a890600261324d565b67ffffffffffffffff8111156127c0576127c0613260565b6040519080825280601f01601f1916602001820160405280156127ea576020820181803683370190505b509050600360fc1b8160008151811061280557612805613276565b60200101906001600160f81b031916908160001a905350600f60fb1b8160018151811061283457612834613276565b60200101906001600160f81b031916908160001a9053506000612858846002613362565b61286390600161324d565b90505b60018111156128db576f181899199a1a9b1b9c1cb0b131b232b360811b85600f166010811061289757612897613276565b1a60f81b8282815181106128ad576128ad613276565b60200101906001600160f81b031916908160001a90535060049490941c936128d481613379565b9050612866565b5083156109795760405162461bcd60e51b815260206004820181905260248201527f537472696e67733a20686578206c656e67746820696e73756666696369656e7460448201526064016108c2565b600080608083901c1561293f57608092831c92015b604083901c1561295157604092831c92015b602083901c1561296357602092831c92015b601083901c1561297557601092831c92015b600883901c1561298757600892831c92015b600483901c1561299957600492831c92015b600283901c156129ab57600292831c92015b600183901c156107495760010192915050565b60008183106129cd5781610979565b5090919050565b6001600160a01b038216612a2a5760405162461bcd60e51b815260206004820152601f60248201527f45524332303a206d696e7420746f20746865207a65726f20616464726573730060448201526064016108c2565b612a3660008383611f92565b8060026000828254612a48919061324d565b90915550506001600160a01b038216600081815260208181526040808320805486019055518481527fddf252ad1be2c89b69c2b068fc378daa952ba7f163c4a11628f55a4df523b3ef910160405180910390a36108d560008383612026565b82546000908190818115612af45760008781526020902082016000190160408051808201909152905463ffffffff8116825264010000000090046001600160e01b03166020820152612b09565b60408051808201909152600080825260208201525b905080602001516001600160e01b03169350612b2984868863ffffffff16565b9250600082118015612b535750612b3e610efd565b65ffffffffffff16816000015163ffffffff16145b15612b9857612b6183612dc9565b60008881526020902083016000190180546001600160e01b03929092166401000000000263ffffffff909216919091179055612c12565b866040518060400160405280612bbc612baf610efd565b65ffffffffffff16611cf9565b63ffffffff168152602001612bd086612dc9565b6001600160e01b0390811690915282546001810184556000938452602093849020835194909301519091166401000000000263ffffffff909316929092179101555b5050935093915050565b6001600160a01b038216612c7c5760405162461bcd60e51b815260206004820152602160248201527f45524332303a206275726e2066726f6d20746865207a65726f206164647265736044820152607360f81b60648201526084016108c2565b612c8882600083611f92565b6001600160a01b03821660009081526020819052604090205481811015612cfc5760405162461bcd60e51b815260206004820152602260248201527f45524332303a206275726e20616d6f756e7420657863656564732062616c616e604482015261636560f01b60648201526084016108c2565b6001600160a01b0383166000818152602081815260408083208686039055600280548790039055518581529192917fddf252ad1be2c89b69c2b068fc378daa952ba7f163c4a11628f55a4df523b3ef910160405180910390a361084283600084612026565b600060ff8216601f81111561074957604051632cd44ac360e21b815260040160405180910390fd5b6001600160a01b038116600090815260056020908152604080832091839052909120546109b29190612e32565b612e32565b6121d66006612db660025490565b60006001600160e01b03821115611d5e5760405162461bcd60e51b815260206004820152602760248201527f53616665436173743a2076616c756520646f65736e27742066697420696e20326044820152663234206269747360c81b60648201526084016108c2565b6000612e3c612262565b905080612e4884612e7c565b1015610842578254600180820185556000858152602080822090930193909355938401805494850181558252902090910155565b80546000908103612e8f57506000919050565b81548290612e9f9060019061328c565b81548110612eaf57612eaf613276565b90600052602060002001549050919050565b919050565b600060208284031215612ed857600080fd5b81356001600160e01b03198116811461097957600080fd5b60005b83811015612f0b578181015183820152602001612ef3565b50506000910152565b60008151808452612f2c816020860160208601612ef0565b601f01601f19169290920160200192915050565b6020815260006109796020830184612f14565b80356001600160a01b0381168114612ec157600080fd5b60008060408385031215612f7d57600080fd5b612f8683612f53565b946020939093013593505050565b600080600060608486031215612fa957600080fd5b612fb284612f53565b9250612fc060208501612f53565b9150604084013590509250925092565b600060208284031215612fe257600080fd5b5035919050565b60008060408385031215612ffc57600080fd5b8235915061300c60208401612f53565b90509250929050565b60006020828403121561302757600080fd5b61097982612f53565b60ff60f81b881681526000602060e08184015261305060e084018a612f14565b8381036040850152613062818a612f14565b606085018990526001600160a01b038816608086015260a0850187905284810360c0860152855180825283870192509083019060005b818110156130b457835183529284019291840191600101613098565b50909c9b505050505050505050505050565b803560ff81168114612ec157600080fd5b60008060008060008060c087890312156130f057600080fd5b6130f987612f53565b95506020870135945060408701359350613115606088016130c6565b92506080870135915060a087013590509295509295509295565b600080600080600080600060e0888a03121561314a57600080fd5b61315388612f53565b965061316160208901612f53565b9550604088013594506060880135935061317d608089016130c6565b925060a0880135915060c0880135905092959891949750929550565b600080604083850312156131ac57600080fd5b6131b583612f53565b915061300c60208401612f53565b600080604083850312156131d657600080fd5b6131df83612f53565b9150602083013563ffffffff811681146131f857600080fd5b809150509250929050565b600181811c9082168061321757607f821691505b602082108103611f8c57634e487b7160e01b600052602260045260246000fd5b634e487b7160e01b600052601160045260246000fd5b8082018082111561074957610749613237565b634e487b7160e01b600052604160045260246000fd5b634e487b7160e01b600052603260045260246000fd5b8181038181111561074957610749613237565b7f416363657373436f6e74726f6c3a206163636f756e74200000000000000000008152600083516132d7816017850160208801612ef0565b7001034b99036b4b9b9b4b733903937b6329607d1b6017918401918201528351613308816028840160208801612ef0565b01602801949350505050565b634e487b7160e01b600052601260045260246000fd5b60008261334757634e487b7160e01b600052601260045260246000fd5b500490565b634e487b7160e01b600052602160045260246000fd5b808202811582820484141761074957610749613237565b60008161338857613388613237565b50600019019056fea2646970667358221220faed1b7445bcc0376335637652b5b4bbeecb1c973e7b49a0a9f133124da401ef64736f6c63430008130033dec2bacdd2f05b59de34da9b523dff8be42e5e38e818c82fdb0bae774387a724",
  "linkReferences": {},
  "deployedLinkReferences": {}
}