{
  "_format": "hh-sol-artifact-1",
  "contractName": "StakeholderVoting",
  "sourceName": "contracts/governance/StakeholderVoting.sol",
  "abi": [
    {
      "inputs": [
        {
          "internalType": "address",
          "name": "_identityContract",
          "type": "address"
        }
      ],
      "stateMutability": "nonpayable",
      "type": "constructor"
    },
    {
      "anonymous": false,
      "inputs": [
        {
          "indexed": true,
          "internalType": "bytes32",
          "name": "proposalId",
          "type": "bytes32"
        }
      ],
      "name": "BallotCanceled",
      "type": "event"
    },
    {
      "anonymous": false,
      "inputs": [
        {
          "indexed": true,
          "internalType": "bytes32",
          "name": "proposalId",
          "type": "bytes32"
        },
        {
          "indexed": false,
          "internalType": "string",
          "name": "title",
          "type": "string"
        },
        {
          "indexed": false,
          "internalType": "uint256",
          "name": "startTime",
          "type": "uint256"
        },
        {
          "indexed": false,
          "internalType": "uint256",
          "name": "endTime",
          "type": "uint256"
        }
      ],
      "name": "BallotCreated",
      "type": "event"
    },
    {
      "anonymous": false,
      "inputs": [
        {
          "indexed": true,
          "internalType": "bytes32",
          "name": "proposalId",
          "type": "bytes32"
        }
      ],
      "name": "BallotExecuted",
      "type": "event"
    },
    {
      "anonymous": false,
      "inputs": [
        {
          "indexed": false,
          "internalType": "address",
          "name": "account",
          "type": "address"
        }
      ],
      "name": "Paused",
      "type": "event"
    },
    {
      "anonymous": false,
      "inputs": [
        {
          "indexed": true,
          "internalType": "bytes32",
          "name": "role",
          "type": "bytes32"
        },
        {
          "indexed": true,
          "internalType": "bytes32",
          "name": "previousAdminRole",
          "type": "bytes32"
        },
        {
          "indexed": true,
          "internalType": "bytes32",
          "name": "newAdminRole",
          "type": "bytes32"
        }
      ],
      "name": "RoleAdminChanged",
      "type": "event"
    },
    {
      "anonymous": false,
      "inputs": [
        {
          "indexed": true,
          "internalType": "bytes32",
          "name": "role",
          "type": "bytes32"
        },
        {
          "indexed": true,
          "internalType": "address",
          "name": "account",
          "type": "address"
        },
        {
          "indexed": true,
          "internalType": "address",
          "name": "sender",
          "type": "address"
        }
      ],
      "name": "RoleGranted",
      "type": "event"
    },
    {
      "anonymous": false,
      "inputs": [
        {
          "indexed": true,
          "internalType": "bytes32",
          "name": "role",
          "type": "bytes32"
        },
        {
          "indexed": true,
          "internalType": "address",
          "name": "account",
          "type": "address"
        },
        {
          "indexed": true,
          "internalType": "address",
          "name": "sender",
          "type": "address"
        }
      ],
      "name": "RoleRevoked",
      "type": "event"
    },
    {
      "anonymous": false,
      "inputs": [
        {
          "indexed": true,
          "internalType": "enum IUHCIdentity.IdentityType",
          "name": "stakeholderType",
          "type": "uint8"
        },
        {
          "indexed": false,
          "internalType": "uint256",
          "name": "weight",
          "type": "uint256"
        }
      ],
      "name": "StakeholderWeightUpdated",
      "type": "event"
    },
    {
      "anonymous": false,
      "inputs": [
        {
          "indexed": false,
          "internalType": "address",
          "name": "account",
          "type": "address"
        }
      ],
      "name": "Unpaused",
      "type": "event"
    },
    {
      "anonymous": false,
      "inputs": [
        {
          "indexed": true,
          "internalType": "bytes32",
          "name": "proposalId",
          "type": "bytes32"
        },
        {
          "indexed": true,
          "internalType": "address",
          "name": "voter",
          "type": "address"
        },
        {
          "indexed": false,
          "internalType": "bool",
          "name": "support",
          "type": "bool"
        },
        {
          "indexed": false,
          "internalType": "uint256",
          "name": "weight",
          "type": "uint256"
        }
      ],
      "name": "VoteCast",
      "type": "event"
    },
    {
      "inputs": [],
      "name": "ADMIN_ROLE",
      "outputs": [
        {
          "internalType": "bytes32",
          "name": "",
          "type": "bytes32"
        }
      ],
      "stateMutability": "view",
      "type": "function"
    },
    {
      "inputs": [],
      "name": "DEFAULT_ADMIN_ROLE",
      "outputs": [
        {
          "internalType": "bytes32",
          "name": "",
          "type": "bytes32"
        }
      ],
      "stateMutability": "view",
      "type": "function"
    },
    {
      "inputs": [],
      "name": "VOTING_MANAGER_ROLE",
      "outputs": [
        {
          "internalType": "bytes32",
          "name": "",
          "type": "bytes32"
        }
      ],
      "stateMutability": "view",
      "type": "function"
    },
    {
      "inputs": [
        {
          "internalType": "bytes32",
          "name": "",
          "type": "bytes32"
        }
      ],
      "name": "ballots",
      "outputs": [
        {
          "internalType": "bytes32",
          "name": "proposalId",
          "type": "bytes32"
        },
        {
          "internalType": "string",
          "name": "title",
          "type": "string"
        },
        {
          "internalType": "string",
          "name": "description",
          "type": "string"
        },
        {
          "internalType": "uint256",
          "name": "startTime",
          "type": "uint256"
        },
        {
          "internalType": "uint256",
          "name": "endTime",
          "type": "uint256"
        },
        {
          "internalType": "bool",
          "name": "executed",
          "type": "bool"
        },
        {
          "internalType": "bool",
          "name": "canceled",
          "type": "bool"
        },
        {
          "internalType": "uint256",
          "name": "forVotes",
          "type": "uint256"
        },
        {
          "internalType": "uint256",
          "name": "againstVotes",
          "type": "uint256"
        }
      ],
      "stateMutability": "view",
      "type": "function"
    },
    {
      "inputs": [
        {
          "internalType": "bytes32",
          "name": "_proposalId",
          "type": "bytes32"
        }
      ],
      "name": "cancelBallot",
      "outputs": [],
      "stateMutability": "nonpayable",
      "type": "function"
    },
    {
      "inputs": [
        {
          "internalType": "bytes32",
          "name": "_proposalId",
          "type": "bytes32"
        },
        {
          "internalType": "bool",
          "name": "_support",
          "type": "bool"
        },
        {
          "internalType": "string",
          "name": "_justification",
          "type": "string"
        }
      ],
      "name": "castVote",
      "outputs": [],
      "stateMutability": "nonpayable",
      "type": "function"
    },
    {
      "inputs": [
        {
          "internalType": "string",
          "name": "_title",
          "type": "string"
        },
        {
          "internalType": "string",
          "name": "_description",
          "type": "string"
        },
        {
          "internalType": "uint256",
          "name": "_duration",
          "type": "uint256"
        },
        {
          "components": [
            {
              "internalType": "enum IUHCIdentity.IdentityType",
              "name": "stakeholderType",
              "type": "uint8"
            },
            {
              "internalType": "uint256",
              "name": "weight",
              "type": "uint256"
            }
          ],
          "internalType": "struct StakeholderVoting.WeightConfig[]",
          "name": "_customWeights",
          "type": "tuple[]"
        }
      ],
      "name": "createBallot",
      "outputs": [
        {
          "internalType": "bytes32",
          "name": "",
          "type": "bytes32"
        }
      ],
      "stateMutability": "nonpayable",
      "type": "function"
    },
    {
      "inputs": [
        {
          "internalType": "enum IUHCIdentity.IdentityType",
          "name": "",
          "type": "uint8"
        }
      ],
      "name": "defaultStakeholderWeights",
      "outputs": [
        {
          "internalType": "uint256",
          "name": "",
          "type": "uint256"
        }
      ],
      "stateMutability": "view",
      "type": "function"
    },
    {
      "inputs": [
        {
          "internalType": "bytes32",
          "name": "_proposalId",
          "type": "bytes32"
        }
      ],
      "name": "executeBallot",
      "outputs": [],
      "stateMutability": "nonpayable",
      "type": "function"
    },
    {
      "inputs": [
        {
          "internalType": "bytes32",
          "name": "_proposalId",
          "type": "bytes32"
        }
      ],
      "name": "getBallotResults",
      "outputs": [
        {
          "internalType": "uint256",
          "name": "forVotes",
          "type": "uint256"
        },
        {
          "internalType": "uint256",
          "name": "againstVotes",
          "type": "uint256"
        },
        {
          "internalType": "bool",
          "name": "executed",
          "type": "bool"
        },
        {
          "internalType": "bool",
          "name": "canceled",
          "type": "bool"
        }
      ],
      "stateMutability": "view",
      "type": "function"
    },
    {
      "inputs": [
        {
          "internalType": "bytes32",
          "name": "_proposalId",
          "type": "bytes32"
        }
      ],
      "name": "getBallotStatus",
      "outputs": [
        {
          "internalType": "bool",
          "name": "active",
          "type": "bool"
        },
        {
          "internalType": "bool",
          "name": "canVote",
          "type": "bool"
        },
        {
          "internalType": "bool",
          "name": "canExecute",
          "type": "bool"
        }
      ],
      "stateMutability": "view",
      "type": "function"
    },
    {
      "inputs": [
        {
          "internalType": "bytes32",
          "name": "role",
          "type": "bytes32"
        }
      ],
      "name": "getRoleAdmin",
      "outputs": [
        {
          "internalType": "bytes32",
          "name": "",
          "type": "bytes32"
        }
      ],
      "stateMutability": "view",
      "type": "function"
    },
    {
      "inputs": [
        {
          "internalType": "bytes32",
          "name": "_proposalId",
          "type": "bytes32"
        },
        {
          "internalType": "address",
          "name": "_voter",
          "type": "address"
        }
      ],
      "name": "getVoteInfo",
      "outputs": [
        {
          "components": [
            {
              "internalType": "bool",
              "name": "hasVoted",
              "type": "bool"
            },
            {
              "internalType": "bool",
              "name": "support",
              "type": "bool"
            },
            {
              "internalType": "uint256",
              "name": "weight",
              "type": "uint256"
            },
            {
              "internalType": "string",
              "name": "justification",
              "type": "string"
            }
          ],
          "internalType": "struct StakeholderVoting.Vote",
          "name": "",
          "type": "tuple"
        }
      ],
      "stateMutability": "view",
      "type": "function"
    },
    {
      "inputs": [
        {
          "internalType": "bytes32",
          "name": "role",
          "type": "bytes32"
        },
        {
          "internalType": "address",
          "name": "account",
          "type": "address"
        }
      ],
      "name": "grantRole",
      "outputs": [],
      "stateMutability": "nonpayable",
      "type": "function"
    },
    {
      "inputs": [
        {
          "internalType": "bytes32",
          "name": "role",
          "type": "bytes32"
        },
        {
          "internalType": "address",
          "name": "account",
          "type": "address"
        }
      ],
      "name": "hasRole",
      "outputs": [
        {
          "internalType": "bool",
          "name": "",
          "type": "bool"
        }
      ],
      "stateMutability": "view",
      "type": "function"
    },
    {
      "inputs": [],
      "name": "identityContract",
      "outputs": [
        {
          "internalType": "contract IUHCIdentity",
          "name": "",
          "type": "address"
        }
      ],
      "stateMutability": "view",
      "type": "function"
    },
    {
      "inputs": [],
      "name": "pause",
      "outputs": [],
      "stateMutability": "nonpayable",
      "type": "function"
    },
    {
      "inputs": [],
      "name": "paused",
      "outputs": [
        {
          "internalType": "bool",
          "name": "",
          "type": "bool"
        }
      ],
      "stateMutability": "view",
      "type": "function"
    },
    {
      "inputs": [
        {
          "internalType": "bytes32",
          "name": "role",
          "type": "bytes32"
        },
        {
          "internalType": "address",
          "name": "account",
          "type": "address"
        }
      ],
      "name": "renounceRole",
      "outputs": [],
      "stateMutability": "nonpayable",
      "type": "function"
    },
    {
      "inputs": [
        {
          "internalType": "bytes32",
          "name": "role",
          "type": "bytes32"
        },
        {
          "internalType": "address",
          "name": "account",
          "type": "address"
        }
      ],
      "name": "revokeRole",
      "outputs": [],
      "stateMutability": "nonpayable",
      "type": "function"
    },
    {
      "inputs": [
        {
          "internalType": "bytes4",
          "name": "interfaceId",
          "type": "bytes4"
        }
      ],
      "name": "supportsInterface",
      "outputs": [
        {
          "internalType": "bool",
          "name": "",
          "type": "bool"
        }
      ],
      "stateMutability": "view",
      "type": "function"
    },
    {
      "inputs": [],
      "name": "unpause",
      "outputs": [],
      "stateMutability": "nonpayable",
      "type": "function"
    },
    {
      "inputs": [
        {
          "internalType": "enum IUHCIdentity.IdentityType",
          "name": "_stakeholderType",
          "type": "uint8"
        },
        {
          "internalType": "uint256",
          "name": "_weight",
          "type": "uint256"
        }
      ],
      "name": "updateStakeholderWeight",
      "outputs": [],
      "stateMutability": "nonpayable",
      "type": "function"
    }
  ],
  "bytecode": "0x60806040523480156200001157600080fd5b50604051620020fd380380620020fd8339810160408190526200003491620001fa565b600180546001600160a81b0319166101006001600160a01b038416021790556200006060003362000159565b6200008c7fa49807205ce4d355092ef5a8a18f56e8913cf4a201fbe287825b095693c217753362000159565b620000b87f16eddbf49e667649ad877da8a74a8acb69341569065c0bdce8a2c879677ece733362000159565b506003602081905260017f3617319a054d772f909f7c479a2cebe5066e836a939412e32403c99029b92eff5560027fa15bc60c955c405d20d9149c709e2460f1c2d9a497496a7f46004d1772c3054c8190557fc3a24b0501bd2c13a7e57f2db4369ec4c223447539fc0724a9d55ac4a06ebd4d5560008190527fcbc4e5fb02c3d1de23a9f1e014b4d2ee5aeaea9505df5e855c9210bf472495af556200022c565b6000828152602081815260408083206001600160a01b038516845290915290205460ff16620001f6576000828152602081815260408083206001600160a01b03851684529091529020805460ff19166001179055620001b53390565b6001600160a01b0316816001600160a01b0316837f2f8788117e7eff1d82e926ec794901d17c78024a50270940304540a733656f0d60405160405180910390a45b5050565b6000602082840312156200020d57600080fd5b81516001600160a01b03811681146200022557600080fd5b9392505050565b611ec1806200023c6000396000f3fe608060405234801561001057600080fd5b506004361061014d5760003560e01c806375b238fc116100c3578063a217fddf1161007c578063a217fddf14610360578063d547741f14610368578063f351120d1461037b578063f605471d1461039b578063fbcc5438146103ae578063fd21b505146103c157600080fd5b806375b238fc146102e0578063766ee860146102f55780637dd0dd16146103085780638456cb591461033057806391d1485414610338578063a0b8c2521461034b57600080fd5b80632f2ff15d116101155780632f2ff15d1461025757806336568abe1461026a5780633f4ba83a1461027d5780635c975abb1461028557806364bed1551461029057806367031bae146102b057600080fd5b806301ffc9a714610152578063026e76dd1461017a57806321947248146101df57806322304c1b14610211578063248a9ca314610226575b600080fd5b61016561016036600461164e565b6103d4565b60405190151581526020015b60405180910390f35b6101b7610188366004611678565b600090815260026020526040902060078101546008820154600590920154909260ff8083169261010090041690565b6040805194855260208501939093529015159183019190915215156060820152608001610171565b6101f26101ed366004611678565b61040b565b6040805193151584529115156020840152151590820152606001610171565b61022461021f366004611678565b610499565b005b610249610234366004611678565b60009081526020819052604090206001015490565b604051908152602001610171565b6102246102653660046116a6565b6105bd565b6102246102783660046116a6565b6105e7565b610224610665565b60015460ff16610165565b6102a361029e3660046116a6565b610688565b6040516101719190611726565b6001546102c89061010090046001600160a01b031681565b6040516001600160a01b039091168152602001610171565b610249600080516020611e6c83398151915281565b610224610303366004611859565b6107a1565b61031b610316366004611678565b610b2a565b604051610171999897969594939291906118b2565b610224610c89565b6101656103463660046116a6565b610ca9565b610249600080516020611e4c83398151915281565b610249600081565b6102246103763660046116a6565b610cd2565b610249610389366004611922565b60036020526000908152604090205481565b6102246103a9366004611678565b610cf7565b6102496103bc36600461193f565b610dc1565b6102246103cf366004611a63565b611153565b60006001600160e01b03198216637965db0b60e01b148061040557506301ffc9a760e01b6001600160e01b03198316145b92915050565b600081815260026020526040812060058101548291829160ff1615801561043c57506005810154610100900460ff16155b935083801561044f575080600301544210155b801561045f575080600401544211155b92508380156104715750806004015442115b80156104905750610490600080516020611e4c83398151915233610ca9565b93959294505050565b600080516020611e4c8339815191526104b18161122f565b6104b9611239565b6000828152600260205260409020805483146104f05760405162461bcd60e51b81526004016104e790611a8f565b60405180910390fd5b600581015460ff1615801561050f57506005810154610100900460ff16155b61052b5760405162461bcd60e51b81526004016104e790611abe565b8060040154421161057e5760405162461bcd60e51b815260206004820152601760248201527f566f74696e6720706572696f64206e6f7420656e64656400000000000000000060448201526064016104e7565b60058101805460ff1916600117905560405183907f74bf23ef060746d6de0b700b0ea4da18b98e7cbdec35da46035ea89049d69a3190600090a2505050565b6000828152602081905260409020600101546105d88161122f565b6105e28383611281565b505050565b6001600160a01b03811633146106575760405162461bcd60e51b815260206004820152602f60248201527f416363657373436f6e74726f6c3a2063616e206f6e6c792072656e6f756e636560448201526e103937b632b9903337b91039b2b63360891b60648201526084016104e7565b6106618282611305565b5050565b600080516020611e6c83398151915261067d8161122f565b61068561136a565b50565b604080516080810182526000808252602082018190529181019190915260608082015260008381526002602081815260408084206001600160a01b03871685526006018252928390208351608081018552815460ff8082161515835261010090910416151592810192909252600181015493820193909352908201805491929160608401919061071790611ae9565b80601f016020809104026020016040519081016040528092919081815260200182805461074390611ae9565b80156107905780601f1061076557610100808354040283529160200191610790565b820191906000526020600020905b81548152906001019060200180831161077357829003601f168201915b505050505081525050905092915050565b6107a9611239565b60015460405163b9209e3360e01b81523360048201526101009091046001600160a01b03169063b9209e3390602401602060405180830381865afa1580156107f5573d6000803e3d6000fd5b505050506040513d601f19601f820116820180604052508101906108199190611b23565b61085a5760405162461bcd60e51b8152602060048201526012602482015271159bdd195c881b9bdd081d995c9a599a595960721b60448201526064016104e7565b6000838152600260205260409020805484146108885760405162461bcd60e51b81526004016104e790611a8f565b600581015460ff161580156108a757506005810154610100900460ff16155b6108c35760405162461bcd60e51b81526004016104e790611abe565b806003015442101580156108db575080600401544211155b61091f5760405162461bcd60e51b8152602060048201526015602482015274159bdd1a5b99c81c195c9a5bd9081a5b9d985b1a59605a1b60448201526064016104e7565b33600090815260068201602052604090205460ff16156109715760405162461bcd60e51b815260206004820152600d60248201526c105b1c9958591e481d9bdd1959609a1b60448201526064016104e7565b600154604051632fea7b8160e01b815233600482015260009161010090046001600160a01b031690632fea7b819060240160c060405180830381865afa1580156109bf573d6000803e3d6000fd5b505050506040513d601f19601f820116820180604052508101906109e39190611b40565b6040015190506000826009016000836003811115610a0357610a03611bd2565b6003811115610a1457610a14611bd2565b81526020808201929092526040908101600090812054825160808101845260018082528a1515828701908152828601848152606084018c815233875260068c019098529590942082518154955161ffff1990961690151561ff0019161761010095151595909502949094178455935193830193909355925192935090916002820190610aa09082611c36565b509050508415610ac95780836007016000828254610abe9190611d0c565b90915550610ae39050565b80836008016000828254610add9190611d0c565b90915550505b60408051861515815260208101839052339188917f9bc1d007e9f894b0900fab4b7e20029267e704c85851e5470c30a1e1b239e090910160405180910390a3505050505050565b60026020526000908152604090208054600182018054919291610b4c90611ae9565b80601f0160208091040260200160405190810160405280929190818152602001828054610b7890611ae9565b8015610bc55780601f10610b9a57610100808354040283529160200191610bc5565b820191906000526020600020905b815481529060010190602001808311610ba857829003601f168201915b505050505090806002018054610bda90611ae9565b80601f0160208091040260200160405190810160405280929190818152602001828054610c0690611ae9565b8015610c535780601f10610c2857610100808354040283529160200191610c53565b820191906000526020600020905b815481529060010190602001808311610c3657829003601f168201915b5050505060038301546004840154600585015460078601546008909601549495929491935060ff80821693610100909204169189565b600080516020611e6c833981519152610ca18161122f565b6106856113bc565b6000918252602082815260408084206001600160a01b0393909316845291905290205460ff1690565b600082815260208190526040902060010154610ced8161122f565b6105e28383611305565b600080516020611e4c833981519152610d0f8161122f565b610d17611239565b600082815260026020526040902080548314610d455760405162461bcd60e51b81526004016104e790611a8f565b600581015460ff16158015610d6457506005810154610100900460ff16155b610d805760405162461bcd60e51b81526004016104e790611abe565b60058101805461ff00191661010017905560405183907ffb7852d5b73dbced51c4a048b304c22ddebc9aaa3d01a98b946202813d1198a590600090a2505050565b6000600080516020611e4c833981519152610ddb8161122f565b610de3611239565b62015180841015610e2b5760405162461bcd60e51b8152602060048201526012602482015271111d5c985d1a5bdb881d1bdbc81cda1bdc9d60721b60448201526064016104e7565b62278d00841115610e725760405162461bcd60e51b81526020600482015260116024820152704475726174696f6e20746f6f206c6f6e6760781b60448201526064016104e7565b60008642604051602001610e87929190611d1f565b60408051601f19818403018152918152815160209283012060008181526002909352912081815590915060018101610ebf8982611c36565b5060028101610ece8882611c36565b504260038201819055610ee2908790611d0c565b600482015560005b6004811015610f93576000816003811115610f0757610f07611bd2565b9050600060036000836003811115610f2157610f21611bd2565b6003811115610f3257610f32611bd2565b815260200190815260200160002054905080846009016000846003811115610f5c57610f5c611bd2565b6003811115610f6d57610f6d611bd2565b815260208101919091526040016000205550819050610f8b81611d41565b915050610eea565b5060005b8551811015611103576004868281518110610fb457610fb4611d5a565b6020026020010151600001516003811115610fd157610fd1611bd2565b1061101e5760405162461bcd60e51b815260206004820152601860248201527f496e76616c6964207374616b65686f6c6465722074797065000000000000000060448201526064016104e7565b600086828151811061103257611032611d5a565b6020026020010151602001511161107c5760405162461bcd60e51b815260206004820152600e60248201526d125b9d985b1a59081dd95a59da1d60921b60448201526064016104e7565b85818151811061108e5761108e611d5a565b6020026020010151602001518260090160008884815181106110b2576110b2611d5a565b60200260200101516000015160038111156110cf576110cf611bd2565b60038111156110e0576110e0611bd2565b8152602081019190915260400160002055806110fb81611d41565b915050610f97565b50817f4ce4732387fca467c7aa9f471f87697c2a7482a30cd6ef317038d48420e12a9e898360030154846004015460405161114093929190611d70565b60405180910390a2509695505050505050565b600080516020611e6c83398151915261116b8161122f565b600082116111ac5760405162461bcd60e51b815260206004820152600e60248201526d125b9d985b1a59081dd95a59da1d60921b60448201526064016104e7565b81600360008560038111156111c3576111c3611bd2565b60038111156111d4576111d4611bd2565b81526020810191909152604001600020558260038111156111f7576111f7611bd2565b6040518381527f6cc28d01c55770a503e3f8408f88c5400c63ba9e26338365023be5db694689669060200160405180910390a2505050565b61068581336113f7565b60015460ff161561127f5760405162461bcd60e51b815260206004820152601060248201526f14185d5cd8589b194e881c185d5cd95960821b60448201526064016104e7565b565b61128b8282610ca9565b610661576000828152602081815260408083206001600160a01b03851684529091529020805460ff191660011790556112c13390565b6001600160a01b0316816001600160a01b0316837f2f8788117e7eff1d82e926ec794901d17c78024a50270940304540a733656f0d60405160405180910390a45050565b61130f8282610ca9565b15610661576000828152602081815260408083206001600160a01b0385168085529252808320805460ff1916905551339285917ff6391f5c32d9c69d2a47ea670b442974b53935d1edc7fd64eb21e047a839171b9190a45050565b611372611450565b6001805460ff191690557f5db9ee0a495bf2e6ff9c91a7834c1ba4fdd244a5e8aa4e537bd38aeae4b073aa335b6040516001600160a01b03909116815260200160405180910390a1565b6113c4611239565b6001805460ff1916811790557f62e78cea01bee320cd4e420270b5ea74000d11b0c9f74754ebdbfc544b05a2583361139f565b6114018282610ca9565b6106615761140e81611499565b6114198360206114ab565b60405160200161142a929190611d95565b60408051601f198184030181529082905262461bcd60e51b82526104e791600401611e0a565b60015460ff1661127f5760405162461bcd60e51b815260206004820152601460248201527314185d5cd8589b194e881b9bdd081c185d5cd95960621b60448201526064016104e7565b60606104056001600160a01b03831660145b606060006114ba836002611e1d565b6114c5906002611d0c565b67ffffffffffffffff8111156114dd576114dd611779565b6040519080825280601f01601f191660200182016040528015611507576020820181803683370190505b509050600360fc1b8160008151811061152257611522611d5a565b60200101906001600160f81b031916908160001a905350600f60fb1b8160018151811061155157611551611d5a565b60200101906001600160f81b031916908160001a9053506000611575846002611e1d565b611580906001611d0c565b90505b60018111156115f8576f181899199a1a9b1b9c1cb0b131b232b360811b85600f16601081106115b4576115b4611d5a565b1a60f81b8282815181106115ca576115ca611d5a565b60200101906001600160f81b031916908160001a90535060049490941c936115f181611e34565b9050611583565b5083156116475760405162461bcd60e51b815260206004820181905260248201527f537472696e67733a20686578206c656e67746820696e73756666696369656e7460448201526064016104e7565b9392505050565b60006020828403121561166057600080fd5b81356001600160e01b03198116811461164757600080fd5b60006020828403121561168a57600080fd5b5035919050565b6001600160a01b038116811461068557600080fd5b600080604083850312156116b957600080fd5b8235915060208301356116cb81611691565b809150509250929050565b60005b838110156116f15781810151838201526020016116d9565b50506000910152565b600081518084526117128160208601602086016116d6565b601f01601f19169290920160200192915050565b60208152815115156020820152602082015115156040820152604082015160608201526000606083015160808084015261176360a08401826116fa565b949350505050565b801515811461068557600080fd5b634e487b7160e01b600052604160045260246000fd5b6040805190810167ffffffffffffffff811182821017156117b2576117b2611779565b60405290565b604051601f8201601f1916810167ffffffffffffffff811182821017156117e1576117e1611779565b604052919050565b600082601f8301126117fa57600080fd5b813567ffffffffffffffff81111561181457611814611779565b611827601f8201601f19166020016117b8565b81815284602083860101111561183c57600080fd5b816020850160208301376000918101602001919091529392505050565b60008060006060848603121561186e57600080fd5b8335925060208401356118808161176b565b9150604084013567ffffffffffffffff81111561189c57600080fd5b6118a8868287016117e9565b9150509250925092565b60006101208b83528060208401526118cc8184018c6116fa565b905082810360408401526118e0818b6116fa565b60608401999099525050608081019590955292151560a085015290151560c084015260e0830152610100909101529392505050565b6004811061068557600080fd5b60006020828403121561193457600080fd5b813561164781611915565b6000806000806080858703121561195557600080fd5b843567ffffffffffffffff8082111561196d57600080fd5b611979888389016117e9565b955060209150818701358181111561199057600080fd5b61199c89828a016117e9565b95505060408088013594506060880135828111156119b957600080fd5b8801601f81018a136119ca57600080fd5b8035838111156119dc576119dc611779565b6119ea858260051b016117b8565b818152858101945060069190911b82018501908b821115611a0a57600080fd5b918501915b81831015611a535783838d031215611a275760008081fd5b611a2f61178f565b8335611a3a81611915565b8152838701358782015285529385019391830191611a0f565b989b979a50959850505050505050565b60008060408385031215611a7657600080fd5b8235611a8181611915565b946020939093013593505050565b60208082526015908201527410985b1b1bdd08191bd95cc81b9bdd08195e1a5cdd605a1b604082015260600190565b60208082526011908201527042616c6c6f74206e6f742061637469766560781b604082015260600190565b600181811c90821680611afd57607f821691505b602082108103611b1d57634e487b7160e01b600052602260045260246000fd5b50919050565b600060208284031215611b3557600080fd5b81516116478161176b565b600060c08284031215611b5257600080fd5b60405160c0810181811067ffffffffffffffff82111715611b7557611b75611779565b6040528251611b8381611691565b8152602083810151908201526040830151611b9d81611915565b60408201526060830151611bb081611915565b60608201526080838101519082015260a0928301519281019290925250919050565b634e487b7160e01b600052602160045260246000fd5b601f8211156105e257600081815260208120601f850160051c81016020861015611c0f5750805b601f850160051c820191505b81811015611c2e57828155600101611c1b565b505050505050565b815167ffffffffffffffff811115611c5057611c50611779565b611c6481611c5e8454611ae9565b84611be8565b602080601f831160018114611c995760008415611c815750858301515b600019600386901b1c1916600185901b178555611c2e565b600085815260208120601f198616915b82811015611cc857888601518255948401946001909101908401611ca9565b5085821015611ce65787850151600019600388901b60f8161c191681555b5050505050600190811b01905550565b634e487b7160e01b600052601160045260246000fd5b8082018082111561040557610405611cf6565b60008351611d318184602088016116d6565b9190910191825250602001919050565b600060018201611d5357611d53611cf6565b5060010190565b634e487b7160e01b600052603260045260246000fd5b606081526000611d8360608301866116fa565b60208301949094525060400152919050565b7f416363657373436f6e74726f6c3a206163636f756e7420000000000000000000815260008351611dcd8160178501602088016116d6565b7001034b99036b4b9b9b4b733903937b6329607d1b6017918401918201528351611dfe8160288401602088016116d6565b01602801949350505050565b60208152600061164760208301846116fa565b808202811582820484141761040557610405611cf6565b600081611e4357611e43611cf6565b50600019019056fe16eddbf49e667649ad877da8a74a8acb69341569065c0bdce8a2c879677ece73a49807205ce4d355092ef5a8a18f56e8913cf4a201fbe287825b095693c21775a26469706673582212208e4c6bab9901a6bab1c2d1d56fddac3a1a155f15d13037a0e44d0e69068fd47c64736f6c63430008130033",
  "linkReferences": {},
  "deployedLinkReferences": {}
}